:020000040800F2
:100000000000082045120008791200087912000843
:100010007912000879120008791200080000000027
:10002000000000000000000000000000555600081D
:1000300079120008000000007912000865540008D9
:100040007912000879120008791200087912000864
:100050007912000879120008791200087912000854
:100060007912000879120008791200087912000844
:100070007912000879120008791200087912000834
:10008000791200087912000879120008C1030008EB
:10009000C503000879120008B503000879120008AA
:1000A0007912000879120008791200087912000804
:1000B00079120008791200087912000879120008F4
:1000C00079120008791200087912000879120008E4
:1000D00079120008791200087912000879120008D4
:1000E00079120008791200087912000879120008C4
:1000F00079120008791200087912000879120008B4
:1001000079120008791200087912000879120008A3
:100110007912000879120008791200087912000893
:10012000618100082D810008791200087912000809
:10013000C18100087912000879120008D50300086F
:10014000D903000879120008C903000879120008D1
:100150007981000891810008A981000879120008BE
:100160007912000879120008791200087912000843
:1001700079120008791200087912000800000000C6
:100180007912000879120008791200087912000823
:100190007912000879120008791200087912000813
:1001A0007912000879120008791200087912000803
:1001B00079120008791200087912000879120008F3
:1001C00079120008791200087912000879120008E3
:1001D00079120008791200087912000879120008D3
:1001E00079120008791200087912000879120008C3
:1001F000791200087912000810B5054C237833B93C
:10020000044B13B10448AFF300800123237010BDE9
:10021000F8810120000000000827010808B5034B01
:100220001BB103490348AFF3008008BD0000000084
:10023000FC81012008270108154B002B08BF134B38
:100240009D46A3F5803A00218B460F461348144A79
:10025000121A10F090F90F4B002B00D098470E4B5C
:10026000002B00D098470020002104000D000D480D
:10027000002802D00C48AFF3008010F087F820006F
:10028000290005F033F90FF07FFD00BF00000800E2
:10029000000008200000000021090008F8010020EB
:1002A000F4CB0320000000000000000043692DE9AA
:1002B000F0410D46394CD90720602CD58168DFF814
:1002C000E8E0826801EA0E01354F8368354E7145DA
:1002D00002EA070203EA060303D14FF0010EC0F859
:1002E00008E0BA4202D14FF480778760B34202D16E
:1002F0004FF4803686602C48814205D028498A42D6
:1003000002D0284A934206D1284B0121284A1B6873
:1003100052F8250098472368DA685B69920708D08D
:100320009F0706D5214B0021214A1B6852F8250062
:100330009847236899695A698E075B690AD59005C1
:1003400008D5190406D5194B0521194A1B6852F81E
:100350002500984722689769566917F00407526983
:1003600006F4806609D046B1120406D50F4B07216A
:100370000F4A1B6852F82500984723685B695FB1F4
:1003800056B11B0408D5094B0221094A1B6852F8D3
:100390002500BDE8F0411847BDE8F0811482012036
:1003A0000003000800000310030000045C82012029
:1003B0005482012000210148FFF778BF006400400B
:1003C000FFF7F8BFFFF7F6BF01210148FFF76EBF47
:1003D00000680040FFF7F8BFFFF7F6BF30B50C4CE0
:1003E000A268A4681346B4F1006F0CD1131F094C26
:1003F000094A53F8045F42F8045FA242F9D14FF072
:100400000053034A9360103043F8201030BD00BF02
:1004100000ED00E0C4010020FCFFFF1F00B58DB01F
:100420000A2800F28E80DFE800F00614202C384401
:10043000505C68748000454B45481A6B42F00102DD
:100440001A631B6B03F001030193019B0DB05DF870
:1004500004FB3E4B3F481A6B42F002021A631B6BCF
:1004600003F002030293029BF0E7384B3A481A6B01
:1004700042F004021A631B6B03F004030393039B13
:10048000E4E7324B35481A6B42F008021A631B6BE3
:1004900003F008030493049BD8E72C4B30481A6BF5
:1004A00042F010021A631B6B03F010030593059BC7
:1004B000CCE7264B2B481A6B42F020021A631B6BC9
:1004C00003F020030693069BC0E7204B26481A6BD7
:1004D00042F040021A631B6B03F040030793079B33
:1004E000B4E71A4B21481A6B42F080021A631B6B67
:1004F00003F080030893089BA8E7144B1C481A6B71
:1005000042F480721A631B6B03F480730993099B96
:100510009CE70E4B17481A6B42F400721A631B6B70
:1005200003F400730A930A9B90E7084B12481A6B76
:1005300042F480621A631B6B03F480630B930B9B82
:1005400084E70E480DF090FB00207FE70038024062
:10055000000002400004024000080240000C02407B
:10056000001002400014024000180240001C02402B
:10057000002002400024024000280240541D0108CF
:1005800070B5134C23681A69950707D5DA68900788
:1005900004D56FF002021A610DF0DEFA23681A69C1
:1005A000510713D5DA68520710D56FF00402094ECF
:1005B0001A615D6A3368EB1AB3F57A7F06D300F0EF
:1005C0006FFE236805F57A729A63356070BD00BFCF
:1005D000ECC401206082012030B589B0274C01A90C
:1005E00003A802F0E1F902F0AFF9254B01901A6C73
:1005F00042F008021A641A6C02F008020292029A8F
:100600001A6A42F008021A621A6A22F008021A6292
:10061000A3F50B33069A23604FF0FF33E360194BC9
:1006200052BB0025B0FBF3F001382561A560606086
:1006300012486561A56103F0D7F913493220FFF72D
:10064000CDFE4FF48022114B29460C485A6003F02E
:100650000BFA0421094803F007FA23680C4A2846DC
:10066000596A1160126802F57A729A63DA6842F088
:100670000402DA6009B030BD4000D2E7ECC40120CA
:100680000038024040420F008105000800E100E010
:100690006082012008B50DF0F9FA96200DF04BFBB1
:1006A00096200DF048FBF8E770B50D46A0B0044663
:1006B0000DF0ECFA2B4680212246684610F05EFED3
:1006C000051E03DC0DF00EFB20B070BD094B1B684E
:1006D00023B90A220921084800F0C0FB0024064E75
:1006E0001DF804100134304600F09AFDA542F7D100
:1006F000E8E700BF98830120A4C401200FB407B528
:1007000004A951F8040B0191FFF7CEFF03B05DF887
:1007100004EB04B0704708B503F01AFCBDE80840CC
:1007200000F0ACBD37B54FF47A74019003F03CFD96
:10073000054603F039FD019B401B63439842F8D303
:1007400003B030BD08B5084B1B685BB909210748E9
:100750000A2200F083FB4FF416510448BDE808401C
:1007600000F09EBC08BD00BF98830120A4C40120F6
:10077000022810B5044601DC002010BD0FF0FEFA7F
:100780000923033C00220360084B53F8240043F87C
:10079000242040B103681B699847041EECDA6442C8
:1007A0000FF0ECFA04604FF0FF3010BD64820120BE
:1007B000F8B505460E4614460FF0E0FA0923022D5F
:1007C00003600FDC124B1B680BB9FFF7BBFF35460C
:1007D0003719104EBD4215D015F8011B304600F0F8
:1007E0001FFDF7E7033D0C4B53F8250060B103688C
:1007F00022463146DB689847041E03DA0FF0BEFA42
:10080000634203602046F8BD4FF0FF34FAE700BFB3
:1008100098830120A4C401206482012070B504469D
:100820000D4616460FF0AAFA0923022C03600BDCD2
:100830000F4B1B680BB9FFF785FF01240D4800F033
:10084000D1FC2870204670BD033C0B4B53F82400AC
:1008500058B10368324629469B689847041EF1DA6E
:100860000FF08CFA63420360ECE74FF0FF34E9E7E6
:1008700098830120A4C401206482012010B504469D
:100880000FF07CFA0923022C036010DD033C0A4BB5
:1008900053F8240040B103689B699847041E08DAA6
:1008A00064420FF06BFA04604FF0FF3010BD01207E
:1008B00010BD002010BD00BF6482012070B5044649
:1008C0000D4616460FF05AFA0923022C03600BDD81
:1008D000033C084B53F8240040B1036832462946D4
:1008E000DB69BDE870401847002070BD4FF0FF3055
:1008F00070BD00BF64820120022808B504DC4FF4FB
:10090000005300204B6008BD0FF038FA0923036044
:100910004FF0FF3008BD08B501200FF035FA7047E1
:1009200008B5FFF7F8FEFFF7FAFF08BD0C4A136899
:1009300010B51844EFF30881884205D30C22094B07
:100940004FF0FF301A6010BD07490C6824B1074909
:10095000096821448842F1D21060184610BD00BFDA
:10096000FCCB0320F0CB03206C830120708301209B
:10097000074C054608B5236898680FF023FB2368E9
:10098000D8680FF01FFB0DB1FFF784FEFEE700BF34
:1009900020CE032001207047002110F007BA7047D5
:1009A000704708B5FFF7FBFF08BD08B5FFF7F8FF74
:1009B00008BD000010B50FF071FD044610B90248E3
:1009C0000DF052F9204610BDD01D010808B10FF0FE
:1009D0006DBD7047FFF7FABF034653F8042B10B5FF
:1009E000044602B9036022689A4204D0592203499E
:1009F00003480DF027F9206810BD00BF751D0108E0
:100A0000BC1D010810B504460948FFF7E5FF0023A7
:100A1000084A194652F82300A04208BF42F82310A2
:100A20000133402BF6D10248FFF7D6FF10BD00BFBF
:100A300064830120648201202DE9F743344907468D
:100A400010F0F9FA044628B9FFF77CFE204603B0FF
:100A5000BDE8F0832F49384610F0EDFA18B9FFF7DA
:100A600071FE0124F2E72C49384610F0E4FA18B977
:100A7000FFF768FE0224E9E7DFF8A8800FF07EF9AF
:100A800009230025C14603602448FFF7A5FF58F855
:100A9000256036B30135402DF9D10FF06FF91823D9
:100AA00003601E48FFF798FF2FE0394668460CF0B8
:100AB000BBFD68460CF0E6FD30B948F825000FF0A4
:100AC0005DF902230360C1E768460CF0CBFDD0B1AD
:100AD00068460CF0D0FD064613E049F82560EC1C92
:100AE000B4E74FF0FF340D4848F82540FFF774FF96
:100AF0003B783A2BD9D16A460949384610F02CFA8E
:100B0000009E002EE9D149F825604FF0FF349DE7A3
:100B1000F71D0108FE1D0108EF1D01086483012077
:100B2000061E01086482012030B5C36891FAA1F461
:100B3000B4FA84F491FAA1F10325B1FA81F16400C9
:100B4000490005FA04F402FA01F123EA0403194307
:100B5000C16030BD012A02D0022A18BF0022FFF76F
:100B6000E3BF00002DE9F0410E46411C044604D1CC
:100B70003E22454945480DF065F804F00F08444B06
:100B8000C4F3031006F0070753F82850FFF746FC9C
:100B90000446836895FAA5F1B1FA81F195FAA5F2B8
:100BA00003204900B2FA82F200FA01F1520023EA6E
:100BB0000103022101FA02F21343A36087425CD8C9
:100BC000DFE807F0601D021DB8F1070FC6F3032030
:100BD0003DD9626A2B0A93FAA3F1B1FA81F193FA33
:100BE000A3F34FF00F0EB3FA83F389009B000EFAC4
:100BF00001F100FA03F322EA0102134363623B4668
:100C0000226895FAA5F0B0FA80F095FAA5F14FF0B8
:100C1000030EB1FA81F14000013F49000EFA00F0E5
:100C2000012F03FA01F322EA000243EA02032360E0
:100C300005D8636832074CBF2B43AB436360C6F3F0
:100C4000011229462046BDE8F041FFF783BF226A22
:100C500095FAA5F3B3FA83F395FAA5F14FF00F0EC9
:100C6000B1FA81F19B0089000EFA03F322EA030234
:100C700000FA01F313432362C1E7642202490548E5
:100C80000CF0E0FF0023BBE7001F0108401F010834
:100C9000C01E0108EA250108431C70B506460D4632
:100CA00004D185221B491C480CF0CCFF06F00F0232
:100CB0001A4BC6F3031053F82240FFF7AFFB01684D
:100CC00004FB04F202EB42030B40B3FBF2F3013BE3
:100CD000012B05D8EB1E022B436809D82343436040
:100CE000032D08D101222146BDE87040FFF732BF35
:100CF00023EA04034360012DF4D0052D01D0022D19
:100D000001D10222EFE721460022BDE87040FFF743
:100D10000BBF00BF001F0108401F0108C01E0108D3
:100D20004309012200F01F00203302FA00F0044AB8
:100D300042F82300BFF34F8FBFF36F8F704700BFA0
:100D400000E100E04368702217495A4310B5046877
:100D50008B188C5082685A60C2689A600269DA60A7
:100D600042691A610022A3F852209A61DA61A3F85D
:100D70005020A3F85A20A3F85820B0F91A200132C5
:100D80000AD108225A61184603F061F858B10748A1
:100D9000BDE810400CF068BFB0F9182001320CBF5C
:100DA00004220C22EEE710BD9C830120531F010892
:100DB000F7B51B4F064657F8200000282DD07025A8
:100DC000184C75436359DA69520609D51B685906F0
:100DD00006D5154B01211B689847635940221A62BA
:100DE000702575436359DA6992060BD51B6898061E
:100DF00008D50D4B002157F826001B68984763590A
:100E00005B6A0193702070432358DA69110704D597
:100E10009A68D20701D508221A6203B0F0BD00BF5C
:100E2000788301209C830120748301200020FFF738
:100E3000BFBF0120FFF7BCBF0220FFF7B9BF0320EF
:100E4000FFF7B6BF0420FFF7B3BF0520FFF7B0BF21
:100E50000620FFF7ADBF0720FFF7AABFF0B50E468B
:100E6000154689B00446834930460CF0DBFE074640
:100E7000814928460CF0D6FE014638460CF0B4FEF7
:100E80002060013004D165227C497D480CF0DAFEF7
:100E900023687C4A7C4F934200F0B08021D8A2F5B1
:100EA0000062934200F0828002F58062934200F07B
:100EB0009180A2F5006293421DD1744B1A6A42F4EC
:100EC00000321A621A6A22F400321A621A6C42F470
:100ED00000321A641B6C03F400330193019B01235D
:100EE00062E06B4A934200F0B18031D8A2F5806293
:100EF000934200F097805F4930460CF057FE5E4900
:100F000028460CF053FE721C03D001213046FFF737
:100F1000C3FE6B1C03D001212846FFF7BDFE4FF432
:100F20001653268365832046A3600023E360236174
:100F30006361FFF707FF2368BB4207D10122554BCE
:100F4000214655481A6044220FF00AFB09B0F0BD53
:100F5000BB4216D0514A9342CDD14C4B5A6A42F013
:100F600020025A625A6A22F020025A625A6C42F0F7
:100F700020025A645B6C03F020030593059B052354
:100F800012E0424B5A6A42F010025A625A6A22F048
:100F900010025A625A6C42F010025A645B6C03F001
:100FA00010030093009B00236360A4E7374B1A6A89
:100FB00042F480221A621A6A22F480221A621A6C9F
:100FC00042F480221A641B6C03F480230293029B78
:100FD0000223E9E72D4B1A6A42F400221A621A6AC8
:100FE00022F400221A621A6C42F400221A641B6C6A
:100FF00003F400230393039B0323D5E7234B1A6ACF
:1010000042F480121A621A6A22F480121A621A6C6E
:1010100042F480121A641B6C03F480130493049B43
:101020000423C1E7194B1A6A42F080421A621A6A15
:1010300022F080421A621A6C42F080421A641B6CE1
:1010400003F080430693069B0623ADE70F4B1A6A15
:1010500042F000421A621A6A22F000421A621A6CC6
:1010600042F000421A641B6C03F000430793079B95
:10107000072399E76C1E01080C1E01086B1F01086D
:10108000BE1F01080050004000100140003802401F
:10109000007C004098830120A4C40120001401407A
:1010A0008160FFF74FBE0000034B19604168034B9E
:1010B00043F82120704700BF74830120788301200A
:1010C00070B5354B0E4621C8984243D00ED8A3F5D3
:1010D0000063984238D003F58063984237D0A3F577
:1010E000006398420AD12D49262416E02C4B9842E1
:1010F00036D006D8A3F5806398422ED000210C4646
:101100000BE0284B984206D003F580639842F5D156
:101110002549472401E025492524702324486B43B1
:1011200022B3C2581368F6B943F020031360204677
:10113000FFF754F90123620904F0170403FA04F4D9
:101140001C4B43F8224070BD1B492724E5E71B498F
:101150003424E2E71A493524DFE71A495224DCE750
:1011600019495324D9E743F04003DFE7C3581A680D
:1011700036B922F020021A601B681A0606D570BD27
:1011800022F040021A601B689B0604D42046BDE88A
:101190007040FFF7C5BD70BD00500040330E000821
:1011A000007C0040001001404B0E00082D0E00088E
:1011B0009C83012000E100E0390E00083F0E00088A
:1011C000450E0008510E0008570E000842687023B3
:1011D0005343034AD358D869C0F34010704700BF47
:1011E0009C83012010B5014644680846FFF7EEFFD6
:1011F0000028FAD07023034A6343D358586AC0F3D7
:10120000080010BD9C830120426870235343034AA9
:10121000D358D869C0F3C010704700BF9C83012029
:1012200038B5044645682046FFF7EEFF0028FAD09F
:101230007023034AC1F308016B43D358996238BD48
:101240009C830120DFF820D0002103E0074B5B588E
:10125000435004310648074B42189A42F6D302F035
:1012600053FFFEF7E9FF704700000820142701082C
:10127000F8CB0320FCCF0320FEE77047074A03208A
:1012800008B5136843F40073136000F017F80F20DB
:10129000FFF7A2F9FFF7F1FF002008BD003C024074
:1012A000024A136801331360704700BFE8C401208D
:1012B000014B1868704700BFE8C40120074A0002CC
:1012C000D36800F4E06023F4E0631B041B0C43F0DC
:1012D000BF6343F400330343D360704700ED00E085
:1012E000194B30B5DC68C4F30224C4F10703251D93
:1012F000042B28BF0423062D4FF001058CBF033CAF
:10130000002405FA03F3002803F1FF3301EA030187
:1013100001FA04F105FA04F404F1FF3402EA0402CC
:1013200042EA01024FEA021205DA00F00F00D2B2DF
:10133000064B1A5430BD00F16040D2B200F5614056
:1013400080F8002330BD00BF00ED00E014ED00E0A8
:101350004209012300F01F0003FA00F0014B43F89B
:101360002200704700E100E0426B036890F84C10E7
:101370003AB91A6842F400321A6001291CD10223DA
:101380001BE01A68032922F001021A601A6842F46D
:1013900000221A601A6842F001021A60EDD1826BD5
:1013A0001AB91A6842F002021A6090F84030012B14
:1013B0000CBF436C01238364042380F84C307047D6
:1013C00003681A6822F001021A60426B012A03D1F5
:1013D0001A6822F400221A601A6842F001021A60A8
:1013E00090F84C20042A10D1826B1AB91A6842F086
:1013F00002021A6090F84030012B0CBF436C0123AD
:101400008364032380F84C307047022A0CBF012309
:101410000323F7E7144B984217D02033984216D095
:101420002033984215D02033984214D0203398426C
:1014300013D02033984212D02033984211D0203359
:10144000984214BFFF2007207047002070470120FA
:101450007047022070470320704704207047052022
:1014600070470620704700BF0074014070470000BD
:1014700070B50446002800F08180414D0068FFF7F8
:10148000C9FF55F82030002B78D12046FFF7EEFF3A
:101490003C4B1A6801321A601B68012B20D13A4B71
:1014A0001A6822F080421A601A68A1680A431A601A
:1014B0001A6822F47F021A602279012A0BD14FF4B4
:1014C0007F0292FAA2F2B2FA82F1E2681868013A57
:1014D0008A4002431A602C4A136843F000431360A9
:1014E00020686169036823F471430360236902681B
:1014F0000B43A1690B43216A13430360036823F084
:101500000F030360E36902680B43134303608368BE
:1015100023F45F0383604FF4F81393FAA3F3B3FA51
:1015200083F2A36A8168013B9340626A0A431343D2
:101530008360436803F0070343606FF0FF0393FA8F
:10154000A3F3F822B3FA83F192FAA2F2E36AB2FAB1
:1015500082F246688B40216B01FA02F21343334357
:101560004360036843F080030360012384F8343050
:10157000FFF750FF45F82040002070BD012070BDEE
:101580001C8701203C870120007401407047000047
:1015900070B5044600286ED00268384B9A4205D1D7
:1015A0004068012868D0E068012865D00023012246
:1015B000204623636264A2642365FFF7E7FF236884
:1015C0001A6822F400221A60227A012A1A680CBFD3
:1015D00042F0005222F000521A60627A012A1A6820
:1015E0000CBF42F4001222F400121A601A68E66876
:1015F00022F4FE42022E22F008021A6003D11A6879
:1016000061690A431A60257C1A68012D1C490CBFC8
:1016100042F0100222F010021A60627C012A1A685D
:101620000CBF42F0200222F020021A605A6922F018
:10163000634202F0FF225A6191FAA1F1626AB1FAA3
:1016400081F05969013A0A43E1690A43216A013983
:10165000814000200A435A616268A6636263A269FE
:1016600084F84050E2631A6842F001021A600123D4
:1016700084F84C3070BD012070BD00BF0075014082
:101680000000FF0390F84C30013BDBB2FD2B10B59E
:1016900013D803680902012A1C6801F07F4124F075
:1016A000E06408BF41F4802124F480241C601C689D
:1016B000214319600263002010BD012010BD00000D
:1016C000F8B5134605460A4661B35BB30768396847
:1016D000890227D5416B51B9016B41B9816AC8694B
:1016E00008B9012B1ED1C969B1F5807F1AD095F8D0
:1016F0004C6006F0FD06012E14D1A86A0D490E4C6F
:10170000C1630E49C164C169B1F5807F07F11C0155
:1017100018BF0024046400F0F5F8044620B1FF234C
:1017200085F84C30012402E02846FFF71DFE2046D4
:10173000F8BD00BF6F17000879170008851700086B
:1017400090F84C30022B10B5044601D0042B07D181
:10175000A06A00F014F9014620B1FF2384F84C3050
:10176000012102E02046FFF72BFE084610BD08B518
:10177000806B05F039F908BD08B5806B05F004FBF6
:1017800008BD704708B5806B03230365FFF7F9FFB9
:1017900008BD000003681821DAB223F47F73103A01
:1017A00023F00303B2FBF1F20449032A895C88BFEA
:1017B0000433C1658365806D704700BFDA1F01087F
:1017C00070B50446FFF774FD0546002C72D0002367
:1017D000226884F83430022384F83530136823F00B
:1017E0000103136021680B68D8073BD40B68324DA6
:1017F00062681D40A368A0691343E268134322692D
:10180000134362691343E26903431343226A134398
:10181000626A042A43EA050301BF266BE56A354381
:101820002B43042A0B604B6923F0070343EA0203AE
:101830000AD1A26A134300BB012A2FD001D3022A86
:1018400002D1E26AD2012DD44B612046FFF7A2FFFC
:10185000E26D3F239340836000200123606584F89C
:10186000353070BDFFF724FD401B0528BAD9202371
:101870000320636584F8350070BDB0F5005F15D1B5
:10188000032AE1D801A050F822F000BFA5180008F3
:1018900043180008A51800089D180008E26AB2F174
:1018A000C07FD1D1402301206365E3E7022AF9D943
:1018B000032AC5E7012070BD3F8010E038B505461A
:1018C000F0B190F83540E4B2022C17D00368002440
:1018D0001A6822F001021A6021221C605C609C6080
:1018E000DC601C615A61FFF755FFEA6D3F239340AE
:1018F00083606C6585F8344085F83540204638BDF6
:10190000012038BD70B590F83440012C35D0012449
:10191000866D002580F8344090F83540012C4FF05A
:10192000020428D180F8354004684565256825F40F
:101930008025256063608368402B19D1A260E16037
:10194000C26D3F239340B360236843F016032360C6
:10195000636943F080036361036C1BB1236843F048
:10196000080323602368002043F00103236070BD57
:10197000A160E260E4E780F83450022070BD70B5E9
:101980000446856DFFF794FC064694F83530022B2B
:1019900006D0802301206365002384F8343070BDB5
:1019A00023681A6822F016021A605A6922F080022F
:1019B0005A61226C0AB9A26C1AB11A6822F00802A4
:1019C0001A601A6822F001021A602368186810F081
:1019D000010009D1E26D3F239340AB60012384F8FD
:1019E000340084F8353070BDFFF762FC801B052899
:1019F000EBD9202303206365002384F8350084F8A5
:101A0000343070BD0023F7B501930822594B0446CA
:101A1000856D1F68C36D2E689A4016420CD0016810
:101A20000868400708D5086820F004000860AA602C
:101A3000626D42F0010262654F4A9A40164208D038
:101A400021684969090604D5AA60626D42F0020264
:101A500062654A4A9A40164208D021680968880798
:101A600004D5AA60626D42F00402626510229A40B9
:101A7000164210D02368196809070CD5AA601A68A5
:101A8000500335D51B68190301D4236C00E0A36C07
:101A90000BB120469847E16D20228A40164238D08B
:101AA00023681868C60634D5AA6094F83520052A3C
:101AB0001A6825D122F016021A605A6922F08002B3
:101AC0005A61226C0AB9A26C1AB11A6822F0080293
:101AD0001A603F238B40AB60002384F8343001232D
:101AE00084F83530236D0BB12046984703B0F0BD24
:101AF0001A68D205C9D41A6822F008021A60C4E72D
:101B0000500328D51B68190332D4636C0BB12046EF
:101B10009847636D002BE9D0636DDA0719D505236B
:101B2000226884F83530136823F0010313604FF402
:101B30001653B7FBF3F7019B01339F42019302D386
:101B40001368DB07F7D4002384F83430012384F8CA
:101B50003530E36CC7E71A6812F4807208D119684F
:101B600021F010011960012384F8342084F8353005
:101B7000E36BCBE700CC0320010080000400800071
:101B80002DE9F04F0B6885B0DFF8C0810193002389
:101B90006C4ADFF8BC914FF0010E019C0EFA03FE77
:101BA0000EEA0406B64540F0B3804C6824F01007F6
:101BB000022F16D14FEAD30A03F0070B4FF00F0C98
:101BC00000EB8A0A4FEA8B0BDAF820500CFA0BFC78
:101BD00025EA0C0C0D6905FA0BF545EA0C05CAF867
:101BE00020504FEA430A0325D0F800B004F0030C5C
:101BF00005FA0AF5013F0CFA0AFCED43012F0BEA46
:101C0000050B4CEA0B0CC0F800C011D8876807EA36
:101C1000050BCF6807FA0AFC4CEA0B078760476898
:101C200027EA0E0EC4F300179F4047EA0E074760ED
:101C3000C7683D408F6807FA0AF73D43C560E50075
:101C400066D5D8F8445023F0030703F0030E4FF095
:101C50000F0C45F4804507F180474FEA8E0EC8F817
:101C6000445007F59C37D8F8445005F48045039557
:101C7000039D0CFA0EF5D7F808A02AEA050C324DA0
:101C8000A8424CD005F58065A8424AD005F580658C
:101C9000A84248D005F58065A84246D005F5806584
:101CA000A84244D0484544D005F50065A84242D03A
:101CB00005F58065A84240D005F58065A8423ED074
:101CC00005F58065A84214BF0A25092505FA0EF519
:101CD00014F4803F45EA0C05BD606FEA06071568FD
:101CE0000CBF3D40354314F4003F156055680CBFF0
:101CF0003D40354314F4801F556095680CBF3D404E
:101D00003543A4029560D56854BF3D403543D56046
:101D10000133102B7FF43FAF05B0BDE8F08F0025F5
:101D2000D4E70125D2E70225D0E70325CEE7042535
:101D3000CCE70525CAE70625C8E70725C6E7082535
:101D4000C4E700BF003C01400000024000380240F0
:101D50000014024003689A69910701D500229A6233
:101D60009A69D20703D49A6942F001029A617047D6
:101D700030B50568C1F30901039C6868234320F06E
:101D80007F70194320F4593041EA024120F47F70FA
:101D900020F003000143696030BD2DE9F041069F4A
:101DA0000446884616461D462268936938EA0303AE
:101DB0000CBF01230023B34202D00020BDE8F08114
:101DC0006B1CF2D055B92023032084F84130002346
:101DD00084F8423084F84030BDE8F081FFF768FABB
:101DE000C01B8542E0D2EEE7036870B504469869EF
:101DF0000D46164610F0100012D170BD691C10D0AF
:101E00004DB92023032084F84130002384F8423068
:101E100084F8403070BDFFF74BFA801B8542F0D349
:101E2000236899698A06E9D5102220252046DA61BF
:101E3000DD61FFF78FFF22680120536823F0FF73F5
:101E400023F48B3323F4FF7323F001035360042343
:101E50006364002384F8415084F8403084F84230B1
:101E600070BD70B504460D46164623689B699B07F6
:101E700001D5002070BD324629462046FFF7B4FF49
:101E8000B0B96A1CF1D06DB9636C032043F0200334
:101E90006364202384F84130002384F8423084F8BE
:101EA000403070BDFFF704FA801B8542DDD2EBE7BE
:101EB000012070BDF7B51F464FF400530446099E3C
:101EC000009315464FF08073FAB2FFF751FF324688
:101ED00008992046FFF7C5FF28B1636C042B10D189
:101EE000012003B0F0BD012F23680CD1EDB2002218
:101EF000802120469D62089B0096FFF74EFF002838
:101F0000EFD00320EDE72A0A089920469A6232466C
:101F1000FFF7A7FF0028E0D12368E7E7F7B51F46E2
:101F20004FF400530446099E009315460023FAB26D
:101F3000FFF71EFF324608992046FFF792FF28B1AF
:101F4000636C042B10D1012003B0F0BD012F236876
:101F50000CD1EDB20022402120469D62089B0096E4
:101F6000FFF71BFF0028EFD00320EDE72A0A0899AE
:101F700020469A623246FFF774FF0028E0D12368BA
:101F8000E7E770B504460D46164623689B699B0635
:101F900001D5002070BD324629462046FFF724FFB8
:101FA000A0B96DB9636C032043F020036364202360
:101FB00084F84130002384F8423084F8403070BD0A
:101FC000FFF776F9801B8542DFD2EBE7012070BD79
:101FD000704710B5044600284AD090F8413003F00D
:101FE000FF021BB980F84020FFF7F2FF2423E168CD
:101FF00084F84130012923681A6822F001021A602E
:10200000626822F070621A619A6822F400429A6053
:10201000A26824D142F400429A605A6800206169A3
:1020200042F0007242F400425A60DA6822F4004240
:10203000DA6022690A43A16942EA0122216ADA6070
:10204000E2690A431A601A6842F001021A6020230A
:10205000606484F84130206384F8420010BD42F48B
:10206000044202299A60D8D14FF400625A60D4E742
:10207000012010BD704710B5044698B102682423B2
:1020800080F84130136823F001031360FFF7F2FF7B
:102090000020606484F8400084F84100206384F8E4
:1020A000420010BD012010BD2DE9F04F9B4690F875
:1020B000413085B00446202B0F460392BDF83CA06A
:1020C000DDF8409040F0A6800E9B1BB9012005B0C2
:1020D000BDE8F08FBAF1000FF8D090F84030012B36
:1020E00000F09880012580F84050FFF7E1F81923AF
:1020F000009006462A464FF400412046FFF74DFE69
:102100008046D0B9212360630196394684F8413076
:102110004023CDF8009084F842300E9B6064204646
:1021200063625B46A4F82AA0039AFFF7C3FE30B1AE
:10213000636C84F84080042BC8D00320C7E7638D0C
:102140009BB2FF2B10D9FF224FF0807300902285A5
:1021500039462046FFF70CFE324649462046FFF737
:1021600080FE48B1636CE6E7628D4FF0007300902B
:1021700092B22285D2B2EBE7636A2268591C61628F
:102180001B789362228D638D013A013B92B29BB220
:1021900022856385BAB9638D9BB2A3B100964B4685
:1021A00080212046FFF7F9FD0028C6D1638D9BB240
:1021B000FF2B27D9FF224FF08073009022853946EC
:1021C0002046FFF7D5FD638D9BB2002BC4D132466C
:1021D00049462046FFF7D5FE0028C3D123682021B9
:1021E000D9615A6822F0FF7222F48B3222F4FF7216
:1021F00022F001025A6084F8411084F8400084F80B
:10220000420064E7628D4FF00073009092B2228525
:10221000D2B2D4E702205AE72DE9F04F9B4690F85E
:10222000413085B00446202B0F460392BDF83CA0F8
:10223000DDF8409040F0AC800E9B1BB9012005B04A
:10224000BDE8F08FBAF1000FF8D090F84030012BC4
:1022500000F09E80012580F84050FFF729F81923EF
:10226000009006462A464FF400412046FFF795FDB0
:102270008046D0B9222360630196394684F8413004
:102280004023CDF8009084F842300E9B60642046D5
:1022900063625B46A4F82AA0039AFFF73FFE30B1C1
:1022A000636C84F84080042BC8D00320C7E7638D9B
:1022B0009BB2FF2B46D94FF41053FF2200934FF0EF
:1022C0008073228539462046FFF752FD00964B4623
:1022D000002204212046FFF760FD0028E5D1636A53
:1022E0005A1C62622268526A1A70228D638D013A0A
:1022F000013B92B29BB222856385BAB9638D9BB2D2
:10230000A3B100964B4680212046FFF746FD0028EA
:10231000CBD1638D9BB2FF2B1ED9FF224FF0807370
:102320000090228539462046FFF722FD638D9BB23F
:10233000002BCBD1324649462046FFF722FE98B10A
:10234000636CB0E7628D4FF4105392B200934FF07C
:1023500000732285D2B2B5E7628D4FF00073009012
:1023600092B22285D2B2DDE723682021D9615A6872
:1023700022F0FF7222F48B3222F4FF7222F001026B
:102380005A6084F8411084F8400084F8420056E70F
:10239000022054E790F8410070470000194B37B510
:1023A0001A6C194C42F080521A641B6C03F0805373
:1023B0000193019B236843F480332360FEF778FF89
:1023C00005466368DA030CD5236843F400332360C1
:1023D000FEF76EFF0C4C054663689B030AD5002090
:1023E00006E0FEF765FF401BB0F57A7FE9D90320D0
:1023F00003B030BDFEF75CFF401BB0F57A7FEBD930
:10240000F5E700BF003802400070004003682DE986
:10241000F3410446D80710D42368990761D4236890
:10242000190700F1B08023685A0700F1D180A26932
:10243000002A40F03B81002015E09A4B9A6802F098
:102440000C02042A07D09A6802F00C02082A0DD167
:102450005B685A020AD5934B1B689B03DCD5636803
:10246000002BD9D1012002B0BDE8F08163688D4D09
:10247000B3F5803F11D12B6843F480332B60FEF716
:1024800017FF884D06462B689F03C5D4FEF710FF43
:10249000801BC828F7D90320E5E79BB92B6823F4F4
:1024A00080332B602B6823F480232B60FEF700FF22
:1024B00006462B689803AFD5FEF7FAFE801BC828A6
:1024C000F7D9E8E7B3F5A02F2B6803D143F48023B5
:1024D0002B60D0E723F480332B602B6823F4802318
:1024E000CCE7704B9A6812F00C0F07D09A6802F094
:1024F0000C02082A16D15B68590213D4694B1A687A
:10250000920702D5E268012AACD11868F82292FA43
:10251000A2F2B2FA82F122698A4020F0F8010A435D
:102520001A607CE7E3685F4DE3B12B6843F0010379
:102530002B60FEF7BDFE06462B689F070CD5296869
:10254000F82393FAA3F3B3FA83F22369934021F0BB
:10255000F80213432B6062E7FEF7AAFE801B0228F5
:10256000EAD998E72B6823F001032B60FEF7A0FE61
:1025700006462B6898077FF552AFFEF799FE801B41
:102580000228F6D987E76369464D83B16B6F43F044
:1025900001036B67FEF78CFE06466B6F9B073FF5EA
:1025A00042AFFEF785FE801B0228F6D973E76B6FFA
:1025B00023F001036B67FEF77BFE06466B6F9F07F8
:1025C0007FF531AFFEF774FE801B0228F6D962E773
:1025D000344B1A6CD00027D41A6C012642F080527A
:1025E0001A641B6C03F080530193019B2E4D2B68E2
:1025F000D9051BD5A3682B4D012B27D12B6F43F099
:1026000001032B6741F28835FEF752FE254F8046C5
:102610003B6F9B073FD5002E3FF409AF214A136C57
:1026200023F08053136402E70026DFE72B6843F4AE
:1026300080732B60FEF73CFE07462B68DA05D9D481
:10264000FEF736FEC01B6428F7D924E7ABB92B6F21
:1026500041F2883823F001032B672B6F23F004032A
:102660002B67FEF725FE07462B6F9807D3D5FEF79D
:102670001FFEC01B4045F7D90DE7052B2B6F03D17B
:1026800043F004032B67B9E723F001032B672B6F9B
:1026900023F00403B5E7FEF70BFEA0EB0800A84209
:1026A000B6D9F8E60038024000700040324DAB6801
:1026B00003F00C03082B3FF4D5AE2B68022A23F05D
:1026C00080732B604AD1FEF7F3FD06462B68990113
:1026D0003ED447F6C07797FAA7F74FF44032B7FADF
:1026E00087F792FAA2F24FF07060B2FA82F690FA8F
:1026F000A0F04FF0E041B0FA80F091FAA1F1226A27
:10270000B1FA81F1E3691343626A02FA07F7A26A38
:1027100052083B43013AB2401343E26A02FA00F026
:10272000226B154C034302FA01F10B436B602B68DB
:1027300043F080732B60FEF7BBFD054623689A01CA
:102740003FF579AEFEF7B4FD401B0228F6D9A2E6AC
:10275000FEF7AEFD801B0228B8D99CE6FEF7A8FD67
:1027600004462B689B017FF566AEFEF7A1FD001BBA
:102770000228F6D98FE600BF00380240194A936854
:1027800003F00C03042B10B503D0082B03D016481C
:1027900010BD164810BD516847F6C074536801F06B
:1027A0003F0113F4800F536894FAA4F0B0FA80F05C
:1027B00003EA04034FF4403223FA00F314BF0B483A
:1027C0000948B0FBF1F05843064B5B6892FAA2F25D
:1027D000B2FA82F203F44033D34001335B00B0FB22
:1027E000F3F010BD003802400024F40040787D0171
:1027F000514A136803F00F038B422DE9F041044660
:102800000D462FD32268960739D4D0073FD44A4AC1
:10281000136803F00F039D427BD32268510700F138
:102820008380130707D5454A2169936823F46043E1
:1028300043EAC1039360FFF7A1FF404BF0229B687E
:1028400092FAA2F2B2FA82F203F0F003D3403C4AC9
:10285000D35CD8403B4B18600F20FDF7BDFE002035
:10286000BDE8F081136823F00F030B431360136876
:1028700003F00F039942C5D00120BDE8F0812F4934
:10288000A0688B6823F0F00303438B60BDE76168A9
:102890002A4B01291A681DD112F4003FECD09A6826
:1028A00041F28838254F22F003020A439A60FEF76E
:1028B000FFFC63680646012B14D1BB6803F00C03D0
:1028C000042BA4D0FEF7F4FC801B4045F5D903206F
:1028D000BDE8F081022902D112F0007FDEE712F09C
:1028E000020FDBE7022B0FD1BB6803F00C03082BB0
:1028F0008DD0FEF7DDFC801B4045F5D9E7E7FEF7FC
:10290000D7FC801B4045E2D8BB6813F00C0FF6D112
:102910007DE7136823F00F032B431360136803F064
:102920000F039D42A8D178E70449E0688B6823F43F
:10293000E05303438B6074E7003C024000380240E0
:10294000F31F010800CC0320084B4FF4E0529B68B2
:1029500092FAA2F2B2FA82F203F4E053D340044AAC
:10296000D35C044A1068D840704700BF003802406A
:102970000320010800CC0320084B4FF460429B6801
:1029800092FAA2F2B2FA82F203F46043D340044A0C
:10299000D35C044A1068D840704700BF003802403A
:1029A0000320010800CC03200F2303600B4B9A681F
:1029B00002F0030242609A6802F0F00282609A68B4
:1029C00002F4E052C2609B68DB0803F4E053036149
:1029D000034B1B6803F00F030B6070470038024085
:1029E000003C024003682DE9F34713F0010604465A
:1029F0000BD0BB4A916821F400019160466B91684D
:102A00003143B6FA86F67609916013F4002512D0A8
:102A1000B349E56BD1F88C20B5F5801F22F4401244
:102A200008BF012642EA050216BFB5FA85F5002562
:102A30006D09C1F88C20DF0210D5A948216CD0F8AF
:102A40008C20B1F5800F22F4400242EA0102C0F866
:102A50008C2000F02582002908BF012513F0807F1B
:102A600018BF0126980631D59D4B9E4F1A6C42F037
:102A700080521A641B6C03F080530193019B3B68E6
:102A800043F480733B60FEF713FC80463B68D90536
:102A900040F10882924F3B6F13F4407340F00D8277
:102AA000236B03F44072B2F5407F8D4A40F02B82D5
:102AB000916823F0704021F4F81120F44070014334
:102AC0009160C3F30B03116F0B4313672368DF0699
:102AD0000CD5834AD2F88C1021F08071C2F88C108A
:102AE000D2F88C10A06B0143C2F88C10580408D5A2
:102AF0007B49606ED1F8902022F440320243C1F845
:102B00009020190408D57649A06ED1F8902022F4BF
:102B100040220243C1F89020DA0308D57049E06EE4
:102B2000D1F8902022F440120243C1F890209F0374
:102B300008D56B49206FD1F8902022F4400202435F
:102B4000C1F89020580608D56549606CD1F89020EE
:102B500022F003020243C1F89020190608D560490B
:102B6000A06CD1F8902022F00C020243C1F8902012
:102B7000DA0508D55A49E06CD1F8902022F03002ED
:102B80000243C1F890209F0508D55549206DD1F822
:102B9000902022F0C0020243C1F89020580508D5C9
:102BA0004F49606DD1F8902022F440720243C1F881
:102BB0009020190508D54A49A06DD1F8902022F43B
:102BC00040620243C1F89020DA0408D54449E06D20
:102BD000D1F8902022F440520243C1F890209F0483
:102BE00008D53F49206ED1F8902022F4404202439C
:102BF000C1F89020580208D53949A06FD1F890202B
:102C000022F080620243C1F8902099020CD534482A
:102C1000E16FD0F89020B1F1006F22F0006208BFA0
:102C200001250A43C0F8902013F0080F18BF0125B2
:102C30005A0308D52A49606FD1F8902022F04072DB
:102C40000243C1F890201F0209D52549D4F880001D
:102C5000D1F8902022F080520243C1F89020580110
:102C600009D51F49D4F88400D1F8902022F00052F1
:102C70000243C1F89020190109D51949D4F88800F8
:102C8000D1F88C2022F000720243C1F88C20DA00C7
:102C900009D51349D4F88C00D1F88C2022F0806239
:102CA0000243C1F88C20012E00F03481B3F1007F83
:102CB00000F03081012D40F0F180094D2B6823F0A8
:102CC00080532B60FEF7F4FA06462B689F0000F154
:102CD000408221680E0307D5E36B53B104E000BFC7
:102CE0000038024000700040CD0247D5236C002B15
:102CF00044D1874D4FF4403ED5F888009EFAAEFC93
:102D00004FF0E046BCFA8CFCD5F8882096FAA6F77E
:102D100047F6C073B7FA87F793FAA3F3B3FA83F9C8
:102D20009EFAAEFE4FF07068BEFA8EFE98FAA8F8D2
:102D3000B8FA88F896FAA6F6636900F4403002F013
:102D4000E042B6FA86F603FA09F9A36920FA0CF014
:102D5000FA4003FA08F800FA0EF0B24049EA080314
:102D600003431343C5F88830D5F88C30A26A23F4A6
:102D7000F853013A43EA0223C5F88C3088023ED565
:102D8000E36FB3F1006F3AD1614D4FF0706ED5F83B
:102D900088009EFAAEFC4FF0E046BCFA8CFCD5F8F9
:102DA000882096FAA6F747F6C073B7FA87F793FA22
:102DB000A3F34FF44038B3FA83F998FAA8F8B8FAB5
:102DC00088F89EFAAEFEBEFA8EFE96FAA6F6636903
:102DD00000F0706002F0E042B6FA86F603FA09F9F4
:102DE000236A20FA0CF0FA4003FA08F800FA0EF011
:102DF000B24049EA080303431343C5F888300A0781
:102E000040D543484FF07065D0F8882095FAA5F674
:102E10004FF4403EB6FA86F6D0F888109EFAAEF827
:102E200047F6C073B8FA88F893FAA3F3B3FA83F7B6
:102E30009EFAAEFEBEFA8EFE95FAA5F54FF0E04C76
:102E4000B5FA85F59CFAACFC6369BCFA8CFC01F41C
:102E5000403102F07062BB40E76921FA08F1F240AC
:102E600007FA0CF701FA0EF1AA403B430B43134358
:102E7000C0F88830D0F88C30E26A23F44033134332
:102E8000C0F88C30224C236843F080532360FEF757
:102E90000FFA054623689B0040F16281002009E09B
:102EA0000126DBE5FEF704FAA0EB080064287FF6B4
:102EB000EDAD032002B0BDE8F087226B02F4407252
:102EC00093423FF4EDAD3B6F3A6F23F4407342F40D
:102ED00080323A673A6F22F480323A673B673B6F41
:102EE000DA077FF5DDADFEF7E3F941F28839804678
:102EF0003B6F9B073FF5D4ADFEF7DAF9A0EB080076
:102F00004845F5D9D5E7916821F4F811D8E500BF17
:102F100000380240964E336823F080633360FEF73A
:102F2000C7F9074633681B0100F10C812268D707F7
:102F30003CD5636BD3BBD6F884004FF4403C9CFA7D
:102F4000ACF84FF07067B8FA88F8D6F8841097FAA2
:102F5000A7FE47F6C073BEFA8EFE93FAA3F3B3FA48
:102F600083FA9CFAACFCBCFA8CFC97FAA7F74FF0FA
:102F7000E049B7FA87F799FAA9F96368B9FA89F9C4
:102F800000F4403001F0706103FA0AFAA36820FAF5
:102F900008F021FA0EF103FA09F900FA0CF0B94031
:102FA0004AEA090303430B43C6F88430160303D5EA
:102FB000E36BB3F5801F05D0D00248D5236CB3F581
:102FC000800F44D16A4E4FF4403CD6F884009CFAFE
:102FD000ACF84FF0E047B8FA88F8D6F8841097FAC2
:102FE000A7FE47F6C073BEFA8EFE93FAA3F3B3FAB8
:102FF00083FA9CFAACFC4FF07069BCFA8CFC99FA2D
:10300000A9F9B9FA89F997FAA7F7636800F440308B
:1030100001F0E041B7FA87F703FA0AFAE36820FA09
:1030200008F021FA0EF103FA09F900FA0CF0B940A0
:103030004AEA090303430B43C6F88430D6F88C10E0
:10304000636A21F01F01013B0B43C6F88C30D101AC
:103050003BD5474E4FF0706CD6F884009CFAACF824
:103060004FF0E047B8FA88F8D6F8841097FAA7FE30
:1030700047F6C073BEFA8EFE93FAA3F34FF44039BD
:10308000B3FA83FA99FAA9F9B9FA89F99CFAACFC6E
:10309000BCFA8CFC97FAA7F7636800F0706001F047
:1030A000E041B7FA87F703FA0AFA236920FA08F031
:1030B00021FA0EF103FA09F900FA0CF0B9404AEAD4
:1030C000090303430B43C6F88430920128D547F621
:1030D000C07393FAA3F34FF44030B3FA83F690FA37
:1030E000A0F04FF07061B0FA80F091FAA1F14FF0CA
:1030F000E042B1FA81F192FAA2F26368B2FA82F286
:10310000B340266906FA00F00343E06800FA01F1D3
:103110000B43A16801FA02F21343154AC2F8843046
:10312000134E336843F080633360FEF7C1F80746FF
:1031300033681B013FF5BEADFEF7BAF8C01B64282B
:10314000F6D9B6E6FEF7B4F8C01B64287FF6EAAEFF
:10315000AFE6FEF7ADF8801B64287FF6B6ADA8E6B3
:10316000FEF7A6F8401B64287FF694AEA1E600BFE8
:10317000003802407D4B03607D4BF0B5D3F88420CE
:1031800047F6C07797FAA7F1B1FA81F13A40CA4001
:1031900042604FF44032D3F8841092FAA2F4B4FAA9
:1031A00084F41140E1404FF070640161D3F8841061
:1031B00094FAA4F5B5FA85F52140E940C1604FF0D5
:1031C000E041D3F8846091FAA1F5B5FA85F50E4097
:1031D000EE408660D3F8885097FAA7F6B6FA86F6DE
:1031E0003D40F5404561D3F8885092FAA2F6B6FA10
:1031F00086F61540F5400562D3F8885094FAA4F499
:1032000005F07065B4FA84F425FA04F48461D3F807
:10321000884091FAA1F104F0E044B1FA81F124FA76
:1032200001F11F24C161D3F88C1094FAA4F4B4FA0C
:1032300084F401F01F01E1404FF4F8544162D3F8E7
:103240008C1094FAA4F4B4FA84F401F4F851E14037
:103250008162D3F88C1092FAA2F201F44031B2FAF2
:1032600082F221FA02F2C262D3F88C2002F44012F8
:10327000C263D3F88C2002F4400202649A6802F41C
:1032800000024263D3F8902002F440324266D3F841
:10329000902002F440228266D3F8902002F440127B
:1032A000C266D3F8902002F440020267D3F890205F
:1032B00002F003024264D3F8902002F00C02826410
:1032C000D3F8902002F03002C264D3F8902002F0CC
:1032D000C0020265D3F8902002F440724265D3F830
:1032E000902002F440628265D3F8902002F44052AC
:1032F000C265D3F8902002F440420266D3F89020D1
:1033000002F040724267D3F8902002F08062826738
:10331000D3F8902002F00062C267D3F8902002F048
:103320008052C0F88020D3F8902002F00052C0F8FC
:103330008420D3F88C2002F00072C0F88820D3F8E3
:103340008C2002F08062C0F88C209A68196F02F419
:10335000F81201F440710A430263D3F88C3013F081
:10336000807318BF4FF080738363F0BDF1FFFF1CC3
:1033700000380240B0F5002F19D1334BD3F88C2020
:1033800002F44012B2F5801F43D002D81AB30020D5
:103390007047B2F5001F1CD0B2F5401FF7D15B6833
:1033A0002A4813F4800F2A4B08BF18467047B0F51F
:1033B000801FECD1244BD3F88C2002F44002B2F5EC
:1033C000800F26D0E2D9B2F5000F02D0B2F5400F3F
:1033D000E4E7204870475A68586852021A4A00F0D9
:1033E0003F0054BF1A4B194BD2F88810B3FBF0F3CF
:1033F000D2F88800C0F388105843C1F30363B0FBD0
:10340000F3F0D2F88C30C3F304230133B0FBF3F0B4
:1034100070475A68586853020B4A00F03F0054BF87
:103420000B4B0A4BD2F88410B3FBF0F3D2F88400B4
:10343000C0F388105843C1F30363B0FBF3F0D2F834
:103440008C3003F01F03E0E70038024040787D0134
:103450000024F4000080BB000129026B14BF01238B
:103460000923082A426805D122F00201012908BF78
:1034700043F01003023A012A94BF43F0600043F086
:10348000040070470E4B01681A6841F65833B2FBCE
:10349000F3F20B68920023F480330B6012F1FF32D9
:1034A00007D2D0F8803043F04003C0F880300320CA
:1034B00070470B6813F48033F0D11846704700BF93
:1034C00000CC03207047000070B50446002800F0CF
:1034D000C58090F87D3003F0FF021BB980F87C2096
:1034E000FFF7F0FF0223204684F87D30FFF7CAFF84
:1034F000E368012B00F0A180022B0CBF20230023E6
:10350000A268022A00F09D80032A00F09880012A18
:103510000CBF4FF480650025226851498A4203D0D0
:103520005048824240F090804F480360E36913B3F3
:103530008A4203D04B4B9A4240F088804FF40020DF
:10354000FFF718FF2368494A934202D02032934282
:1035500003D14FF48010FFF70DFF0A22E3695043B7
:103560005B02B0FBF3F0B0FBF2F302FB130009289F
:1035700008BF01332362636833F00202E26B67D154
:10358000012A14BF4FF400710021226838481668E0
:103590003040266B3343666B10603343A66B106874
:1035A0003343666A334326693343666933430343CF
:1035B000206A43EA0053A06A2B430B43136053680D
:1035C00023F4604323F00F035360A369516803435E
:1035D000E06A0343A06C0B435360264B91680B4099
:1035E0009360236D91680343E06C03430B43216CAC
:1035F00001390B43616C013943EA01239360D368BD
:1036000023F47D6323F00F031B041B0CD360636D55
:10361000D168A06D034300200B43216E43EA0143B0
:10362000E16D013943EA0123D3600123C4F880002E
:1036300084F87C0084F87D3070BD102360E743F08F
:1036400001034FF4006567E70B486EE7002079E758
:10365000012A14BF00214FF4007196E7012070BDCC
:10366000045801402458014000580140045C0140C6
:1036700010C005FF0080F8FF005C0140704738B5BE
:103680000546D0B1022300244FF0FF3280F87D3090
:1036900003681C619A61FFF7F5FE2A6828465368A3
:1036A00043F008035360FFF7E9FFC5F8804085F851
:1036B0007C40204685F87D4038BD012038BD90F81B
:1036C0007C30012B10B5044620D00268012380F81D
:1036D0007C301368C06E23F40033136058B9206F38
:1036E00078B92046FFF7CEFE0123002084F87D3014
:1036F00084F87C0010BDFEF742F90028EFD00120CD
:1037000010BDFEF73CF90028EBD0F8E7022010BD11
:10371000F8B50446134631B32BB390F87D60F6B28A
:10372000012E3AD190F87C00012836D000271222D1
:10373000E06EC4F8807084F87D20194A84F87C60BB
:103740006166A4F86830A4F86A300264154A076517
:10375000C263154AC26422681C32FEF7D3F80546DC
:1037600018B184F87C70012515E026683368DB0306
:1037700003D4336843F48033336000212046FFF7DD
:103780006BFE336918433061336843F400333360B0
:10379000002384F87C302846F8BD0225FBE700BFF3
:1037A0008138000849380008CD380008F8B51346BC
:1037B00004460A4631B32BB390F87D60F6B2012E71
:1037C0003AD190F87C10012936D00027222180F8C8
:1037D0007C60C0F88070426680F87D10A0F8683088
:1037E000A0F86A301549006F016415490765C16387
:1037F0001449C16421681C31FEF784F8054618B1EC
:1038000084F87C70012515E026683368DB0303D457
:10381000336843F48033336000212046FFF71CFEF9
:10382000336918433061336843F400333360002355
:1038300084F87C302846F8BD0225FBE7C338000831
:103840008B380008CD38000838B50368846B1968D8
:1038500011F4807110D125682046A4F86A102B68F5
:1038600023F400332B60FFF7F7FD2B6923EA0000F8
:103870000123286184F87D30204602F0D9FB38BD51
:1038800008B5806B02F0DEFB08BD38B50368846BB9
:10389000196811F4807110D1256820462B6823F433
:1038A00000332B60A4F86A10FFF7D6FD2B6923EADA
:1038B00000000123286184F87D30204603F03EFC9F
:1038C00038BD08B5806B03F02FFC08BD10B5846BC4
:1038D000D4F8803043F08003C4F88030E36E5B6D31
:1038E000012B03D0236F5B6D012B0DD12268204685
:1038F000136823F400331360FFF7C4FD012384F839
:103900007D300023A4F86A30204602F0A5FB10BDEC
:1039100090F87D0070477047304A0368904212D09B
:10392000B0F1804F0FD0A2F57C4290420BD002F54F
:103930008062904207D002F58062904203D002F587
:10394000784290421DD14A6823F070031343234A02
:10395000904204D123F44073CA68134328E0B0F1C5
:10396000804FF7D01E4A9042F4D002F58062904218
:10397000F0D002F580629042ECD002F5784290429D
:10398000E8D0184A9042E5D002F580629042E1D03A
:1039900002F580629042DDD0A2F598329042D9D0F3
:1039A00002F580629042D5D002F580629042D1D07B
:1039B0004A6923F08003134303608B68C3620B687A
:1039C0008362064B984206D003F58063984202D08A
:1039D0000123436170470B690363F9E7000001406D
:1039E000000400400040014010B50446A0B190F82A
:1039F0003D3003F0FF021BB980F83C20FFF78BFF3E
:103A000002232068211D84F83D30FFF785FF012344
:103A1000002084F83D3010BD012010BD10B50124F8
:103A2000036A8A408C4023EA04030362036A1A4350
:103A3000026210BD10B5044601220068FFF7EEFFD8
:103A40002368084A934203D002F58062934203D16F
:103A50005A6C42F400425A641A68002042F0010293
:103A60001A6010BD00000140FFF7E4BF70472DE968
:103A7000F041069D04460F46164698462168CA69DD
:103A800037EA02030CBF01220022B24202D000201A
:103A9000BDE8F0816B1CF2D09DB9236803201A6841
:103AA00022F4D0721A609A6822F001029A602023F0
:103AB00084F8693084F86A30002384F86830BDE8FF
:103AC000F081FDF7F5FBA0EB08008542D6D8E4E7CE
:103AD00038B504460568C3692169A26828680A43A5
:103AE00061690A4393491A430140206A0A43E16825
:103AF0002A606A6822F440520A436A60A269A9688F
:103B0000024321F430610A43AA608B4A954219D1DD
:103B100002F594328949D2F8902002F00302B3F5FD
:103B2000004F8A5C40F0B380082A00F2AD80DFE8E5
:103B300012F026007B00E900AB00F500AB00AB0003
:103B4000AB00FB007E4A954207D102F5FA327D496F
:103B5000D2F8902002F00C02E1E77B4A95422BD18B
:103B600002F5F832D2F8902002F03002102A00F06C
:103B7000D28016D8DAB9B3F5004F40F09F80FEF737
:103B8000E3FE61684A0802EB4003B3FBF1F39BB22A
:103B9000002023F00F02C3F3420321681343CB60DC
:103BA00038BD202A00F0AB80302A00F0BA80B3F58F
:103BB000004F69D0012038BD644A95420ED102F50C
:103BC000F632D2F8902002F0C002402A00F0A38022
:103BD000D0D9802A00F09380C02AE6E75C4A95425B
:103BE00010D102F5F432D2F8902002F44072B2F50E
:103BF000807F00F09080BDD9B2F5007F7FD0B2F514
:103C0000407FD2E7534A954217D102F59232D2F85B
:103C1000902002F44062B2F5806F7CD007D8002A71
:103C2000C5D1B3F5004F54D1FEF7A6FEA9E7B2F512
:103C3000006F64D0B2F5406FB7E7474A95420FD1A5
:103C400002F5E032D2F8902002F44052B2F5805FE3
:103C500061D08FD9B2F5005F51D0B2F5405FA4E7D3
:103C60003E4A9542A3D102F5DE32D2F8902002F40A
:103C70004042B2F5804F4ED07FF67CAFB2F5004F98
:103C80003DD0B2F5404F90E70120002381E7082A9C
:103C900090D801A353F822F0BD3C0008D33C0008A3
:103CA000D93C0008B53B0008EF3C0008B53B0008D4
:103CB000B53B0008B53B0008F53C0008FEF744FEA4
:103CC000636800EB5300B0FBF3F080B2E8600020C3
:103CD00038BDFEF751FEF3E76268530803F574033D
:103CE00003F51053B3FBF2F39BB2EB60EFE7FEF783
:103CF00045FDE5E76268530803F50043F2E7B3F5D5
:103D0000004FE9D16068430803F1F47303F5904371
:103D1000B3FBF0F33BE7B3F5004FE8D1FEF72EFD20
:103D20002FE7B3F5004FE5D16068430803F5803312
:103D3000EEE700BFF369FFEF00100140E21F01084A
:103D400000440040E61F010800480040004C0040CD
:103D5000005000400014014000780040007C00400A
:103D6000436ADA0710B506D50168846A4A6822F406
:103D7000003222434A609C0706D50168C46A4A683B
:103D800022F4803222434A60590706D50168046B49
:103D90004A6822F4802222434A601A0706D5016845
:103DA000446B4A6822F4004222434A60DC0606D58E
:103DB0000168846B8A6822F4805222438A609906E3
:103DC00006D50168C46B8A6822F4005222438A60D7
:103DD0005A0610D50168046C4A68B4F5801F22F4B5
:103DE000801242EA04024A6005D14A68446C22F417
:103DF000C00222434A601B0606D50268816C5368E4
:103E000023F400230B43536010BD37B5002504464F
:103E1000C566FDF74DFA226803461268120709D4F9
:103E20002023002084F8693084F8680084F86A3020
:103E300003B030BD6FF07E424FF400112046009277
:103E40002A46FFF714FE0028EAD00320F0E710B559
:103E5000044660B390F8693003F0FF021BB980F8A4
:103E60006820FFF703FE22682423204684F8693087
:103E7000136823F001031360FFF72AFE012816D010
:103E8000636A13B12046FFF76BFF236820465A6828
:103E900022F490425A609A6822F02A029A601A68C4
:103EA00042F00102BDE810401A60FFF7AEBF0120EA
:103EB00010BD0000BFF34F8FBFF36F8F064B002282
:103EC000C3F850225A6942F400325A61BFF34F8F4F
:103ED000BFF36F8F704700BF00ED00E01B4A002367
:103EE000F0B5C2F88430D2F88010C1F34E3401F03E
:103EF0000703C1F3C9010433B1FA81F000F01F00D8
:103F0000BFF34F8F4FF0FF3505FA03FE854004FAEB
:103F100003F301FA00F007460E46013E47EA030CA0
:103F20002F44B6F1FF3FC2F860C2F6D1013C7344A2
:103F3000661CF0D1BFF34F8F536943F48033536154
:103F4000BFF34F8FBFF36F8FF0BD00BF00ED00E0F8
:103F5000174A1849936803F00C03042B10B50DD0D1
:103F6000082B0DD0144B0B60114B144A9B68C3F304
:103F70000313D25C0B68D3400B6010BD104BF2E70B
:103F8000546850686302526800F03F0048BF0C4B11
:103F9000C2F3881258BF084BB3FBF0F35343044AF3
:103FA0005268C2F3014201325200B3FBF2F3DAE786
:103FB0000038024000CC03200024F400F31F010865
:103FC00040787D01294B1A6C42F0805270B51A641A
:103FD000B8B01B6C03F080530193019B012307933E
:103FE000B8B94FF4803308934FF48003022507A833
:103FF0000E9319230D950F934FF4D87311951093C9
:10400000092313951293FEF701FA28B1002038B066
:1040100070BD4FF4A023E6E7FEF7C0F90446002880
:10402000F4D14FF40013072614A814934FF0006343
:104030001A9633934FF4C073199303231C93FEF71E
:10404000D1FC88B90F230490314602A802934FF4A3
:10405000A053039505934FF480530693FEF7C8FBD6
:10406000B0FA80F04009D2E72046D0E7003802409D
:1040700010B594B00224FFF71DFFFFF72FFF1C4B74
:1040800007A81A6C42F080521A6400221B6C079435
:1040900003F0805308920D940193019B01230E922B
:1040A0000A93102311940B930F934FF4D873139426
:1040B000109309231293FEF7A9F910B1002014B050
:1040C00010BDFEF76BF90028F8D10F2304900721EB
:1040D00002A802934FF4A053039405934FF4805326
:1040E0000693FEF785FBB0FA80F04009E7E700BFD2
:1040F0000038024008B50020FFF764FF18B9FFF749
:10410000B7FF00B9FEE708BD194A0021D2F8883090
:1041100010B543F47003174CC2F88830236843F09D
:1041200001032360A160236823F0847323F48033A8
:104130002360114B6360236823F4802323604FF0D6
:104140000063E16093600D4B0D4A1A60FDF796F82D
:10415000FFF7B0FEFFF7C2FEFFF7CCFF236A43F084
:1041600008032362236A23F00803236210BD00BF03
:1041700000ED00E0003802401030002400CC0320A5
:104180000024F400054B186830B901221A60044A73
:10419000044B1A60FCF720BA704700BF408701202B
:1041A000000C0040ECC4012008B5044B1B680BB99F
:1041B000FFF7E8FF024B586A08BD00BF40870120A7
:1041C000000C0040044B054A13605863DA6842F063
:1041D0000202DA60704700BF000C0040ECC401200E
:1041E000034B044A1360DA6822F00202DA60704777
:1041F000000C0040ECC40120034B044A13606FF034
:1042000002021A61704700BF000C0040ECC401209C
:1042100090B58BB000AFC7E90201C7E90023D7E929
:10422000020101F047FB0346002B06D1D7E900014C
:1042300001F040FB0346002B05D06B4BD3E9003463
:10424000C7E90834C8E097ED027BB0EEC77B87ED85
:10425000067B97ED007BB0EEC77B87ED047BD7E94B
:10426000000101F001FB0346002B3FD097ED067BD8
:10427000B7EE006BB4EE467BF1EE10FA05D14FF0CD
:1042800000035A4CC7E90834A6E097ED067BB7EE69
:10429000006BB4EEC67BF1EE10FA13DD97ED007BF8
:1042A000B5EEC07BF1EE10FA05DD514BD3E90034D9
:1042B000C7E9083490E04FF000034FF00004C7E96D
:1042C000083489E097ED007BB5EEC07BF1EE10FA83
:1042D00006DD4FF000034FF00004C7E908347BE02F
:1042E000434BD3E90034C7E9083475E097ED047B0C
:1042F000B5EE407BF1EE10FA05D14FF000033B4CD8
:10430000C7E9083468E097ED047BB7EE006BB4EEC4
:10431000467BF1EE10FA14D197ED007BB5EEC07B31
:10432000F1EE10FA04DDD7E90234C7E9083453E0AE
:10433000B7EE005B97ED026B85EE067B87ED087BA1
:104340004AE097ED007BB0EE006BB4EE467BF1EEF9
:1043500010FA08D197ED026B97ED027B26EE077BF2
:1043600087ED087B38E097ED007BB6EE006BB4EE8E
:10437000467BF1EE10FA0DD197ED027BB5EEC07BD6
:10438000F1EE10FA06DBD7E9020109F0B1FFC7E947
:10439000080121E097ED027BB5EEC07BF1EE10FA4B
:1043A00012D5D7E9000109F027FD41EC160B97ED76
:1043B000007BB4EEC67BF1EE10FA05DD0A4BD3E9C3
:1043C0000034C7E9083407E0D7E90023D7E9020140
:1043D00009F02AFEC7E90801D7E908341846214642
:1043E0002C37BD4690BD00BF10C703200000F03F32
:1043F00008C7032080B582B000AF78607B685B6837
:10440000012B05D17B681B7A002B01D002F092FAB8
:1044100000BF0837BD4680BD80B582B000AF786070
:104420007868FFF7E7FF00BF0837BD4680BD80B55D
:1044300082B000AF78607B681B78002B05D17B6869
:1044400001221A707868FFF7E7FF00BF0837BD4602
:1044500080BD80B584B000AF78607B685B68012B5D
:1044600008D17B681B7A002B04D00223FB60F8681C
:1044700001F09CFD00BF1037BD4680BD80B582B005
:1044800000AF78607868FFF7E4FF00BF0837BD46EB
:1044900080BD80B582B000AF78607B681B78002B50
:1044A00005D17B6801221A707868FFF7E7FF00BF2B
:1044B0000837BD4680BD000090B52DED028B8BB056
:1044C00000AF00237B621DE07B6A5A00704944F212
:1044D000080313445B000B44B3F9063007EE903A2F
:1044E000B8EEE76B6B4B93ED007B26EE077B6A4AD9
:1044F0007B6A03F58053DB00134483ED007B7B6A0A
:1045000001337B627B6AB3F5805FDDDB614B93ED4A
:10451000046BB3EE045B86EE057B5F4A5F4B13448E
:1045200083ED007B5B4B93ED066BB3EE045B86EE95
:10453000057B594A5A4B134483ED007B554B93ED51
:10454000086BB3EE045B86EE057B534A554B134470
:1045500083ED007B4F4B93ED0A6BB3EE045B86EE6D
:10456000057B4D4A504B134483ED007B494B93ED43
:104570000C6BB3EE045B86EE057B474A4B4B134452
:1045800083ED007B434B93ED187B9FED3F6B27EE54
:10459000065B404B93ED026B85EE067B3E4A444B37
:1045A000134483ED007B3B4B93ED1A7B9FED366B01
:1045B00027EE065B374B93ED026B85EE067B364AA2
:1045C0003C4B134483ED007B324B93ED1C7B9FED02
:1045D0002E6B27EE065B2F4B93ED026B85EE067B71
:1045E0002D4A354B134483ED007B2A4B93ED1E7B04
:1045F0009FED256B27EE065B264B93ED026B85EE58
:10460000067B254A2D4B134483ED007B214B93ED14
:10461000207B9FED1D6B27EE065B1E4B93ED026B1F
:1046200085EE067B1C4A264B134483ED007B194B19
:10463000D3E90E121848234B0344C3E90012154B6B
:10464000D3E910121448204B0344C3E90012114B64
:10465000D3E9121210481D4B0344C3E900120D4B5D
:10466000D3E914120C481A4B0344C3E90012094B56
:10467000D3E916120848174B0344C3E9001200237C
:104680007B62C8E0AFF30080182D4454FB21194031
:1046900030C5012008CC0320988502207840010015
:1046A00080400100884001009040010098400100D6
:1046B000C8400100D0400100D8400100E0400100A6
:1046C000E8400100F0400100F84001000041010015
:1046D0000841010010410100B5497A6A42F6190308
:1046E0001344DB000B4493ED005BB1497A6A42F658
:1046F0001E031344DB000B4493ED006B85EE067B39
:1047000087ED067BAA497A6A42F60F031344DB0061
:104710000B44D3E900341A4623464FF00000A54964
:10472000FFF776FD03460C461846214609F0E0FDEA
:10473000C7E9020197ED067BB0EE006B87EE065BE2
:1047400051EC150B09F0DCFBC7E9000197ED066B96
:10475000B0EE005B86EE057B87ED067BD7E90601B0
:1047600009F0CEFBC7E9060197ED026B97ED007BE0
:1047700036EE475B97ED026B97ED067B36EE076BE7
:1047800085EE067B87ED027B894A7B6A03F5205321
:10479000DB001A444FF000034FF00004C2E900347C
:1047A00083497A6A42F614031344DB00CA18D7E936
:1047B0000234C2E900347E497A6A42F60F03134498
:1047C000DB00CA18D7E90634C2E9003497ED027B52
:1047D000B7EE006B37EE067BB1EE478B74497A6A11
:1047E00042F619031344DB000B44D3E900341846A6
:1047F000214609F0A5FA41EC170B28EE077B6C491E
:104800007A6A42F619031344DB000B4483ED007B04
:104810007B6A01337B627B6A042B7FF75DAF50229A
:10482000654966480BF09CFE00237B623DE0604AD0
:104830007B6A03F58053DB00134493ED006B5C4A05
:104840005F4B134493ED005B594A5E4B134493ED69
:10485000007B25EE077B36EE476B554A5A4B1344D7
:1048600093ED005B524A594B134493ED007B25EEC8
:10487000077B36EE477B4E4B03F5A03383ED007B81
:104880004B4A7B6A03F58053DB00134493ED006BC6
:10489000B0EE005B86EE057B454A7B6ADB00134485
:1048A00083ED007B7B6A01337B627B6AB3F5805FBB
:1048B000BDDB3F4A424B1344D3E900123C48424B14
:1048C0000344C3E900123A4B03F5A033D3E90012C5
:1048D00037483B4B0344C3E9001200237B6260E08E
:1048E0003B4BB3F9D83007EE903AB8EEE76B304A5D
:1048F0007B6ADB00134493ED007B26EE077B51ECD3
:10490000170B09F079FAC7E90601D7E9060100F0AB
:10491000D1FF0346002B06D1D7E9060100F0A4FF22
:104920000346002B06D04FF000034FF00004C7E908
:10493000063408E04FF00002264BD7E9060109F0E3
:104940001BFBC7E9060197ED067BB5EEC07BF1EED8
:1049500010FA0CD597ED067BB1EE477BFCEEC77BDA
:1049600017EE903A9BB25B429BB21BB207E097ED09
:10497000067BFCEEC77B17EE903A9BB21BB20C494C
:104980007A6A02F5004221F812307B6A03F58053FF
:10499000074A03F50043002122F813107B6A013314
:1049A0007B627B6AB3F5805F9ADB00237B6234E035
:1049B000988502200000244048850220C0C50320BD
:1049C00028400100C840010050400100A040010003
:1049D00008CC03200000F0407B6A5B007B61544AF6
:1049E0007B6A03F5004332F91310524A7B690433A2
:1049F0005B0013440A465A807B6901334C497A6A4A
:104A000002F5004231F912104A4A04335B001344A4
:104A10000A465A807B6A01337B627B6AB3F5005F8A
:104A2000DADB00237B6226E000237B611DE07A6AEB
:104A300013469B001A447B69D1187A6A13469B007F
:104A40001A447B69D0183A4A01F52053DB0013441D
:104A5000D3E90012374C41F603030344DB0023443F
:104A6000C3E900127B6901337B617B69042BDEDDC6
:104A70007B6A01337B627B6A012BD5DD012007F065
:104A8000EFF82D4BD3E908341A462346002007F0EF
:104A9000C1F8294B93ED0E7BBFEE006BB4EE467B65
:104AA000F1EE10FA1ED0244B93ED0E6B224B93EDDA
:104AB000087B36EE476B204B93ED087B9FED1A5B2E
:104AC00027EE057BB4EEC76BF1EE10FACCBF0123E5
:104AD0000023DBB283F00103DBB2002B02D0164BC4
:104AE000164A1A60144B93F84030002B02D0124B38
:104AF000124A1A60104B9A6A01329A629B6A07EE58
:104B0000903AB8EE676B0C4B93ED0C7B0A4B26EE9C
:104B1000077B83ED087B00BF2C37BD46BDEC028BC5
:104B200090BD00BFAFF30080000000000000B03C6B
:104B30009885022030C50120B0C60320102001084E
:104B400090B583B000AF082000F056FE564B4822C7
:104B5000002118460BF00FFD534A4FF00003534C51
:104B6000C2E90E34504A4EA4D4E90034C2E90C34F0
:104B70004D4B4F4A9A604C4B4E4ADA604A4B4E4A74
:104B80001A61494B4D4A5A61474B4D4A5A604C4B4A
:104B90004C4A1A604B4B4C4A1A604A4B4A4A5A607C
:104BA000484B494A9A60474B474ADA60454B464A68
:104BB0001A613D4A3C4B5B6818329A603A4A3A4B5C
:104BC0005B6808325A60384A374B5B682032DA60DB
:104BD0004CF2680200213D480BF0CDFC3B4A48F204
:104BE0000C03134401221A70384A48F2100313448C
:104BF00000221A60354A48F20C03134400221A704E
:104C0000324A48F21403134400221A702F4A48F221
:104C10001003134401221A604FF44073FB80F8889C
:104C2000022310224AF6444101F08AFD4FF48041EC
:104C3000274801F0F3FD254A48F2140313440122EA
:104C40001A70224B01221A70204B00225A601F4B0F
:104C500000221A701D4B00221A721C4B01225A604E
:104C60000223FB8005233B60FB884AF64442402137
:104C7000184601F00DF9386801F0BAF94FF48031A7
:104C8000144801F07DF9114B01221A725022124989
:104C900012480BF065FC00BF0C37BD4690BD00BF4D
:104CA00077F151C7F8C6B73FB0C603200000F0BF88
:104CB00016DED838A630404CE5D2E808588FB80246
:104CC00044870120588701202420010830C5012095
:104CD000464502203AC5012090CC03204885022099
:104CE00080B500AF0348FFF7A2FB0348FFF7D1FBF5
:104CF00000BF80BD3C45022030C5012080B483B098
:104D000000AF78607B6818460C37BD465DF8047BC1
:104D1000704780B483B000AF786039603B68184654
:104D20000C37BD465DF8047B704780B584B000AF9A
:104D3000F860B9607A60FB681B681C331B687A688E
:104D4000B968F8689847034618461037BD4680BDD5
:104D500080B582B000AF78607B681B6814331B6835
:104D600078689847034618460837BD4680BD80B529
:104D700082B000AF78607B681B6828331B68786856
:104D80009847034618460837BD4680BD90B583B0A6
:104D900000AF7860134A7B681A607B689033002B01
:104DA0000CD07B68903303F120047B6890339C42E5
:104DB00004D0103C204600F0E0F9F6E77B68383379
:104DC000184600F0C8F97B682833184600F0C3F98C
:104DD0007B680433184600F0B3F97B6818460C373B
:104DE000BD4690BD1C22010880B582B000AF78603E
:104DF0007868FFF7CBFF7868FBF7ECFD7B68184617
:104E00000837BD4680BD000080B582B000AF786035
:104E10000C4A7B681A600C4A7B68C3F8B4207B6834
:104E2000C8331846FFF76AFF7B68B433184608F0AA
:104E300025FD7B681846FFF7A9FF7B6818460837F1
:104E4000BD4680BDC8200108E8200108A0F1B400DB
:104E5000DAE700BF80B582B000AF78607868FFF70E
:104E6000D3FF7868FBF7B6FD7B6818460837BD4668
:104E700080BDA0F1B400EDE790B58DB002AFF86051
:104E80007B600B467B8113463B81F868B7F90820AD
:104E9000B7F90A104FF416530093002308F07EFC74
:104EA000214AFB681A60214AFB68C3F8B420B7F9AD
:104EB0000830B3F1FF3F29D0FC681D4B3B62002353
:104EC0007B6207F1100007F120030CCBF96800F0BA
:104ED0007CF907F1100300221946204608F006FE6F
:104EE00007F11003184600F048F97A68FB68C3F828
:104EF000D8207B681846FBF75DFD03461A46FB6821
:104F0000C3F8CC20F86800F07CF807E0FB680022CA
:104F1000C3F8D820FB680022C3F8CC2000BFFB6890
:104F200018462C37BD4690BD48200108682001086E
:104F30001B51000890B58BB000AF7860234A7B68A6
:104F40001A60234A7B68C3F8B4207C6807F1080321
:104F50000021184600F023F907F108030022194642
:104F6000204608F0C3FD07F10803184600F005F9D4
:104F70007C6807F118030021184600F010F907F1CA
:104F8000180301221946204608F0B0FD07F1180366
:104F9000184600F0F2F87B68D3F8CC30002B0AD02A
:104FA0007B68D3F8CC30002B05D07B68D3F8CC30AD
:104FB0001846FBF70BFD00BF7B681846FFF724FF80
:104FC0007B6818462C37BD4690BD00BF48200108BD
:104FD00068200108A0F1B400FFF7ACBF80B582B033
:104FE00000AF78607868FFF7A5FF7868FBF7F2FC00
:104FF0007B6818460837BD4680BDA0F1B400FFF7B6
:10500000EDBF80B483B000AF78607B680022C3F846
:10501000D0207B680022C3F8D4207B680022C3F82C
:10502000DC2000BF0C37BD465DF8047B704780B4C0
:1050300083B000AF78600B46FB707B68D3F8CC3050
:10504000002B1FD07B68D3F8D4207B68D3F8D830EE
:105050009A4203D37B680022C3F8D4207B68D3F83C
:10506000CC207B68D3F8D430581C7968C1F8D400C0
:105070001344FA781A707B68D3F8DC305A1C7B68CA
:10508000C3F8DC2000BF0C37BD465DF8047B7047D9
:1050900080B483B000AF78607B68D3F8CC30002B4D
:1050A0001FD07B68D3F8D0207B68D3F8D8309A42E1
:1050B00003D37B680022C3F8D0207B68D3F8DC30B0
:1050C0005A1E7B68C3F8DC207B68D3F8CC207B6851
:1050D000D3F8D030581C7968C1F8D00013441B783D
:1050E00000E0002318460C37BD465DF8047B70478E
:1050F00080B483B000AF78607B68D3F8D0207B6841
:10510000D3F8D4309A4214BF01230023DBB21846EF
:105110000C37BD465DF8047B704780B582B000AFA8
:1051200078607B684C331846FCF75CF80346DBB2CA
:1051300019467868FFF77BFF00BF0837BD4680BD82
:1051400080B483B000AF78607B6818460C37BD46EA
:105150005DF8047B704780B582B000AF78607B68F3
:10516000DB68002B04D07B68DB689B687868984715
:105170007B6818460837BD4680BD80B582B000AF59
:1051800078607B68DB68002B04D07B68DB689B68F9
:10519000786898477B6818460837BD4680BD80B55B
:1051A00082B000AF786039603B68002B03D17B6828
:1051B0000022DA6004E03B461946786800F018F8EF
:1051C0007B6818460837BD4680BD80B584B000AF07
:1051D000F860B960394681E80C003B460CCBB968F1
:1051E000F86800F01FF8F8681037BD4680BD000071
:1051F00080B582B000AF786039607B6819460420C2
:10520000FFF787FD0346002B02D03A6812681A6048
:105210007B68034ADA6000BF0837BD4680BD00BF27
:105220002820010880B588B000AFF860B960394621
:1052300081E80C0007F114003B460CCBB96800F084
:1052400034F807F114031946F86800F047F8FB68D2
:1052500018462037BD4680BD80B582B000AF78606B
:105260007B681B68984700BF0837BD4680BD80B586
:1052700082B000AF786039607B6819460420FFF780
:1052800048FD0346002B02D03A6812681A6000BF3E
:105290000837BD4680BD80B483B000AF786000BFE2
:1052A0000C37BD465DF8047B704780B485B000AF15
:1052B000F860B960394681E80C00FB681A463B4645
:1052C00093E8030082E80300FB68BA689A60FB6811
:1052D00018461437BD465DF8047B704780B582B030
:1052E00000AF786039607B6819460C20FFF711FD2C
:1052F0000346002B03D03A6807CA83E807007B689F
:10530000024ADA6000BF0837BD4680BD342001087C
:1053100080B582B000AF7860786800F023F800BFF5
:105320000837BD4680BD80B582B000AF7860396077
:105330007B6819460C20FFF7ECFC0346002B03D0DA
:105340003A6807CA83E8070000BF0837BD4680BD3A
:1053500080B483B000AF786000BF0C37BD465DF805
:10536000047B704780B582B000AF78607B689B6833
:105370007A685268521099187B685B6803F00103E1
:10538000002B0BD07B689B687A68526852101344DC
:105390001B687A68126813441B6801E07B681B680D
:1053A0000846984700BF0837BD4680BD80B483B02B
:1053B00000AF0346FB7197F90730002B0ADA0D4A5C
:1053C000FB7903F00F03043B13441B7EDBB21B0984
:1053D000DBB208E0084A97F90730134493F800332A
:1053E000DBB21B09DBB218460C37BD465DF8047B07
:1053F000704700BF00ED00E000E100E080B485B040
:1054000000AF78607B6801331B017B607B68FB60C9
:10541000FB6883F3118800BF1437BD465DF8047B39
:105420007047000080B500AFBFF34F8FBFF36F8FA1
:105430000A4B1A680A4B1B689A4202D3074B002298
:105440001A60064B1B685A1C04490A60002B03D1E2
:1054500072B600F025F862B600BF80BDFCC603201E
:10546000F8C60320EFF3008001B5EFF3118003B419
:105470004FF0FF30FFF79AFF03461846FFF7BEFFD5
:10548000014800F0CFF800BF2554000880B483B075
:1054900000AF786000BF0C37BD465DF8047B7047F5
:1054A00080B500AF0F4B1B785A1CD1B20D4A11705A
:1054B000002B09D00C4B01221A600A4B1B78013BD0
:1054C000DAB2084B1A700BE062B6FEF7F5FF72B65F
:1054D000044B1B78013BDAB2024B1A7006F0B9FBA1
:1054E00080BD00BF708701206C87012080B584B02B
:1054F00000AF0123FB71464BFB60464BBB6001DFF5
:1055000072B602F06BFD444B1B6800221A6000214A
:10551000002006F0F6FBFFF713FB62B63E4B1B685C
:105520003833184606F0E2FB012006F0A3FB002307
:10553000BB71394B1B685B68BA1D0121184606F028
:10554000F7FABB79002B04D0334B1B68012283F898
:10555000402006F0E1FB72B6F868FFF797FF2E4B8C
:105560001B681B68002B07D12B4B1B6893F840303E
:10557000002B01D1012300E00023DBB2FB7162B6F6
:1055800062B636E000237B71234B1B685B687A1D93
:105590000121184606F01EFB7B79002B04D01E4B20
:1055A0001B68012283F840201B4B1B681B68002BE3
:1055B00005D1194B1B6893F84030002B01D0012313
:1055C00000E00023DAB2154B1A70144B1B78DBB2E3
:1055D000002B0CBF01230023DBB2FB710F4B1B78A8
:1055E000DBB2002B05D00E4B1B680D4A23F00103E4
:1055F0001360FB79DBB2002BC4D1FFF771FB0120F4
:1056000006F04DFB72B6002318461037BD4680BD2C
:10561000C637BE3D000058430C20010871870120A9
:1056200010E000E01EF0100F08BFB0EE400A03B417
:1056300088B004A006904FF0807007907FF00600BD
:105640008646704703BC8047BFF36F8F00DFFEE7DD
:1056500000BF00BF1EF0100F08BFB0EE400A1EF0E2
:10566000040F0CBFEFF30880EFF30980816911F894
:10567000020C10B101280DD00BE01EF0100F0CBF72
:105680001AB008B003BC80F3118803BC80F3008813
:105690000847FEE74EF61451CEF200010A6842F0C8
:1056A00001020A607047F4E700BF00BF90B587B001
:1056B00000AF4023FB604FF000034FF00004C7E948
:1056C0000434FB68202B08D100F018F807EE900A8C
:1056D000B7EEE77A87ED047B07E0074B7B6000239A
:1056E0003B60D7E90034C7E90434D7E904341846ED
:1056F00021461C37BD4690BD0000F07F80B483B0CA
:1057000000AF4FF0FF437B607B6818460C37BD4607
:105710005DF8047B7047000090B587B000AF402370
:10572000FB604FF000034FF00004C7E90434FB684E
:10573000202B08D100F018F807EE900AB7EEE77AB0
:1057400087ED047B07E0074B7B6000233B60D7E9D4
:105750000034C7E90434D7E90434184621461C371D
:10576000BD4690BD0000F0FF80B483B000AF044B95
:105770007B607B6818460C37BD465DF8047B70473C
:10578000000080FF90B587B000AF4023FB604FF072
:1057900000034FF00004C7E90434FB68202B08D154
:1057A00000F018F807EE900AB7EEE77A87ED047B71
:1057B00007E0074B7B6000233B60D7E90034C7E973
:1057C0000434D7E90434184621461C37BD4690BD41
:1057D0000000F8FF80B483B000AF4FF000037B609F
:1057E000044B7B607B6818460C37BD465DF8047B34
:1057F000704700BF0000C0FF90B583B000AF786075
:10580000FFF7C0FF03460C46114AC2E90034FFF718
:10581000E1FF02460F4B1A60FFF748FF03460C46B4
:105820000D4AC2E90034FFF769FF02460B4B1A60CC
:10583000FFF772FF03460C46094AC2E90034FFF73E
:1058400093FF0246074B1A6000BF0C37BD4690BD60
:1058500010C7032000C7032008C7032004C7032084
:1058600018C7032020C7032080B483B000AFC7E966
:1058700000010E4B93ED007B97ED006BB4EE476B90
:10588000F1EE10FA09D00A4B93ED007B97ED006B17
:10589000B4EE476BF1EE10FA01D1012300E00023D2
:1058A00018460C37BD465DF8047B704708C70320D7
:1058B00018C7032090B587B000AFC7E900010023E7
:1058C000FB7540233B613B69202B0AD197ED007BA0
:1058D000F7EEC77B17EE900A00F020F80346FB7541
:1058E00015E0D7E90034C7E90234FA680A4B1340DF
:1058F000094A934209D1FB68C3F31303002B02D179
:10590000BB68002B01D0012300E00023FB75FB7D69
:1059100018461C37BD4690BD0000F07F80B485B0AE
:1059200000AF78607B68FB60FB6803F0FF43B3F176
:10593000FF4F06D1FB68C3F31603002B01D00123F0
:1059400000E00023DBB218461437BD465DF8047B47
:105950007047000080B584B000AF786039600023E4
:10596000FB604FF4E1310C4807F0E6FF0A48FFF70F
:10597000BFFB0346012B0CBF01230023DBB2002B2E
:1059800004D00548FFF784FB0346BB60FB6818465C
:105990001037BD4680BD00BF7487012080B586B03A
:1059A00000AFF860B9607A603B603B6800221A6023
:1059B00000237B617A697B689A420BD2BA687B6963
:1059C00013441B781946074807F06AFF7B690133C7
:1059D0007B61EFE73B687A681A6000231846183746
:1059E000BD4680BD2888012080B586B000AFF86034
:1059F000B9607A603B60BB687B613B6800221A60DB
:105A00001948FFF775FB0346002B0CBF0123002349
:105A1000DBB2002B01D0002321E03B681B687A68D1
:105A20009A421BD91048FFF763FB0346012B0CBFBA
:105A300001230023DBB2002BEFD00B48FFF728FB3C
:105A400003463B617B695A1C7A613A69D2B21A708B
:105A50003B681B685A1C3B681A60DEE70023184647
:105A60001837BD4680BD00BF7487012080B582B065
:105A700000AF78600348FFF75DFA00231846083747
:105A8000BD4680BD7487012080B582B000AF7860CC
:105A900039607B68012B10D13B684FF6FF7293424F
:105AA0000BD14FF480530A2209210648FFF7E4F98D
:105AB000054A06490348FAF76DFF00BF0837BD469F
:105AC00080BD00BF74870120F8CB0320354F00084C
:105AD00080B500AF4FF6FF710120FFF7D5FF80BD05
