:020000040800F2
:100000000000082095120008C9120008C912000853
:10001000C9120008C9120008C91200080000000037
:10002000000000000000000000000000F5B500081E
:10003000C912000800000000C912000889B50008B4
:10004000C9120008C9120008C9120008C912000824
:10005000C9120008C9120008C9120008C912000814
:10006000C9120008C9120008C9120008C912000804
:10007000C9120008C9120008C9120008C9120008F4
:10008000C9120008C9120008C91200082504000896
:1000900029040008C912000819040008C912000840
:1000A000C9120008C9120008C9120008C9120008C4
:1000B000C9120008C9120008C9120008C9120008B4
:1000C000C9120008C9120008C9120008C9120008A4
:1000D000C9120008C9120008C9120008C912000894
:1000E000C9120008C9120008C9120008C912000884
:1000F000C9120008C9120008C9120008C912000874
:10010000C9120008C9120008C9120008C912000863
:10011000C9120008C9120008C9120008C912000853
:100120000D430008D9420008C9120008C91200088E
:100130006D430008C9120008C912000839040008FC
:100140003D040008C91200082D040008C912000867
:10015000254300083D43000855430008C912000824
:10016000C9120008C9120008C9120008C912000803
:10017000C9120008C9120008C912000800000000D6
:10018000C9120008C9120008C9120008C9120008E3
:10019000C9120008C9120008C9120008C9120008D3
:1001A000C9120008C9120008C9120008C9120008C3
:1001B000C9120008C9120008C9120008C9120008B3
:1001C000C9120008C9120008C9120008C9120008A3
:1001D000C9120008C9120008C9120008C912000893
:1001E000C9120008C9120008C9120008C912000883
:1001F000C9120008C9120008044B05481B1A062B37
:1002000002D9044B03B11847704700BFFF9200208A
:10021000FC9200200000000005490648091A8910D8
:1002200001EBD171491002D0034B03B1184770475D
:10023000FC920020FC9200200000000010B5064C4B
:10024000237843B9FFF7D8FF044B13B10448AFF349
:1002500000800123237010BDF84100200000000041
:10026000FC0D010808B5084B1BB108490848AFF35D
:1002700000800848036813B9BDE80840CCE7064B86
:10028000002BF9D09847F7E700000000FC41002060
:10029000FC0D0108F892002000000000154B002B17
:1002A00008BF134B9D46A3F5803A00218B460F46AD
:1002B0001348144A121A0EF07EF90F4B002B00D08F
:1002C00098470E4B002B00D09847002000210400D7
:1002D0000D000D48002802D00C48AFF300800EF04E
:1002E00087F8200029000CF0B7FB0DF081FD00BF5E
:1002F0000000080000000820000000008509000838
:10030000F8010020409100200000000000000000E3
:1003100043692DE9F0410D46394CD90720602CD5B1
:100320008168DFF8E8E0826801EA0E01354F8368F2
:10033000354E714502EA070203EA060303D14FF086
:10034000010EC0F808E0BA4202D14FF4807787600E
:10035000B34202D14FF4803686602C48814205D0EA
:1003600028498A4202D0284A934206D1284B0121CB
:10037000284A1B6852F8250098472368DA685B69A9
:10038000920708D09F0706D5214B0021214A1B6800
:1003900052F825009847236899695A698E075B6966
:1003A0000AD5900508D5190406D5194B0521194A17
:1003B0001B6852F82500984722689769566917F01C
:1003C0000407526906F4806609D046B1120406D5C6
:1003D0000F4B07210F4A1B6852F8250098472368E6
:1003E0005B695FB156B11B0408D5094B0221094A6C
:1003F0001B6852F82500BDE8F0411847BDE8F081C0
:100400001442002000030008000003100300000451
:100410005C4200205442002000210148FFF778BFD1
:1004200000640040FFF7F8BFFFF7F6BF0121014865
:10043000FFF76EBF00680040FFF7F8BFFFF7F6BF99
:1004400030B50C4CA268A4681346B4F1006F0CD10F
:10045000131F094C094A53F8045F42F8045FA24293
:10046000F9D14FF00053034A9360103043F8201045
:1004700030BD00BF00ED00E0C4010020FCFFFF1F05
:1004800000B58DB00A2800F28E80DFE800F0061477
:10049000202C3844505C68748000454B45481A6BEA
:1004A00042F001021A631B6B03F001030193019BED
:1004B0000DB05DF804FB3E4B3F481A6B42F0020260
:1004C0001A631B6B03F002030293029BF0E7384BA5
:1004D0003A481A6B42F004021A631B6B03F00403E0
:1004E0000393039BE4E7324B35481A6B42F0080252
:1004F0001A631B6B03F008030493049BD8E72C4B8F
:1005000030481A6B42F010021A631B6B03F01003A1
:100510000593059BCCE7264B2B481A6B42F0200233
:100520001A631B6B03F020030693069BC0E7204B66
:1005300026481A6B42F040021A631B6B03F040031B
:100540000793079BB4E71A4B21481A6B42F08002CD
:100550001A631B6B03F080030893089BA8E7144BF6
:100560001C481A6B42F480721A631B6B03F480738D
:100570000993099B9CE70E4B17481A6B42F40072D3
:100580001A631B6B03F400730A930A9B90E7084BF2
:1005900012481A6B42F480621A631B6B03F4806387
:1005A0000B930B9B84E70E480CF006FE00207FE7C0
:1005B00000380240000002400004024000080240EF
:1005C000000C0240001002400014024000180240DB
:1005D000001C02400020024000240240002802408B
:1005E000FCFC000870B5134C23681A69950707D501
:1005F000DA68900704D56FF002021A610CF054FD1E
:1006000023681A69510713D5DA68520710D56FF0BD
:100610000402094E1A615D6A3368EB1AB3F57A7FFA
:1006200006D300F065FE236805F57A729A6335609B
:1006300070BD00BF9C4B00206042002030B589B0E7
:10064000274C01A903A802F0D7F902F0A5F9254B20
:1006500001901A6C42F008021A641A6C02F0080247
:100660000292029A1A6A42F008021A621A6A22F088
:1006700008021A62A3F50B33069A23604FF0FF338A
:10068000E360194B52BB0025B0FBF3F00138256144
:10069000A560606012486561A56103F0CDF913495A
:1006A0003220FFF7CDFE4FF48022114B29460C4833
:1006B0005A6003F001FA0421094803F0FDF92368A8
:1006C0000C4A2846596A1160126802F57A729A63D8
:1006D000DA6842F00402DA6009B030BD4000D2E7C7
:1006E0009C4B00200038024040420F00E505000806
:1006F00000E100E06042002008B50CF06FFD96209C
:100700000CF0C1FD96200CF0BEFDF8E770B50D466B
:10071000A0B004460CF062FD2B46802122466846BC
:100720000EF030FE051E03DC0CF084FD20B070BD21
:10073000094B1B6823B90A220921084800F0B6FBBF
:100740000024064E1DF804100134304600F090FDE0
:10075000A542F7D1E8E700BF98430020544B0020A2
:100760000FB407B504A951F8040B0191FFF7CEFFB0
:1007700003B05DF804EB04B0704708B503F010FC5B
:10078000BDE8084000F0A2BD37B54FF47A7401907F
:1007900003F032FD054603F02FFD019B401B634330
:1007A0009842F8D303B030BD08B5084B1B685BB95D
:1007B000092107480A2200F079FB4FF4165104483A
:1007C000BDE8084000F094BC08BD00BF984300207D
:1007D000544B0020022810B5044601DC002010BD57
:1007E0000DF000FB0923033C00220360084B53F883
:1007F000240043F8242040B103681B699847041E75
:10080000ECDA64420DF0EEFA04604FF0FF3010BDF8
:1008100064420020F8B505460E4614460DF0E2FA93
:100820000923022D03600FDC124B1B680BB9FFF785
:10083000BBFF35463719104EBD4215D015F8011BC8
:10084000304600F015FDF7E7033D0C4B53F825004B
:1008500060B1036822463146DB689847041E03DA1C
:100860000DF0C0FA634203602046F8BD4FF0FF343C
:10087000FAE700BF98430020544B00206442002058
:1008800070B504460D4616460DF0ACFA0923022C4D
:1008900003600BDC0F4B1B680BB9FFF785FF0124CE
:1008A0000D4800F0C7FC2870204670BD033C0B4B80
:1008B00053F8240058B10368324629469B6898478C
:1008C000041EF1DA0DF08EFA63420360ECE74FF09C
:1008D000FF34E9E798430020544B00206442002095
:1008E00010B504460DF07EFA0923022C036010DDDA
:1008F000033C0A4B53F8240040B103689B699847B6
:10090000041E08DA64420DF06DFA04604FF0FF3007
:1009100010BD012010BD002010BD00BF64420020AA
:1009200070B504460D4616460DF05CFA0923022CFC
:1009300003600BDD033C084B53F8240040B103680F
:1009400032462946DB69BDE870401847002070BD7B
:100950004FF0FF3070BD00BF64420020022808B590
:1009600004DC4FF4005300204B6008BD0DF03AFA50
:10097000092303604FF0FF3008BD08B501200DF0DA
:1009800037FA704708B5FFF7F8FEFFF7FAFF08BD22
:100990000C4A136810B51844EFF30881884205D358
:1009A0000C22094B4FF0FF301A6010BD07490C684C
:1009B00024B10749096821448842F1D210601846E1
:1009C00010BD00BF449100203C9100206C430020EA
:1009D00070430020074C054608B5236898680DF061
:1009E00027FB2368D8680DF023FB0DB1FFF784FEC9
:1009F000FEE700BFE49200200120704700210EF0C6
:100A00000CBA000010B50DF067FD044610B902489D
:100A10000CF0D2FB204610BD78FD000808B10DF0A7
:100A200063BD7047FFF7FABF034653F8042B10B5B8
:100A3000044602B9036022689A4204D0592203494D
:100A400003480CF0A7FB206810BD00BF1DFD000887
:100A500064FD000810B504460948FFF7E5FF0023D0
:100A6000084A194652F82300A04208BF42F8231052
:100A70000133402BF6D10248FFF7D6FF10BD00BF6F
:100A800064430020644200202DE9F74334490746BF
:100A90000EF0E7FA044628B9FFF786FE204603B0B9
:100AA000BDE8F0832F4938460EF0DBFA18B9FFF79E
:100AB0007BFE0124F2E72C4938460EF0D2FA18B931
:100AC000FFF772FE0224E9E7DFF8A8800DF08AF94B
:100AD00009230025C14603602448FFF7A5FF58F805
:100AE000256036B30135402DF9D10DF07BF918237F
:100AF00003601E48FFF798FF2FE0394668460CF068
:100B00003BF868460CF066F830B948F825000DF05F
:100B100069F902230360C1E768460CF04BF8D0B1D5
:100B200068460CF050F8064613E049F82560EC1CC6
:100B3000B4E74FF0FF340D4848F82540FFF774FF45
:100B40003B783A2BD9D16A46094938460EF01AFA51
:100B5000009E002EE9D149F825604FF0FF349DE753
:100B60009FFD0008A6FD000897FD000864430020D3
:100B7000AEFD00086442002030B5C36891FAA1F4CC
:100B8000B4FA84F491FAA1F10325B1FA81F1640079
:100B9000490005FA04F402FA01F123EA04031943B7
:100BA000C16030BD012A02D0022A18BF0022FFF71F
:100BB000E3BF00002DE9F0410E46411C044604D17C
:100BC0003E22454945480CF0E5FA04F00F08444B35
:100BD000C4F3031006F0070753F82850FFF750FC42
:100BE0000446836895FAA5F1B1FA81F195FAA5F268
:100BF00003204900B2FA82F200FA01F1520023EA1E
:100C00000103022101FA02F21343A36087425CD878
:100C1000DFE807F0601D021DB8F1070FC6F30320DF
:100C20003DD9626A2B0A93FAA3F1B1FA81F193FAE2
:100C3000A3F34FF00F0EB3FA83F389009B000EFA73
:100C400001F100FA03F322EA0102134363623B4617
:100C5000226895FAA5F0B0FA80F095FAA5F14FF068
:100C6000030EB1FA81F14000013F49000EFA00F095
:100C7000012F03FA01F322EA000243EA0203236090
:100C800005D8636832074CBF2B43AB436360C6F3A0
:100C9000011229462046BDE8F041FFF783BF226AD2
:100CA00095FAA5F3B3FA83F395FAA5F14FF00F0E79
:100CB000B1FA81F19B0089000EFA03F322EA0302E4
:100CC00000FA01F313432362C1E764220249054895
:100CD0000CF060FA0023BBE7A8FE0008E8FE00085D
:100CE00068FE0008E20C0108431C70B506460D467C
:100CF00004D185221B491C480CF04CFA06F00F0267
:100D00001A4BC6F3031053F82240FFF7B9FB0168F2
:100D100004FB04F202EB42030B40B3FBF2F3013B92
:100D2000012B05D8EB1E022B436809D823434360EF
:100D3000032D08D101222146BDE87040FFF732BFE4
:100D400023EA04034360012DF4D0052D01D0022DC8
:100D500001D10222EFE721460022BDE87040FFF7F3
:100D60000BBF00BFA8FE0008E8FE000868FE0008F0
:100D70004309012200F01F00203302FA00F0044A68
:100D800042F82300BFF34F8FBFF36F8F704700BF50
:100D900000E100E04368702217495A4310B5046827
:100DA0008B188C5082685A60C2689A600269DA6057
:100DB00042691A610022A3F852209A61DA61A3F80D
:100DC0005020A3F85A20A3F85820B0F91A20013275
:100DD0000AD108225A61184603F061F858B1074851
:100DE000BDE810400CF0E8B9B0F9182001320CBF92
:100DF00004220C22EEE710BD9C430020FBFE0008FD
:100E0000F7B51B4F064657F8200000282DD0702557
:100E1000184C75436359DA69520609D51B6859069F
:100E200006D5154B01211B689847635940221A6269
:100E3000702575436359DA6992060BD51B689806CD
:100E400008D50D4B002157F826001B6898476359B9
:100E50005B6A0193702070432358DA69110704D547
:100E60009A68D20701D508221A6203B0F0BD00BF0C
:100E7000784300209C430020744300200020FFF7AB
:100E8000BFBF0120FFF7BCBF0220FFF7B9BF03209F
:100E9000FFF7B6BF0420FFF7B3BF0520FFF7B0BFD1
:100EA0000620FFF7ADBF0720FFF7AABFF0B50E463B
:100EB000154689B00446834930460CF05BF9074675
:100EC000814928460CF056F9014638460CF034F9B1
:100ED0002060013004D165227C497D480CF05AF92C
:100EE00023687C4A7C4F934200F0B08021D8A2F561
:100EF0000062934200F0828002F58062934200F02B
:100F00009180A2F5006293421DD1744B1A6A42F49B
:100F100000321A621A6A22F400321A621A6C42F41F
:100F200000321A641B6C03F400330193019B01230C
:100F300062E06B4A934200F0B18031D8A2F5806242
:100F4000934200F097805F4930460CF0D7F85E4935
:100F500028460CF0D3F8721C03D001213046FFF76D
:100F6000C3FE6B1C03D001212846FFF7BDFE4FF4E2
:100F70001653268365832046A3600023E360236124
:100F80006361FFF707FF2368BB4207D10122554B7E
:100F9000214655481A6044220DF002FB09B0F0BD0D
:100FA000BB4216D0514A9342CDD14C4B5A6A42F0C3
:100FB00020025A625A6A22F020025A625A6C42F0A7
:100FC00020025A645B6C03F020030593059B052304
:100FD00012E0424B5A6A42F010025A625A6A22F0F8
:100FE00010025A625A6C42F010025A645B6C03F0B1
:100FF00010030093009B00236360A4E7374B1A6A39
:1010000042F480221A621A6A22F480221A621A6C4E
:1010100042F480221A641B6C03F480230293029B27
:101020000223E9E72D4B1A6A42F400221A621A6A77
:1010300022F400221A621A6C42F400221A641B6C19
:1010400003F400230393039B0323D5E7234B1A6A7E
:1010500042F480121A621A6A22F480121A621A6C1E
:1010600042F480121A641B6C03F480130493049BF3
:101070000423C1E7194B1A6A42F080421A621A6AC5
:1010800022F080421A621A6C42F080421A641B6C91
:1010900003F080430693069B0623ADE70F4B1A6AC5
:1010A00042F000421A621A6A22F000421A621A6C76
:1010B00042F000421A641B6C03F000430793079B45
:1010C000072399E714FE0008B4FD000813FF000889
:1010D00066FF000800500040001001400038024048
:1010E000007C004098430020544B00200014014035
:1010F0008160FFF74FBE0000034B19604168034B4E
:1011000043F82120704700BF74430020784300203B
:1011100070B5354B0E4621C8984243D00ED8A3F582
:101120000063984238D003F58063984237D0A3F526
:10113000006398420AD12D49262416E02C4B984290
:1011400036D006D8A3F5806398422ED000210C46F5
:101150000BE0284B984206D003F580639842F5D106
:101160002549472401E025492524702324486B4361
:1011700022B3C2581368F6B943F020031360204627
:10118000FFF75EF90123620904F0170403FA04F47F
:101190001C4B43F8224070BD1B492724E5E71B493F
:1011A0003424E2E71A493524DFE71A495224DCE700
:1011B00019495324D9E743F04003DFE7C3581A68BD
:1011C00036B922F020021A601B681A0606D570BDD7
:1011D00022F040021A601B689B0604D42046BDE83A
:1011E0007040FFF7C5BD70BD00500040830E000881
:1011F000007C0040001001409B0E00087D0E00089E
:101200009C43002000E100E0890E00088F0E0008DA
:10121000950E0008A10E0008A70E00084268702372
:101220005343034AD358D869C0F34010704700BFF6
:101230009C43002010B5014644680846FFF7EEFFC6
:101240000028FAD07023034A6343D358586AC0F386
:10125000080010BD9C430020426870235343034A9A
:10126000D358D869C0F3C010704700BF9C4300201A
:1012700038B5044645682046FFF7EEFF0028FAD04F
:101280007023034AC1F308016B43D358996238BDF8
:101290009C430020DFF820D0002103E0074B5B587F
:1012A000435004310648074B42189A42F6D302F0E5
:1012B00053FFFEF7F3FF704700000820080E0108F7
:1012C00040910020FC920020FEE77047074A03206F
:1012D00008B5136843F40073136000F017F80F208B
:1012E000FFF7ACF9FFF7F1FF002008BD003C02401A
:1012F000024A136801331360704700BF984B002007
:10130000014B1868704700BF984B0020074A000245
:10131000D36800F4E06023F4E0631B041B0C43F08B
:10132000BF6343F400330343D360704700ED00E034
:10133000194B30B5DC68C4F30224C4F10703251D42
:10134000042B28BF0423062D4FF001058CBF033C5E
:10135000002405FA03F3002803F1FF3301EA030137
:1013600001FA04F105FA04F404F1FF3402EA04027C
:1013700042EA01024FEA021205DA00F00F00D2B28F
:10138000064B1A5430BD00F16040D2B200F5614006
:1013900080F8002330BD00BF00ED00E014ED00E058
:1013A0004209012300F01F0003FA00F0014B43F84B
:1013B0002200704700E100E0426B036890F84C1097
:1013C0003AB91A6842F400321A6001291CD102238A
:1013D0001BE01A68032922F001021A601A6842F41D
:1013E00000221A601A6842F001021A60EDD1826B85
:1013F0001AB91A6842F002021A6090F84030012BC4
:101400000CBF436C01238364042380F84C30704785
:1014100003681A6822F001021A60426B012A03D1A4
:101420001A6822F400221A601A6842F001021A6057
:1014300090F84C20042A10D1826B1AB91A6842F035
:1014400002021A6090F84030012B0CBF436C01235C
:101450008364032380F84C307047022A0CBF0123B9
:101460000323F7E7144B984217D02033984216D045
:101470002033984215D02033984214D0203398421C
:1014800013D02033984212D02033984211D0203309
:10149000984214BFFF2007207047002070470120AA
:1014A00070470220704703207047042070470520D2
:1014B00070470620704700BF00740140704700006D
:1014C00070B50446002800F08180414D0068FFF7A8
:1014D000C9FF55F82030002B78D12046FFF7EEFFEA
:1014E0003C4B1A6801321A601B68012B20D13A4B21
:1014F0001A6822F080421A601A68A1680A431A60CA
:101500001A6822F47F021A602279012A0BD14FF463
:101510007F0292FAA2F2B2FA82F1E2681868013A06
:101520008A4002431A602C4A136843F00043136058
:1015300020686169036823F47143036023690268CA
:101540000B43A1690B43216A13430360036823F033
:101550000F030360E36902680B431343036083686E
:1015600023F45F0383604FF4F81393FAA3F3B3FA01
:1015700083F2A36A8168013B9340626A0A43134382
:101580008360436803F0070343606FF0FF0393FA3F
:10159000A3F3F822B3FA83F192FAA2F2E36AB2FA61
:1015A00082F246688B40216B01FA02F21343334307
:1015B0004360036843F080030360012384F8343000
:1015C000FFF750FF45F82040002070BD012070BD9E
:1015D0001C4700203C470020007401407047000079
:1015E00070B5044600286ED00268384B9A4205D187
:1015F0004068012868D0E068012865D000230122F6
:10160000204623636264A2642365FFF7E7FF236833
:101610001A6822F400221A60227A012A1A680CBF82
:1016200042F0005222F000521A60627A012A1A68CF
:101630000CBF42F4001222F400121A601A68E66825
:1016400022F4FE42022E22F008021A6003D11A6828
:1016500061690A431A60257C1A68012D1C490CBF78
:1016600042F0100222F010021A60627C012A1A680D
:101670000CBF42F0200222F020021A605A6922F0C8
:10168000634202F0FF225A6191FAA1F1626AB1FA53
:1016900081F05969013A0A43E1690A43216A013933
:1016A000814000200A435A616268A6636263A269AE
:1016B00084F84050E2631A6842F001021A60012384
:1016C00084F84C3070BD012070BD00BF0075014032
:1016D0000000FF0390F84C30013BDBB2FD2B10B54E
:1016E00013D803680902012A1C6801F07F4124F025
:1016F000E06408BF41F4802124F480241C601C684D
:10170000214319600263002010BD012010BD0000BC
:10171000F8B5134605460A4661B35BB307683968F6
:10172000890227D5416B51B9016B41B9816AC869FA
:1017300008B9012B1ED1C969B1F5807F1AD095F87F
:101740004C6006F0FD06012E14D1A86A0D490E4C1E
:10175000C1630E49C164C169B1F5807F07F11C0105
:1017600018BF0024046400F0F5F8044620B1FF23FC
:1017700085F84C30012402E02846FFF71DFE204684
:10178000F8BD00BFBF170008C9170008D51700082B
:1017900090F84C30022B10B5044601D0042B07D131
:1017A000A06A00F014F9014620B1FF2384F84C3000
:1017B000012102E02046FFF72BFE084610BD08B5C8
:1017C000806B03F071FD08BD08B5806B03F03CFF32
:1017D00008BD704708B5806B03230365FFF7F9FF69
:1017E00008BD000003681821DAB223F47F73103AB1
:1017F00023F00303B2FBF1F20449032A895C88BF9A
:101800000433C1658365806D704700BF82FF0008A7
:1018100070B50446FFF774FD0546002C72D0002316
:10182000226884F83430022384F83530136823F0BA
:101830000103136021680B68D8073BD40B68324D55
:1018400062681D40A368A0691343E26813432269DC
:10185000134362691343E26903431343226A134348
:10186000626A042A43EA050301BF266BE56A354331
:101870002B43042A0B604B6923F0070343EA02035E
:101880000AD1A26A134300BB012A2FD001D3022A36
:1018900002D1E26AD2012DD44B612046FFF7A2FFAC
:1018A000E26D3F239340836000200123606584F84C
:1018B000353070BDFFF724FD401B0528BAD9202321
:1018C0000320636584F8350070BDB0F5005F15D165
:1018D000032AE1D801A050F822F000BFF518000853
:1018E00093180008F5180008ED180008E26AB2F134
:1018F000C07FD1D1402301206365E3E7022AF9D9F3
:10190000032AC5E7012070BD3F8010E038B50546C9
:10191000F0B190F83540E4B2022C17D003680024EF
:101920001A6822F001021A6021221C605C609C602F
:10193000DC601C615A61FFF755FFEA6D3F2393405D
:1019400083606C6585F8344085F83540204638BDA5
:10195000012038BD70B590F83440012C35D00124F9
:10196000866D002580F8344090F83540012C4FF00A
:10197000020428D180F8354004684565256825F4BF
:101980008025256063608368402B19D1A260E160E7
:10199000C26D3F239340B360236843F01603236076
:1019A000636943F080036361036C1BB1236843F0F8
:1019B000080323602368002043F00103236070BD07
:1019C000A160E260E4E780F83450022070BD70B599
:1019D0000446856DFFF794FC064694F83530022BDB
:1019E00006D0802301206365002384F8343070BD65
:1019F00023681A6822F016021A605A6922F08002DF
:101A00005A61226C0AB9A26C1AB11A6822F0080253
:101A10001A601A6822F001021A602368186810F030
:101A2000010009D1E26D3F239340AB60012384F8AC
:101A3000340084F8353070BDFFF762FC801B052848
:101A4000EBD9202303206365002384F8350084F854
:101A5000343070BD0023F7B501930822594B04467A
:101A6000856D1F68C36D2E689A4016420CD00168C0
:101A70000868400708D5086820F004000860AA60DC
:101A8000626D42F0010262654F4A9A40164208D0E8
:101A900021684969090604D5AA60626D42F0020214
:101AA00062654A4A9A40164208D021680968880748
:101AB00004D5AA60626D42F00402626510229A4069
:101AC000164210D02368196809070CD5AA601A6855
:101AD000500335D51B68190301D4236C00E0A36CB7
:101AE0000BB120469847E16D20228A40164238D03B
:101AF00023681868C60634D5AA6094F83520052AEC
:101B00001A6825D122F016021A605A6922F0800262
:101B10005A61226C0AB9A26C1AB11A6822F0080242
:101B20001A603F238B40AB60002384F834300123DC
:101B300084F83530236D0BB12046984703B0F0BDD3
:101B40001A68D205C9D41A6822F008021A60C4E7DC
:101B5000500328D51B68190332D4636C0BB120469F
:101B60009847636D002BE9D0636DDA0719D505231B
:101B7000226884F83530136823F0010313604FF4B2
:101B80001653B7FBF3F7019B01339F42019302D336
:101B90001368DB07F7D4002384F83430012384F87A
:101BA0003530E36CC7E71A6812F4807208D11968FF
:101BB00021F010011960012384F8342084F83530B5
:101BC000E36BCBE748910020010080000400800017
:101BD0002DE9F04F0B6885B0DFF8C0810193002339
:101BE0006C4ADFF8BC914FF0010E019C0EFA03FE27
:101BF0000EEA0406B64540F0B3804C6824F01007A6
:101C0000022F16D14FEAD30A03F0070B4FF00F0C47
:101C100000EB8A0A4FEA8B0BDAF820500CFA0BFC27
:101C200025EA0C0C0D6905FA0BF545EA0C05CAF816
:101C300020504FEA430A0325D0F800B004F0030C0B
:101C400005FA0AF5013F0CFA0AFCED43012F0BEAF5
:101C5000050B4CEA0B0CC0F800C011D8876807EAE6
:101C6000050BCF6807FA0AFC4CEA0B078760476848
:101C700027EA0E0EC4F300179F4047EA0E0747609D
:101C8000C7683D408F6807FA0AF73D43C560E50025
:101C900066D5D8F8445023F0030703F0030E4FF045
:101CA0000F0C45F4804507F180474FEA8E0EC8F8C7
:101CB000445007F59C37D8F8445005F48045039507
:101CC000039D0CFA0EF5D7F808A02AEA050C324D50
:101CD000A8424CD005F58065A8424AD005F580653C
:101CE000A84248D005F58065A84246D005F5806534
:101CF000A84244D0484544D005F50065A84242D0EA
:101D000005F58065A84240D005F58065A8423ED023
:101D100005F58065A84214BF0A25092505FA0EF5C8
:101D200014F4803F45EA0C05BD606FEA06071568AC
:101D30000CBF3D40354314F4003F156055680CBF9F
:101D40003D40354314F4801F556095680CBF3D40FD
:101D50003543A4029560D56854BF3D403543D560F6
:101D60000133102B7FF43FAF05B0BDE8F08F0025A5
:101D7000D4E70125D2E70225D0E70325CEE70425E5
:101D8000CCE70525CAE70625C8E70725C6E70825E5
:101D9000C4E700BF003C01400000024000380240A0
:101DA0000014024003689A69910701D500229A62E3
:101DB0009A69D20703D49A6942F001029A61704786
:101DC00030B50568C1F30901039C6868234320F01E
:101DD0007F70194320F4593041EA024120F47F70AA
:101DE00020F003000143696030BD2DE9F041069FFA
:101DF0000446884616461D462268936938EA03035E
:101E00000CBF01230023B34202D00020BDE8F081C3
:101E10006B1CF2D055B92023032084F841300023F5
:101E200084F8423084F84030BDE8F081FFF768FA6A
:101E3000C01B8542E0D2EEE7036870B5044698699E
:101E40000D46164610F0100012D170BD691C10D05E
:101E50004DB92023032084F84130002384F8423018
:101E600084F8403070BDFFF74BFA801B8542F0D3F9
:101E7000236899698A06E9D5102220252046DA616F
:101E8000DD61FFF78FFF22680120536823F0FF73A5
:101E900023F48B3323F4FF7323F0010353600423F3
:101EA0006364002384F8415084F8403084F8423061
:101EB00070BD70B504460D46164623689B699B07A6
:101EC00001D5002070BD324629462046FFF7B4FFF9
:101ED000B0B96A1CF1D06DB9636C032043F02003E4
:101EE0006364202384F84130002384F8423084F86E
:101EF000403070BDFFF704FA801B8542DDD2EBE76E
:101F0000012070BDF7B51F464FF400530446099EEB
:101F1000009315464FF08073FAB2FFF751FF324637
:101F200008992046FFF7C5FF28B1636C042B10D138
:101F3000012003B0F0BD012F23680CD1EDB20022C7
:101F4000802120469D62089B0096FFF74EFF0028E7
:101F5000EFD00320EDE72A0A089920469A6232461C
:101F6000FFF7A7FF0028E0D12368E7E7F7B51F4692
:101F70004FF400530446099E009315460023FAB21D
:101F8000FFF71EFF324608992046FFF792FF28B15F
:101F9000636C042B10D1012003B0F0BD012F236826
:101FA0000CD1EDB20022402120469D62089B009694
:101FB000FFF71BFF0028EFD00320EDE72A0A08995E
:101FC00020469A623246FFF774FF0028E0D123686A
:101FD000E7E770B504460D46164623689B699B06E5
:101FE00001D5002070BD324629462046FFF724FF68
:101FF000A0B96DB9636C032043F020036364202310
:1020000084F84130002384F8423084F8403070BDB9
:10201000FFF776F9801B8542DFD2EBE7012070BD28
:10202000704710B5044600284AD090F8413003F0BC
:10203000FF021BB980F84020FFF7F2FF2423E1687C
:1020400084F84130012923681A6822F001021A60DD
:10205000626822F070621A619A6822F400429A6003
:10206000A26824D142F400429A605A680020616953
:1020700042F0007242F400425A60DA6822F40042F0
:10208000DA6022690A43A16942EA0122216ADA6020
:10209000E2690A431A601A6842F001021A602023BA
:1020A000606484F84130206384F8420010BD42F43B
:1020B000044202299A60D8D14FF400625A60D4E7F2
:1020C000012010BD704710B5044698B10268242362
:1020D00080F84130136823F001031360FFF7F2FF2B
:1020E0000020606484F8400084F84100206384F894
:1020F000420010BD012010BD2DE9F04F9B4690F825
:10210000413085B00446202B0F460392BDF83CA019
:10211000DDF8409040F0A6800E9B1BB9012005B071
:10212000BDE8F08FBAF1000FF8D090F84030012BE5
:1021300000F09880012580F84050FFF7E1F819235E
:10214000009006462A464FF400412046FFF74DFE18
:102150008046D0B9212360630196394684F8413026
:102160004023CDF8009084F842300E9B60642046F6
:1021700063625B46A4F82AA0039AFFF7C3FE30B15E
:10218000636C84F84080042BC8D00320C7E7638DBC
:102190009BB2FF2B10D9FF224FF080730090228555
:1021A00039462046FFF70CFE324649462046FFF7E7
:1021B00080FE48B1636CE6E7628D4FF000730090DB
:1021C00092B22285D2B2EBE7636A2268591C61623F
:1021D0001B789362228D638D013A013B92B29BB2D0
:1021E00022856385BAB9638D9BB2A3B100964B4635
:1021F00080212046FFF7F9FD0028C6D1638D9BB2F0
:10220000FF2B27D9FF224FF080730090228539469B
:102210002046FFF7D5FD638D9BB2002BC4D132461B
:1022200049462046FFF7D5FE0028C3D12368202168
:10223000D9615A6822F0FF7222F48B3222F4FF72C5
:1022400022F001025A6084F8411084F8400084F8BA
:10225000420064E7628D4FF00073009092B22285D5
:10226000D2B2D4E702205AE72DE9F04F9B4690F80E
:10227000413085B00446202B0F460392BDF83CA0A8
:10228000DDF8409040F0AC800E9B1BB9012005B0FA
:10229000BDE8F08FBAF1000FF8D090F84030012B74
:1022A00000F09E80012580F84050FFF729F819239F
:1022B000009006462A464FF400412046FFF795FD60
:1022C0008046D0B9222360630196394684F84130B4
:1022D0004023CDF8009084F842300E9B6064204685
:1022E00063625B46A4F82AA0039AFFF73FFE30B171
:1022F000636C84F84080042BC8D00320C7E7638D4B
:102300009BB2FF2B46D94FF41053FF2200934FF09E
:102310008073228539462046FFF752FD00964B46D2
:10232000002204212046FFF760FD0028E5D1636A02
:102330005A1C62622268526A1A70228D638D013AB9
:10234000013B92B29BB222856385BAB9638D9BB281
:10235000A3B100964B4680212046FFF746FD00289A
:10236000CBD1638D9BB2FF2B1ED9FF224FF0807320
:102370000090228539462046FFF722FD638D9BB2EF
:10238000002BCBD1324649462046FFF722FE98B1BA
:10239000636CB0E7628D4FF4105392B200934FF02C
:1023A00000732285D2B2B5E7628D4FF000730090C2
:1023B00092B22285D2B2DDE723682021D9615A6822
:1023C00022F0FF7222F48B3222F4FF7222F001021B
:1023D0005A6084F8411084F8400084F8420056E7BF
:1023E000022054E790F8410070470000194B37B5C0
:1023F0001A6C194C42F080521A641B6C03F0805323
:102400000193019B236843F480332360FEF778FF38
:1024100005466368DA030CD5236843F40033236070
:10242000FEF76EFF0C4C054663689B030AD500203F
:1024300006E0FEF765FF401BB0F57A7FE9D903207F
:1024400003B030BDFEF75CFF401BB0F57A7FEBD9DF
:10245000F5E700BF003802400070004003682DE936
:10246000F3410446D80710D42368990761D4236840
:10247000190700F1B08023685A0700F1D180A269E2
:10248000002A40F03B81002015E09A4B9A6802F048
:102490000C02042A07D09A6802F00C02082A0DD117
:1024A0005B685A020AD5934B1B689B03DCD56368B3
:1024B000002BD9D1012002B0BDE8F08163688D4DB9
:1024C000B3F5803F11D12B6843F480332B60FEF7C6
:1024D00017FF884D06462B689F03C5D4FEF710FFF3
:1024E000801BC828F7D90320E5E79BB92B6823F4A4
:1024F00080332B602B6823F480232B60FEF700FFD2
:1025000006462B689803AFD5FEF7FAFE801BC82855
:10251000F7D9E8E7B3F5A02F2B6803D143F4802364
:102520002B60D0E723F480332B602B6823F48023C7
:10253000CCE7704B9A6812F00C0F07D09A6802F043
:102540000C02082A16D15B68590213D4694B1A6829
:10255000920702D5E268012AACD11868F82292FAF3
:10256000A2F2B2FA82F122698A4020F0F8010A430D
:102570001A607CE7E3685F4DE3B12B6843F0010329
:102580002B60FEF7BDFE06462B689F070CD5296819
:10259000F82393FAA3F3B3FA83F22369934021F06B
:1025A000F80213432B6062E7FEF7AAFE801B0228A5
:1025B000EAD998E72B6823F001032B60FEF7A0FE11
:1025C00006462B6898077FF552AFFEF799FE801BF1
:1025D0000228F6D987E76369464D83B16B6F43F0F4
:1025E00001036B67FEF78CFE06466B6F9B073FF59A
:1025F00042AFFEF785FE801B0228F6D973E76B6FAA
:1026000023F001036B67FEF77BFE06466B6F9F07A7
:102610007FF531AFFEF774FE801B0228F6D962E722
:10262000344B1A6CD00027D41A6C012642F0805229
:102630001A641B6C03F080530193019B2E4D2B6891
:10264000D9051BD5A3682B4D012B27D12B6F43F048
:1026500001032B6741F28835FEF752FE254F804675
:102660003B6F9B073FD5002E3FF409AF214A136C07
:1026700023F08053136402E70026DFE72B6843F45E
:1026800080732B60FEF73CFE07462B68DA05D9D431
:10269000FEF736FEC01B6428F7D924E7ABB92B6FD1
:1026A00041F2883823F001032B672B6F23F00403DA
:1026B0002B67FEF725FE07462B6F9807D3D5FEF74D
:1026C0001FFEC01B4045F7D90DE7052B2B6F03D12B
:1026D00043F004032B67B9E723F001032B672B6F4B
:1026E00023F00403B5E7FEF70BFEA0EB0800A842B9
:1026F000B6D9F8E60038024000700040324DAB68B1
:1027000003F00C03082B3FF4D5AE2B68022A23F00C
:1027100080732B604AD1FEF7F3FD06462B689901C2
:102720003ED447F6C07797FAA7F74FF44032B7FA8E
:1027300087F792FAA2F24FF07060B2FA82F690FA3E
:10274000A0F04FF0E041B0FA80F091FAA1F1226AD6
:10275000B1FA81F1E3691343626A02FA07F7A26AE8
:1027600052083B43013AB2401343E26A02FA00F0D6
:10277000226B154C034302FA01F10B436B602B688B
:1027800043F080732B60FEF7BBFD054623689A017A
:102790003FF579AEFEF7B4FD401B0228F6D9A2E65C
:1027A000FEF7AEFD801B0228B8D99CE6FEF7A8FD17
:1027B00004462B689B017FF566AEFEF7A1FD001B6A
:1027C0000228F6D98FE600BF00380240194A936804
:1027D00003F00C03042B10B503D0082B03D01648CC
:1027E00010BD164810BD516847F6C074536801F01B
:1027F0003F0113F4800F536894FAA4F0B0FA80F00C
:1028000003EA04034FF4403223FA00F314BF0B48E9
:102810000948B0FBF1F05843064B5B6892FAA2F20C
:10282000B2FA82F203F44033D34001335B00B0FBD1
:10283000F3F010BD003802400024F40040787D0120
:10284000514A136803F00F038B422DE9F04104460F
:102850000D462FD32268960739D4D0073FD44A4A71
:10286000136803F00F039D427BD32268510700F1E8
:102870008380130707D5454A2169936823F4604391
:1028800043EAC1039360FFF7A1FF404BF0229B682E
:1028900092FAA2F2B2FA82F203F0F003D3403C4A79
:1028A000D35CD8403B4B18600F20FDF7C7FE0020DB
:1028B000BDE8F081136823F00F030B431360136826
:1028C00003F00F039942C5D00120BDE8F0812F49E4
:1028D000A0688B6823F0F00303438B60BDE7616859
:1028E0002A4B01291A681DD112F4003FECD09A68D6
:1028F00041F28838254F22F003020A439A60FEF71E
:10290000FFFC63680646012B14D1BB6803F00C037F
:10291000042BA4D0FEF7F4FC801B4045F5D903201E
:10292000BDE8F081022902D112F0007FDEE712F04B
:10293000020FDBE7022B0FD1BB6803F00C03082B5F
:102940008DD0FEF7DDFC801B4045F5D9E7E7FEF7AB
:10295000D7FC801B4045E2D8BB6813F00C0FF6D1C2
:102960007DE7136823F00F032B431360136803F014
:102970000F039D42A8D178E70449E0688B6823F4EF
:10298000E05303438B6074E7003C02400038024090
:102990009BFF000848910020084B4FF4E0529B68D1
:1029A00092FAA2F2B2FA82F203F4E053D340044A5C
:1029B000D35C044A1068D840704700BF003802401A
:1029C000ABFF000848910020084B4FF460429B6821
:1029D00092FAA2F2B2FA82F203F46043D340044ABC
:1029E000D35C044A1068D840704700BF00380240EA
:1029F000ABFF0008489100200F2303600B4B9A683F
:102A000002F0030242609A6802F0F00282609A6863
:102A100002F4E052C2609B68DB0803F4E0530361F8
:102A2000034B1B6803F00F030B6070470038024034
:102A3000003C024003682DE9F34713F00106044609
:102A40000BD0BB4A916821F400019160466B9168FC
:102A50003143B6FA86F67609916013F4002512D058
:102A6000B349E56BD1F88C20B5F5801F22F44012F4
:102A700008BF012642EA050216BFB5FA85F5002512
:102A80006D09C1F88C20DF0210D5A948216CD0F85F
:102A90008C20B1F5800F22F4400242EA0102C0F816
:102AA0008C2000F02582002908BF012513F0807FCB
:102AB00018BF0126980631D59D4B9E4F1A6C42F0E7
:102AC00080521A641B6C03F080530193019B3B6896
:102AD00043F480733B60FEF713FC80463B68D905E6
:102AE00040F10882924F3B6F13F4407340F00D8227
:102AF000236B03F44072B2F5407F8D4A40F02B8285
:102B0000916823F0704021F4F81120F440700143E3
:102B10009160C3F30B03116F0B4313672368DF0648
:102B20000CD5834AD2F88C1021F08071C2F88C1039
:102B3000D2F88C10A06B0143C2F88C10580408D551
:102B40007B49606ED1F8902022F440320243C1F8F4
:102B50009020190408D57649A06ED1F8902022F46F
:102B600040220243C1F89020DA0308D57049E06E94
:102B7000D1F8902022F440120243C1F890209F0324
:102B800008D56B49206FD1F8902022F4400202430F
:102B9000C1F89020580608D56549606CD1F890209E
:102BA00022F003020243C1F89020190608D56049BB
:102BB000A06CD1F8902022F00C020243C1F89020C2
:102BC000DA0508D55A49E06CD1F8902022F030029D
:102BD0000243C1F890209F0508D55549206DD1F8D2
:102BE000902022F0C0020243C1F89020580508D579
:102BF0004F49606DD1F8902022F440720243C1F831
:102C00009020190508D54A49A06DD1F8902022F4EA
:102C100040620243C1F89020DA0408D54449E06DCF
:102C2000D1F8902022F440520243C1F890209F0432
:102C300008D53F49206ED1F8902022F4404202434B
:102C4000C1F89020580208D53949A06FD1F89020DA
:102C500022F080620243C1F8902099020CD53448DA
:102C6000E16FD0F89020B1F1006F22F0006208BF50
:102C700001250A43C0F8902013F0080F18BF012562
:102C80005A0308D52A49606FD1F8902022F040728B
:102C90000243C1F890201F0209D52549D4F88000CD
:102CA000D1F8902022F080520243C1F890205801C0
:102CB00009D51F49D4F88400D1F8902022F00052A1
:102CC0000243C1F89020190109D51949D4F88800A8
:102CD000D1F88C2022F000720243C1F88C20DA0077
:102CE00009D51349D4F88C00D1F88C2022F08062E9
:102CF0000243C1F88C20012E00F03481B3F1007F33
:102D000000F03081012D40F0F180094D2B6823F057
:102D100080532B60FEF7F4FA06462B689F0000F103
:102D2000408221680E0307D5E36B53B104E000BF76
:102D30000038024000700040CD0247D5236C002BC4
:102D400044D1874D4FF4403ED5F888009EFAAEFC42
:102D50004FF0E046BCFA8CFCD5F8882096FAA6F72E
:102D600047F6C073B7FA87F793FAA3F3B3FA83F978
:102D70009EFAAEFE4FF07068BEFA8EFE98FAA8F882
:102D8000B8FA88F896FAA6F6636900F4403002F0C3
:102D9000E042B6FA86F603FA09F9A36920FA0CF0C4
:102DA000FA4003FA08F800FA0EF0B24049EA0803C4
:102DB00003431343C5F88830D5F88C30A26A23F456
:102DC000F853013A43EA0223C5F88C3088023ED515
:102DD000E36FB3F1006F3AD1614D4FF0706ED5F8EB
:102DE00088009EFAAEFC4FF0E046BCFA8CFCD5F8A9
:102DF000882096FAA6F747F6C073B7FA87F793FAD2
:102E0000A3F34FF44038B3FA83F998FAA8F8B8FA64
:102E100088F89EFAAEFEBEFA8EFE96FAA6F66369B2
:102E200000F0706002F0E042B6FA86F603FA09F9A3
:102E3000236A20FA0CF0FA4003FA08F800FA0EF0C0
:102E4000B24049EA080303431343C5F888300A0730
:102E500040D543484FF07065D0F8882095FAA5F624
:102E60004FF4403EB6FA86F6D0F888109EFAAEF8D7
:102E700047F6C073B8FA88F893FAA3F3B3FA83F766
:102E80009EFAAEFEBEFA8EFE95FAA5F54FF0E04C26
:102E9000B5FA85F59CFAACFC6369BCFA8CFC01F4CC
:102EA000403102F07062BB40E76921FA08F1F2405C
:102EB00007FA0CF701FA0EF1AA403B430B43134308
:102EC000C0F88830D0F88C30E26A23F440331343E2
:102ED000C0F88C30224C236843F080532360FEF707
:102EE0000FFA054623689B0040F16281002009E04B
:102EF0000126DBE5FEF704FAA0EB080064287FF664
:102F0000EDAD032002B0BDE8F087226B02F4407201
:102F100093423FF4EDAD3B6F3A6F23F4407342F4BC
:102F200080323A673A6F22F480323A673B673B6FF0
:102F3000DA077FF5DDADFEF7E3F941F28839804627
:102F40003B6F9B073FF5D4ADFEF7DAF9A0EB080025
:102F50004845F5D9D5E7916821F4F811D8E500BFC7
:102F600000380240964E336823F080633360FEF7EA
:102F7000C7F9074633681B0100F10C812268D707A7
:102F80003CD5636BD3BBD6F884004FF4403C9CFA2D
:102F9000ACF84FF07067B8FA88F8D6F8841097FA52
:102FA000A7FE47F6C073BEFA8EFE93FAA3F3B3FAF8
:102FB00083FA9CFAACFCBCFA8CFC97FAA7F74FF0AA
:102FC000E049B7FA87F799FAA9F96368B9FA89F974
:102FD00000F4403001F0706103FA0AFAA36820FAA5
:102FE00008F021FA0EF103FA09F900FA0CF0B940E1
:102FF0004AEA090303430B43C6F88430160303D59A
:10300000E36BB3F5801F05D0D00248D5236CB3F530
:10301000800F44D16A4E4FF4403CD6F884009CFAAD
:10302000ACF84FF0E047B8FA88F8D6F8841097FA71
:10303000A7FE47F6C073BEFA8EFE93FAA3F3B3FA67
:1030400083FA9CFAACFC4FF07069BCFA8CFC99FADC
:10305000A9F9B9FA89F997FAA7F7636800F440303B
:1030600001F0E041B7FA87F703FA0AFAE36820FAB9
:1030700008F021FA0EF103FA09F900FA0CF0B94050
:103080004AEA090303430B43C6F88430D6F88C1090
:10309000636A21F01F01013B0B43C6F88C30D1015C
:1030A0003BD5474E4FF0706CD6F884009CFAACF8D4
:1030B0004FF0E047B8FA88F8D6F8841097FAA7FEE0
:1030C00047F6C073BEFA8EFE93FAA3F34FF440396D
:1030D000B3FA83FA99FAA9F9B9FA89F99CFAACFC1E
:1030E000BCFA8CFC97FAA7F7636800F0706001F0F7
:1030F000E041B7FA87F703FA0AFA236920FA08F0E1
:1031000021FA0EF103FA09F900FA0CF0B9404AEA83
:10311000090303430B43C6F88430920128D547F6D0
:10312000C07393FAA3F34FF44030B3FA83F690FAE6
:10313000A0F04FF07061B0FA80F091FAA1F14FF079
:10314000E042B1FA81F192FAA2F26368B2FA82F235
:10315000B340266906FA00F00343E06800FA01F183
:103160000B43A16801FA02F21343154AC2F88430F6
:10317000134E336843F080633360FEF7C1F80746AF
:1031800033681B013FF5BEADFEF7BAF8C01B6428DB
:10319000F6D9B6E6FEF7B4F8C01B64287FF6EAAEAF
:1031A000AFE6FEF7ADF8801B64287FF6B6ADA8E663
:1031B000FEF7A6F8401B64287FF694AEA1E600BF98
:1031C000003802407D4B03607D4BF0B5D3F884207E
:1031D00047F6C07797FAA7F1B1FA81F13A40CA40B1
:1031E00042604FF44032D3F8841092FAA2F4B4FA59
:1031F00084F41140E1404FF070640161D3F8841011
:1032000094FAA4F5B5FA85F52140E940C1604FF084
:10321000E041D3F8846091FAA1F5B5FA85F50E4046
:10322000EE408660D3F8885097FAA7F6B6FA86F68D
:103230003D40F5404561D3F8885092FAA2F6B6FABF
:1032400086F61540F5400562D3F8885094FAA4F448
:1032500005F07065B4FA84F425FA04F48461D3F8B7
:10326000884091FAA1F104F0E044B1FA81F124FA26
:1032700001F11F24C161D3F88C1094FAA4F4B4FABC
:1032800084F401F01F01E1404FF4F8544162D3F897
:103290008C1094FAA4F4B4FA84F401F4F851E140E7
:1032A0008162D3F88C1092FAA2F201F44031B2FAA2
:1032B00082F221FA02F2C262D3F88C2002F44012A8
:1032C000C263D3F88C2002F4400202649A6802F4CC
:1032D00000024263D3F8902002F440324266D3F8F1
:1032E000902002F440228266D3F8902002F440122B
:1032F000C266D3F8902002F440020267D3F890200F
:1033000002F003024264D3F8902002F00C028264BF
:10331000D3F8902002F03002C264D3F8902002F07B
:10332000C0020265D3F8902002F440724265D3F8DF
:10333000902002F440628265D3F8902002F440525B
:10334000C265D3F8902002F440420266D3F8902080
:1033500002F040724267D3F8902002F080628267E8
:10336000D3F8902002F00062C267D3F8902002F0F8
:103370008052C0F88020D3F8902002F00052C0F8AC
:103380008420D3F88C2002F00072C0F88820D3F893
:103390008C2002F08062C0F88C209A68196F02F4C9
:1033A000F81201F440710A430263D3F88C3013F031
:1033B000807318BF4FF080738363F0BDF1FFFF1C73
:1033C00000380240B0F5002F19D1334BD3F88C20D0
:1033D00002F44012B2F5801F43D002D81AB3002085
:1033E0007047B2F5001F1CD0B2F5401FF7D15B68E3
:1033F0002A4813F4800F2A4B08BF18467047B0F5CF
:10340000801FECD1244BD3F88C2002F44002B2F59B
:10341000800F26D0E2D9B2F5000F02D0B2F5400FEE
:10342000E4E7204870475A68586852021A4A00F088
:103430003F0054BF1A4B194BD2F88810B3FBF0F37E
:10344000D2F88800C0F388105843C1F30363B0FB7F
:10345000F3F0D2F88C30C3F304230133B0FBF3F064
:1034600070475A68586853020B4A00F03F0054BF37
:103470000B4B0A4BD2F88410B3FBF0F3D2F8840064
:10348000C0F388105843C1F30363B0FBF3F0D2F8E4
:103490008C3003F01F03E0E70038024040787D01E4
:1034A0000024F4000080BB000129026B14BF01233B
:1034B0000923082A426805D122F00201012908BF28
:1034C00043F01003023A012A94BF43F0600043F036
:1034D000040070470E4B01681A6841F65833B2FB7E
:1034E000F3F20B68920023F480330B6012F1FF3289
:1034F00007D2D0F8803043F04003C0F8803003207A
:1035000070470B6813F48033F0D11846704700BF42
:10351000489100207047000070B50446002800F074
:10352000C58090F87D3003F0FF021BB980F87C2045
:10353000FFF7F0FF0223204684F87D30FFF7CAFF33
:10354000E368012B00F0A180022B0CBF2023002395
:10355000A268022A00F09D80032A00F09880012AC8
:103560000CBF4FF480650025226851498A4203D080
:103570005048824240F090804F480360E36913B3A3
:103580008A4203D04B4B9A4240F088804FF400208F
:10359000FFF718FF2368494A934202D02032934232
:1035A00003D14FF48010FFF70DFF0A22E369504367
:1035B0005B02B0FBF3F0B0FBF2F302FB130009284F
:1035C00008BF01332362636833F00202E26B67D104
:1035D000012A14BF4FF40071002122683848166890
:1035E0003040266B3343666B10603343A66B106824
:1035F0003343666A3343266933436669334303437F
:10360000206A43EA0053A06A2B430B4313605368BC
:1036100023F4604323F00F035360A369516803430D
:10362000E06A0343A06C0B435360264B91680B4048
:103630009360236D91680343E06C03430B43216C5B
:1036400001390B43616C013943EA01239360D3686C
:1036500023F47D6323F00F031B041B0CD360636D05
:10366000D168A06D034300200B43216E43EA014360
:10367000E16D013943EA0123D3600123C4F88000DE
:1036800084F87C0084F87D3070BD102360E743F03F
:1036900001034FF4006567E70B486EE7002079E708
:1036A000012A14BF00214FF4007196E7012070BD7C
:1036B000045801402458014000580140045C014076
:1036C00010C005FF0080F8FF005C0140704738B56E
:1036D0000546D0B1022300244FF0FF3280F87D3040
:1036E00003681C619A61FFF7F5FE2A682846536853
:1036F00043F008035360FFF7E9FFC5F8804085F801
:103700007C40204685F87D4038BD012038BD90F8CA
:103710007C30012B10B5044620D00268012380F8CC
:103720007C301368C06E23F40033136058B9206FE7
:1037300078B92046FFF7CEFE0123002084F87D30C3
:1037400084F87C0010BDFEF742F90028EFD001207C
:1037500010BDFEF73CF90028EBD0F8E7022010BDC1
:10376000F8B50446134631B32BB390F87D60F6B23A
:10377000012E3AD190F87C00012836D00027122281
:10378000E06EC4F8807084F87D20194A84F87C606B
:103790006166A4F86830A4F86A300264154A0765C7
:1037A000C263154AC26422681C32FEF7D3F805468C
:1037B00018B184F87C70012515E026683368DB03B6
:1037C00003D4336843F48033336000212046FFF78D
:1037D0006BFE336918433061336843F40033336060
:1037E000002384F87C302846F8BD0225FBE700BFA3
:1037F000D1380008993800081D390008F8B513467B
:1038000004460A4631B32BB390F87D60F6B2012E20
:103810003AD190F87C10012936D00027222180F877
:103820007C60C0F88070426680F87D10A0F8683037
:10383000A0F86A301549006F016415490765C16336
:103840001449C16421681C31FEF784F8054618B19B
:1038500084F87C70012515E026683368DB0303D407
:10386000336843F48033336000212046FFF71CFEA9
:10387000336918433061336843F400333360002305
:1038800084F87C302846F8BD0225FBE71339000890
:10389000DB3800081D39000838B50368846B1968E7
:1038A00011F4807110D125682046A4F86A102B68A5
:1038B00023F400332B60FFF7F7FD2B6923EA0000A8
:1038C0000123286184F87D30204601F011F838BDCD
:1038D00008B5806B01F016F808BD38B50368846B35
:1038E000196811F4807110D1256820462B6823F4E3
:1038F00000332B60A4F86A10FFF7D6FD2B6923EA8A
:1039000000000123286184F87D30204602F076F81B
:1039100038BD08B5806B02F067F808BD10B5846B40
:10392000D4F8803043F08003C4F88030E36E5B6DE0
:10393000012B03D0236F5B6D012B0DD12268204634
:10394000136823F400331360FFF7C4FD012384F8E8
:103950007D300023A4F86A30204600F0DDFF10BD62
:1039600090F87D0070477047304A0368904212D04B
:10397000B0F1804F0FD0A2F57C4290420BD002F5FF
:103980008062904207D002F58062904203D002F537
:10399000784290421DD14A6823F070031343234AB2
:1039A000904204D123F44073CA68134328E0B0F175
:1039B000804FF7D01E4A9042F4D002F580629042C8
:1039C000F0D002F580629042ECD002F5784290424D
:1039D000E8D0184A9042E5D002F580629042E1D0EA
:1039E00002F580629042DDD0A2F598329042D9D0A3
:1039F00002F580629042D5D002F580629042D1D02B
:103A00004A6923F08003134303608B68C3620B6829
:103A10008362064B984206D003F58063984202D039
:103A20000123436170470B690363F9E7000001401C
:103A3000000400400040014010B50446A0B190F8D9
:103A40003D3003F0FF021BB980F83C20FFF78BFFED
:103A500002232068211D84F83D30FFF785FF0123F4
:103A6000002084F83D3010BD012010BD10B50124A8
:103A7000036A8A408C4023EA04030362036A1A4300
:103A8000026210BD10B5044601220068FFF7EEFF88
:103A90002368084A934203D002F58062934203D11F
:103AA0005A6C42F400425A641A68002042F0010243
:103AB0001A6010BD00000140FFF7E4BF70472DE918
:103AC000F041069D04460F46164698462168CA698D
:103AD00037EA02030CBF01220022B24202D00020CA
:103AE000BDE8F0816B1CF2D09DB9236803201A68F1
:103AF00022F4D0721A609A6822F001029A602023A0
:103B000084F8693084F86A30002384F86830BDE8AE
:103B1000F081FDF7F5FBA0EB08008542D6D8E4E77D
:103B200038B504460568C3692169A26828680A4354
:103B300061690A4393491A430140206A0A43E168D4
:103B40002A606A6822F440520A436A60A269A9683E
:103B5000024321F430610A43AA608B4A954219D18D
:103B600002F594328949D2F8902002F00302B3F5AD
:103B7000004F8A5C40F0B380082A00F2AD80DFE895
:103B800012F026007B00E900AB00F500AB00AB00B3
:103B9000AB00FB007E4A954207D102F5FA327D491F
:103BA000D2F8902002F00C02E1E77B4A95422BD13B
:103BB00002F5F832D2F8902002F03002102A00F01C
:103BC000D28016D8DAB9B3F5004F40F09F80FEF7E7
:103BD000E3FE61684A0802EB4003B3FBF1F39BB2DA
:103BE000002023F00F02C3F3420321681343CB608C
:103BF00038BD202A00F0AB80302A00F0BA80B3F53F
:103C0000004F69D0012038BD644A95420ED102F5BB
:103C1000F632D2F8902002F0C002402A00F0A380D1
:103C2000D0D9802A00F09380C02AE6E75C4A95420A
:103C300010D102F5F432D2F8902002F44072B2F5BD
:103C4000807F00F09080BDD9B2F5007F7FD0B2F5C3
:103C5000407FD2E7534A954217D102F59232D2F80B
:103C6000902002F44062B2F5806F7CD007D8002A21
:103C7000C5D1B3F5004F54D1FEF7A6FEA9E7B2F5C2
:103C8000006F64D0B2F5406FB7E7474A95420FD155
:103C900002F5E032D2F8902002F44052B2F5805F93
:103CA00061D08FD9B2F5005F51D0B2F5405FA4E783
:103CB0003E4A9542A3D102F5DE32D2F8902002F4BA
:103CC0004042B2F5804F4ED07FF67CAFB2F5004F48
:103CD0003DD0B2F5404F90E70120002381E7082A4C
:103CE00090D801A353F822F00D3D0008233D0008B1
:103CF000293D0008053C00083F3D0008053C000840
:103D0000053C0008053C0008453D0008FEF744FE60
:103D1000636800EB5300B0FBF3F080B2E860002072
:103D200038BDFEF751FEF3E76268530803F57403EC
:103D300003F51053B3FBF2F39BB2EB60EFE7FEF732
:103D400045FDE5E76268530803F50043F2E7B3F584
:103D5000004FE9D16068430803F1F47303F5904321
:103D6000B3FBF0F33BE7B3F5004FE8D1FEF72EFDD0
:103D70002FE7B3F5004FE5D16068430803F58033C2
:103D8000EEE700BFF369FFEF001001408AFF000873
:103D9000004400408EFF000800480040004C0040F6
:103DA000005000400014014000780040007C0040BA
:103DB000436ADA0710B506D50168846A4A6822F4B6
:103DC000003222434A609C0706D50168C46A4A68EB
:103DD00022F4803222434A60590706D50168046BF9
:103DE0004A6822F4802222434A601A0706D50168F5
:103DF000446B4A6822F4004222434A60DC0606D53E
:103E00000168846B8A6822F4805222438A60990692
:103E100006D50168C46B8A6822F4005222438A6086
:103E20005A0610D50168046C4A68B4F5801F22F464
:103E3000801242EA04024A6005D14A68446C22F4C6
:103E4000C00222434A601B0606D50268816C536893
:103E500023F400230B43536010BD37B500250446FF
:103E6000C566FDF74DFA226803461268120709D4A9
:103E70002023002084F8693084F8680084F86A30D0
:103E800003B030BD6FF07E424FF400112046009227
:103E90002A46FFF714FE0028EAD00320F0E710B509
:103EA000044660B390F8693003F0FF021BB980F854
:103EB0006820FFF703FE22682423204684F8693037
:103EC000136823F001031360FFF72AFE012816D0C0
:103ED000636A13B12046FFF76BFF236820465A68D8
:103EE00022F490425A609A6822F02A029A601A6874
:103EF00042F00102BDE810401A60FFF7AEBF01209A
:103F000010BD0000BFF34F8FBFF36F8F064B002231
:103F1000C3F850225A6942F400325A61BFF34F8FFE
:103F2000BFF36F8F704700BF00ED00E01B4A002316
:103F3000F0B5C2F88430D2F88010C1F34E3401F0ED
:103F40000703C1F3C9010433B1FA81F000F01F0087
:103F5000BFF34F8F4FF0FF3505FA03FE854004FA9B
:103F600003F301FA00F007460E46013E47EA030C50
:103F70002F44B6F1FF3FC2F860C2F6D1013C734452
:103F8000661CF0D1BFF34F8F536943F48033536104
:103F9000BFF34F8FBFF36F8FF0BD00BF00ED00E0A8
:103FA000174A1849936803F00C03042B10B50DD081
:103FB000082B0DD0144B0B60114B144A9B68C3F3B4
:103FC0000313D25C0B68D3400B6010BD104BF2E7BB
:103FD000546850686302526800F03F0048BF0C4BC1
:103FE000C2F3881258BF084BB3FBF0F35343044AA3
:103FF0005268C2F3014201325200B3FBF2F3DAE736
:1040000000380240489100200024F4009BFF000883
:1040100040787D01294B1A6C42F0805270B51A64C9
:10402000B8B01B6C03F080530193019B01230793ED
:10403000B8B94FF4803308934FF48003022507A8E2
:104040000E9319230D950F934FF4D8731195109378
:10405000092313951293FEF701FA28B1002038B016
:1040600070BD4FF4A023E6E7FEF7C0F90446002830
:10407000F4D14FF40013072614A814934FF00063F3
:104080001A9633934FF4C073199303231C93FEF7CE
:10409000D1FC88B90F230490314602A802934FF453
:1040A000A053039505934FF480530693FEF7C8FB86
:1040B000B0FA80F04009D2E72046D0E7003802404D
:1040C00010B594B00224FFF71DFFFFF72FFF1C4B24
:1040D00007A81A6C42F080521A6400221B6C0794E5
:1040E00003F0805308920D940193019B01230E92DB
:1040F0000A93102311940B930F934FF4D8731394D6
:10410000109309231293FEF7A9F910B1002014B0FF
:1041100010BDFEF76BF90028F8D10F23049007219A
:1041200002A802934FF4A053039405934FF48053D5
:104130000693FEF785FBB0FA80F04009E7E700BF81
:104140000038024008B50020FFF764FF18B9FFF7F8
:10415000B7FF00B9FEE708BD194A0021D2F8883040
:1041600010B543F47003174CC2F88830236843F04D
:1041700001032360A160236823F0847323F4803358
:104180002360114B6360236823F4802323604FF086
:104190000063E16093600D4B0D4A1A60FDF796F8DD
:1041A000FFF7B0FEFFF7C2FEFFF7CCFF236A43F034
:1041B00008032362236A23F00803236210BD00BFB3
:1041C00000ED00E00038024010300024489100204B
:1041D0000024F400054B186830B901221A60044A23
:1041E000044B1A60FCF72ABA704700BF4047002012
:1041F000000C00409C4B002008B5044B1B680BB919
:10420000FFF7E8FF024B586A08BD00BF4047002097
:10421000000C0040044B054A13605863DA6842F012
:104220000202DA60704700BF000C00409C4B002087
:10423000034B044A1360DA6822F00202DA60704726
:10424000000C00409C4B0020034B044A13606FF0AD
:1042500002021A61704700BF000C00409C4B002016
:1042600080B483B000AF0346FB7197F90730002B91
:104270000ADA0D4AFB7903F00F03043B13441B7E5B
:10428000DBB21B09DBB208E0084A97F90730134498
:1042900093F80033DBB21B09DBB218460C37BD467E
:1042A0005DF8047B704700BF00ED00E000E100E036
:1042B00080B485B000AF78607B6801331B017B6000
:1042C0007B68FB60FB6883F3118800BF1437BD4631
:1042D0005DF8047B704700BFEFF3008001B5EFF39A
:1042E000118003B43920FFF7BBFF03461846FFF7E0
:1042F000DFFF044BDB6E1846FDF7ACFB024807F00E
:1043000061F900BF184D00208543000880B500AF5B
:10431000034B9B6A1846FDF79DFB00BF80BD00BFA5
:104320009C4D002080B500AF034B9B6A1846FDF7FB
:1043300091FB00BF80BD00BFB84F002080B500AF2B
:10434000034B9B6A1846FDF785FB00BF80BD00BF8D
:104350002C4F002080B500AF034B9B6A1846FDF739
:1043600079FB00BF80BD00BFDC4B002080B500AFF3
:10437000034B1B6F1846FDF76DFB00BF80BD00BFF0
:10438000304C002080B500AFBFF34F8FBFF36F8F6D
:1043900072B608F03BFB62B600BF80BD80B58CB042
:1043A00000AF78607B68584A93425BD1574A574BBD
:1043B0001B6B43F008031363544B1B6B03F00803A0
:1043C000BB61BB69514A514B1B6B43F00203136342
:1043D0004E4B1B6B03F002037B617B694FF48053F0
:1043E000FB6112233B6200237B620223BB62042336
:1043F000FB6207F11C0319464548FDF7E9FB8023E2
:10440000FB610B23FB6207F11C0319464148FDF7D2
:10441000DFFB3E4A3D4B1B6C43F0807313643B4B08
:104420001B6C03F080733B613B69384A374B1B6A56
:1044300043F080731362354A344B1B6A23F0807358
:10444000136200220F215F20FCF772FF5F20FCF750
:10445000A7FF00220F216020FCF76AFF6020FCF715
:104460009FFF4DE0294A294B1B6B43F00203136366
:10447000264B1B6B03F00203FB60FB684FF4807359
:10448000FB6112233B6200237B620223BB62042395
:10449000FB6207F11C0319461E48FDF799FB4FF418
:1044A0000073FB6107F11C0319461A48FDF790FBE6
:1044B000164A164B1B6C43F400131364134B1B6C0E
:1044C00003F40013BB60BB68104A104B1B6A43F433
:1044D000001313620D4A0D4B1B6A23F40013136281
:1044E00000220F211F20FCF723FF1F20FCF758FF9D
:1044F00000220F212020FCF71BFF2020FCF750FF9B
:1045000000BF3037BD4680BD444700200038024020
:10451000000C02400004024080B582B000AF786019
:104520007868FDF75FFF0346002B25D17B68144AAE
:10453000934203D17B68134A1A6002E07B68124AF7
:104540001A607B68114A5A607B6800229A607B6817
:104550000122DA607B6800221A617B6800225A61BE
:104560007B680022DA617B6800221A627868FFF7B4
:1045700015FF7868FDF755FD00BF0837BD4680BDC3
:104580004447002000600040005400403227914022
:1045900080B58AB004AFF860084611461A46034653
:1045A000FB720B463B811346FB800023FB75FB7AB5
:1045B00099B2F8883A894FF47A730293BB8C0193CD
:1045C0003B6A00930346F868FDF74EFE0346FB7511
:1045D000FB7D002B04D0FB7A1946F86800F034F814
:1045E000FB7D18461837BD4680BD00BF80B58AB038
:1045F00004AFF860084611461A460346FB720B46A4
:104600003B811346FB800023FB75FB7A99B2F88847
:104610003A894FF47A730293BB8C01933B6A0093FF
:104620000346F868FDF768FD0346FB75FB7D002B2C
:1046300004D0FB7A1946F86800F006F8FB7D1846AE
:104640001837BD4680BD00BF80B582B000AF78602E
:104650000B46FB707868FDF736FD7868FFF75CFF66
:1046600000BF0837BD4680BD80B500AF0248FFF7E8
:1046700053FF00BF80BD00BF4447002080B400AF9F
:1046800000BFBD465DF8047B704700BF80B586B0B3
:1046900002AF0346FB710B46BB8013467B807B88D1
:1046A000FB81FB891B0A9BB27B80FB891B029BB2AF
:1046B0009AB27B889BB213439BB29BB27B80BA8831
:1046C000F97902230193BB1C009302230348FFF7EF
:1046D0008DFF00BF1037BD4680BD00BF444700209E
:1046E00080B586B002AF03460A46FB711346BB8015
:1046F0000023BB810023FB81BA88F979022301934F
:1047000007F10C03009302230A48FFF741FFBB891E
:104710001B0AFB81BB891B029BB29AB2FB89134324
:104720009BB2FB81FB89BB81BB8918461037BD4614
:1047300080BD00BF4447002080B582B000AF7860E4
:104740007868FCF721F800BF0837BD4680BD00BF80
:1047500090B585B000AF03463A60FB800B467B7195
:104760000123FB730023BB6000F042FB0022396889
:104770001A4800F08BFA194B194A1A601748FFF7CC
:10478000EFF80346002B03D10021144800F02AF96A
:10479000386800F0BFFA134B9B6834209847B86024
:1047A000BB6848F69412934205D10F4B0D4A1A602C
:1047B0000023FB7301E00123FB73FB7B002B07D17C
:1047C000094B1B681C687A79F9883B683420A0473C
:1047D000FB7B18461437BD4690BD00BF184D002026
:1047E0000458014050910020584E002080B582B0FE
:1047F00000AF78603960104B1B68DB683A6892B292
:104800007968342098470346002B01D001230FE03C
:104810003B68B3F5003F03D23B685B089BB201E005
:104820004FF6FF731A4679680448FEF799FF002394
:1048300018460837BD4680BD584E0020184D002050
:1048400080B582B000AF78603960064A7B6813603B
:1048500039680548FFF7CAFF034618460837BD46C2
:1048600080BD00BF144D0020F801002080B582B04B
:1048700000AF78600C48FEF74AFF0C4B1B689B6941
:104880007968342098470346002B01D0012306E0C5
:104890007B68012B02D10120FBF776FF002318462D
:1048A0000837BD4680BD00BF184D0020584E00207F
:1048B00080B582B000AF78600C4B1B680B4A126861
:1048C000126822F480321A60084A7B68136607482F
:1048D000FEF722FE054B1B68044A1268126842F478
:1048E00080321A6000BF0837BD4680BD184D0020D9
:1048F00080B582B000AF786000F022F800BF0837C2
:10490000BD4680BD80B582B000AF786000F040F851
:1049100000BF0837BD4680BD80B582B000AF78606B
:104920007B681B68054A934202D100F053F801E00E
:1049300001F0B8F800BF0837BD4680BD04580140FB
:1049400080B483B000AF4FF400637B600FE00D4B89
:104950001A6879680C4B0B445B0013441B8899B2AE
:104960000A4A7B6822F813107B6801337B607B68FE
:10497000B3F5805FEBDB00BF0C37BD465DF8047B11
:10498000704700BF144D002000F8FF7FF8010020A1
:1049900080B483B000AF00237B600DE00B4B1A683E
:1049A0007B685B0013441B8899B2094A7B6822F834
:1049B00013107B6801337B607B68B3F5006FEDDB20
:1049C00000BF0C37BD465DF8047B7047144D0020D6
:1049D000F801002080B400AF00BFBD465DF8047B45
:1049E000704700BF80B58CB000AF78603960484A2E
:1049F000474B5B6C43F480035364454B5B6C03F49F
:104A00008003BB61BB69424A414B1B6B43F04003CF
:104A100013633F4B1B6B03F040037B617B693C4A94
:104A20003B4B1B6B43F010031363394B1B6B03F0C1
:104A300010033B613B697023FB6102233B6200234F
:104A40007B620323BB620623FB6207F11C0319464A
:104A50003048FDF7BDF88023FB6107F11C031946C0
:104A60002D48FDF7B5F82A4A294B1B6B43F4800308
:104A70001363274B1B6B03F48003FB60FB687B68AD
:104A80001B68264A934237D1254B00225A60244B9B
:104A900040229A60224B0022DA60214B4FF4806260
:104AA0001A611F4B4FF400625A611D4B4FF40052C4
:104AB0009A611B4B4FF48072DA61194B4FF400324C
:104AC0001A62174B04225A62154B03229A62144B46
:104AD0000022DA62124B00221A63114B114A1A604B
:104AE0007B680F4ADA660E4A7B6893630C48FCF7D2
:104AF0000DFF0B48FCF78CFE00220F213920FCF73C
:104B000017FC3920FCF74CFC00BF3037BD4680BD98
:104B100000380240001002400018024004580140D2
:104B2000D04700202864024080B58CB000AF786088
:104B30003960504A4F4B5B6C43F4800353644D4BD8
:104B40005B6C03F48003BB61BB694A4A494B1B6B36
:104B500043F010031363474B1B6B03F010037B619F
:104B60007B690823FB6102233B6200237B620223F3
:104B7000BB620623FB6207F11C0319463E48FDF7A2
:104B800027F83C4A3B4B1B6B43F400731363394BD0
:104B90001B6B03F400733B613B694FF48053FB6173
:104BA00000233B6200237B620223BB6207F11C03EC
:104BB00019463248FDF70CF82E4A2E4B1B6B43F476
:104BC000800313632B4B1B6B03F48003FB60FB68B8
:104BD0007B681B682A4A934238D12A4B4FF00072F7
:104BE0005A60284B00229A60264B0022DA60254B3F
:104BF0004FF480621A61234B4FF400625A61214BDB
:104C00004FF400529A611F4B4FF48072DA611D4BD2
:104C10004FF400321A621B4B00225A62194B0322D6
:104C20009A62184B0022DA62164B00221A63154B67
:104C3000154A1A607B68134A1A67124A7B689363A5
:104C40001048FCF763FE0F48FCF7E2FD00220E213E
:104C50003C20FCF76DFB3C20FCF7A2FB00220E2160
:104C60002820FCF765FB2820FCF79AFB00BF3037B3
:104C7000BD4680BD003802400010024000240240C2
:104C800024580140304800207064024080B5A8B02C
:104C900000AFF860B9607A6007F110031846FEF7BC
:104CA00091FABB6842F61132934209D0BB6845F2D3
:104CB0002262934204D0BB684AF64442934212D126
:104CC0004FF400233B614FF48013FB6440F2AD13BB
:104CD0007B610223FB6113237B6307F110031846FA
:104CE000FDF7A8FE11E04FF400233B614FF4801361
:104CF000FB644FF4AC737B610723FB6101237B638F
:104D000007F110031846FDF795FE00BFA037BD461A
:104D100080BD00BF80B582B000AF7860324B334AAF
:104D20001A60314B1B68304A1268126822F48032D4
:104D30001A602D4B00225A622B4A7B68D3612A4BA2
:104D400000225A60284B00225A61274B00221A6326
:104D5000254B80225A63244B00229A63224B012266
:104D6000DA63214B00229A601F4B4FF400521A6104
:104D70001D4B01229A611C4B0022DA601A4B002263
:104D80009A62194B0022DA62174B00221A62164B04
:104D900080221A64144B40225A64134B4FF4803221
:104DA0009A64114B0022DA640F4B4FF480221A658B
:104DB0000D4B00225A650C4B00229A650A4B0422C7
:104DC000DA65094B0F221A660748FEF7A5FB064B6A
:104DD0001B68054A1268126842F480321A6000BFEC
:104DE0000837BD4680BD00BF184D00200458014063
:104DF00080B500AF074B084A1A60064B1B68054A8E
:104E00001268126822F480321A600248FEF75FFCD2
:104E100000BF80BD184D00200458014080B582B00D
:104E200000AF7860624B634A1A60614B1B68604A4E
:104E30001268126822F480321A605D4B00225A62B6
:104E40005B4A7B68D3615A4B01225A60584B00225F
:104E50005A61574B00221A63554B80225A63544BB8
:104E600000229A63524B0022DA63514B00229A606F
:104E70004F4B4FF400521A614D4B01229A614C4B3B
:104E80000022DA604A4B00229A62494B0022DA6221
:104E9000474B00221A62464B40221A64444B2022A0
:104EA0005A64434B4FF480329A64414B0022DA64D7
:104EB0003F4B4FF480221A653D4B00225A653C4B14
:104EC00000229A653A4B0422DA65394B05221A66AC
:104ED0003748FEF721FB384B384A1A60364B1B68BF
:104EE000354A1268126822F480321A60324B00226E
:104EF0005A62314A7B68D3612F4B03225A602E4B92
:104F000000225A612C4B00221A632B4B80225A63D9
:104F1000294B00229A63284B0122DA63264B012297
:104F20009A60254B00221A61234B01229A61224B81
:104F30000022DA60204B00229A621F4B1022DA62B4
:104F40001D4B00221A621C4B40221A641A4B20226D
:104F50005A64194B4FF480329A64174B0022DA647A
:104F6000154B4FF480221A65134B00225A65124BE1
:104F700000229A65104B0422DA650F4B05221A664F
:104F80000D48FEF7C9FA0C4B1B680B4A12681268F1
:104F900042F480321A60064B1B68054A1268126898
:104FA00042F480321A6000BF0837BD4680BD00BFA2
:104FB000184D002004580140304C00202458014076
:104FC00080B500AF0A4B0B4A1A600B4B0B4A1A60B4
:104FD000074B1B68064A1268126822F480321A6076
:104FE0000348FEF774FB0448FEF771FB00BF80BD69
:104FF000304C002024580140184D00200458014036
:1050000090B587B000AFB9607A603B600346FB8122
:105010000123FB752A4AFB891380FB89002B10D1E1
:105020003B68DAB2274B1A700022B968264800F0B4
:1050300057FD00F03FFDB86800F0A2FD0023FB75AE
:1050400038E0FFF7BDFF0022B9682048FFF71EFED9
:105050001E4B1F4A1A601D48FEF782FC0346002BB8
:1050600005D100211948FFF7BDFC00F023FDB86809
:10507000FFF7D4FE174B9B6834209847024648F64A
:1050800094139A4209D1134BDB6A34209847124B90
:10509000104A1A600023FB7501E00123FB75FB7DBC
:1050A000002B07D10C4B1B681C68F989BB68642274
:1050B0003420A047FB7D18461C37BD4690BD00BF7D
:1050C000A44700204C9100209C4D0020304C002033
:1050D0002458014050910020584E002080B582B0E5
:1050E00000AF78603960064A7B681360396805480C
:1050F00000F00AF8034618460837BD4680BD00BFD9
:1051000044500020F821002080B582B000AF7860C4
:1051100039602C4B1B88002B43D12B4A7B681360D2
:10512000294A3B685360294B00221A60284B002211
:105130001A60284B1B78022B19D9274B9968274BEB
:105140001B681A462648FCF7E3FA0346002B01D0F9
:10515000012333E0204BD968204B1B681A462148B5
:10516000FCF7D6FA0346002B01D0012326E01A4BA8
:1051700019681A4B1B681A461B48FCF7C9FA034604
:10518000002B01D0012319E0134B5968134B1B6806
:105190001A461648FCF7BCFA0346002B0DD0012333
:1051A0000CE03B689BB21A4679681148FEF726FB73
:1051B0000346002B01D0012300E0002318460837E6
:1051C000BD4680BDA4470020F04D0020C847002008
:1051D000CC4700204C91002090470020A0470020A1
:1051E000DC4B00202C4F0020B84F00209C4D0020AD
:1051F000304C002080B500AF214B1B88002B29D1FB
:10520000204B00221A60204B00221A601F4B1B7893
:10521000022B0FD91E48FCF7BBFA0346002B01D026
:1052200001232BE01B48FCF7B3FA0346002B01D007
:10523000012323E01848FCF7ABFA0346002B01D00A
:1052400001231BE01548FCF7A3FA0346002B14D0FA
:10525000012313E01248FEF75AFA124B1B689B69B0
:105260000121342098470346002B01D0012305E09B
:105270000120FBF789FA002300E00023184680BDD7
:10528000A4470020C8470020CC4700204C910020B4
:10529000DC4B00202C4F0020B84F00209C4D0020FC
:1052A000304C0020584E002080B584B000AF7860AC
:1052B0000023FB607B689D4A934203D19C4B0122F3
:1052C0001A6012E07B689B4A934203D19A4B0122F9
:1052D0001A600AE07B68994A934203D1984B0122F5
:1052E0001A6002E0974B01221A60974B1B78022B41
:1052F00040F2E3808E4B1B68012B40F073818E4B94
:105300001B68012B40F06E818D4B1B68012B40F018
:1053100069818C4B1B68012B40F064818B4B1B68AF
:10532000002B00DA01335B10FB60B2E0884B1A6897
:10533000884B1B685B001A44874B5968FB689B00CD
:105340000B441B681B1285498B4216DB824B596844
:10535000FB689B000B441B681B1247F6F8718B42DD
:1053600008DC7D4B5968FB689B000B441B681B12D3
:105370009BB204E047F6F87301E048F2080313809B
:10538000734B1A68734B1B6801335B001A44724BF2
:105390001968FB689B000B441B681B126F498B420A
:1053A00016DB6D4B1968FB689B000B441B681B12D6
:1053B00047F6F8718B4208DC674B1968FB689B0065
:1053C0000B441B681B129BB204E047F6F87301E024
:1053D00048F2080313805E4B1A685E4B1B68023369
:1053E0005B001A445C4BD968FB689B000B441B684C
:1053F0001B125A498B4216DB574BD968FB689B003E
:105400000B441B681B1247F6F8718B4208DC524BA9
:10541000D968FB689B000B441B681B129BB204E01D
:1054200047F6F87301E048F208031380484B1A6806
:10543000484B1B6803335B001A44474B9968FB6871
:105440009B000B441B681B1244498B4216DB424BEA
:105450009968FB689B000B441B681B1247F6F871A8
:105460008B4208DC3C4B9968FB689B000B441B6833
:105470001B129BB204E047F6F87301E048F2080300
:105480001380344B1B680433324A1360FB680133CA
:10549000FB602E4B1B681A46FB689342FFF446AF35
:1054A000234B00221A60244B00221A60244B002256
:1054B0001A60244B00221A6094E01D4B1B68012BDC
:1054C00040F090801C4B1B68012B40F08B801F4BE1
:1054D0001B68002B00DA01335B10FB6076E01C4B8D
:1054E0001A681C4B1B685B001A441B4B5968FB680D
:1054F0009B000B441B681B1218498B4230DB164B78
:105500005968FB689B000B441B681B1247F6F87137
:105510008B4208DC104B5968FB689B000B441B68EE
:105520001B129BB21EE047F6F8731BE09C4D002057
:10553000AC470020B84F0020B44700202C4F00207B
:10554000BC470020C44700204C910020A047002009
:10555000F04D0020C8470020904700200880FFFF42
:1055600048F208031380304B1A68304B1B68013334
:105570005B001A442E4B1968FB689B000B441B68A8
:105580001B122C498B4216DB294B1968FB689B00C8
:105590000B441B681B1247F6F8718B4208DC244B46
:1055A0001968FB689B000B441B681B129BB204E04C
:1055B00047F6F87301E048F2080313801B4B1B68A1
:1055C00002331A4A1360FB680133FB601A4B1B68F5
:1055D0001A46FB68934282D3184B00221A60184B7C
:1055E00000221A60104B5B685A08104B1B689A42E5
:1055F00008D1144B1B68002B04D1124B01221A60F6
:1056000000F02EFA084B5A68084B1B689A4207D1E3
:10561000064B00221A600B4B00221A6000F0F8F9CA
:1056200000BF1037BD4680BDF04D0020C8470020A8
:10563000904700200880FFFFA0470020AC470020D3
:10564000B4470020CC47002080B584B000AF78601C
:105650000023FB607B689A4A934203D1994B012255
:105660001A6012E07B68984A934203D1974B01225B
:105670001A600AE07B68964A934203D1954B012257
:105680001A6002E0944B01221A60944B1B78022BA3
:1056900040F2E2808B4B1B68012B40F072818B4BF8
:1056A0001B68012B40F06D818A4B1B68012B40F079
:1056B0006881894B1B68012B40F063810023FB60EC
:1056C000B2E0874B1A68874B1B685B001A44864B15
:1056D0005968FB689B000B441B681B1283498B4273
:1056E00016DB814B5968FB689B000B441B681B123F
:1056F00047F6F8718B4208DC7B4B5968FB689B00CE
:105700000B441B681B129BB204E047F6F87301E0E0
:1057100048F208031380724B1A68724B1B680133FE
:105720005B001A44704B1968FB689B000B441B68B4
:105730001B126E498B4216DB6B4B1968FB689B0092
:105740000B441B681B1247F6F8718B4208DC664B52
:105750001968FB689B000B441B681B129BB204E09A
:1057600047F6F87301E048F2080313805C4B1A68AF
:105770005C4B1B6802335B001A445B4BD968FB68C7
:105780009B000B441B681B1258498B4216DB564B7F
:10579000D968FB689B000B441B681B1247F6F87125
:1057A0008B4208DC504BD968FB689B000B441B689C
:1057B0001B129BB204E047F6F87301E048F20803BD
:1057C0001380474B1A68474B1B6803335B001A442E
:1057D000454B9968FB689B000B441B681B124349AF
:1057E0008B4216DB404B9968FB689B000B441B689F
:1057F0001B1247F6F8718B4208DC3B4B9968FB683B
:105800009B000B441B681B129BB204E047F6F87325
:1058100001E048F208031380324B1B680433314A1D
:105820001360FB680133FB60314B1B68002B00DA0F
:1058300001335B101A46FB689A423FF642AF214B98
:1058400000221A60214B00221A60224B00221A60AB
:10585000214B00221A6094E01A4B1B68012B40F088
:1058600090801A4B1B68012B40F08B800023FB605B
:1058700076E01B4B1A681B4B1B685B001A441A4BE3
:105880005968FB689B000B441B681B1217498B422D
:1058900030DB154B5968FB689B000B441B681B12DF
:1058A00047F6F8718B4208DC0F4B5968FB689B0088
:1058B0000B441B681B129BB21EE047F6F8731BE0FB
:1058C0009C4D0020A8470020B84F0020B047002082
:1058D0002C4F0020B8470020C04700204C910020EA
:1058E000F04D0020C8470020904700200880FFFFAF
:1058F000A047002048F208031380334B1A68334B4B
:105900001B6801335B001A44314B1968FB689B002C
:105910000B441B681B122F498B4216DB2C4B19685A
:10592000FB689B000B441B681B1247F6F8718B4207
:1059300008DC274B1968FB689B000B441B681B1293
:105940009BB204E047F6F87301E048F208031380C5
:105950001E4B1B6802331D4A1360FB680133FB605A
:105960001D4B1B68002B00DA01335B101A46FB68E5
:105970009A423FF67EAF194B00221A60184B002264
:105980001A60114B5B685A08104B1B689A4208D189
:10599000144B1B68002B04D1124B01221A6000F03B
:1059A0005FF8094B5A68094B1B689A4207D1074BAD
:1059B00000221A600B4B00221A6000F029F800BF89
:1059C0001037BD4680BD00BFF04D0020C847002005
:1059D000904700200880FFFFA0470020A847002034
:1059E000B0470020CC47002080B582B000AF78607F
:1059F00000F036F800BF0837BD4680BD80B582B0E4
:105A000000AF786000F004F800BF0837BD4680BDE5
:105A100080B483B000AF4FF400637B600FE00D4BA8
:105A20001A6879680C4B0B445B0013440B497A6885
:105A300031F8122092B21A807B6801337B607B6858
:105A4000B3F5805FEBDB00BF0C37BD465DF8047B30
:105A5000704700BF4450002000F8FF7FF82100206D
:105A600080B483B000AF00237B600DE00B4B1A685D
:105A70007B685B0013440A497A6831F8122092B2BD
:105A80001A807B6801337B607B68B3F5006FEDDBC8
:105A900000BF0C37BD465DF8047B704744500020C2
:105AA000F821002080B400AF00BFBD465DF8047B44
:105AB000704700BF80B500AF074B1B88002B04D197
:105AC00000F04EFD00F0A8FD03E000210348FFF7C1
:105AD0002BF800BF80BD00BFA4470020304C002041
