:020000040800F2
:100000000000082089060008D5060008D50600086B
:10001000D5060008D5060008D50600080000000037
:10002000000000000000000000000000B51E0008F5
:10003000D506000800000000D5060008E51D0008F0
:10004000D5060008D5060008D5060008D506000824
:10005000D5060008D5060008D5060008D506000814
:10006000D5060008D5060008D5060008D506000804
:10007000D5060008D5060008D5060008D5060008F4
:10008000D5060008D5060008D5060008D5060008E4
:10009000D5060008D5060008D5060008D5060008D4
:1000A000D5060008D5060008D5060008D5060008C4
:1000B000D5060008D5060008D5060008D5060008B4
:1000C000D5060008D5060008D5060008D5060008A4
:1000D000D5060008D5060008D5060008D506000894
:1000E000D5060008D5060008D5060008D506000884
:1000F000D5060008D5060008D5060008D506000874
:10010000D5060008D5060008D5060008D506000863
:10011000D5060008D5060008D5060008D506000853
:10012000D5060008D5060008D5060008D506000843
:10013000D5060008D5060008D5060008D506000833
:10014000D5060008D5060008D5060008D506000823
:10015000D5060008D5060008D5060008D506000813
:10016000D5060008D5060008D5060008D506000803
:10017000D5060008D5060008D506000800000000D6
:10018000D5060008D5060008D5060008D5060008E3
:10019000D5060008D5060008D5060008D5060008D3
:1001A000D5060008D5060008D5060008D5060008C3
:1001B000D5060008D5060008D5060008D5060008B3
:1001C000D5060008D5060008D5060008D5060008A3
:1001D000D5060008D5060008D5060008D506000893
:1001E000D5060008D5060008D5060008D506000883
:1001F000D5060008D5060008044B05481B1A062B37
:1002000002D9044B03B11847704700BF7F0A002092
:100210007C0A00200000000005490648091A8910E0
:1002200001EBD171491002D0034B03B1184770475D
:100230007C0A00207C0A00200000000010B5064C5B
:10024000237843B9FFF7D8FF044B13B10448AFF349
:1002500000800123237010BD7C0A002000000000F4
:10026000403D000808B5084B1BB108490848AFF3EA
:1002700000800848036813B9BDE80840CCE7064B86
:10028000002BF9D09847F7E700000000800A002013
:10029000403D0008780A002000000000154B002BAC
:1002A00008BF134B9D46A3F5803A00218B460F46AD
:1002B0001348144A121A02F016FD0F4B002B00D0FF
:1002C00098470E4B002B00D09847002000210400D7
:1002D0000D000D48002802D00C48AFF3008002F05A
:1002E0006DFC2000290001F025FE02F0C5FA00BFD8
:1002F000000008000000082000000000F7050008CA
:100300007C0A0020381000200000000000000000DF
:1003100010B50C4CA268A4681346B4F1006F0CD160
:10032000131F094A53F8044F42F8044F074CA242E6
:10033000F8D14FF00053034A9360103043F8201077
:1003400010BD00BF00ED00E0FCFFFF1FC401002056
:1003500038B5144B1A681C46116911F0020F07D00A
:10036000D368980704D56FF00203136102F0FCF81C
:1003700023681A69510714D5DA68520711D56FF04E
:100380000402094D1A615C6A2B68E31AB3F57A7F9F
:1003900007D300F0B3F9034B04F57A722C601B68A5
:1003A0009A6338BD880F0020980A002030B589B0C4
:1003B000264C03A801A900F001FC00F0CFFB244B60
:1003C00001901A6C42F008021A641A6C02F00802DA
:1003D0000292029A1A6A42F008021A621A6A22F01B
:1003E00008021A62A3F50B33069A23604FF0FF331D
:1003F000E360184B02B140000025B0FBF3F0013878
:100400002561A56060601148656100F005FE32203D
:100410001149FFF77DFF4FF48022104B29460B480E
:100420005A6000F01FFE0421084800F01BFE2368FC
:100430000B4928465A6A0A6002F57A729A63DA68AA
:1004400042F00402DA6009B030BD00BF880F00201E
:100450000038024040420F005103000800E100E074
:10046000980A002008B501F0A3FF962002F08DF84D
:10047000962002F08AF8F8E730B50546A1B00C46A0
:1004800001F096FF29466846224602F03BFD051E14
:1004900003DC01F0B7FF21B030BD094B1B6823B965
:1004A000084809210A2201F0FDFD00241DF804106E
:1004B0000134044801F044FFAC42F7D1E9E700BF42
:1004C0006C0F0020F00F00200FB407B504A951F8FD
:1004D000040B0191FFF7D0FF03B05DF804EB04B00B
:1004E0007047000008B5084B1B685BB90748092135
:1004F0000A2201F0D7FD05484FF41651BDE8084027
:1005000001F0F0BE08BD00BF6C0F0020F00F00200E
:1005100002284FF0000309DDC21E074951F82200EE
:1005200041F8223020B103685B68184718467047CD
:100530004FF0FF30704700BFA00A0020022870B5BE
:100540000C4615460FDC0E4B1B680BB9FFF7CAFFB4
:100550006619B44205D00B4814F8011B01F0F0FEF7
:10056000F7E7284670BD0338074B53F8200020B149
:100570000368BDE870401B6818474FF0FF3070BD3E
:100580006C0F0020F00F0020A00A0020022810B5F8
:100590000C460ADC0B4B1B680BB9FFF7A3FF0A489C
:1005A00001F0B0FE2070012010BD0338074B53F856
:1005B000200020B10368BDE810409B6818474FF049
:1005C000FF3010BD6C0F0020F00F0020A00A0020AB
:1005D000022807DD0338064B53F8200020B10368DA
:1005E0001B691847002070474FF0FF30704700BF6D
:1005F000A00A0020704708B5FFF7FCFF08BD000007
:100600000C4A136810B51844EFF30881884205D3EB
:100610000C22094B4FF0FF301A6010BD07490968E2
:1006200021B1074C246821448842F1D21060184659
:1006300010BD00BFF8010020341000209C0A0020EB
:10064000A00B0020074C054608B52368986802F007
:10065000D9F92368D86802F0D5F90DB1FFF702FF88
:10066000FEE700BF6C0A002010B502F0CDFA044688
:1006700010B9024801F08AFE204610BDD9360008A4
:1006800008B102F0C9BA7047DFF830D0002103E0AA
:100690000B4B5B58435004310A480B4B42189A42AB
:1006A000F6D30A4A02E0002342F8043B084B9A4280
:1006B000F9D301F025F8FFF7F1FD7047000008209D
:1006C0004C3D0008F80100207C0A00207C0A002034
:1006D00038100020FEE77047074A032008B513686A
:1006E00043F40073136000F017F80F20FFF75EFE6D
:1006F000FFF7F1FF002008BD003C0240024A1368EA
:1007000001331360704700BFC40F0020014B18680D
:10071000704700BFC40F0020074A00F00700D368ED
:1007200023F4E0631B041B0C43F0BF6343F400336A
:1007300043EA0023D360704700ED00E02DE9F34168
:1007400000220F680123934003EA07059D4240F011
:10075000D4804C6824F0100CBCF1020F14D14FEA85
:10076000D20E02F007064FF00F0800EB8E0EB60017
:10077000DEF8203008FA06F823EA08080B69B340CF
:1007800048EA0303CEF820304FEA420E03230668FE
:100790000CF1FF3C03FA0EF3BCF1010F6FEA030307
:1007A00003EA060804F0030606FA0EF648EA06060F
:1007B000066011D8866803EA060CCE6806FA0EF6C3
:1007C0004CEA06068660466826EA050CC4F3001665
:1007D00096404CEA06064660C66803EA060C8B683B
:1007E00003FA0EF64CEA0603C360E30040F185808D
:1007F000454B02F0030C5E6C4FEA8C0C46F48046CD
:100800005E6422F003065B6C06F1804603F48043CD
:1008100006F59C360193019B0F23D6F808E003FAF6
:100820000CF32EEA030E394B984226D003F5806371
:10083000984224D003F58063984222D003F5806368
:10084000984220D003F5806398421ED003F5806360
:1008500098421CD003F5806398421AD003F5806358
:10086000984218D003F58063984216D003F5806350
:1008700098420CBF09230A2310E000230EE0012355
:100880000CE002230AE0032308E0042306E005232A
:1008900004E0062302E0072300E0082303FA0CF338
:1008A00014F4803F43EA0E03DFF864E0B3606FEABC
:1008B0000506DEF8003014BF2B43334014F4003F2C
:1008C000CEF80030DEF80430DFF844E014BF2B43EC
:1008D000334014F4801FCEF80430DEF8083014BF23
:1008E0002B433340A402CEF80830DEF80C3054BF5E
:1008F00006EA03051D43064BDD600132102A7FF432
:1009000021AF02B0BDE8F081003802400000024093
:10091000003C0140194B1A6C42F0805213B51A6426
:100920001B6C174A03F080530193019B136843F437
:1009300080331360FFF7EAFE0446114B5A68D20376
:1009400007D4FFF7E3FE001BB0F57A7FF5D903204B
:1009500012E01A6842F400321A60FFF7D7FE04462C
:10096000074B5B689B0306D4FFF7D0FE001BB0F576
:100970007A7FF5D9EBE7002002B010BD00380240C5
:100980000070004010B51C4CA36803F00C03042B4E
:100990002ED0082B2ED1626847F6C07102F03F03BB
:1009A000626812F4800F626891FAA1F147F6C07094
:1009B000B1FA81F100EA020008BF104A20FA01F002
:1009C00016BF0F49B2FBF3F2B1FBF3F202FB00F3E7
:1009D000094A50684FF4403292FAA2F2B2FA82F217
:1009E00000F44030D04001304000B3FBF0F010BDC7
:1009F000034810BD014810BD003802400024F40037
:100A000040787D01514A136803F00F03994270B595
:100A100004460D460AD82168880713D54C488368D8
:100A200023F0F002A368134383600BE0136823F004
:100A30000F030B431360136803F00F038B42EAD0DC
:100A4000012070BDC90706D4404A136803F00F03A4
:100A50009D4247D350E062683D4B012A196802D19C
:100A600011F4003F06E0022A02D111F0007F01E0FC
:100A700011F0020FE4D0996821F003010A439A6053
:100A8000FFF744FE63680646012B0ED1304B9B688E
:100A900003F00C03042BD7D0FFF738FE41F2883364
:100AA000801B9842F2D9032070BD022B14D1284B31
:100AB0009B6803F00C03082BC6D0FFF727FE41F21A
:100AC0008833801B9842F2D9EDE7FFF71FFE41F211
:100AD0008833801B9842E6D81D4B9B6813F00C0F9F
:100AE000F3D1B1E7136823F00F032B4313601368AE
:100AF00003F00F03AB42A3D121684A0706D514487F
:100B0000836823F4E052E368134383600B0707D53F
:100B10000F4A2169936823F4604343EAC103936059
:100B2000FFF730FF0A4BF0229B6892FAA2F2B2FA6A
:100B300082F203F0F003D340064AD35CD840064B60
:100B400018600F20FFF732FC002070BD003C02400F
:100B50000038024083370008FC010020084B4FF4A6
:100B6000E0529B6892FAA2F2B2FA82F203F4E053E6
:100B7000D340044AD35C044A1068D840704700BF91
:100B80000038024093370008FC010020084B4FF466
:100B900060429B6892FAA2F2B2FA82F203F46043D6
:100BA000D340044AD35C044A1068D840704700BF61
:100BB0000038024093370008FC0100200F23036037
:100BC0000B4B9A6802F0030242609A6802F0F0024E
:100BD00082609A6802F4E052C2609B6803F460434A
:100BE000DB080361034B1B6803F00F030B607047C6
:100BF00000380240003C02400368F7B5D9070446BC
:100C000003D423689A0753D4A5E0984B9A6802F05E
:100C10000C02042A07D09A6802F00C02082A0BD1B1
:100C20005B685B0208D5914B1B689F03E9D563683D
:100C3000002BE6D1012084E162688C4BB2F5803F45
:100C400013D05AB91A6822F480321A601A6822F452
:100C500080221A60FFF75AFD054624E0B2F5A02F66
:100C60001A6806D142F480221A601A6842F480326F
:100C700005E022F480321A601A6822F480221A6099
:100C8000FFF744FD0546794B1B689E03B9D4FFF777
:100C90003DFD401BC828F6D9032052E1FFF736FD81
:100CA000401BC828F8D8714B1B689803F6D4A8E7F6
:100CB0006E4B9A6812F00C0F07D09A6802F00C0283
:100CC000082A16D15B68590213D4684B1A68920738
:100CD00002D5E268012AADD11968F82090FAA0F097
:100CE0002269B0FA80F021F0F80182400A431A60CC
:100CF00031E0E2685D4BEAB11A6842F001021A6025
:100D0000FFF704FD0546594803689F0705D4FFF720
:100D1000FDFC401B0228F6D9BEE70268F82191FAD3
:100D2000A1F12369B1FA81F122F0F8028B4013435B
:100D3000036010E01A6822F001021A60FFF7E6FC77
:100D400005464A4B1B689E0705D5FFF7DFFC401B95
:100D50000228F6D9A0E72368180703D423685907A7
:100D60004AD524E06269414B82B15A6F42F00102D8
:100D70005A67FFF7CBFC05463C4B5B6F9A07EDD4F7
:100D8000FFF7C4FC401B0228F6D985E75A6F22F012
:100D900001025A67FFF7BAFC0546344B5B6F9B07AD
:100DA000DCD5FFF7B3FC401B0228F6D974E72F4BC4
:100DB0001A6C42F080521A641B6C2D4A03F0805367
:100DC0000193019B136843F480731360FFF79EFC4B
:100DD0000546274B1B68DF0512D5A268234B012A65
:100DE00014D11A6F42F001021A67FFF78FFC054613
:100DF0001E4B1B6F9E0724D5A16900293AD185E0BF
:100E0000FFF784FC401B6428E3D945E75AB91A6F01
:100E100022F001021A671A6F22F004021A67FFF724
:100E200075FC05461DE0052A1A6F03D142F0040245
:100E30001A67D6E722F001021A671A6F22F004023D
:100E4000D2E7FFF763FC41F28833401B9842CFD9C9
:100E500022E7FFF75BFC41F28833401B98423FF6E4
:100E60001BAF024B1B6F9807F3D4C5E70038024055
:100E700000700040344B9A6802F00C02082A3FF4DC
:100E8000D9AE1A68022922F080721A604CD1FFF79D
:100E90003DFC06462C4D2B68990139D447F6C077A6
:100EA00097FAA7F74FF44036B7FA87F796FAA6F6FF
:100EB0004FF07061B6FA86F691FAA1F14FF0E0407A
:100EC000B1FA81F190FAA0F0E369B0FA80F0226AF9
:100ED0001A43636ABB401A43A36A5B08013BB340F1
:100EE0001343E26A8A4043EA0201236B03FA00F2E9
:100EF00041EA02036B602B6843F080732B60FFF7BD
:100F000005FC0446104B1B689A0107D5002018E029
:100F1000FFF7FCFB801B0228BCD9BDE6FFF7F6FB00
:100F2000001B0228EED9B7E6FFF7F0FB0446064B9C
:100F30001B689B01EAD5FFF7E9FB001B0228F6D9E5
:100F4000AAE603B0F0BD00BF0038024070470000C1
:100F50002E4A0368904212D0B0F1804F0FD0A2F514
:100F60007C4290420BD002F58062904207D002F59D
:100F70008062904203D002F57842904218D14A68CC
:100F800023F070031343214A904237D0B0F1804FD1
:100F900034D01F4A904231D002F5806290422DD069
:100FA00002F58062904229D002F57842904225D025
:100FB000184A904222D002F5806290421ED002F57B
:100FC000806290421AD0A2F59832904216D002F573
:100FD0008062904212D002F5806290420ED003608F
:100FE0008B68C3620B688362084B98420BD003F591
:100FF0008063984207D001234361704723F4407314
:10100000CA681343EBE70B690363F4E70000014090
:10101000000400400040014010B50446A0B190F823
:10102000393003F0FF021BB980F83820FFF78EFF3C
:1010300002232068211D84F83930FFF789FF01233E
:10104000002084F8393010BD012010BD01238A40F2
:1010500010B58B40046A24EA03030362036A134356
:10106000036210BD10B5044601220068FFF7EEFFD1
:101070002368084A934203D002F58062934203D169
:101080005A6C42F400425A641A68002042F001028D
:101090001A6010BD0000014070472DE9F041069D27
:1010A00004460E46174698462268D0693040831B96
:1010B00058425841B8421DD1691CF6D09DB92368E9
:1010C00003201A6822F4D0721A609A6822F0010292
:1010D0009A60202384F8693084F86A30002384F809
:1010E0006830BDE8F081FFF711FBC8EB0000A842B3
:1010F000DAD3E4E70020BDE8F081000038B504460B
:101100000568C369A26821692868114362690A43B6
:1011100042EA0301884A0240206A0A432A606A6858
:1011200022F44051E2680A43A1696A600143AA6857
:1011300022F430620A43AA60804A954207D102F540
:1011400094327F49D2F8902002F0030209E07D4AF0
:1011500095420CD102F5FA327B49D2F8902002F088
:101160000C02B3F5004F8A5C40F0B88072E0774A19
:1011700095420DD102F5F832D2F8902002F03002FB
:10118000102A00F086805DD9202A78D0302A0EE01F
:101190006F4A95420DD102F5F632D2F8902002F056
:1011A000C002402A75D04DD9802A68D0C02A7CD090
:1011B00087E0684A95420FD102F5F432D2F89020C8
:1011C00002F44072B2F5807F63D03BD9B2F5007F64
:1011D00055D0B2F5407FEAE75F4A954212D102F559
:1011E0009232D2F8902002F44062B2F5806F50D073
:1011F00002D8002A3DD064E0B2F5006F3FD0B2F5CE
:10120000406FD4E7554A95420FD102F5E032D2F84B
:10121000902002F44052B2F5805F3AD012D9B2F574
:10122000005F2CD0B2F5405FC1E74D4A954248D1EE
:1012300002F5DE32D2F8902002F44042B2F5804F3F
:1012400027D001D87AB13CE0B2F5004F17D0B2F503
:10125000404FACE7082A37D8DFE802F0080E143612
:101260001E3636362A00B3F5004F40D1FFF776FC24
:1012700014E0B3F5004F3DD1FFF788FC0EE0B3F565
:10128000004F3AD16068420802F1F47303F59043CD
:1012900012E0B3F5004F39D1FFF774FB63685A08C9
:1012A00002EB4000B0FBF3F308E0B3F5004F37D199
:1012B0006068430803F58033B3FBF0F39BB2002072
:1012C00004E0B3F5004F35D10120002323F00F01D6
:1012D000C3F3420322680B43D36038BD082A29D8E0
:1012E000DFE802F005080B28142828281E00FFF765
:1012F00035FC0DE0FFF74AFC0AE061684A0802F598
:10130000740303F51053B3FBF1F30FE0FFF73AFB5F
:10131000636800EB5300B0FBF3F080B2E86007E0D5
:101320006268530803F50043B3FBF2F39BB2EB6032
:10133000002038BD012038BDF369FFEF00100140E7
:10134000723700080044004076370008004800402B
:10135000004C004000500040001401400078004064
:10136000007C0040436ADA0710B506D5046862685D
:1013700022F40031826A0A4362609C0706D5046841
:10138000626822F48031C26A0A436260590706D556
:101390000468626822F48021026B0A4362601A07C3
:1013A00006D50468626822F40041426B0A43626019
:1013B000DC0606D50468A26822F48051826B0A43D9
:1013C000A260990606D50468A26822F40051C26B97
:1013D0000A43A2605A0610D50168046C4A68B4F545
:1013E000801F22F4801242EA04024A6005D14A6852
:1013F00022F4C004426C22434A601B0606D50168F1
:101400004B6823F40022836C13434B6010BD73B50B
:1014100000260446C666FFF779F9236805461B686F
:101420001A0704D423681B685B071AD50DE06FF018
:101430007E4320464FF40011324600932B46FFF7BF
:101440002CFE0028EED0032013E06FF07E432046F0
:101450004FF48001002200932B46FFF71EFE002868
:10146000F1D12023002084F8693084F8680084F8E2
:101470006A3002B070BD10B5044660B390F86930B0
:1014800003F0FF021BB980F86820FFF705FE226811
:101490002423204684F86930136823F00103136085
:1014A000FFF72CFE012816D0636A13B12046FFF720
:1014B00059FF236820465A6822F490425A609A687D
:1014C00022F02A029A601A6842F00102BDE8104038
:1014D0001A60FFF79CBF012010BD0000BFF34F8FC3
:1014E000BFF36F8F064B0022C3F850225A6942F4B3
:1014F00000325A61BFF34F8FBFF36F8F704700BF49
:1015000000ED00E0174B0022F0B5C3F88420D3F8BB
:101510008030C3F34E3203F00704C3F3C90304342D
:10152000B3FA83F505F01F05BFF34F8F02FA04F7F6
:10153000194601FA05F60B4811F1FF3146EA070694
:10154000C0F86062F5D212F1FF32EFD2BFF34F8FD5
:10155000436943F480334361BFF34F8FBFF36F8F11
:10156000F0BD00BF00ED00E0174A1849936803F092
:101570000C03042B03D0082B03D0154B19E0154B9B
:1015800017E05068536810F4800F506803F03F0371
:1015900018BF104AC0F3881008BF0D4AB2FBF3F31E
:1015A000094A43435268C2F3014201325200B3FB7D
:1015B000F2F30B60044B084A9B68C3F30313D25C3D
:1015C0000B68D3400B60704700380240FC010020DC
:1015D0000024F40040787D01833700081F4B1A6C0B
:1015E00042F0805210B51A6494B01B6C03F0805323
:1015F0000193019B0123079310B94FF4803301E05D
:101600004FF4A02308934FF48003022407A80E93FD
:1016100019230D940F934FF4D87311941093092349
:101620001293FFF7E9FA08B1002014E0FFF772F90E
:101630000028F9D10F230490072102A802934FF448
:10164000A053039405934FF480530693FFF7DAF900
:10165000B0FA80F0400914B010BD00BF003802405D
:1016600010B594B00224FFF739FFFFF74BFF1C4B76
:1016700007A81A6C42F080521A6400221B6C089270
:1016800003F080530D940E920193019B0323119458
:10169000079301230A9310230B930F934FF4D873EE
:1016A000109309231293FFF7A7FA08B1002014E062
:1016B000FFF730F90028F9D10F230490072102A881
:1016C00002934FF4A053039405934FF48053069371
:1016D000FFF798F9B0FA80F0400914B010BD00BFD0
:1016E0000038024008B50120FFF778FF30B9FFF756
:1016F00075FF18B9FFF7B4FF00B9FEE708BD000099
:10170000194A0021D2F8883010B543F47003174C01
:10171000C2F88830236843F001032360A160236886
:1017200023F0847323F480332360114B63602368B8
:1017300023F4802323604FF00063E16093600D4B3E
:101740000D4A1A60FEF7C8FFFFF7C8FEFFF7DAFE82
:10175000FFF7C8FF236A43F008032362236A23F0DC
:101760000803236210BD00BF00ED00E00038024016
:1017700010300024FC0100200024F40080B582B069
:1017800000AF786039607B681B881BB2B3F1FF3F04
:1017900004D134220B490C4800F0E6FD3B68002BD5
:1017A00005D07B68DB687A6852681A6005E07B6860
:1017B000DB687A68526812041A6000BF0837BD46B9
:1017C00080BD00BF9C3700083838000880B582B063
:1017D00000AF78600B467B807B681A46002313605D
:1017E00053609360D3607B68B7F9022011461846B6
:1017F00000F050FE7B6818460837BD4680BD00BF2C
:1018000080B582B000AF78600B467B807B681A465B
:101810000023136053609360D3607B68B7F90220A4
:101820001146184600F050FE7B6818460837BD4642
:1018300080BD00BF80B582B000AF786039607B6842
:1018400039681846FFF79AFF00BF0837BD4680BDCC
:1018500090B585B000AF78600B46FB704C497A6854
:1018600013465B0013449B000B4408331B78002B8A
:1018700059D1FB78002B25D11020FEF7F5FE034649
:101880001C4643497A6813465B0013449B000B4493
:101890001B881BB219462046FFF798FF3C497A681F
:1018A00013465B0013449B000B4404331C6038490F
:1018B0007A6813465B0013449B000B4408330122F3
:1018C0001A7027E0FB78012B24D11020FEF7CCFE04
:1018D00003461C462E497A6813465B0013449B005E
:1018E0000B441B881BB219462046FFF789FF284985
:1018F0007A6813465B0013449B000B4404331C605E
:1019000023497A6813465B0013449B000B44083359
:1019100002221A707A6813465B0013449B001C4A2B
:101920001344FB602FE01A497A6813465B001344A6
:101930009B000B4408331B78012B0BD1FB78002B49
:1019400008D17A6813465B0013449B00104A134485
:10195000FB6018E00E497A6813465B0013449B0055
:101960000B4408331B78022B0BD1FB78012B08D1D9
:101970007A6813465B0013449B00054A1344FB60DE
:1019800001E00023FB60FB6818461437BD4690BD9C
:101990002002002080B584B000AF78600B46FB7059
:1019A0007B68FB607B68002B06D0FB685B68FA787D
:1019B00011461846FFF73EFF00BF1037BD4680BDF9
:1019C00080B584B000AF78607B68FB60FB681B7AF1
:1019D000022B08D1FB685B681846FEF751FEFB68D6
:1019E00000221A720BE0FB681B7A012B07D1FB68FF
:1019F0005B681846FEF744FEFB6800221A7200BFBF
:101A00001037BD4680BD00BF90B583B000AF354BE9
:101A10001B6807EE903AB8EEE76B334B93ED047B0F
:101A2000B4EEC76BF1EE10FA07D52E4B1B68002BF6
:101A300003DB2D4BD3E9003403E04FF000034FF0FC
:101A40000004C7E90034274B1B6807EE903AB8EE54
:101A5000E76B254B93ED027BB7EE005B37EE457BE2
:101A6000B4EEC76BF1EE10FA03DB1E4B00221A60D6
:101A700004E01C4B1B6801331A4A1360194B9B6826
:101A800097ED007BB5EE407BF1EE10FA14BF01221A
:101A90000022D2B211461846FFF77CFF114B1B699A
:101AA00097ED007BB5EE407BF1EE10FA14BF0122FA
:101AB0000022D2B211461846FFF76CFF094B9B6912
:101AC00097ED007BB5EE407BF1EE10FA14BF0122DA
:101AD0000022D2B211461846FFF75CFF00BF0C3758
:101AE000BD4690BDC80F00200002002080B582B026
:101AF00000AF214B00221A601C2200211F4801F078
:101B0000F2F81E4B00221A601C4B00225A601C4B3C
:101B10007B601A4B01225A600D233B60012138681B
:101B2000FFF796FE02467B685A60144B0022DA608B
:101B3000144B7B60114B0122DA6095233B6001213D
:101B40003868FFF785FE02467B685A600B4B00221F
:101B50005A610D4B7B60094B01225A619D233B600A
:101B600001213868FFF774FE02467B685A6000BFA7
:101B70000837BD4680BD00BFE40F0020C80F00201D
:101B8000CC0F0020D40F0020DC0F002080B500AF68
:101B9000124B5B68012B07D1104B02225A600F4B8E
:101BA0009B681846FFF70CFF0C4BDB68012B07D135
:101BB0000A4B0222DA60094B1B691846FFF700FF47
:101BC000064B5B69012B07D1044B02225A61034B80
:101BD0009B691846FFF7F4FE00BF80BDC80F0020C8
:101BE00080B483B000AF03463960FB7197F90730CA
:101BF000002B0BDA0D49FB7903F00F03043B3A6825
:101C0000D2B21201D2B20B441A7609E0084997F910
:101C100007303A68D2B21201D2B20B4483F80023E3
:101C200000BF0C37BD465DF8047B704700ED00E057
:101C300000E100E080B500AFFEF74EFD00F008F8CF
:101C400000216FF00400FFF7CBFF00BF80BD00BF95
:101C500080B596B000AF002387F85730294A294B4A
:101C60001B6C43F080531364264B1B6C03F08053B2
:101C7000BB60BB68244A244B1B6843F44043136099
:101C8000214B1B6803F440437B607B680123FB60AE
:101C90004FF480333B6102237B624FF48003BB62CD
:101CA0001923FB624FF4C8733B6302237B63082351
:101CB000BB6307F10C031846FEF79EFF034687F847
:101CC0005730FEF727FE034687F857300F233B6453
:101CD00002237B640023BB644FF4A053FB644FF4E6
:101CE00080533B6507F1400305211846FEF78AFE45
:101CF000034687F8573097F8573018465837BD468F
:101D000080BD00BF003802400070004080B483B046
:101D100000AF03463960FB7197F90730002B0BDAEF
:101D20000D49FB7903F00F03043B3A68D2B212016C
:101D3000D2B20B441A7609E0084997F907303A689D
:101D4000D2B21201D2B20B4483F8002300BF0C3789
:101D5000BD465DF8047B704700ED00E000E100E067
:101D600080B582B000AF78607B68013BB3F1807FC3
:101D700001D301230FE00A4A7B68013B53600F2126
:101D80004FF0FF30FFF7C2FF054B00229A60044B73
:101D900007221A60002318460837BD4680BD00BFE1
:101DA00010E000E080B500AFBFF34F8FBFF36F8F3F
:101DB0000A4B1A680A4B1B689A4202D3074B00224F
:101DC0001A60064B1B685A1C04490A60002B03D199
:101DD00072B600F08BF862B600BF80BDEC0F002039
:101DE000E80F0020EFF3008001B5024800F04AF848
:101DF00000BF00BFA51D000880B584B000AF7860AB
:101E00001C4B1B6807EE903AB8EE677AD7ED017A63
:101E100067EE277AFCEEE77A17EE903AFB60FB68F4
:101E2000B3F1807F18D3FB6807EE903AB8EE677A7B
:101E3000DFED116AC7EE267AFCEEE77A17EE903AEC
:101E400001330E4A13600D4B1B68FA68B2FBF3F3C3
:101E50001846FFF785FF05E0084B00221A60F86876
:101E6000FFF77EFF064B00221A6000BF1037BD4609
:101E700080BD00BFFC010020FFFF7F4BE80F00206A
:101E8000EC0F00201EF0100F08BFB0EE400A03B4A4
:101E900088B004A006904FF0807007907FF0060095
:101EA0008646704703BC8047BFF36F8F00DFFEE7B5
:101EB00000BF00BF1EF0100F08BFB0EE400A1EF0BA
:101EC000040F0CBFEFF30880EFF30980816911F86C
:101ED000020C00B108E01EF0100F0CBF1AB008B0E1
:101EE00003BC80F300880847FEE700BF80B500AF61
:101EF0000E4B1B785A1CD1B20C4A1170002B09D022
:101F00000B4B01221A60094B1B78013BDAB2074BDD
:101F10001A7009E062B6FFF777FD72B6034B1B78C3
:101F2000013BDAB2014B1A7080BD00BFA80B002044
:101F3000A40B002080B584B000AF0123FB71194BC6
:101F4000FB60194BBB6072B6FFF774FE174B1B6842
:101F500000221A60FFF7CAFDF868FFF74DFF134B28
:101F60001B681B68002B0CBF01230023DBB2FB7135
:101F700062B662B60AE00D4B1B681B68002B14BFEB
:101F800001230023DBB21A46094B1A70FB79DBB23E
:101F9000002BF0D1FFF7FAFD72B600231846103778
:101FA000BD4680BDCDCCCC3D000058435038000824
:101FB000A90B0020054B186830B901221A60044AA9
:101FC000044B1A60FEF7F2B9704700BFE80B00201F
:101FD000000C0040AC0B002008B5044B1B680BB98B
:101FE000FFF7E8FF024B586A08BD00BFE80B00206E
:101FF000000C0040034B1B685863DA6842F0020291
:10200000DA607047AC0B0020034B1A68D36823F0EA
:102010000203D360704700BFAC0B0020024B6FF08F
:1020200002021B681A617047AC0B002041687023E4
:102030001A4A4B43016810B5D418D1508368C2685E
:102040006360234643F8082F02695A6042699A6028
:10205000002304F11002E3619360A4F85230A4F865
:102060005030A4F85A30A4F85830B0F91A3001337F
:1020700001D1082305E0B0F9183001330CBF042367
:102080000C235360FFF770FA2046FFF7F4F920B1F4
:102090000348BDE8104000F079B910BDEC0B0020FA
:1020A00054380008F0B5154689B004460E46084677
:1020B000814900F049FA07468049284600F044FA71
:1020C0000146384600F022FA2060013004D17C48F5
:1020D00069227C4900F048F923687B4A7B4F934290
:1020E00000F0958020D8A2F50062934267D002F5F7
:1020F0008062934277D0A2F50062934240F0AF80B5
:10210000734B1A6A42F400321A621A6A22F40032DD
:102110001A621A6C42F400321A641B6C03F4003326
:102120000193019B012399E06A4A934200F0838066
:1021300018D8A2F58062934240F09180644B1A6AED
:1021400042F080421A621A6A22F080421A621A6CC5
:1021500042F080421A641B6C03F080430693069B96
:1021600006237BE0BB4216D05B4A934277D1584BA3
:102170005A6A42F020025A625A6A22F020025A62D7
:102180005A6C42F020025A645B6C03F02003059302
:10219000059B052362E04E4B5A6A42F010025A62D8
:1021A0005A6A22F010025A625A6C42F010025A64C3
:1021B0005B6C03F010030093009B00234EE0444B44
:1021C0001A6A42F480221A621A6A22F480221A627F
:1021D0001A6C42F480221A641B6C03F4802302936D
:1021E000029B02233AE03A4B1A6A42F400221A6236
:1021F0001A6A22F400221A621A6C42F400221A644B
:102200001B6C03F400230393039B032326E0304B52
:102210001A6A42F480121A621A6A22F480121A624E
:102220001A6C42F480121A641B6C03F4801304933A
:10223000049B042312E0264B1A6A42F000421A6201
:102240001A6A22F000421A621A6C42F000421A64C2
:102250001B6C03F000430793079B07236360304622
:10226000154900F035F92846144900F031F9721C7F
:1022700003D03046012100F0B7FA6B1C03D028468A
:10228000012100F0B1FA4FF41653268365832046EE
:10229000A3600023E36023616361FFF7C7FE236847
:1022A000BB4207D101220D4B0D4821461A60442242
:1022B00000F00EFD09B0F0BD403B0008E03A000818
:1022C0006C380008883800080050004000100140B9
:1022D00000380240007C0040001401406C0F0020D8
:1022E000F00F00208160FFF7A1BE0000426870235C
:1022F0005343034AD358D869C0F34010704700BF16
:10230000EC0B002038B5044645682046FFF7EEFF89
:102310000028FAD07023034A6B43D358586AC0F39D
:10232000080038BDEC0B0020426870235343034A79
:10233000D358D869C0F3C010704700BFEC0B002021
:1023400070B505460C4646682846FFF7EDFF0028A5
:10235000FAD07023034AC4F308047343D3589C6231
:1023600070BD00BFEC0B002070B506460D4614464C
:1023700000F01EF831462A4623460348FEF7A4F82B
:10238000BDE87040FEF76EB8273900080FB407B5F6
:1023900004A951F8040B0191FEF76EF8012000F03A
:1023A0006BFAEFF3108000F0010080F0010070473D
:1023B00038B5FFF7F6FF80F00100C5B272B60C4CDD
:1023C00023680BB90B4B1D702368013304D10A48F5
:1023D00032220A49FFF7C8FF23682BB125B9084804
:1023E00036220649FFF7C0FF23680133236038BD5A
:1023F000700F0020740F0020583900087E39000843
:10240000C339000810B50A4C236883B1FFF7C9FF30
:1024100020B1084847220849FFF7A6FF2368013B7F
:10242000236023681BB9054B1B7803B962B610BD46
:10243000700F0020C33900087E390008740F002097
:1024400070B50E460446154600F0BAF8013609D0BC
:102450002046002100F0CEF820462946BDE8704015
:1024600000F0C3B870BD000038B5B0F900300446C4
:102470000D46013304D1054834220549FFF774FFA6
:10248000E268636805B91B04136038BDD7390008DA
:10249000EF3900080022FFF7D3BF70B50E4604469F
:1024A000154600F08DF801360DD020462946FFF77D
:1024B000DBFF2046012100F09DF820460021BDE809
:1024C000704000F092B870BD0022FFF7E6BF000038
:1024D00010B50446013001D110BD0C31B1F9003006
:1024E0005A1C0BD0A342F8D12046896800F04EF95F
:1024F00020460021BDE8104000F076B90248BDE852
:102500001040FFF743BF00BF613A0008884208B59A
:102510000AD0431C07D0013106D00448FFF736FF2C
:102520004FF0FF3008BD084608BD00BF723A0008F2
:10253000B1F900305A1C05D0834201D14868704778
:102540000C31F5E718467047421C10B5044607D019
:10255000FFF7EEFF431C044602D10248FFF716FFC7
:10256000204610BD833A0008014800F061B900BF61
:10257000D83A000838B50446FFF72EFD0546FFF7A8
:102580002BFD401BA042FAD338BD4FF47A73584359
:10259000FFF7F0BF431C10B5044604D106482722BC
:1025A0000649FFF7E1FE2046002100F0EFF804F0B5
:1025B0000F040120A04010BDDC390008943B000846
:1025C00070B54B1C04460E4621800DD0C1F303109C
:1025D00000F02AF805463046FFF7DCFF05F110034E
:1025E00018356060A360E56070BDB0F9000000F0D0
:1025F000FBB8000038B5B0F9003005460C46013391
:1026000004D1074846220749FFF7AEFE012CB5F971
:1026100000000CBF21460021BDE8384000F0B6B8EC
:10262000D7390008943B000800B58DB00A2800F2A5
:102630008C80DFE800F006121E2A36424E5A66727F
:102640007E00454B45481A6B42F001021A631B6B32
:1026500003F001030193019B7BE03F4B40481A6B61
:1026600042F002021A631B6B03F002030293029B07
:102670006FE0394B3B481A6B42F004021A631B6B44
:1026800003F004030393039B63E0334B36481A6B58
:1026900042F008021A631B6B03F008030493049BC7
:1026A00057E02D4B31481A6B42F010021A631B6B36
:1026B00003F010030593059B4BE0274B2C481A6B46
:1026C00042F020021A631B6B03F020030693069B63
:1026D0003FE0214B27481A6B42F040021A631B6B04
:1026E00003F040030793079B33E01B4B22481A6B10
:1026F00042F080021A631B6B03F080030893089B6F
:1027000027E0154B1D481A6B42F480721A631B6B4D
:1027100003F480730993099B1BE00F4B18481A6B55
:1027200042F400721A631B6B03F400730A930A9B52
:102730000FE0094B13481A6B42F480621A631B6B5B
:1027400003F480630B930B9B03E00F48FFF71EFE1F
:1027500000200DB05DF804FB00380240000002408C
:102760000004024000080240000C02400010024039
:102770000014024000180240001C024000200240E9
:102780000024024000280240F33B0008431C30B5FF
:10279000054687B00C4604D1104881221049FFF746
:1027A000E3FDC5F3031005F00F05FFF73DFF01231F
:1027B00004F00F0201A9AB4001930A4B53F82230F9
:1027C0000293C4F30213C4F3C314039303230594C5
:1027D0000493FDF7B3FF07B030BD00BFDC3900083C
:1027E000143C0008743C0008431C70B506460C46B7
:1027F00004D10D48A6220D49FFF7B6FD06F00F05DE
:10280000C6F30310FFF710FF03226B00C168032C0F
:1028100002FA03F228BF002421EA02029C40C260AF
:10282000C2681443C46070BDDC390008143C000861
:10283000036870B5DB680446984763685A68236884
:102840001AB99B68BDE87040184715685B689847DF
:10285000281A6368002808DC5A68916859601B6868
:10286000002BEAD050689847E7E721685A680B695F
:102870001068BDE87040184708B5074B044613B10F
:102880000021AFF30080054B1868836A03B19847B5
:102890002046FDF7D7FE00BF00000000083D0008FD
:1028A0008A892DE9F041054610070C4659D44B683A
:1028B000002B02DC0B6C002B17DDE66AAEB102F4D4
:1028C0008052002392B22F682B600AB1606D15E030
:1028D000216A01232846B047411C0FD12B686BB1F8
:1028E0001D2B01D0162B03D12F600020BDE8F081F5
:1028F000A38943F04003A381BDE8F081A3895A076F
:1029000005D56368C01A636B0BB1236CC01A002332
:102910000246E66A216A2846B047431CA38906D1CD
:1029200029681D293AD8214ACA40D60736D500223F
:102930006260D9042269226004D5421C01D12B684F
:1029400003B96065616B2F600029CED004F14403A8
:10295000994202D0284600F0CFF900206063BDE81C
:10296000F0810F69002FC0D093070E6808BF4B6934
:102970000F6018BF0023C7EB06088B6002E0074416
:10298000C0EB0808B8F1000FAFDD43463A46216AB4
:10299000A66A2846B0470028F1DCA38943F040032B
:1029A000A3814FF0FF30BDE8F08100BF010040205F
:1029B00038B50B6905460C46DBB118B183690BB914
:1029C00000F072F80C4B9C4201D16C6808E00B4B94
:1029D0009C4201D1AC6803E0094B9C4208BFEC6803
:1029E000B4F90C302BB121462846BDE83840FFF73A
:1029F00057BF002038BD00BFA83C0008C83C0008F5
:102A0000E83C0008014620B9044B0549186800F06D
:102A1000B7B8044B1868FFF7CBBF00BF083D0008EC
:102A2000B12900086C0A0020014900F0A9B800BFD4
:102A3000B1290008002310B5044603604360836099
:102A400081814366C2810361436183611946082223
:102A50005C3000F048F9054B6362054BA362054BFF
:102A6000E362054B2462236310BD00BF4D2E0008B6
:102A70006F2E0008A72E0008CB2E000870B5682323
:102A80004D1E5D430E4605F1740100F07BF90446CE
:102A900040B1002180E842000C30A06005F16802DE
:102AA00000F021F9204670BD836910B5044633BBA0
:102AB0008364C3640365124B124A1B6882629842A6
:102AC00004BF0123836100F01FF86060204600F01E
:102AD0001BF8A060204600F017F80022E0600421F7
:102AE0006068FFF7A7FF01220921A068FFF7A2FF96
:102AF00002221221E068FFF79DFF0123A36110BDB0
:102B0000083D0008292A0008F8B51C4B1E68B36967
:102B1000074613B93046FFF7C7FF4836B4687368F5
:102B2000013B04D4B4F90C507DB16834F8E7336844
:102B30000BB13668F2E704213846FFF79FFF30609B
:102B40000028F6D10C233B60F8BD4FF6FF73E381FC
:102B50000123A38165662560A560656025616561C7
:102B6000A5610822294604F15C0000F0BCF8656309
:102B7000A563A564E5642046F8BD00BF083D0008D4
:102B80002DE9F8438046894600F14804002694B1B7
:102B9000A5686768013F0CD4AB89012B07D9B5F94B
:102BA0000E30013303D029464046C84706436835F6
:102BB000F0E72468EBE73046BDE8F88370B50E4BCC
:102BC0000E4CE41AA41000251E46A54204D056F867
:102BD000253098470135F8E700F01AFD084C094BFD
:102BE000E41AA41000251E46A54204D056F825304C
:102BF00098470135F8E770BD700A0020700A002080
:102C0000740A0020700A0020024B0146186800F088
:102C1000B9B800BF6C0A0020024B0146186800F0EA
:102C20006BB800BF6C0A002000000000000000002C
:102C300001F0FF01102A2BDB10F0070F08D010F86D
:102C4000013B013A8B422DD010F0070F42B3F6D171
:102C5000F0B441EA012141EA014122F007047FF08A
:102C600000070023F0E80256083C85EA010586EAE1
:102C7000010685FA47F5A3FA87F586FA47F6A5FA1D
:102C800087F68EB9EED1F0BC01F0FF0102F0070229
:102C900032B110F8013B013A83EA010313B1F8D1D4
:102CA0000020704701387047002D06BF35460338B5
:102CB000073815F0010F07D1013015F4807F02BFEE
:102CC000013015F4C03F0130F0BC0138704700BF3F
:102CD00010B5431E0A44914204D011F8014B03F889
:102CE000014FF8E710BD02440346934202D003F8B7
:102CF000011BFAE77047000030B500293ED051F8BB
:102D0000042C0B1F1E49002AB8BF9B180A680C46EA
:102D100012B95A600B6030BD9A420ED91968581822
:102D2000824204BF106852685A6004BF09181960D3
:102D3000236030BD994203D80A4651680029F9D171
:102D4000146815199D420AD11B682344D01881428A
:102D5000136013D10868034413604B680DE002D977
:102D60000C23036030BD18681C18A14204BF0C6816
:102D70004968596004BF00191860536030BD00BF36
:102D8000840F002070B5CD1C25F0030508350C2DEF
:102D900038BF0C25002D064603DA0C2333600020D3
:102DA00070BDA942F9D81F4B1C681A462146A1B133
:102DB0000B685B1B0ED40B2B03D90B60CC18CD50CA
:102DC0001EE08C420DBF63684B686360136018BFE0
:102DD0000C4615E00C464968E9E7134C23681BB91B
:102DE000304600F023F820602946304600F01EF8F7
:102DF000431CD2D0C41C24F00304A0420AD1256095
:102E000004F10B00231D20F00700C31A09D05A4219
:102E1000E25070BD211A304600F008F80130EED1C2
:102E2000BBE770BD840F0020800F002038B5064C32
:102E30000023054608462360FDF7E2FB431C02D150
:102E4000236803B12B6038BD3410002010B50C4648
:102E5000B1F90E1000F07EFB0028ABBF636DA389B3
:102E60001B1823F48053ACBF6365A38110BD2DE90B
:102E7000F0411F468B89DB0505460C46164605D5F5
:102E800002230022B1F90E1000F068F8A389B4F90A
:102E90000E1023F48053A38132463B462846BDE8FA
:102EA000F04100F039B810B50C46B1F90E1000F041
:102EB00055F8431CA38915BF606523F4805343F480
:102EC0008053A38118BFA38110BDB1F90E1000F08B
:102ED00035B810B59AB04FF40274009104916FF0B8
:102EE0000041029105914FF6FF71ADF80E10694651
:102EF000ADF80C4000F09EF8009B00221A701AB04A
:102F000010BD000013460A46014602480068FFF75C
:102F1000E0BF00BF6C0A002038B5074C05460846E4
:102F20001146002222601A46FDF708FB431C02D11D
:102F3000236803B12B6038BD3410002038B5064C2F
:102F40000023054608462360FDF7E2FA431C02D140
:102F5000236803B12B6038BD3410002038B5074C0E
:102F6000054608461146002222601A46FDF730FB4E
:102F7000431C02D1236803B12B6038BD34100020FC
:102F80002DE9F0478E689E4282460C46914698464F
:102F90003ED88A8912F4906F3AD0256809696F1A71
:102FA0006569022305EB450595FBF3F57B1C43445E
:102FB0009D4238BF1D4653050FD52946FFF7E2FE57
:102FC000064698B13A462169FFF782FEA38923F4A9
:102FD000906343F08003A38113E02A4600F0E7FAF0
:102FE000064670B921695046FFF786FE0C23CAF8E1
:102FF0000030A38943F04003A3814FF0FF30BDE8C8
:10300000F087266165613E44ED1B2660A56046465B
:10301000464528BF464632464946206800F0ACFA8D
:10302000A3689B1BA36023681E4426600020BDE8A4
:10303000F08700002DE9F04F9DB0804603938B8907
:103040001C060D4616460DD50B695BB94021FFF7EE
:1030500099FE2860286118B90C23C8F80030CDE02B
:1030600040236B610023099320238DF82930DFF87A
:103070009CB130238DF82A3037463C4614F8013B8A
:103080001BB9B7EB060910D003E0252BF9D0274672
:10309000F3E74B46324629464046FFF771FF0130C1
:1030A00000F0A780099B4B4409933B78002B00F06C
:1030B000A08000234FF0FF320493079305920693FC
:1030C0008DF853301A930126052221784E48FFF7D8
:1030D000AFFD671C049B38B14B4A801A06FA00F01A
:1030E000184304903C46EFE7D90644BF20228DF8F0
:1030F00053201A0744BF2B228DF8532022782A2A06
:1031000003D0079A00210A200BE0039A111D1268D0
:103110000391002A10DA524243F002000792049011
:103120000BE0274601343B78303B092B03D800FBEA
:1031300002320121F5E701B107923B782E2B1ED117
:103140007B782A2B0AD1039B1A1D1B680392002B44
:10315000B8BF4FF0FF330237059310E0002305930B
:10316000781C19460A24074601303A78303A092A71
:1031700003D804FB01210123F5E703B105910322E4
:1031800039782248FFF754FD40B14023CBEB0000D3
:1031900003FA00F0049B18430490013739781C4867
:1031A0008DF8281006227E1CFFF742FD88B1194BCE
:1031B00033B9039B073323F007030833039314E069
:1031C00003AB00932A46144B04A94046AFF300809A
:1031D00007E003AB00932A460F4B04A9404600F0DA
:1031E00093F8B0F1FF3F824603D0099B5344099303
:1031F00042E7AB895B0601D4099801E04FF0FF304C
:103200001DB0BDE8F08F00BF0C3D0008123D000866
:10321000163D000800000000812F00082DE9F0474E
:1032200091461F460A698B68DDF820809342B8BF3B
:103230001346C9F8003091F8432006460C4612B1F7
:103240000133C9F800302368990642BFD9F800302D
:103250000233C9F80030256815F0060510D104F1D5
:10326000190A07E00123524639463046C04701306B
:103270001AD00135E368D9F800209B1A9D42F1DB92
:1032800094F843302268003318BF012392060FD50B
:10329000E1185A1C302081F84300224494F845106C
:1032A00082F84310023303E04FF0FF30BDE8F087AF
:1032B00004F1430239463046C0470130F4D0226859
:1032C000D9F80050E36802F00602042A08BF5D1B2B
:1032D0002269A3680CBF25EAE57500259342C4BFA7
:1032E0009B1AED184FF000091A344D4509D00123FF
:1032F000224639463046C0470130D5D009F1010990
:10330000F3E70020BDE8F0872DE9F04317460A7E79
:1033100085B06E2A984606460C460C9B01F1430E7A
:1033200000F0AE8011D8632A22D009D8002A00F01C
:10333000BB80582A40F0CA8081F84520834955E077
:10334000642A1ED0692A1CD0C0E0732A00F0B08025
:1033500009D86F2A2ED0702A40F0B8800A6842F04F
:1033600020020A603EE0752A24D0782A3AD0ADE0E7
:103370001A6801F14205111D1960136884F8423082
:10338000A8E021681A6811F0800F02D0111D1960A1
:1033900008E011F0400F02F10401196002D0B2F907
:1033A000003000E01368002B3CDA2D225B4284F8E9
:1033B000432037E021681A6811F0800F02D0111DF8
:1033C000196007E011F0400F02F10401196001D00B
:1033D000138800E01368227E5C496F2A14BF0A221A
:1033E00008221BE078225A4984F845202268186890
:1033F00012F0800F00F104051D6003D1550601D5C0
:10340000038800E00368D00744BF42F02002226036
:103410001BB9226822F0200222601022002084F8CA
:10342000430001E049490A226568A560002D08DBD8
:10343000206820F0040020602BB9002D7DD1754656
:103440000CE0002B79D07546B3FBF2F002FB103391
:10345000CB5C05F8013D03460028F5D1082A0BD1C5
:103460002368DA0708D5236962689A42DEBF3023F1
:1034700005F8013C05F1FF35C5EB0E0323612EE095
:1034800008681A68496910F0800F03D0101D186091
:10349000136808E010F0400F02F104001860136890
:1034A00001D0198000E0196000232361754616E001
:1034B0001A68111D19601568626800212846FFF717
:1034C000B7FB08B1401B6060636804E004F142058B
:1034D00084F8422001232361002384F84330CDF88F
:1034E00000803B4603AA21463046FFF797FE013095
:1034F00002D14FF0FF3026E023692A463946304694
:10350000C0470130F5D023689B0710D5002504F192
:10351000190907E001234A4639463046C0470130C1
:10352000E7D00135E368039A9B1A9D42F2DBE0681D
:10353000039B9842B8BF184605E00B7884F84230E8
:1035400004F142058AE705B0BDE8F0831D3D00089F
:103550002E3D000838B5074C0546084611460022A6
:1035600022601A46FDF712F8431C02D1236803B10A
:103570002B6038BD34100020884210B501EB0203E7
:1035800001D8421E0BE09842FBD28118D21AD342D6
:1035900004D013F8014D01F8014DF8E710BD994230
:1035A00004D011F8014B02F8014FF8E710BDF8B54F
:1035B000074615460E4621B91146BDE8F840FFF70B
:1035C000E1BB1AB9FFF798FB2846F8BD00F015F8E3
:1035D00085420ED929463846FFF7D4FB044650B140
:1035E00031462A46FFF774FB31463846FFF784FB25
:1035F00001E03046F8BD2046F8BD51F8040C002823
:10360000BEBF091851F8043CC018043870470000C8
:10361000F8B500BFF8BC08BC9E467047F8B500BFBF
:10362000F8BC08BC9E467047457863657074696F46
:103630006E0030203D3D20282A67756172645F6FFF
:10364000626A6563742026204358415F47554152A2
:10365000445F4D41534B2900433A5C4A656E6B69A8
:103660006E735C776F726B73706163655C6D6265BE
:10367000642D322D6275696C642D6C6962726172A1
:10368000795C68616C5C636F6D6D6F6E5C726574A4
:1036900061726765742E637070004358415F4755CF
:1036A0004152445F494E49545F494E5F50524F4723
:1036B00052455353203D3D20282A67756172645F4F
:1036C0006F626A6563742026204358415F47554105
:1036D00052445F4D41534B29004F70657261746FC6
:1036E00072206E6577206F7574206F66206D656D32
:1036F0006F72790D0A004F70657261746F72206E7F
:1037000065775B5D206F7574206F66206D656D6FEA
:1037100072790D0A005F707472203D3D202854209C
:103720002A29265F6461746100433A2F4A656E6BF3
:10373000696E732F776F726B73706163652F6D6243
:1037400065642D322D6275696C642D6C69627261DD
:1037500072792F2E6275696C642F6D6265642F53C8
:10376000696E676C65746F6E5074722E68003A25CE
:103770007000010402080010101004101010021054
:103780001010080000000000000000010203040601
:10379000070809000000000102030400433A2F500B
:1037A000726F6772616D446174612F4D41544C4179
:1037B000422F537570706F72745061636B616765EF
:1037C000732F5232303137622F33502E696E73743B
:1037D000727365742F6D6265646C6962726172796F
:1037E0002D73746D2E696E7374727365742F323518
:1037F000616561326133663465332F544152474508
:10380000545F444953434F5F463736394E492F542E
:1038100041524745545F53544D2F544152474554EC
:103820005F53544D333246372F6770696F5F6F6255
:103830006A6563742E6800006F626A2D3E70696E5F
:1038400020213D202850696E4E616D65294E430050
:10385000E40F002043616E6E6F7420696E697469B5
:10386000616C697A6520554152540A006F626A5F43
:10387000732D3E7561727420213D202855415254AC
:103880004E616D65294E4300433A5C4A656E6B6933
:103890006E735C776F726B73706163655C6D62658C
:1038A000642D322D6275696C642D6C69627261726F
:1038B000795C68616C5C746172676574735C686183
:1038C0006C5C5441524745545F53544D5C544152D3
:1038D0004745545F53544D333246375C73657269C4
:1038E000616C5F6170692E63006F626A007478209A
:1038F000213D2028766F69642A29300074785F772B
:1039000069647468203D3D203800727820213D2094
:1039100028766F69642A29300072785F7769647449
:1039200068203D3D2038006D6265642061737365D9
:1039300072746174696F6E206661696C65643A20A7
:1039400025732C2066696C653A2025732C206C69E0
:103950006E65202564200A00696E74657272757048
:10396000745F656E61626C655F636F756E746572BE
:10397000203C2055494E5433325F4D415800433A64
:103980005C4A656E6B696E735C776F726B737061A6
:1039900063655C6D6265642D322D6275696C642DA2
:1039A0006C6962726172795C68616C5C636F6D6D89
:1039B0006F6E5C6D6265645F637269746963616C8C
:1039C0002E6300696E74657272757074735F6469DA
:1039D0007361626C6564006F626A2D3E70696E206F
:1039E000213D202850696E4E616D65294E4300438C
:1039F0003A2F4A656E6B696E732F776F726B7370B7
:103A00006163652F6D6265642D322D6275696C642A
:103A10002D6C6962726172792F2E6275696C642FE8
:103A20006D6265642F5441524745545F4449534386
:103A30004F5F463736394E492F5441524745545F00
:103A400053544D2F5441524745545F53544D3332D4
:103A500046372F6770696F5F6F626A6563742E689F
:103A600000636F756C64206E6F742070696E6F7583
:103A7000740070696E6D6170206D69732D6D617475
:103A800063680070696E6D6170206E6F7420666F80
:103A9000756E6420666F72207065726970686572F9
:103AA000616C0070696E6D6170206E6F7420666F5E
:103AB000756E6420666F722066756E6374696F6ED2
:103AC00000000000B51F0008D91F000809200008E9
:103AD0001D200008F51F0008C43A0008780F0020D8
:103AE0000A00000000100140930300000B000000DA
:103AF000004C00401303000018000000005000407C
:103B0000930300001F00000000100140130200009A
:103B100027000000001401401304000032000000E0
:103B200000500040130400005600000000780040E0
:103B300013040000FFFF0000FFFFFFFF0000000074
:103B4000090000000010014093030000190000006C
:103B500000500040930300001E00000000100140D0
:103B600013020000260000000014014013040000AE
:103B70002C0000000050004013040000570000001B
:103B80000078004013040000FFFF0000FFFFFFFF6C
:103B900000000000433A5C4A656E6B696E735C77A7
:103BA0006F726B73706163655C6D6265642D322D3D
:103BB0006275696C642D6C6962726172795C6861AE
:103BC0006C5C746172676574735C68616C5C5441B1
:103BD000524745545F53544D5C5441524745545FDE
:103BE00053544D333246375C6770696F5F6170695B
:103BF0002E630050696E6D6170206572726F723A4B
:103C00002077726F6E6720706F7274206E756D62B0
:103C100065722E00433A5C4A656E6B696E735C7721
:103C20006F726B73706163655C6D6265642D322DBC
:103C30006275696C642D6C6962726172795C68612D
:103C40006C5C746172676574735C68616C5C544130
:103C5000524745545F53544D5C5441524745545F5D
:103C600053544D333246375C70696E6D61702E630C
:103C70000000000000000000010000001100000032
:103C800002000000120000000300000000001110FC
:103C9000000021100000311000001210000022105E
:103CA00000003210000000100000000000000000C2
:103CB0000000000000000000000000000000000004
:103CC00000000000000000000000000000000000F4
:103CD00000000000000000000000000000000000E4
:103CE00000000000000000000000000000000000D4
:103CF00000000000000000000000000000000000C4
:103D000000000000000000000C0A0020232D302BD2
:103D10002000686C4C0065666745464700303132CC
:103D20003334353637383941424344454600303123
:103D30003233343536373839616263646566000082
:043D4000000000007F
:083D440058C5FF7F01000000DB
:103D4C00381000200024F400000000000000F03FB8
:103D5C0000000000000014400000000000001040B3
:103D6C000000000000000000270000000000000020
:103D7C000000000026000000000000000000000011
:103D8C009100000000000000000000005600000040
:103D9C000000000000000000900000000000000087
:103DAC0000000000280000000000000000000000DF
:103DBC00570000000000000000000000930000000D
:103DCC000000000000000000940000000000000053
:103DDC000000000076000000000000000000000061
:103DEC000B00000000000000000000001F0000009D
:103DFC0000000000000000001E0000000000000099
:103E0C00000000000C00000000000000000000009A
:103E1C001900000000000000000000001800000065
:103E2C000000000000000000060000000000000080
:103E3C000000000004000000000000000000000072
:103E4C002200000000000000000000005A000000EA
:103E5C0000000000000000005800000000000000FE
:103E6C0000000000590000000000000000000000ED
:103E7C000000000000000000000000000100000035
:103E8C000000000000000000020000000000000024
:103E9C000000000003000000000000000000000013
:103EAC0005000000000000000000000007000000FA
:103EBC0000000000000000000800000000000000EE
:103ECC0000000000090000000000000000000000DD
:103EDC000A00000000000000000000000D000000BF
:103EEC0000000000000000000E00000000000000B8
:103EFC00000000000F0000000000000000000000A7
:103F0C001000000000000000000000001100000084
:103F1C000000000000000000120000000000000083
:103F2C000000000013000000000000000000000072
:103F3C00140000000000000000000000150000004C
:103F4C00000000000000000016000000000000004F
:103F5C00000000001700000000000000000000003E
:103F6C001A00000000000000000000001B00000010
:103F7C0000000000000000001C0000000000000019
:103F8C00000000001D000000000000000000000008
:103F9C0020000000000000000000000021000000D4
:103FAC0000000000000000002300000000000000E2
:103FBC0000000000240000000000000000000000D1
:103FCC002500000000000000000000002900000097
:103FDC0000000000000000002A00000000000000AB
:103FEC00000000002B00000000000000000000009A
:103FFC002C00000000000000000000002D0000005C
:10400C0000000000000000002E0000000000000076
:10401C00000000002F000000000000000000000065
:10402C003000000000000000000000003100000023
:10403C000000000000000000320000000000000042
:10404C000000000033000000000000000000000031
:10405C0034000000000000000000000035000000EB
:10406C00000000000000000036000000000000000E
:10407C0000000000370000000000000000000000FD
:10408C0038000000000000000000000039000000B3
:10409C0000000000000000003A00000000000000DA
:1040AC00000000003B0000000000000000000000C9
:1040BC003C00000000000000000000003D0000007B
:1040CC0000000000000000003E00000000000000A6
:1040DC00000000003F000000000000000000000095
:1040EC004000000000000000000000004100000043
:1040FC000000000000000000420000000000000072
:10410C000000000043000000000000000000000060
:10411C00440000000000000000000000450000000A
:10412C00000000000000000046000000000000003D
:10413C00000000004700000000000000000000002C
:10414C0048000000000000000000000049000000D2
:10415C0000000000000000004A0000000000000009
:10416C00000000004B0000000000000000000000F8
:10417C004C00000000000000000000004D0000009A
:10418C0000000000000000004E00000000000000D5
:10419C00000000004F0000000000000000000000C4
:1041AC005000000000000000000000005100000062
:1041BC0000000000000000005200000000000000A1
:1041CC000000000053000000000000000000000090
:1041DC00540000000000000000000000550000002A
:1041EC0000000000000000005B0000000000000068
:1041FC00000000005C000000000000000000000057
:10420C005D00000000000000000000005E000000E7
:10421C0000000000000000005F0000000000000033
:10422C000000000060000000000000000000000022
:10423C0061000000000000000000000062000000AF
:10424C0000000000000000006300000000000000FF
:10425C0000000000640000000000000000000000EE
:10426C006500000000000000000000006600000077
:10427C0000000000000000006700000000000000CB
:10428C0000000000680000000000000000000000BA
:10429C006900000000000000000000006A0000003F
:1042AC0000000000000000006B0000000000000097
:1042BC00000000006C000000000000000000000086
:1042CC006D00000000000000000000006E00000007
:1042DC0000000000000000006F0000000000000063
:1042EC000000000070000000000000000000000052
:1042FC0071000000000000000000000072000000CF
:10430C00000000000000000073000000000000002E
:10431C00000000007400000000000000000000001D
:10432C007500000000000000000000007700000095
:10433C0000000000000000007800000000000000F9
:10434C0000000000790000000000000000000000E8
:10435C007A00000000000000000000007B0000005C
:10436C0000000000000000007C00000000000000C5
:10437C00000000007D0000000000000000000000B4
:10438C007E00000000000000000000007F00000024
:10439C000000000000000000800000000000000091
:1043AC000000000081000000000000000000000080
:1043BC0082000000000000000000000083000000EC
:1043CC00000000000000000084000000000000005D
:1043DC00000000008500000000000000000000004C
:1043EC0086000000000000000000000087000000B4
:1043FC000000000000000000880000000000000029
:10440C000000000089000000000000000000000017
:10441C008A00000000000000000000008B0000007B
:10442C0000000000000000008C00000000000000F4
:10443C00000000008D0000000000000000000000E3
:10444C008E00000000000000000000008F00000043
:10445C0000000000000000009200000000000000BE
:10446C0000000000950000000000000000000000AB
:10447C009600000000000000000000009700000003
:10448C000000000000000000980000000000000088
:10449C000000000099000000000000000000000077
:1044AC009A00000000000000000000009B000000CB
:1044BC0000000000000000009C0000000000000054
:1044CC00000000009D000000000000000000000043
:1044DC009E00000000000000000000009F00000093
:1044EC000000000000000000A00000000000000020
:1044FC0000000000A100000000000000000000000F
:10450C00A20000000000000000000000A30000005A
:10451C000000000000000000A400000000000000EB
:10452C0000000000A50000000000000000000000DA
:10453C00A60000000000000000000000A700000022
:10454C000000000000000000FFFF00000000000061
:10455C000000000000000000A83C0008C83C000857
:10456C00E83C000800000000000000000000000013
:10457C000000000086380008000000000000000069
:10458C00000000000000000000000000000000001F
:10459C00000000000000000000000000000000000F
:1045AC0000000000000000000000000000000000FF
:1045BC00000000000C0A0020650200083D02000803
:0445CC0000000000EB
:040000050800068960
:00000001FF
