:020000040800F2
:1000000000000820251300085913000859130008A0
:100010005913000859130008591300080000000084
:10002000000000000000000000000000BD3B0008D0
:10003000591300080000000059130008813500081A
:1000400059130008591300085913000859130008E0
:1000500059130008591300085913000859130008D0
:1000600059130008591300085913000859130008C0
:1000700059130008591300085913000859130008B0
:10008000591300085913000859130008C103000848
:10009000C503000859130008B503000859130008E8
:1000A0005913000859130008591300085913000880
:1000B0005913000859130008591300085913000870
:1000C0005913000859130008591300085913000860
:1000D0005913000859130008591300085913000850
:1000E0005913000859130008591300085913000840
:1000F0005913000859130008591300085913000830
:10010000591300085913000859130008591300081F
:10011000591300085913000859130008591300080F
:1001200059130008591300085913000859130008FF
:10013000591300085913000859130008D503000883
:10014000D903000859130008C9030008591300080F
:1001500059130008591300085913000859130008CF
:1001600059130008591300085913000859130008BF
:100170005913000859130008591300080000000023
:10018000591300085913000859130008591300089F
:10019000591300085913000859130008591300088F
:1001A000591300085913000859130008591300087F
:1001B000591300085913000859130008591300086F
:1001C000591300085913000859130008591300085F
:1001D000591300085913000859130008591300084F
:1001E000591300085913000859130008591300083F
:1001F000591300085913000810B5054C237833B97A
:10020000044B13B10448AFF300800123237010BDE9
:10021000F80100200000000088B0000808B5034B7A
:100220001BB103490348AFF3008008BD0000000084
:10023000FC01002088B00008154B002B08BF134BB1
:100240009D46A3F5803A00218B460F461348144A79
:10025000121A08F020FF0F4B002B00D098470E4BCE
:10026000002B00D098470020002104000D000D480D
:10027000002802D00C48AFF3008008F017FE2000E1
:10028000290003F0E7FB08F00FFB00BF00000800A7
:100290000000082000000000E9090008F801002023
:1002A00064440020000000000000000043692DE9C4
:1002B000F0410D46394CD90720602CD58168DFF814
:1002C000E8E0826801EA0E01354F8368354E7145DA
:1002D00002EA070203EA060303D14FF0010EC0F859
:1002E00008E0BA4202D14FF480778760B34202D16E
:1002F0004FF4803686602C48814205D028498A42D6
:1003000002D0284A934206D1284B0121284A1B6873
:1003100052F8250098472368DA685B69920708D08D
:100320009F0706D5214B0021214A1B6852F8250062
:100330009847236899695A698E075B690AD59005C1
:1003400008D5190406D5194B0521194A1B6852F81E
:100350002500984722689769566917F00407526983
:1003600006F4806609D046B1120406D50F4B07216A
:100370000F4A1B6852F82500984723685B695FB1F4
:1003800056B11B0408D5094B0221094A1B6852F8D3
:100390002500BDE8F0411847BDE8F08114020020B7
:1003A0000003000800000310030000045C020020AA
:1003B0005402002000210148FFF778BF006400408C
:1003C000FFF7F8BFFFF7F6BF01210148FFF76EBF47
:1003D00000680040FFF7F8BFFFF7F6BF30B50C4CE0
:1003E000A268A4681346B4F1006F0CD1131F094C26
:1003F000094A53F8045F42F8045FA242F9D14FF072
:100400000053034A9360103043F8201030BD00BF02
:1004100000ED00E0C4010020FCFFFF1F00B58DB01F
:100420000A2800F28E80DFE800F00614202C384401
:10043000505C68748000454B45481A6B42F00102DD
:100440001A631B6B03F001030193019B0DB05DF870
:1004500004FB3E4B3F481A6B42F002021A631B6BCF
:1004600003F002030293029BF0E7384B3A481A6B01
:1004700042F004021A631B6B03F004030393039B13
:10048000E4E7324B35481A6B42F008021A631B6BE3
:1004900003F008030493049BD8E72C4B30481A6BF5
:1004A00042F010021A631B6B03F010030593059BC7
:1004B000CCE7264B2B481A6B42F020021A631B6BC9
:1004C00003F020030693069BC0E7204B26481A6BD7
:1004D00042F040021A631B6B03F040030793079B33
:1004E000B4E71A4B21481A6B42F080021A631B6B67
:1004F00003F080030893089BA8E7144B1C481A6B71
:1005000042F480721A631B6B03F480730993099B96
:100510009CE70E4B17481A6B42F400721A631B6B70
:1005200003F400730A930A9B90E7084B12481A6B76
:1005300042F480621A631B6B03F480630B930B9B82
:1005400084E70E4807F0B2FF00207FE70038024042
:10055000000002400004024000080240000C02407B
:10056000001002400014024000180240001C02402B
:1005700000200240002402400028024074A8000825
:10058000431C10B5044604D174220649064807F0FE
:100590007BFF2046002100F055FB04F00F040120F2
:1005A000A04010BD95A80008D7A8000870B54B1C46
:1005B00004460E46218216D0C1F30310FFF72EFF2A
:1005C00005463046FFF7DCFF238A074A03F00F0396
:1005D0006561206052F82330A36105F110031835DE
:1005E0006360A560E56070BD50AA0008B0F9100016
:1005F00000F0C2BB10B58369446971B9216893FAF0
:10060000A3F2B2FA82F20320520000FA02F221EAC7
:10061000020293FAA3F3226010BD226893FAA3F1B9
:10062000B1FA81F193FAA3F303204900B3FA83F3FB
:1006300000FA01F15B0022EA0102012101FA03F351
:100640001343236010BD000070B5134C23681A6972
:10065000950707D5DA68900704D56FF002021A6192
:1006600007F09CFE23681A69510713D5DA68520710
:1006700010D56FF00402094E1A615D6A3368EB1AF7
:10068000B3F57A7F06D300F07BFE236805F57A7216
:100690009A63356070BD00BF744300206002002083
:1006A00030B589B0274C01A903A801F08FF901F0FA
:1006B0005DF9254B01901A6C42F008021A641A6C1D
:1006C00002F008020292029A1A6A42F008021A62C2
:1006D0001A6A22F008021A62A3F50B33069A236005
:1006E0004FF0FF33E360194B52BB0025B0FBF3F032
:1006F00001382561A560606012486561A56101F05F
:10070000B5FD13493220FFF769FE4FF48022114BEB
:1007100029460C485A6001F0E9FD0421094801F01E
:10072000E5FD23680C4A2846596A1160126802F5F3
:100730007A729A63DA6842F00402DA6009B030BD76
:100740004000D2E7744300200038024040420F00CE
:100750004906000800E100E06002002008B507F04B
:10076000B7FE962007F009FF962007F006FFF8E78E
:1007700070B50D46A0B0044607F0AAFE2B468021B6
:100780002246684609F08AFB051E03DC07F0CCFE12
:1007900020B070BD094B1B6823B90A220921084803
:1007A00000F0CCFB0024064E1DF804100134304646
:1007B00000F0A6FDA542F7D1E8E700BF98030020AE
:1007C0002C4300200FB407B504A951F8040B019184
:1007D000FFF7CEFF03B05DF804EB04B0704708B537
:1007E00001F0F8FFBDE8084000F0B8BD37B54FF4A0
:1007F0007A74019002F01AF9054602F017F9019B8C
:10080000401B63439842F8D303B030BD08B5084B92
:100810001B685BB9092107480A2200F08FFB4FF4DF
:1008200016510448BDE8084000F0AABC08BD00BF4E
:10083000980300202C430020022810B5044601DC58
:10084000002010BD08F02AF80923033C00220360B1
:10085000084B53F8240043F8242040B103681B6977
:100860009847041EECDA644208F018F804604FF070
:10087000FF3010BD64020020F8B505460E46144650
:1008800008F00CF80923022D03600FDC124B1B68E3
:100890000BB9FFF7BBFF35463719104EBD4215D0D7
:1008A00015F8011B304600F02BFDF7E7033D0C4B1C
:1008B00053F8250060B1036822463146DB6898474B
:1008C000041E03DA07F0EAFF634203602046F8BD26
:1008D0004FF0FF34FAE700BF980300202C430020BC
:1008E0006402002070B504460D46164607F0D6FF98
:1008F0000923022C03600BDC0F4B1B680BB9FFF7BD
:1009000085FF01240D4800F0DDFC2870204670BDF5
:10091000033C0B4B53F8240058B103683246294678
:100920009B689847041EF1DA07F0B8FF6342036042
:10093000ECE74FF0FF34E9E7980300202C43002058
:100940006402002010B5044607F0A8FF0923022C1A
:10095000036010DD033C0A4B53F8240040B10368E8
:100960009B699847041E08DA644207F097FF046009
:100970004FF0FF3010BD012010BD002010BD00BFA2
:100980006402002070B504460D46164607F086FF47
:100990000923022C03600BDD033C084B53F82400B1
:1009A00040B1036832462946DB69BDE8704018470C
:1009B000002070BD4FF0FF3070BD00BF640200200A
:1009C000022808B504DC4FF4005300204B6008BD3A
:1009D00007F064FF092303604FF0FF3008BD08B53E
:1009E000012007F061FF704708B5FFF7F8FEFFF739
:1009F000FAFF08BD0C4A136810B51844EFF30881DC
:100A0000884205D30C22094B4FF0FF301A6010BD0D
:100A100007490C6824B10749096821448842F1D28A
:100A20001060184610BD00BF6C44002060440020D8
:100A30006C03002070030020074C054608B52368AE
:100A4000986808F04FF82368D86808F04BF80DB1A3
:100A5000FFF784FEFEE700BF784D002001207047BD
:100A6000002108F033BF7047704708B5FFF7FBFF60
:100A700008BD08B5FFF7F8FF08BD000010B508F085
:100A80009DFA044610B9024807F010FD204610BD3B
:100A900064A9000810B508F091FA044610B902489C
:100AA00007F004FD204610BD45A9000808B108F074
:100AB0008DBA7047FFF7FABF034653F8042B10B501
:100AC000044602B9036022689A4204D059220349BD
:100AD000034807F0D9FC206810BD00BFEAA8000851
:100AE00031A9000810B504460948FFF7E5FF0023C7
:100AF000084A194652F82300A04208BF42F82310C2
:100B00000133402BF6D10248FFF7D6FF10BD00BFDE
:100B100064030020640200202DE9F74334490746AE
:100B200009F019F8044628B9FFF770FE204603B013
:100B3000BDE8F0832F49384609F00DF818B9FFF7E2
:100B400065FE0124F2E72C49384609F004F818B98B
:100B5000FFF75CFE0224E9E7DFF8A88007F09EFEBD
:100B600009230025C14603602448FFF7A5FF58F874
:100B7000256036B30135402DF9D107F08FFE1823DB
:100B800003601E48FFF798FF2FE03946684607F0DC
:100B90002FF9684607F05AF930B948F8250007F0F0
:100BA0007DFE02230360C1E7684607F03FF9D0B13C
:100BB000684607F044F9064613E049F82560EC1C46
:100BC000B4E74FF0FF340D4848F82540FFF774FFB5
:100BD0003B783A2BD9D16A460949384608F04CFF90
:100BE000009E002EE9D149F825604FF0FF349DE7C3
:100BF00089A9000890A9000881A9000864030020C1
:100C000098A900086402002030B5C36891FAA1F4E5
:100C1000B4FA84F491FAA1F10325B1FA81F16400E8
:100C2000490005FA04F402FA01F123EA0403194326
:100C3000C16030BD012A02D0022A18BF0022FFF78E
:100C4000E3BF00002DE9F0410E46411C044604D1EB
:100C50003E224549454807F017FC04F00F08444B75
:100C6000C4F3031006F0070753F82850FFF7D6FB2C
:100C70000446836895FAA5F1B1FA81F195FAA5F2D7
:100C800003204900B2FA82F200FA01F1520023EA8D
:100C90000103022101FA02F21343A36087425CD8E8
:100CA000DFE807F0601D021DB8F1070FC6F303204F
:100CB0003DD9626A2B0A93FAA3F1B1FA81F193FA52
:100CC000A3F34FF00F0EB3FA83F389009B000EFAE3
:100CD00001F100FA03F322EA0102134363623B4687
:100CE000226895FAA5F0B0FA80F095FAA5F14FF0D8
:100CF000030EB1FA81F14000013F49000EFA00F005
:100D0000012F03FA01F322EA000243EA02032360FF
:100D100005D8636832074CBF2B43AB436360C6F30F
:100D2000011229462046BDE8F041FFF783BF226A41
:100D300095FAA5F3B3FA83F395FAA5F14FF00F0EE8
:100D4000B1FA81F19B0089000EFA03F322EA030253
:100D500000FA01F313432362C1E764220249054804
:100D600007F092FB0023BBE790AA0008D7A8000871
:100D700050AA00086AAF0008431C70B506460D462D
:100D800004D185221B491C4807F07EFB06F00F02A8
:100D90001A4BC6F3031053F82240FFF73FFB0168DC
:100DA00004FB04F202EB42030B40B3FBF2F3013B02
:100DB000012B05D8EB1E022B436809D8234343605F
:100DC000032D08D101222146BDE87040FFF732BF54
:100DD00023EA04034360012DF4D0052D01D0022D38
:100DE00001D10222EFE721460022BDE87040FFF763
:100DF0000BBF00BF90AA0008D7A8000850AA00089F
:100E00004309012200F01F00203302FA00F0044AD7
:100E100042F82300BFF34F8FBFF36F8F704700BFBF
:100E200000E100E04368702217495A4310B5046896
:100E30008B188C5082685A60C2689A600269DA60C6
:100E400042691A610022A3F852209A61DA61A3F87C
:100E50005020A3F85A20A3F85820B0F91A200132E4
:100E60000AD108225A61184601F033FC58B10748EC
:100E7000BDE8104007F01ABBB0F9182001320CBFD2
:100E800004220C22EEE710BD9C030020D0AA00082B
:100E9000F7B51B4F064657F8200000282DD07025C7
:100EA000184C75436359DA69520609D51B6859060F
:100EB00006D5154B01211B689847635940221A62D9
:100EC000702575436359DA6992060BD51B6898063D
:100ED00008D50D4B002157F826001B689847635929
:100EE0005B6A0193702070432358DA69110704D5B7
:100EF0009A68D20701D508221A6203B0F0BD00BF7C
:100F0000780300209C030020740300200020FFF7DA
:100F1000BFBF0120FFF7BCBF0220FFF7B9BF03200E
:100F2000FFF7B6BF0420FFF7B3BF0520FFF7B0BF40
:100F30000620FFF7ADBF0720FFF7AABFF0B50E46AA
:100F4000154689B004468349304607F08DFA0746B6
:100F50008149284607F088FA0146384607F066FAC4
:100F60002060013004D165227C497D4807F08CFA6D
:100F700023687C4A7C4F934200F0B08021D8A2F5D0
:100F80000062934200F0828002F58062934200F09A
:100F90009180A2F5006293421DD1744B1A6A42F40B
:100FA00000321A621A6A22F400321A621A6C42F48F
:100FB00000321A641B6C03F400330193019B01237C
:100FC00062E06B4A934200F0B18031D8A2F58062B2
:100FD000934200F097805F49304607F009FA5E4976
:100FE000284607F005FA721C03D001213046FFF7AE
:100FF000C3FE6B1C03D001212846FFF7BDFE4FF452
:101000001653268365832046A3600023E360236193
:101010006361FFF707FF2368BB4207D10122554BED
:10102000214655481A60442208F02AF809B0F0BD5C
:10103000BB4216D0514A9342CDD14C4B5A6A42F032
:1010400020025A625A6A22F020025A625A6C42F016
:1010500020025A645B6C03F020030593059B052373
:1010600012E0424B5A6A42F010025A625A6A22F067
:1010700010025A625A6C42F010025A645B6C03F020
:1010800010030093009B00236360A4E7374B1A6AA8
:1010900042F480221A621A6A22F480221A621A6CBE
:1010A00042F480221A641B6C03F480230293029B97
:1010B0000223E9E72D4B1A6A42F400221A621A6AE7
:1010C00022F400221A621A6C42F400221A641B6C89
:1010D00003F400230393039B0323D5E7234B1A6AEE
:1010E00042F480121A621A6A22F480121A621A6C8E
:1010F00042F480121A641B6C03F480130493049B63
:101100000423C1E7194B1A6A42F080421A621A6A34
:1011100022F080421A621A6C42F080421A641B6C00
:1011200003F080430693069B0623ADE70F4B1A6A34
:1011300042F000421A621A6A22F000421A621A6CE5
:1011400042F000421A641B6C03F000430793079BB4
:10115000072399E7FCA900089CA90008E8AA000851
:101160003BAB000800500040001001400038024036
:10117000007C0040980300202C4300200014014014
:101180008160FFF74FBE0000034B19604168034BBD
:1011900043F82120704700BF74030020780300202B
:1011A00070B5354B0E4621C8984243D00ED8A3F5F2
:1011B0000063984238D003F58063984237D0A3F596
:1011C000006398420AD12D49262416E02C4B984200
:1011D00036D006D8A3F5806398422ED000210C4665
:1011E0000BE0284B984206D003F580639842F5D176
:1011F0002549472401E025492524702324486B43D1
:1012000022B3C2581368F6B943F020031360204696
:10121000FFF7E4F80123620904F0170403FA04F469
:101220001C4B43F8224070BD1B492724E5E71B49AE
:101230003424E2E71A493524DFE71A495224DCE76F
:1012400019495324D9E743F04003DFE7C3581A682C
:1012500036B922F020021A601B681A0606D570BD46
:1012600022F040021A601B689B0604D42046BDE8A9
:101270007040FFF7C5BD70BD00500040130F00085F
:10128000007C0040001001402B0F00080D0F0008EB
:101290009C03002000E100E0190F00081F0F000868
:1012A000250F0008310F0008370F0008426870232F
:1012B0005343034AD358D869C0F34010704700BF66
:1012C0009C03002010B5014644680846FFF7EEFF76
:1012D0000028FAD07023034A6343D358586AC0F3F6
:1012E000080010BD9C030020426870235343034A4A
:1012F000D358D869C0F3C010704700BF9C030020CA
:1013000038B5044645682046FFF7EEFF0028FAD0BE
:101310007023034AC1F308016B43D358996238BD67
:101320009C030020DFF820D0002103E0074B5B582E
:10133000435004310648074B42189A42F6D301F055
:1013400025FBFEF779FF70470000082094B00008E5
:1013500068440020544F0020FEE77047074A0320EE
:1013600008B5136843F40073136000F017F80F20FA
:10137000FFF796F9FFF7F1FF002008BD003C02409F
:10138000024A136801331360704700BF70430020A6
:10139000014B1868704700BF70430020074A0002E5
:1013A000D36800F4E06023F4E0631B041B0C43F0FB
:1013B000BF6343F400330343D360704700ED00E0A4
:1013C000194B37B51A6C194C42F080521A641B6CD9
:1013D00003F080530193019B236843F4803323601F
:1013E000FFF7D6FF05466368DA030CD5236843F49C
:1013F00000332360FFF7CCFF0C4C054663689B036A
:101400000AD5002006E0FFF7C3FF401BB0F57A7F46
:10141000E9D9032003B030BDFFF7BAFF401BB0F598
:101420007A7FEBD9F5E700BF00380240007000403A
:1014300003682DE9F3410446D80710D423689907BF
:1014400061D42368190700F1B08023685A0700F1BE
:10145000D180A269002A40F03B81002015E09A4B20
:101460009A6802F00C02042A07D09A6802F00C0273
:10147000082A0DD15B685A020AD5934B1B689B035F
:10148000DCD56368002BD9D1012002B0BDE8F08122
:1014900063688D4DB3F5803F11D12B6843F48033E1
:1014A0002B60FFF775FF884D06462B689F03C5D458
:1014B000FFF76EFF801BC828F7D90320E5E79BB92B
:1014C0002B6823F480332B602B6823F480232B605C
:1014D000FFF75EFF06462B689803AFD5FFF758FF6E
:1014E000801BC828F7D9E8E7B3F5A02F2B6803D1F4
:1014F00043F480232B60D0E723F480332B602B68E8
:1015000023F48023CCE7704B9A6812F00C0F07D0BD
:101510009A6802F00C02082A16D15B68590213D4AB
:10152000694B1A68920702D5E268012AACD11868A3
:10153000F82292FAA2F2B2FA82F122698A4020F0ED
:10154000F8010A431A607CE7E3685F4DE3B12B685A
:1015500043F001032B60FFF71BFF06462B689F0734
:101560000CD52968F82393FAA3F3B3FA83F223691D
:10157000934021F0F80213432B6062E7FFF708FF66
:10158000801B0228EAD998E72B6823F001032B601F
:10159000FFF7FEFE06462B6898077FF552AFFFF770
:1015A000F7FE801B0228F6D987E76369464D83B1B1
:1015B0006B6F43F001036B67FFF7EAFE06466B6F44
:1015C0009B073FF542AFFFF7E3FE801B0228F6D9E9
:1015D00073E76B6F23F001036B67FFF7D9FE0646D5
:1015E0006B6F9F077FF531AFFFF7D2FE801B02289C
:1015F000F6D962E7344B1A6CD00027D41A6C012656
:1016000042F080521A641B6C03F080530193019BDB
:101610002E4D2B68D9051BD5A3682B4D012B27D147
:101620002B6F43F001032B6741F28835FFF7B0FEC3
:10163000254F80463B6F9B073FD5002E3FF409AFF7
:10164000214A136C23F08053136402E70026DFE77E
:101650002B6843F480732B60FFF79AFE07462B68D4
:10166000DA05D9D4FFF794FEC01B6428F7D924E724
:10167000ABB92B6F41F2883823F001032B672B6F36
:1016800023F004032B67FFF783FE07462B6F9807B1
:10169000D3D5FFF77DFEC01B4045F7D90DE7052BDD
:1016A0002B6F03D143F004032B67B9E723F0010349
:1016B0002B672B6F23F00403B5E7FFF769FEA0EB60
:1016C0000800A842B6D9F8E6003802400070004091
:1016D000324DAB6803F00C03082B3FF4D5AE2B68FA
:1016E000022A23F080732B604AD1FFF751FE064691
:1016F0002B6899013ED447F6C07797FAA7F74FF4C5
:101700004032B7FA87F792FAA2F24FF07060B2FA5D
:1017100082F690FAA0F04FF0E041B0FA80F091FA32
:10172000A1F1226AB1FA81F1E3691343626A02FA14
:1017300007F7A26A52083B43013AB2401343E26AF8
:1017400002FA00F0226B154C034302FA01F10B433D
:101750006B602B6843F080732B60FFF719FE054622
:1017600023689A013FF579AEFFF712FE401B02286D
:10177000F6D9A2E6FFF70CFE801B0228B8D99CE63A
:10178000FFF706FE04462B689B017FF566AEFFF768
:10179000FFFD001B0228F6D98FE600BF003802408B
:1017A000194A936803F00C03042B10B503D0082BDF
:1017B00003D0164810BD164810BD516847F6C074D6
:1017C000536801F03F0113F4800F536894FAA4F0BA
:1017D000B0FA80F003EA04034FF4403223FA00F336
:1017E00014BF0B480948B0FBF1F05843064B5B6847
:1017F00092FAA2F2B2FA82F203F44033D3400133F8
:101800005B00B0FBF3F010BD003802400024F40090
:1018100040787D01514A136803F00F038B422DE994
:10182000F04104460D462FD32268960739D4D007DD
:101830003FD44A4A136803F00F039D427BD32268CA
:10184000510700F18380130707D5454A2169936842
:1018500023F4604343EAC1039360FFF7A1FF404BC9
:10186000F0229B6892FAA2F2B2FA82F203F0F0033D
:10187000D3403C4AD35CD8403B4B18600F20FEF766
:101880000FFF0020BDE8F081136823F00F030B4326
:101890001360136803F00F039942C5D00120BDE81F
:1018A000F0812F49A0688B6823F0F00303438B601D
:1018B000BDE761682A4B01291A681DD112F4003F67
:1018C000ECD09A6841F28838254F22F003020A438F
:1018D0009A60FFF75DFD63680646012B14D1BB6873
:1018E00003F00C03042BA4D0FFF752FD801B4045EE
:1018F000F5D90320BDE8F081022902D112F0007F62
:10190000DEE712F0020FDBE7022B0FD1BB6803F01A
:101910000C03082B8DD0FFF73BFD801B4045F5D90C
:10192000E7E7FFF735FD801B4045E2D8BB6813F0C1
:101930000C0FF6D17DE7136823F00F032B431360E0
:10194000136803F00F039D42A8D178E70449E068CB
:101950008B6823F4E05303438B6074E7003C024040
:101960000038024068AB000870440020084B4FF478
:10197000E0529B6892FAA2F2B2FA82F203F4E053C8
:10198000D340044AD35C044A1068D840704700BF73
:101990000038024078AB000870440020084B4FF438
:1019A00060429B6892FAA2F2B2FA82F203F46043B8
:1019B000D340044AD35C044A1068D840704700BF43
:1019C0000038024078AB0008704400200F23036009
:1019D0000B4B9A6802F0030242609A6802F0F00230
:1019E00082609A6802F4E052C2609B68DB0803F4EC
:1019F000E0530361034B1B6803F00F030B60704758
:101A000000380240003C024003682DE9F34713F020
:101A1000010604460BD0BB4A916821F40001916095
:101A2000466B91683143B6FA86F67609916013F4F5
:101A3000002512D0B349E56BD1F88C20B5F5801F95
:101A400022F4401208BF012642EA050216BFB5FA89
:101A500085F500256D09C1F88C20DF0210D5A94855
:101A6000216CD0F88C20B1F5800F22F4400242EABC
:101A70000102C0F88C2000F02582002908BF012552
:101A800013F0807F18BF0126980631D59D4B9E4FDD
:101A90001A6C42F080521A641B6C03F0805301935D
:101AA000019B3B6843F480733B60FFF771FC804609
:101AB0003B68D90540F10882924F3B6F13F44073A5
:101AC00040F00D82236B03F44072B2F5407F8D4AE3
:101AD00040F02B82916823F0704021F4F81120F43B
:101AE000407001439160C3F30B03116F0B43136705
:101AF0002368DF060CD5834AD2F88C1021F0807160
:101B0000C2F88C10D2F88C10A06B0143C2F88C1074
:101B1000580408D57B49606ED1F8902022F44032F9
:101B20000243C1F89020190408D57649A06ED1F877
:101B3000902022F440220243C1F89020DA0308D515
:101B40007049E06ED1F8902022F440120243C1F8AF
:101B500090209F0308D56B49206FD1F8902022F484
:101B600040020243C1F89020580608D56549606CD0
:101B7000D1F8902022F003020243C1F89020190608
:101B800008D56049A06CD1F8902022F00C020243E5
:101B9000C1F89020DA0508D55A49E06CD1F89020B8
:101BA00022F030020243C1F890209F0508D5554924
:101BB000206DD1F8902022F0C0020243C1F890209D
:101BC000580508D54F49606DD1F8902022F4407235
:101BD0000243C1F89020190508D54A49A06DD1F8F3
:101BE000902022F440620243C1F89020DA0408D524
:101BF0004449E06DD1F8902022F440520243C1F8EC
:101C000090209F0408D53F49206ED1F8902022F4FF
:101C100040420243C1F89020580208D53949A06FCC
:101C2000D1F8902022F080620243C1F890209902FE
:101C30000CD53448E16FD0F89020B1F1006F22F05C
:101C4000006208BF01250A43C0F8902013F0080F76
:101C500018BF01255A0308D52A49606FD1F8902092
:101C600022F040720243C1F890201F0209D5254995
:101C7000D4F88000D1F8902022F080520243C1F8BD
:101C80009020580109D51F49D4F88400D1F890203C
:101C900022F000520243C1F89020190109D51949D8
:101CA000D4F88800D1F88C2022F000720243C1F8E9
:101CB0008C20DA0009D51349D4F88C00D1F88C2097
:101CC00022F080620243C1F88C20012E00F03481A2
:101CD000B3F1007F00F03081012D40F0F180094D1B
:101CE0002B6823F080532B60FFF752FB06462B68CE
:101CF0009F0000F1408221680E0307D5E36B53B1CA
:101D000004E000BF0038024000700040CD0247D51B
:101D1000236C002B44D1874D4FF4403ED5F888000A
:101D20009EFAAEFC4FF0E046BCFA8CFCD5F8882059
:101D300096FAA6F747F6C073B7FA87F793FAA3F3B4
:101D4000B3FA83F99EFAAEFE4FF07068BEFA8EFECB
:101D500098FAA8F8B8FA88F896FAA6F6636900F433
:101D6000403002F0E042B6FA86F603FA09F9A369B8
:101D700020FA0CF0FA4003FA08F800FA0EF0B2402C
:101D800049EA080303431343C5F88830D5F88C307B
:101D9000A26A23F4F853013A43EA0223C5F88C30CF
:101DA00088023ED5E36FB3F1006F3AD1614D4FF039
:101DB000706ED5F888009EFAAEFC4FF0E046BCFA93
:101DC0008CFCD5F8882096FAA6F747F6C073B7FAC8
:101DD00087F793FAA3F34FF44038B3FA83F998FAEC
:101DE000A8F8B8FA88F89EFAAEFEBEFA8EFE96FA09
:101DF000A6F6636900F0706002F0E042B6FA86F67B
:101E000003FA09F9236A20FA0CF0FA4003FA08F8F9
:101E100000FA0EF0B24049EA080303431343C5F841
:101E200088300A0740D543484FF07065D0F88820C5
:101E300095FAA5F64FF4403EB6FA86F6D0F888102B
:101E40009EFAAEF847F6C073B8FA88F893FAA3F38F
:101E5000B3FA83F79EFAAEFEBEFA8EFE95FAA5F5AA
:101E60004FF0E04CB5FA85F59CFAACFC6369BCFA1E
:101E70008CFC01F4403102F07062BB40E76921FA4A
:101E800008F1F24007FA0CF701FA0EF1AA403B43C1
:101E90000B431343C0F88830D0F88C30E26A23F447
:101EA00040331343C0F88C30224C236843F08053F6
:101EB0002360FFF76DFA054623689B0040F16281BD
:101EC000002009E00126DBE5FFF762FAA0EB08003D
:101ED00064287FF6EDAD032002B0BDE8F087226BE9
:101EE00002F4407293423FF4EDAD3B6F3A6F23F43E
:101EF000407342F480323A673A6F22F480323A6794
:101F00003B673B6FDA077FF5DDADFFF741FA41F242
:101F1000883980463B6F9B073FF5D4ADFFF738FA11
:101F2000A0EB08004845F5D9D5E7916821F4F811F0
:101F3000D8E500BF00380240964E336823F0806336
:101F40003360FFF725FA074633681B0100F10C8167
:101F50002268D7073CD5636BD3BBD6F884004FF417
:101F6000403C9CFAACF84FF07067B8FA88F8D6F8A5
:101F7000841097FAA7FE47F6C073BEFA8EFE93FA56
:101F8000A3F3B3FA83FA9CFAACFCBCFA8CFC97FA84
:101F9000A7F74FF0E049B7FA87F799FAA9F963680C
:101FA000B9FA89F900F4403001F0706103FA0AFAD5
:101FB000A36820FA08F021FA0EF103FA09F900FAF1
:101FC0000CF0B9404AEA090303430B43C6F88430D6
:101FD000160303D5E36BB3F5801F05D0D00248D5B7
:101FE000236CB3F5800F44D16A4E4FF4403CD6F8D1
:101FF00084009CFAACF84FF0E047B8FA88F8D6F8BD
:10200000841097FAA7FE47F6C073BEFA8EFE93FAC5
:10201000A3F3B3FA83FA9CFAACFC4FF07069BCFAF4
:102020008CFC99FAA9F9B9FA89F997FAA7F76368C4
:1020300000F4403001F0E041B7FA87F703FA0AFAFA
:10204000E36820FA08F021FA0EF103FA09F900FA20
:102050000CF0B9404AEA090303430B43C6F8843045
:10206000D6F88C10636A21F01F01013B0B43C6F8C0
:102070008C30D1013BD5474E4FF0706CD6F88400C0
:102080009CFAACF84FF0E047B8FA88F8D6F884101C
:1020900097FAA7FE47F6C073BEFA8EFE93FAA3F333
:1020A0004FF44039B3FA83FA99FAA9F9B9FA89F9E0
:1020B0009CFAACFCBCFA8CFC97FAA7F7636800F0BA
:1020C000706001F0E041B7FA87F703FA0AFA236972
:1020D00020FA08F021FA0EF103FA09F900FA0CF0DF
:1020E000B9404AEA090303430B43C6F8843092011E
:1020F00028D547F6C07393FAA3F34FF44030B3FAF0
:1021000083F690FAA0F04FF07061B0FA80F091FA87
:10211000A1F14FF0E042B1FA81F192FAA2F26368C4
:10212000B2FA82F2B340266906FA00F00343E0688F
:1021300000FA01F10B43A16801FA02F21343154AB8
:10214000C2F88430134E336843F080633360FFF786
:102150001FF9074633681B013FF5BEADFFF718F9BD
:10216000C01B6428F6D9B6E6FFF712F9C01B642835
:102170007FF6EAAEAFE6FFF70BF9801B64287FF627
:10218000B6ADA8E6FFF704F9401B64287FF694AECD
:10219000A1E600BF0038024070470000304A0368E3
:1021A000904212D0B0F1804F0FD0A2F57C42904205
:1021B0000BD002F58062904207D002F58062904217
:1021C00003D002F5784290421DD14A6823F0700393
:1021D0001343234A904204D123F44073CA68134343
:1021E00028E0B0F1804FF7D01E4A9042F4D002F5BB
:1021F00080629042F0D002F580629042ECD002F50D
:1022000078429042E8D0184A9042E5D002F58062C8
:102210009042E1D002F580629042DDD0A2F5983282
:102220009042D9D002F580629042D5D002F580620A
:102230009042D1D04A6923F08003134303608B6836
:10224000C3620B688362064B984206D003F5806335
:10225000984202D00123436170470B690363F9E799
:1022600000000140000400400040014010B5044659
:10227000A0B190F83D3003F0FF021BB980F83C207C
:10228000FFF78AFF02232068211D84F83D30FFF705
:1022900085FF0123002084F83D3010BD012010BDD2
:1022A00010B50124036A8A408C4023EA04030362C8
:1022B000036A1A43026210BD10B504460122006889
:1022C000FFF7EEFF2368084A934203D002F58062CD
:1022D000934203D15A6C42F400425A641A680020B7
:1022E00042F001021A6010BD00000140FFF7E4BF98
:1022F00070472DE9F041069D04460F461646984664
:102300002168CA6937EA02030CBF01220022B242E7
:1023100002D00020BDE8F0816B1CF2D09DB923688B
:1023200003201A6822F4D0721A609A6822F001021F
:102330009A60202384F8693084F86A30002384F896
:102340006830BDE8F081FFF723F8A0EB0800854274
:10235000D6D8E4E738B504460568C3692169A268A0
:1023600028680A4361690A4393491A430140206A75
:102370000A43E1682A606A6822F440520A436A60AC
:10238000A269A968024321F430610A43AA608B4A1A
:10239000954219D102F594328949D2F8902002F081
:1023A0000302B3F5004F8A5C40F0B380082A00F2C4
:1023B000AD80DFE812F026007B00E900AB00F500FD
:1023C000AB00AB00AB00FB007E4A954207D102F5A3
:1023D000FA327D49D2F8902002F00C02E1E77B4A04
:1023E00095422BD102F5F832D2F8902002F030025B
:1023F000102A00F0D28016D8DAB9B3F5004F40F0B9
:102400009F80FFF7B3FA61684A0802EB4003B3FB11
:10241000F1F39BB2002023F00F02C3F342032168C3
:102420001343CB6038BD202A00F0AB80302A00F087
:10243000BA80B3F5004F69D0012038BD644A954297
:102440000ED102F5F632D2F8902002F0C002402AF6
:1024500000F0A380D0D9802A00F09380C02AE6E75C
:102460005C4A954210D102F5F432D2F8902002F481
:102470004072B2F5807F00F09080BDD9B2F5007F48
:102480007FD0B2F5407FD2E7534A954217D102F58B
:102490009232D2F8902002F44062B2F5806F7CD084
:1024A00007D8002AC5D1B3F5004F54D1FFF776FA0B
:1024B000A9E7B2F5006F64D0B2F5406FB7E7474ABD
:1024C00095420FD102F5E032D2F8902002F440524A
:1024D000B2F5805F61D08FD9B2F5005F51D0B2F50F
:1024E000405FA4E73E4A9542A3D102F5DE32D2F81E
:1024F000902002F44042B2F5804F4ED07FF67CAF80
:10250000B2F5004F3DD0B2F5404F90E701200023D7
:1025100081E7082A90D801A353F822F0412500084A
:10252000572500085D250008392400087325000898
:1025300039240008392400083924000879250008C6
:10254000FFF714FA636800EB5300B0FBF3F080B2BE
:10255000E860002038BDFFF721FAF3E7626853080E
:1025600003F5740303F51053B3FBF2F39BB2EB6076
:10257000EFE7FFF715F9E5E76268530803F5004355
:10258000F2E7B3F5004FE9D16068430803F1F47353
:1025900003F59043B3FBF0F33BE7B3F5004FE8D10D
:1025A000FFF7FEF82FE7B3F5004FE5D16068430869
:1025B00003F58033EEE700BFF369FFEF0010014041
:1025C00057AB0008004400405BAB000800480040E7
:1025D000004C0040005000400014014000780040D2
:1025E000007C0040436ADA0710B506D50168846AAA
:1025F0004A6822F4003222434A609C0706D50168EB
:10260000C46A4A6822F4803222434A60590706D5D8
:102610000168046B4A6822F4802222434A601A0748
:1026200006D50168446B4A6822F4004222434A609E
:10263000DC0606D50168846B8A6822F48052224346
:102640008A60990606D50168C46B8A6822F4005234
:1026500022438A605A0610D50168046C4A68B4F5B2
:10266000801F22F4801242EA04024A6005D14A68BF
:10267000446C22F4C00222434A601B0606D502685D
:10268000816C536823F400230B43536010BD37B5AE
:1026900000250446C566FEF77BFE226803461268E5
:1026A000120709D42023002084F8693084F86800D8
:1026B00084F86A3003B030BD6FF07E424FF40011F1
:1026C000204600922A46FFF714FE0028EAD0032095
:1026D000F0E710B5044660B390F8693003F0FF02EC
:1026E0001BB980F86820FFF703FE226824232046E8
:1026F00084F86930136823F001031360FFF72AFEA2
:10270000012816D0636A13B12046FFF76BFF2368D8
:1027100020465A6822F490425A609A6822F02A02AF
:102720009A601A6842F00102BDE810401A60FFF793
:10273000AEBF012010BD0000BFF34F8FBFF36F8FFE
:10274000064B0022C3F850225A6942F400325A6103
:10275000BFF34F8FBFF36F8F704700BF00ED00E0F6
:102760001B4A0023F0B5C2F88430D2F88010C1F3C0
:102770004E3401F00703C1F3C9010433B1FA81F00B
:1027800000F01F00BFF34F8F4FF0FF3505FA03FE37
:10279000854004FA03F301FA00F007460E46013EB5
:1027A00047EA030C2F44B6F1FF3FC2F860C2F6D1EE
:1027B000013C7344661CF0D1BFF34F8F536943F45F
:1027C00080335361BFF34F8FBFF36F8FF0BD00BFF6
:1027D00000ED00E0174A1849936803F00C03042B3E
:1027E00010B50DD0082B0DD0144B0B60114B144AB3
:1027F0009B68C3F30313D25C0B68D3400B6010BD1E
:10280000104BF2E7546850686302526800F03F00D2
:1028100048BF0C4BC2F3881258BF084BB3FBF0F310
:102820005343044A5268C2F3014201325200B3FBDF
:10283000F2F3DAE700380240704400200024F4008C
:1028400068AB000840787D01294B1A6C42F0805239
:1028500070B51A64B8B01B6C03F080530193019BF0
:1028600001230793B8B94FF4803308934FF48003E2
:10287000022507A80E9319230D950F934FF4D873D3
:1028800011951093092313951293FEF7D1FD28B1EA
:10289000002038B070BD4FF4A023E6E7FEF790FDAE
:1028A00004460028F4D14FF40013072614A814930B
:1028B0004FF000631A9633934FF4C07319930323B8
:1028C0001C93FFF7A1F888B90F230490314602A8A2
:1028D00002934FF4A053039505934FF4805306934E
:1028E000FEF798FFB0FA80F04009D2E72046D0E723
:1028F0000038024010B594B00224FFF71DFFFFF727
:102900002FFF1C4B07A81A6C42F080521A64002259
:102910001B6C079403F0805308920D940193019B64
:1029200001230E920A93102311940B930F934FF4EB
:10293000D8731394109309231293FEF779FD10B105
:10294000002014B010BDFEF73BFD0028F8D10F2386
:102950000490072102A802934FF4A0530394059317
:102960004FF480530693FEF755FFB0FA80F040090C
:10297000E7E700BF0038024008B50020FFF764FF1A
:1029800018B9FFF7B7FF00B9FEE708BD194A0021E3
:10299000D2F8883010B543F47003174CC2F8883071
:1029A000236843F001032360A160236823F084734C
:1029B00023F480332360114B6360236823F4802366
:1029C00023604FF00063E16093600D4B0D4A1A6085
:1029D000FEF7C4FCFFF7B0FEFFF7C2FEFFF7CCFF27
:1029E000236A43F008032362236A23F00803236267
:1029F00010BD00BF00ED00E00038024010300024A0
:102A0000704400200024F400054B186830B90122FE
:102A10001A60044A044B1A60FDF742BE704700BFBB
:102A20001C070020000C00407443002008B5044B34
:102A30001B680BB9FFF7E8FF024B586A08BD00BFDF
:102A40001C070020000C0040044B054A136058632B
:102A5000DA6842F00202DA60704700BF000C004002
:102A600074430020034B044A1360DA6822F0020228
:102A7000DA607047000C004074430020034B044AA6
:102A800013606FF002021A61704700BF000C004033
:102A90007443002080B483B000AF78607B68184630
:102AA0000C37BD465DF8047B704780B483B000AF3F
:102AB000786039603B6818460C37BD465DF8047B8A
:102AC000704780B584B000AFF860B9607A60FB6889
:102AD0001B681C331B687A68B968F8689847034616
:102AE00018461037BD4680BD80B582B000AF786013
:102AF0007B681B6814331B68786898470346184640
:102B00000837BD4680BD80B582B000AF78607B6875
:102B10001B6828331B6878689847034618460837AF
:102B2000BD4680BD90B583B000AF7860134A7B6826
:102B30001A607B689033002B0CD07B68903303F1D4
:102B400020047B6890339C4204D0103C204600F067
:102B5000E0F9F6E77B683833184600F0C8F97B687F
:102B60002833184600F0C3F97B680433184600F098
:102B7000B3F97B6818460C37BD4690BD90AD000890
:102B800080B582B000AF78607868FFF7CBFF7868D7
:102B9000FDF790FF7B6818460837BD4680BD0000F2
:102BA00080B582B000AF78600C4A7B681A600C4A2E
:102BB0007B68C3F8B4207B68C8331846FFF76AFF08
:102BC0007B68B433184605F03DFA7B681846FFF77A
:102BD000A9FF7B6818460837BD4680BD3CAC00089D
:102BE0005CAC0008A0F1B400DAE700BF80B582B0A9
:102BF00000AF78607868FFF7D3FF7868FDF75AFF79
:102C00007B6818460837BD4680BDA0F1B400EDE7EB
:102C100090B58DB002AFF8607B600B467B811346A8
:102C20003B81F868B7F90820B7F90A104FF416533A
:102C30000093002305F096F9214AFB681A60214AA7
:102C4000FB68C3F8B420B7F90830B3F1FF3F29D0CF
:102C5000FC681D4B3B6200237B6207F1100007F10B
:102C600020030CCBF96800F07CF907F11003002277
:102C70001946204605F01EFB07F11003184600F028
:102C800048F97A68FB68C3F8D8207B681846FDF7D6
:102C900001FF03461A46FB68C3F8CC20F86800F031
:102CA0007CF807E0FB680022C3F8D820FB6800220C
:102CB000C3F8CC2000BFFB6818462C37BD4690BD3A
:102CC000A0AB0008C0AB0008B32E000890B58BB0D5
:102CD00000AF7860234A7B681A60234A7B68C3F898
:102CE000B4207C6807F108030021184600F023F99E
:102CF00007F1080300221946204605F0DBFA07F128
:102D00000803184600F005F97C6807F11803002154
:102D1000184600F010F907F1180301221946204661
:102D200005F0C8FA07F11803184600F0F2F87B68BE
:102D3000D3F8CC30002B0AD07B68D3F8CC30002BF2
:102D400005D07B68D3F8CC301846FDF7AFFE00BF46
:102D50007B681846FFF724FF7B6818462C37BD4672
:102D600090BD00BFA0AB0008C0AB0008A0F1B4004C
:102D7000FFF7ACBF80B582B000AF78607868FFF72E
:102D8000A5FF7868FDF796FE7B6818460837BD46B4
:102D900080BDA0F1B400FFF7EDBF80B483B000AFF9
:102DA00078607B680022C3F8D0207B680022C3F8DB
:102DB000D4207B680022C3F8DC2000BF0C37BD465E
:102DC0005DF8047B704780B483B000AF78600B4639
:102DD000FB707B68D3F8CC30002B1FD07B68D3F816
:102DE000D4207B68D3F8D8309A4203D37B68002282
:102DF000C3F8D4207B68D3F8CC207B68D3F8D430D8
:102E0000581C7968C1F8D4001344FA781A707B68AA
:102E1000D3F8DC305A1C7B68C3F8DC2000BF0C37C9
:102E2000BD465DF8047B704780B483B000AF786026
:102E30007B68D3F8CC30002B1FD07B68D3F8D02030
:102E40007B68D3F8D8309A4203D37B680022C3F85A
:102E5000D0207B68D3F8DC305A1E7B68C3F8DC20B6
:102E60007B68D3F8CC207B68D3F8D030581C7968C5
:102E7000C1F8D00013441B7800E0002318460C373B
:102E8000BD465DF8047B704780B483B000AF7860C6
:102E90007B68D3F8D0207B68D3F8D4309A4214BF33
:102EA00001230023DBB218460C37BD465DF8047BD6
:102EB000704780B582B000AF78607B684C331846AD
:102EC000FEF700FA0346DBB219467868FFF77BFF8E
:102ED00000BF0837BD4680BD80B483B000AF7860C6
:102EE0007B6818460C37BD465DF8047B704780B59B
:102EF00082B000AF78607B68DB68002B04D07B6811
:102F0000DB689B68786898477B6818460837BD4639
:102F100080BD80B582B000AF78607B68DB68002B35
:102F200004D07B68DB689B68786898477B681846A4
:102F30000837BD4680BD80B582B000AF786039608B
:102F40003B68002B03D17B680022DA6004E03B463B
:102F50001946786800F018F87B6818460837BD46AF
:102F600080BD80B584B000AFF860B960394681E8B3
:102F70000C003B460CCBB968F86800F01FF8F86805
:102F80001037BD4680BD000080B582B000AF7860CC
:102F900039607B6819460420FFF787FD0346002B44
:102FA00002D03A6812681A607B68034ADA6000BF90
:102FB0000837BD4680BD00BF80AB000880B588B033
:102FC00000AFF860B960394681E80C0007F11400E1
:102FD0003B460CCBB96800F034F807F114031946EE
:102FE000F86800F047F8FB6818462037BD4680BDFA
:102FF00080B582B000AF78607B681B68984700BFDF
:103000000837BD4680BD80B582B000AF78603960BA
:103010007B6819460420FFF748FD0346002B02D0C9
:103020003A6812681A6000BF0837BD4680BD80B498
:1030300083B000AF786000BF0C37BD465DF8047BFD
:10304000704780B485B000AFF860B960394681E858
:103050000C00FB681A463B4693E8030082E8030035
:10306000FB68BA689A60FB6818461437BD465DF87D
:10307000047B704780B582B000AF786039607B68B0
:1030800019460C20FFF711FD0346002B03D03A68C8
:1030900007CA83E807007B68024ADA6000BF083786
:1030A000BD4680BD8CAB000880B582B000AF7860B3
:1030B000786800F023F800BF0837BD4680BD80B5B2
:1030C00082B000AF786039607B6819460C20FFF74A
:1030D000ECFC0346002B03D03A6807CA83E80700DC
:1030E00000BF0837BD4680BD80B483B000AF7860B4
:1030F00000BF0C37BD465DF8047B704780B582B0D9
:1031000000AF78607B689B687A68526852109918A3
:103110007B685B6803F00103002B0BD07B689B6826
:103120007A685268521013441B687A681268134414
:103130001B6801E07B681B680846984700BF08379A
:10314000BD4680BD80B483B000AF786039603B6815
:10315000002B05D07B689B687A6812681A6005E0CE
:103160007B681A687B68DB6812041A6000BF0C3742
:10317000BD465DF8047B704780B483B000AF7860D3
:103180007B685B681A687B681B681340002B01D062
:10319000012300E0002318460C37BD465DF8047B90
:1031A000704780B582B000AF78600B467B807B684B
:1031B0001A460023136053609360D3601361536118
:1031C00093617B68B7F902201146184605F0CFF8E5
:1031D0007B6818460837BD4680BD80B582B000AF19
:1031E00078607B681846FFF7C7FF03461846083724
:1031F000BD4680BD80B582B000AF78600B467B8055
:103200007B681A460023136053609360D360136198
:10321000536193617B68B7F902201146184605F0A7
:10322000B9F87B6818460837BD4680BD80B582B0C6
:1032300000AF786039607B6839681846FFF782FF15
:1032400000BF0837BD4680BD90B585B000AF78603F
:103250000B46FB704C497A6813465B0013449B0095
:103260000B4408331B78002B59D1FB78002B25D158
:103270001C20FDF703FC03461C4643497A681346AD
:103280005B0013449B000B44B3F900301946204601
:10329000FFF787FF3C497A6813465B0013449B00A5
:1032A0000B4404331C6038497A6813465B001344AE
:1032B0009B000B44083301221A7027E0FB78012B96
:1032C00024D11C20FDF7DAFB03461C462E497A6800
:1032D00013465B0013449B000B44B3F900301946BE
:1032E0002046FFF787FF28497A6813465B0013449E
:1032F0009B000B4404331C6023497A6813465B002F
:1033000013449B000B44083302221A707A68134658
:103310005B0013449B001C4A1344FB602FE01A49D6
:103320007A6813465B0013449B000B4408331B78F8
:10333000012B0BD1FB78002B08D17A6813465B0078
:1033400013449B00104A1344FB6018E00E497A684E
:1033500013465B0013449B000B4408331B78022B7D
:103360000BD1FB78012B08D17A6813465B0013441C
:103370009B00054A1344FB6001E00023FB60FB68EF
:1033800018461437BD4690BD8844002080B584B0EF
:1033900000AF78607B68BB607B68002B07D0BB68A0
:1033A0005B681846FFF719FF0346FB7301E0002333
:1033B000FB73FB7B18461037BD4680BD80B584B0DB
:1033C00000AF78600B46FB707B68FB607B68002B6E
:1033D00006D0FB685B68FA7811461846FFF726FFAF
:1033E00000BF1037BD4680BD80B584B000AF7860A7
:1033F0007B68FB60FB681B7A022B08D1FB685B686B
:103400001846FDF757FBFB6800221A720BE0FB68B9
:103410001B7A012B07D1FB685B681846FDF74AFB56
:10342000FB6800221A7200BF1037BD4680BD000045
:1034300080B483B000AF03463960FB7197F9073061
:10344000002B0BDA3B68DAB20C49FB7903F00F036F
:10345000043B1201D2B20B441A7609E03B68DAB29F
:10346000074997F907301201D2B20B4483F80023C1
:1034700000BF0C37BD465DF8047B704700ED00E0EF
:1034800000E100E080B483B000AF0346FB7197F920
:103490000730002B0ADA0D4AFB7903F00F03043BD7
:1034A00013441B7EDBB21B09DBB208E0084A97F924
:1034B0000730134493F80033DBB21B09DBB2184624
:1034C0000C37BD465DF8047B704700BF00ED00E09F
:1034D00000E100E080B582B000AF78607B68013B1E
:1034E000B3F1807F01D301230FE00A4A7B68013BDF
:1034F00053600F214FF0FF30FFF79AFF054B00227A
:103500009A60044B07221A60002318460837BD460C
:1035100080BD00BF10E000E080B485B000AF7860EF
:103520007B6801331B017B607B68FB60FB6883F376
:10353000118800BF1437BD465DF8047B704700005A
:1035400080B500AFBFF34F8FBFF36F8F0A4B1A6880
:103550000A4B1B689A4202D3074B00221A60064BA3
:103560001B685A1C04490A60002B03D172B600F094
:103570004BFA62B600BF80BDB8430020B4430020C0
:10358000EFF3008001B5EFF3118003B44FF0FF308B
:10359000FFF778FF03461846FFF7BEFF014800F02B
:1035A000F5FA00BF4135000880B584B000AF7860FF
:1035B0001C4B1B6807EE903AB8EE677AD7ED017A9C
:1035C00067EE277AFCEEE77A17EE903AFB60FB682D
:1035D000B3F1807F18D3FB6807EE903AB8EE677AB4
:1035E000DFED116AC7EE267AFCEEE77A17EE903A25
:1035F00001330E4A13600D4B1B68FA68B2FBF3F3FC
:103600001846FFF767FF05E0084B00221A60F868CC
:10361000FFF760FF064B00221A6000BF1037BD465F
:1036200080BD00BF70440020FFFF7F4BB4430020EB
:10363000B843002080B582B000AF78607B685B68DB
:10364000012B08D17B681B7A002B04D07B68DB68D8
:103650001846FFF7C9FE00BF0837BD4680BD80B5DC
:1036600082B000AF78607868FFF7E4FF00BF0837EA
:10367000BD4680BD80B582B000AF78607B681B78A6
:10368000002B05D17B6801221A707868FFF7E7FFED
:1036900000BF0837BD4680BD80B582B000AF7860FE
:1036A0007B685B68012B08D17B681B7A002B04D0F8
:1036B0007B68DB681846FFF797FE00BF0837BD46FA
:1036C00080BD80B582B000AF78607868FFF7E4FF16
:1036D00000BF0837BD4680BD80B582B000AF7860BE
:1036E0007B681B78002B05D17B6801221A707868F3
:1036F000FFF7E7FF00BF0837BD4680BD00000000B0
:1037000098B500AF464BD3E90234464AC2E90034CB
:10371000454B5A6A434B93ED007BB5EE407BF1EE8F
:1037200010FA14BF01230023DBB219461046FFF73D
:1037300045FE3D4B93ED046B394B93ED007BB4EEAE
:10374000476BF1EE10FA05D0354BD3E90034364A19
:10375000C2E90434344BDB681846FFF717FE034612
:103760001A46304B1A72304B5A6B2E4B1B7A194645
:103770001046FFF723FE012002F056FE2B4BD3E943
:1037800008341A462346002002F028FE274B93ED0A
:103790000E7BBFEE006BB4EE467BF1EE10FA1ED04E
:1037A000224B93ED0E6B214B93ED087B36EE476B6E
:1037B0001E4B93ED087B9FED185B27EE057BB4EE67
:1037C000C76BF1EE10FACCBF01230023DBB283F00C
:1037D0000103DBB2002B02D0144B154A1A60134BC5
:1037E00093F84030002B02D0104B114A1A600F4B57
:1037F0009A6A01329A629B6A07EE903AB8EE676B5A
:103800000A4B93ED0C7B094B26EE077B83ED087B7F
:1038100000BF98BDAFF30080000000000000B03C86
:103820007844002008440020C043002018440020B1
:103830000CAC00080000000090B585B000AF5A4BFA
:1038400048220021184605F026FC574A4FF0000395
:10385000564CC2E90E34544A51A4D4E90034C2E9AA
:103860000C34514B524A9A604F4B524ADA604E4BDD
:10387000514A1A614C4B514A5A614B4B504A5A605B
:103880004F4B504A1A604F4B4F4A1A604D4B4E4AAD
:103890005A604C4B4C4A9A604A4B4B4ADA60424A57
:1038A000414B5B6818329A603F4A3F4B5B68083275
:1038B0005A603D4A3C4B5B682032DA60102200219E
:1038C000424805F0E8FB48220021414805F0E3FBAF
:1038D0003F4B01221A763E4B0022DA613C4B00221C
:1038E0001A763C4BFB603A4B002283F82020384B81
:1038F0000122DA610D23BB600121B868FFF7A4FC47
:103900000246FB68DA60324B012283F82020304BFC
:1039100001221A702E4B00225A602D4B00221A7081
:103920002D4BD3E900342A4AC2E90434284B7B608A
:10393000274B00221A72264B01225A601623BB60C5
:103940000021B868FFF780FC02467B68DA60204BF4
:1039500001221A721E4B012283F828201C4B0022E0
:10396000DA621B4B002283F828201C4BFB60184BAB
:10397000002283F83020164B0122DA629D23BB60BF
:103980000121B868FFF760FC0246FB68DA60104B63
:10399000012283F8302000BF1437BD4690BD00BF20
:1039A0009A9999999999B93F184400200000F0BF5D
:1039B00040AB317503549E86B81387D33603438ECC
:1039C000200700203407002020AC00080844002015
:1039D000C0430020D843002078440020E843002062
:1039E00080B500AF0548FFF745FE0548FFF774FEB8
:1039F0000448FFF73FFE00BF80BD00BFD843002052
:103A0000C0430020E843002080B500AF0F4B1B7877
:103A10005A1CD1B20D4A1170002B09D00C4B012257
:103A20001A600A4B1B78013BDAB2084B1A700BE0A4
:103A300062B6FFF765FE72B6044B1B78013BDAB243
:103A4000024B1A7002F0E9FC80BD00BF480700205D
:103A50004407002080B584B000AF0123FB71464BC2
:103A6000FB60464BBB6001DF72B600F0C3F9444B0C
:103A70001B6800221A600021002002F026FDFFF7DB
:103A8000DBFE62B63E4B1B683833184602F012FD6F
:103A9000012002F0D3FC0023BB71394B1B685B682B
:103AA000BA1D0121184602F027FCBB79002B04D077
:103AB000334B1B68012283F8402002F011FD72B6DF
:103AC000F868FFF771FD2E4B1B681B68002B07D1B0
:103AD0002B4B1B6893F84030002B01D1012300E0F1
:103AE0000023DBB2FB7162B662B636E000237B7165
:103AF000234B1B685B687A1D0121184602F04EFCBF
:103B00007B79002B04D01E4B1B68012283F84020D8
:103B10001B4B1B681B68002B05D1194B1B6893F8C6
:103B20004030002B01D0012300E00023DAB2154B16
:103B30001A70144B1B78DBB2002B0CBF012300233F
:103B4000DBB2FB710F4B1B78DBB2002B05D00E4BA9
:103B50001B680D4A23F001031360FB79DBB2002BD5
:103B6000C4D1FFF73DFF012002F07DFC72B60023B7
:103B700018461037BD4680BDCDCCCC3D0000584323
:103B800008AC00084907002010E000E01EF0100F0C
:103B900008BFB0EE400A03B488B004A006904FF00E
:103BA000807007907FF006008646704703BC804710
:103BB000BFF36F8F00DFFEE700BF00BF1EF0100FE6
:103BC00008BFB0EE400A1EF0040F0CBFEFF30880F0
:103BD000EFF30980816911F8020C10B101280DD0B2
:103BE0000BE01EF0100F0CBF1AB008B003BC80F33E
:103BF000118803BC80F300880847FEE74EF6145195
:103C0000CEF200010A6842F001020A607047F4E750
:103C100000BF00BF80B584B000AF7860396000237A
:103C2000FB604FF4E1310C4804F06AFA0A48FFF7F0
:103C30002BF90346012B0CBF01230023DBB2002B21
:103C400004D00548FFF7F0F80346BB60FB68184650
:103C50001037BD4680BD00BF4C07002080B586B040
:103C600000AFF860B9607A603B603B6800221A6080
:103C700000237B617A697B689A420BD2BA687B69C0
:103C800013441B781946074804F0EEF97B690133A9
:103C90007B61EFE73B687A681A60002318461837A3
:103CA000BD4680BD0008002080B586B000AFF8603A
:103CB000B9607A603B60BB687B613B6800221A6038
:103CC0001948FFF7E1F80346002B0CBF012300233E
:103CD000DBB2002B01D0002321E03B681B687A682F
:103CE0009A421BD91048FFF7CFF80346012B0CBFAF
:103CF00001230023DBB2002BEFD00B48FFF794F831
:103D000003463B617B695A1C7A613A69D2B21A70E8
:103D10003B681B685A1C3B681A60DEE700231846A4
:103D20001837BD4680BD00BF4C07002080B582B06B
:103D300000AF78600348FEF7C9FF00231846083734
:103D4000BD4680BD4C07002080B582B000AF7860D2
:103D500039607B68012B10D13B684FF6FF729342AC
:103D60000BD14FF480530A2209210648FEF750FF79
:103D7000054A06490348FCF771FE00BF0837BD46F7
:103D800080BD00BF4C07002068440020CD2C0008F7
:103D900080B500AF4FF6FF710120FFF7D5FF80BD62
:103DA00080B483B000AF03463960FB7197F90730E8
:103DB000002B0BDA3B68DAB20C49FB7903F00F03F6
:103DC000043B1201D2B20B441A7609E03B68DAB226
:103DD000074997F907301201D2B20B4483F8002348
:103DE00000BF0C37BD465DF8047B704700ED00E076
:103DF00000E100E080B500AFFDF7B0FA00F008F890
:103E000000216FF00400FFF7CBFF00BF80BD000072
:103E100080B596B000AF002387F85730294B1B6C54
:103E2000284A43F080531364264B1B6C03F08053E5
:103E3000BB60BB68244B1B68234A43F440431360B8
:103E4000214B1B6803F440437B607B680123FB60CC
:103E50004FF480333B6102237B624FF48003BB62EB
:103E60001923FB624FF4C8733B6302237B6308236F
:103E7000BB6307F10C031846FDF7DAFA034687F82F
:103E80005730FDF79DFA034687F857300F233B6400
:103E900002237B640023BB644FF4A053FB644FF404
:103EA00080533B6507F1400305211846FDF7B2FC3E
:103EB000034687F8573097F8573018465837BD46AD
:103EC00080BD00BF003802400070004080B483B065
:103ED00000AFEFF310833B603B687B6072B67B689A
:103EE00018460C37BD465DF8047B704780B485B03A
:103EF00000AF78607B68FB60FB6883F3108800BFCD
:103F00001437BD465DF8047B704780B586B000AFBE
:103F1000F860B9607A603B600023FB7503F0FEFE39
:103F20003861FB681B68184602F092FF386803F09E
:103F30008FFE0246BB681A6003F07AFE02467B6879
:103F40001A60BB681B68002B0FD0BB681B68194642
:103F5000386903F0B1F90246FB681A60FB681B6818
:103F6000002B04D1F623FB7501E0F823FB7597F9CC
:103F7000173018461837BD4680BD80B586B000AFF3
:103F8000F860B9607A60FA68BB6813447B617B694A
:103F90001B78FB74FB68002B02D0F86802F058FF16
:103FA0007B6800221A60002318461837BD4680BD82
:103FB00080B487B000AFF860B9607A60FA68BB6817
:103FC00013447B617B6802221A604FF0FF3318466E
:103FD0001C37BD465DF8047B704780B485B000AFE8
:103FE0000346FB710523FB73FB79F02B02D90023F9
:103FF000FB7319E0FB79E32B05D9FB79F02B02D891
:104000000123FB7310E0FB79D22B05D9FB79E22B5E
:1040100002D80223FB7307E0FB79C72B04D9FB7995
:10402000D22B01D80323FB73FB7B18461437BD4604
:104030005DF8047B7047000080B58CB000AFF8607D
:10404000B9607A603B60FB681B7887F827303C4B8F
:104050001B78002B5AD0002387F82F300523FB77DD
:1040600097F827301846FFF7B8FF0346FB77FB7F2A
:10407000052B40D00023BB62FB7F324A52F833301D
:10408000BB61FB7F2F4ADB0013445B687B6100232D
:10409000BB6228E0BA6A13465B0013449B001A46D1
:1040A000BB6913441B7897F827209A4218D1BA6A43
:1040B00013465B0013449B001A46BB6913445A68BD
:1040C0007B681A60BA6A13465B0013449B001A4669
:1040D000BB6913449A683B681A60012387F82F3044
:1040E000BB6A0133BB62BA6A7B699A4203D297F812
:1040F0002F30002BCED097F82F30002B1CD17B68AF
:10410000114A1A603B68114A1A6015E097F8273087
:10411000FF2B0BD10B4B1B683B623B6A5A687B68D9
:104120001A603B6A9A683B681A6005E07B68084A37
:104130001A603B6800221A6000BF3037BD4680BD60
:104140002D08002034080020B13F00081942000863
:104150007B3F000880B483B000AF0346FB71044A84
:10416000FB79137000BF0C37BD465DF8047B7047C8
:104170002D08002080B400AF034B1B781846BD46C5
:104180005DF8047B704700BF2E08002080B483B028
:1041900000AF0346FB71064B1A78FB791343DAB282
:1041A000034B1A7000BF0C37BD465DF8047B7047A7
:1041B0002E08002080B483B000AF0346FB7197F94E
:1041C0000730DB435AB2074B1B785BB213405BB23C
:1041D000DAB2044B1A7000BF0C37BD465DF8047BA1
:1041E000704700BF2E08002080B400AF034B1B783F
:1041F0001846BD465DF8047B704700BF2F080020BD
:1042000080B400AF034B1B881846BD465DF8047BA5
:10421000704700BF3008002080B487B000AF03466D
:10422000B9607A60FB7397F90F30002B05D1BB683A
:104230003B613B69FF221A7058E0BB687B617B6978
:10424000FE221A7097F90F300C330B2B4AD801A2BB
:1042500052F823F0DD420008D5420008C5420008AC
:10426000CD420008BD420008B5420008AD4200083A
:10427000A54200088D4200088542000895420008CA
:104280009D4200087B6930225A702FE07B69292209
:104290005A702BE07B6922225A7027E07B6920222A
:1042A0005A7023E07B6900225A701FE07B69232249
:1042B0005A701BE07B6921225A7017E07B6911223A
:1042C0005A7013E07B6927225A700FE07B692A221B
:1042D0005A700BE07B6910225A7007E07B69242238
:1042E0005A7003E07B6920225A70FFE700BF1C3739
:1042F000BD465DF8047B704780B582B000AF786042
:1043000039600C4B1B78002B02D06FF00B030CE0D4
:10431000094803F0F5F9094801F0F8F9084800F0F8
:104320006BF9044B01221A70002318460837BD466A
:1043300080BD00BF2C080020340800204408002065
:104340003C08002080B58CB002AF002387F82730EE
:10435000002387F826300023FB610023BB61002384
:104360007B6100233B610023FB6000233B62002351
:10437000BB6000237B604B4B1B78002B02D16FF09E
:1043800008038BE007F1140007F1180207F11C0184
:1043900007F1100300930346002003F0D1FB03460E
:1043A00087F8273097F92730002B09D097F9273065
:1043B00013F1040F04D097F9273013F1050F61D1E1
:1043C000FB69002B05D07A693B691A44BB699A42A4
:1043D00003D9F82387F8273057E0FA697B6913443B
:1043E0003B6239693B1D07F10802386AFFF724FE7A
:1043F000BB68002B03D1F42387F8273045E0BB6866
:10440000F869796907F10C029847034687F8263066
:104410007B68002B33D0FB68002B30D0002387F85B
:1044200027303A69FB689A420BD2FB6807F1140205
:1044300007F1180107F11C00FFF767FD034687F835
:10444000273097F92730002B19D1FA697B6913447B
:104450003B627B68FA6897F92600396A9847F969E0
:10446000BA697869FB6800930346012003F04CFAAF
:10447000034687F8273097F92730002B04D197F9A6
:1044800027300BE000BF00E000BFFB69002B03D02A
:10449000FB69184602F0DCFC97F9273018462837EC
:1044A000BD4680BD2C08002080B584B000AF034617
:1044B0003960FB800023FB73094B1B78002B02D172
:1044C0006FF0080308E0FB883968184601F036F9F8
:1044D0000346FB7397F90F3018461037BD4680BD71
:1044E0002C08002080B400AF034B1B781846BD4653
:1044F0005DF8047B704700BF2D08002080B500AF39
:1045000000F08CF801F04EFB03F00CF920220021A2
:10451000044804F0C0FD044B00221A700023184622
:1045200080BD00BF340800202C08002080B584B076
:1045300000AF0346FB710123FB6003F0B5FBB860DD
:10454000FA79BB68A3F10801FB68B1FBF3F39A4267
:1045500094BF01230023DBB218461037BD4680BD4F
:1045600080B58AB000AFF860B9607A60002387F840
:104570002730FA68BB6813443B623B6AFB61002347
:10458000BB610023FB75FB695B781846FFF7CEFF24
:104590000346FB75FB7D002B05D17B6802221A6068
:1045A0006FF0010324E0FB69DB78002B03D1FB698A
:1045B0005B68002B01D0012300E00023FB75FB7D2D
:1045C000002B04D17B6802221A60242310E0FB69CF
:1045D0005B68BB613B6A03F10801FB695B781A46C3
:1045E000B86904F04DFD7B6801221A6097F9273005
:1045F00018462837BD4680BD80B483B000AF7860D0
:104600007B68054A1A607B6801225A6000BF0C373C
:10461000BD465DF8047B7047744C002080B400AF49
:1046200000BFBD465DF8047B7047000080B483B0D6
:1046300000AF0346FB80104B1968FA8813469B00B5
:1046400013449B000B445B79022B0AD00A4B196878
:10465000FA8813469B0013449B000B445B79032BA1
:1046600001D1012300E00023DBB218460C37BD4620
:104670005DF8047B704700BF5408002080B582B00D
:1046800000AF0023FB710023BB800023BB8008E048
:10469000BB881846FFF7CAFF0346FB71BB8801338E
:1046A000BB80094B9B88BA889A4202D2FB79002BC7
:1046B000EED0FB79002B0CBF01230023DBB21846A0
:1046C0000837BD4680BD00BF5408002080B485B0C7
:1046D00000AF0346FB800B467B7113463B71284BB2
:1046E0001B68002B42D0264B9B88FA889A423DD209
:1046F000234B1968FA8813469B0013449B000B4414
:104700001B68002B32D01E4B1968FA8813469B0099
:1047100013449B000B441B797A799A4226D2184B9A
:104720001968FA8813469B0013449B000B441968D0
:104730007A7913465B0013449B000B441B68002BE3
:1047400014D00F4B1968FA8813469B0013449B0042
:104750000B4419687A7913465B0013449B000B44A1
:104760001B793A799A4201D2012300E00023FB73BE
:10477000FB7B18461437BD465DF8047B704700BFCD
:104780005408002080B485B000AF03463A60FB7146
:104790000B46BB710023FB73BB79BB81FB79FF2BFD
:1047A00004D1BB89FF2B01D80123FB73FB7B184687
:1047B0001437BD465DF8047B704780B483B000AF0A
:1047C0000346FB71FB79102B0CBF01230023DBB2E6
:1047D00018460C37BD465DF8047B704780B485B041
:1047E00000AF0346FB710023FB73FB79002B05D060
:1047F000FB79012B02D0FB79022B01D10123FB7342
:10480000FB7B18461437BD465DF8047B704780B4C7
:1048100085B000AF0346FB710023FB73FB79002BCF
:1048200005D0FB79012B02D0FB79022B01D10123AA
:10483000FB73FB7B18461437BD465DF8047B70475D
:1048400080B400AF01231846BD465DF8047B704775
:1048500080B588B000AF78600023FB740023FB6153
:104860000023BB610023BB611FE07B681968BA6944
:1048700013465B0013449B000B449B6801337B6130
:104880000023FB60BB69002B02D17B6904337B6191
:10489000786903F0DDF9F860FA68FB699A4201D99A
:1048A000FB68FB61BB690133BB617B681B791A46FE
:1048B000BB699342D9DB7B6810331A460321F86940
:1048C00002F014FB0346FB7497F91330002B03D05E
:1048D0007B684FF0FF321A6100BF2037BD4680BDB4
:1048E00080B582B000AF78607B681B69B3F1FF3F91
:1048F00004D07B681B69184602F004FC7B684FF00B
:10490000FF321A6100BF0837BD4680BD80B58AB04E
:1049100000AFF860B9607A60002387F82730FA6842
:10492000BB6813443B623B6AFB61FB699A78DB78A6
:104930001B0213437B83FB691B797B76FB695B79E5
:104940003B760023FB753A7E797E7B8B1846FFF71A
:10495000BDFE0346FB75FB7D002B05D17B68022263
:104960001A606FF0010321E07B8B1846FFF75EFEB3
:104970000346002B0CBF01230023DBB2FB75FB7D3C
:10498000002B05D17B6802221A606FF007030DE04F
:10499000084A7B8B1380074A7B7E9370054A3B7ED7
:1049A000D3707B6801221A6097F9273018462837A0
:1049B000BD4680BD804C002080B58AB000AFF86055
:1049C000B9607A60002387F82730FA68BB6813441F
:1049D0003B623B6AFB613C4B1B887B833A4B9B7879
:1049E0007B76394BDB783B7600237B610023FB74BD
:1049F0003A7E797E7B8B1846FFF768FE0346FB7490
:104A0000FB7C002B05D17B6802221A606FF0050346
:104A100056E07B8B1846FFF709FE0346002B0CBFC0
:104A200001230023DBB2FB74FB7C002B05D17B68E8
:104A300002221A606FF0070342E0FB695878FB69B5
:104A40009978FB695B681A46FFF79CFE0346FB7486
:104A5000FB7C002B05D17B6802221A606FF00103FA
:104A60002EE01A4B19687A8B13469B0013449B0067
:104A70000B4419687A7E13465B0013449B000B4479
:104A80001A683B7EDB0013447B61FB695A787B69C3
:104A90001A70FB699A787B695A70FB69DA787B69CE
:104AA0009A70FB695A687B695A60074BDB7801335F
:104AB000DAB2054BDA707B6801221A6097F9273069
:104AC00018462837BD4680BD804C00205408002081
:104AD00080B58AB000AFF860B9607A60002387F8CB
:104AE0002730FA68BB6813443B623B6AFB610023D2
:104AF000BB610023FB75474B1B68002B08D0FB698B
:104B00005B889AB2434B9B889A4201D2012300E012
:104B10000023FB75FB7D002B05D17B6802221A6008
:104B20006FF0010371E03B4B1A68FB695B889BB235
:104B300019460B469B000B449B001344BB61FB6969
:104B40005B889BB21846FFF771FD0346002B0CBF34
:104B500001230023DBB2FB75FB7D002B05D17B68B5
:104B600002221A606FF007034FE0FB699B889BB23B
:104B70007F2B94BF01230023DBB2FB75FB7D002B51
:104B800005D17B6802221A606FF001033DE0FB69EA
:104B9000DB79002B0CBF01230023DBB2FB75FB7D0F
:104BA000002B05D17B6802221A606FF001032CE014
:104BB000FB695B781846FFF700FE0346FB75FB7D3B
:104BC000002B05D17B6802221A606FF009031CE0FC
:104BD000FB695A78BB699A71FB699B889AB2BB6979
:104BE0001A81FB699A79BB699A72FB69DA79BB69A8
:104BF000DA72BB699B7A012B02D8BB6901229A72D7
:104C00007B6801221A6097F9273018462837BD467D
:104C100080BD00BF5408002090B58FB000AFF86091
:104C2000B9607A60002387F82730FA68BB681344BC
:104C30003B623B6AFB610023BB61002387F837308E
:104C40000023FB75A84B1B68002B08D0FB695B8811
:104C50009AB2A54B9B889A4201D2012300E000231F
:104C600087F8373097F83730002B05D17B68022260
:104C70001A606FF0010362E19B4B1A68FB695B8865
:104C80009BB219460B469B000B449B001344BB612F
:104C9000FB695B781846FFF7A1FD034687F83730BC
:104CA00097F83730002B05D17B6802221A606FF02D
:104CB000090344E1FFF7C4FD0346002B56D0BB694E
:104CC0005B79002B52D1BB699B7903F00203002B67
:104CD00021D0BB691B68002B09D0834BDB791A46B6
:104CE000BB691B7913447F2B01DC012300E0002307
:104CF00087F8373097F83730002B2DD07A4BDA7998
:104D0000BB691A73784BDA79BB691B791344DAB241
:104D1000754BDA7120E0BB691B68002B09D0724B20
:104D20009B791A46BB691B7913447F2B01DC012355
:104D300000E0002387F8373097F83730002B0BD08E
:104D4000694B9A79BB691A73674B9A79BB691B796E
:104D50001344DAB2644B9A7197F83730002B05D1BF
:104D60007B6802221A606FF00803E8E0FB695B7859
:104D7000012B04D0FB695B78022B40F0828000237A
:104D80003B63012387F8373000233B636FE0002348
:104D9000FB620023BB62BB6919683A6B13465B0078
:104DA00013449B000B441B68002B0CD0BB69196893
:104DB0003A6B13465B0013449B000B441B79002B9A
:104DC00001D0012300E0002387F8373097F837300F
:104DD000002B05D17B6802221A606FF00803AEE059
:104DE0000023FB6213E0BB6919683A6B13465B0052
:104DF00013449B000B441A68FB6ADB0013445B7886
:104E00001A46BB6A1344BB62FB6A0133FB62BB698F
:104E100019683A6B13465B0013449B000B441B79E3
:104E20001A46FB6A9342DEDBBB6A5C1D02F035FF6B
:104E300003469C4294BF01230023DBB287F837303E
:104E400097F83730002B05D17B6802221A606FF08B
:104E5000080374E0BB6919683A6B13465B0013449E
:104E60009B000B44BA6A9A603B6B01333B63BB699E
:104E70001B791A463B6B934203DA97F83730002BC5
:104E800085D1FFF723F80246184B1A60184B1B68B0
:104E9000002B0CBF01230023DBB2FB75FB7D002B35
:104EA00004D1124B1B681846FFF720F8FB7D002B3E
:104EB0003AD0FB695B78012B1CD0022B27D0002B4A
:104EC0002AD1B869FFF70CFDBB6901225A71FFF7BF
:104ED000D5FB0346002B1ED00120FFF73BF94020F5
:104EE000FFF768F917E000BF540800205C080020B5
:104EF00060080020B869FFF7ABFCBB6903225A7158
:104F00000220FFF727F94020FFF740F904E0BB69D2
:104F100002225A7100E000BF0B4B1B681846FEF7D7
:104F2000E5FF7B6801221A60FB7D002B05D17B68C1
:104F300002221A606FF00A0301E097F92730184641
:104F40003C37BD4690BD00BF5C08002080B588B0EE
:104F500000AF0346B9607A60FB7397F90F30002BFE
:104F600018D1BB68FB61BB68BB61FB699A78DB78D1
:104F70001B021343FB82BB69FF221A700B4B19689B
:104F8000FA8A13469B0013449B000B441A7BBB69AF
:104F90005A7006E097F90F307A68B9681846FFF73B
:104FA0003BF900BF2037BD4680BD00BF540800203C
:104FB00080B58AB000AFF860B9607A60002387F8E6
:104FC0002330FA68BB681344FB61FB69BB610023B3
:104FD000FB750023BB7500237B62BB695B781846B9
:104FE000FFF715FC0346FB75FB7D002B05D17B68A5
:104FF00002221A606FF00903E7E0764B1B68002B72
:1050000005D0744B9B88002B01D0012300E00023C6
:10501000FB75FB7D002B05D17B6802221A606FF0C7
:105020000103D2E0FEF752FF02466B4B1A606B4B56
:105030001B68002B0CBF01230023DBB2BB75BB7DBB
:10504000002B04D1644B1B681846FEF74FFFBB7D55
:10505000002B00F0AF80BB695B78012B37D0022BAF
:1050600068D0002B40F09E8000237B6222E0594BE9
:1050700019687A6A13469B0013449B000B445B79C2
:10508000002B14D0534B19687A6A13469B001344C3
:105090009B000B441846FFF723FC4E4B19687A6AB5
:1050A00013469B0013449B000B4401225A717B6AF8
:1050B00001337B62474B9B881A467B6A9342D6DB5F
:1050C0000120FFF747F84020FFF774F86AE000235B
:1050D0007B6228E03F4B19687A6A13469B001344B1
:1050E0009B000B445B79022B1AD13A4B19687A6A00
:1050F00013469B0013449B000B441846FFF7A8FB84
:10510000344B19687A6A13469B0013449B000B4486
:1051100003225A710220FFF71DF84020FFF736F8EE
:105120007B6A01337B622B4B9B881A467B6A9342D6
:10513000D0DB37E000237B6222E0264B19687A6AD5
:1051400013469B0013449B000B445B79022B14D144
:10515000204B19687A6A13469B0013449B000B444A
:105160001846FFF7BDFB1B4B19687A6A13469B0074
:1051700013449B000B4401225A717B6A01337B620A
:10518000144B9B881A467B6A9342D6DBFFF776FA6C
:105190000346002B05D00120FEF7DCFF4020FFF77F
:1051A00009F800BF0C4B1B681846FEF79FFE7B6892
:1051B00001221A60BB7D002B05D17B6802221A6098
:1051C0006FF00A0301E097F9233018462837BD46EF
:1051D00080BD00BF540800205C080020600800204B
:1051E00080B485B000AFF860B9607A607B6808224F
:1051F0001A60002318461437BD465DF8047B7047DB
:1052000080B586B000AF0346B9607A60FB73BB68B7
:105210007B6108220021786903F03DFF7B69FF2252
:105220001A707B6911225A707B694FF0FF329A70B5
:105230004FF0FF32DA707B69002262F07F021A7150
:1052400000225A717B6900229A717B690022DA710F
:1052500000BF1837BD4680BD80B485B000AFF86090
:10526000B9607A607B6808221A60002318461437F8
:10527000BD465DF8047B704780B586B000AF03463D
:10528000B9607A60FB73BB687B6108220021786992
:1052900003F001FF7B69FF221A707B6901225A70BB
:1052A0007B69FF229A707B690122DA707B69FF2299
:1052B0001A717B693C225A717B69002242F001021B
:1052C0009A710022DA7100BF1837BD4680BD80B5E3
:1052D00086B000AFF860B9607A600023FB750023E8
:1052E000BB7500F0B7FB0346BB75BB7D002B05D13A
:1052F0007B6802221A606FF00A0307E00120FEF7C4
:1053000029FF7B6801221A6097F917301846183771
:10531000BD4680BD80B58CB000AFF860B9607A60E2
:10532000002387F82B30FA68BB6813447B627B6AE2
:105330003B623B6A9A78DB781B021343FB830023B2
:10534000BB610023FB750023FB62284B1B68002B0D
:105350000CBF01230023DBB2FB75FB7D002B05D1C5
:105360007B6802221A606FF003033BE0FA8B13465E
:105370009B0013449B00184601F0FCFCB861BB691C
:10538000002B05D17B6802221A606FF0020329E02E
:10539000FA8B13469B0013449B001A460021B86900
:1053A00003F079FE114ABB691360104AFB8B9380AE
:1053B0000023FB620DE0FA6A13469B0013449B0036
:1053C0001A46BB6913444FF0FF321A61FB6A01337E
:1053D000FB62FB8BFA6A9A42EDDB7B6801221A6062
:1053E00097F92B3018463037BD4680BD5408002051
:1053F00090B589B000AFF860B9607A600023FB77A0
:10540000FA68BB681344BB61BB697B617B699A78AE
:10541000DB781B0213437B827B691B797B7400233F
:105420003B74414B1B68002B14BF01230023DBB2EC
:105430003B743B7C002B05D17B6802221A606FF025
:1054400003036DE0384B9B887A8A9A4234BF01236C
:105450000023DBB23B743B7C002B05D17B6802222E
:105460001A606FF001035BE02F4B19687A8A1346CC
:105470009B0013449B000B441B68002B0CBF0123B3
:105480000023DBB23B743B7C002B05D17B680222FE
:105490001A606FF0030343E07A7C13465B00134409
:1054A0009B001846204B19687A8A13469B001344C8
:1054B0009B00CC1801F05EFC034623601A4B196870
:1054C0007A8A13469B0013449B000B441B68002BF5
:1054D00005D17B6802221A606FF0020320E0124BB4
:1054E00019687A8A13469B0013449B000B44186882
:1054F0007A7C13465B0013449B001A46002103F09C
:10550000CAFD094B19687A8A13469B0013449B0015
:105510000B447A7C1A717B6801221A6097F91F305C
:1055200018462437BD4690BD5408002090B58BB076
:1055300000AFF860B9607A60002387F82730FA6816
:10554000BB6813443B623B6AFB61FB699A78DB787A
:105550001B0213437B83FB691B797B76FB695B79B9
:105560003B760023FB75684B1B68002B14BF01239F
:105570000023DBB2FB75FB7D002B05D17B6802228B
:105580001A606FF00303BAE05F4B9B887A8B9A42F4
:1055900034BF01230023DBB2FB75FB7D002B05D15B
:1055A0007B6802221A606FF00103A8E0564B19686D
:1055B0007A8B13469B0013449B000B441B68002B03
:1055C00014BF01230023DBB2FB75FB7D002B05D14B
:1055D0007B6802221A606FF0030390E04A4B19685F
:1055E0007A8B13469B0013449B000B441B797A7EF5
:1055F0009A4234BF01230023DBB2FB75FB7D002BF5
:1056000005D17B6802221A606FF0010377E03E4B00
:1056100019687A8B13469B0013449B000B4419684E
:105620007A7E13465B0013449B000B441B68002BDF
:105630000CBF01230023DBB2FB75FB7D002B05D1E2
:105640007B6802221A606FF0030358E03B7ED800AB
:105650002D4B19687A8B13469B0013449B000B4417
:1056600019687A7E13465B0013449B00CC1801F046
:1056700081FB03462360244B19687A8B13469B00F9
:1056800013449B000B4419687A7E13465B00134455
:105690009B000B441B68002B05D17B6802221A601B
:1056A0006FF002032BE0184B19687A8B13469B00AE
:1056B00013449B000B4419687A7E13465B00134425
:1056C0009B000B4418683B7EDB001A46002103F068
:1056D000E2FC0D4B19687A8B13469B0013449B0028
:1056E0000B4419687A7E13465B0013449B000B44FD
:1056F0003A7E1A717B6801221A6097F927301846A2
:105700002C37BD4690BD00BF5408002080B483B044
:1057100000AF7860074B00221A607B68064A1A6067
:105720007B680B225A6000BF0C37BD465DF8047BD6
:10573000704700BF5C080020844C002080B592B008
:1057400002AF03463960FB80002387F83F30002317
:1057500087F83E30FEF7BAFB0246814B1A60814B58
:105760001B6801337F4A13607D4B1B681846FEF7A8
:10577000BDFB7D4B1B68002B00F051817A4B9B8851
:10578000002B00F04C810023BB63774B1B683B620E
:105790000023BB6338E1BA6B13469B0013449B00A4
:1057A0001A463B6A13449B7903F00203002B40F036
:1057B0002881BA6B13469B0013449B001A463B6A30
:1057C00013445B79032B40F01C81BA6B13469B009A
:1057D00013449B001A463B6A13441B89FA889A4279
:1057E00040F00F8100237B6300237B63F7E002F02E
:1057F0001FFAF86100233B630023FB620023BB61B7
:10580000BA6B13469B0013449B001A463B6A134431
:1058100019687A6B13465B0013449B000B449B682A
:1058200001333B637B6B002B02D13B6B04333B6347
:10583000386B02F00DFAB861BA6B13469B00134443
:105840009B001A463B6A13441B69B3F1FF3F0ED01D
:10585000BA6B13469B0013449B001A463B6A1344E1
:105860001B69B969184601F027FDF86203E0B869C1
:1058700001F080FAF862FB6A002B05D1012387F85A
:105880003E30F62387F83F3097F83E30002B40F04B
:10589000A380FA6AFB691344BB6200237B62BA6B84
:1058A00013469B0013449B001A463B6A13441A7B21
:1058B0007B6BDBB21344DAB2BB6A1A70BB6A01338A
:1058C000BB627B6B002B05D13A68BB6A1A60BB6A6E
:1058D0000433BB6200237B6258E0BA6B13469B0023
:1058E00013449B001A463B6A134419687A6B1346AB
:1058F0005B0013449B000B441A687B6ADB00134473
:105900007B617B695B683B61BA6B13469B00134408
:105910009B001A463B6A134419687A6B13465B0076
:1059200013449B000B441A687B6ADB0013441B780A
:10593000FF2B1BD03B69FB60FB681B68DAB27B69FD
:105940001B78194601238B40DBB21340DBB2002BDE
:1059500014BF01230023DBB21A46BB6A1A700CE0A5
:105960005C08002060080020540800207B695B78F8
:105970001A463969B86A03F083FB7B695B781A467B
:10598000BB6A1344BB627B6A01337B62BA6B13460A
:105990009B0013449B001A463B6A134419687A6BB8
:1059A00013465B0013449B000B441B791A467B6A29
:1059B000934292DB3B6B0093FB69BA69F96A002062
:1059C00001F0A2FF034687F83F3097F93F30002BE4
:1059D00002D0F86A01F03CFA7B6B01337B63BA6B4F
:1059E00013469B0013449B001A463B6A13441B79E1
:1059F0001A467B6B934204DA97F83E30002B3FF453
:105A0000F6AEBB6B0133BB630F4B9B881A46BB6B77
:105A1000934204DA97F83E30002B3FF4BCAEFEF719
:105A200055FA0246094B1A60094B1B68013B084AAC
:105A30001360064B1B681846FEF758FA97F93F307B
:105A400018464037BD4680BD540800205C08002041
:105A50006008002080B586B000AF0123FB754E4B77
:105A60001B68002B00F092804B4B1B68BB604A4BBD
:105A70009B887B60FEF72AFA0246484B1A60484B27
:105A80001B68002B0CBF01230023DBB2FB75FB7DE1
:105A9000002B04D1414B1B681846FEF727FAFB7D0B
:105AA000002B70D000233B610023FB603A4B0022A7
:105AB0001A60394B00229A80374B00229A71364B7C
:105AC0000022DA71354B1B681846FEF70FFA0023E7
:105AD0003B6151E03A6913469B0013449B001A4610
