:020000040800F2
:100000000000082075120008A9120008A9120008B3
:10001000A9120008A9120008A91200080000000097
:100020000000000000000000000000005560000813
:10003000A912000800000000A9120008715F000862
:10004000A9120008A9120008A9120008A9120008A4
:10005000A9120008A9120008A9120008A912000894
:10006000A9120008A9120008A9120008A912000884
:10007000A9120008A9120008A9120008A912000874
:10008000A9120008A9120008A912000825040008F6
:1000900029040008A912000819040008A912000880
:1000A000A9120008A9120008A9120008A912000844
:1000B000A9120008A9120008A9120008A912000834
:1000C000A9120008A9120008A9120008A912000824
:1000D000A9120008A9120008A9120008A912000814
:1000E000A9120008A9120008A9120008A912000804
:1000F000A9120008A9120008A9120008A9120008F4
:10010000A9120008A9120008A9120008A9120008E3
:10011000A9120008A9120008A9120008A9120008D3
:10012000A9120008A9120008A9120008A9120008C3
:10013000A9120008A9120008A91200083904000831
:100140003D040008A91200082D040008A9120008A7
:10015000A9120008A9120008A9120008A912000893
:10016000A9120008A9120008A9120008A912000883
:10017000A9120008A9120008A91200080000000036
:10018000A9120008A9120008A9120008A912000863
:10019000A9120008A9120008A9120008A912000853
:1001A000A9120008A9120008A9120008A912000843
:1001B000A9120008A9120008A9120008A912000833
:1001C000A9120008A9120008A9120008A912000823
:1001D000A9120008A9120008A9120008A912000813
:1001E000A9120008A9120008A9120008A912000803
:1001F000A9120008A9120008044B05481B1A062B77
:1002000002D9044B03B11847704700BF27190020DB
:10021000241900200000000005490648091A891029
:1002200001EBD171491002D0034B03B1184770475D
:1002300024190020241900200000000010B5064CED
:10024000237843B9FFF7D8FF044B13B10448AFF349
:1002500000800123237010BDF80100200000000081
:100260009CC2000808B5084B1BB108490848AFF309
:1002700000800848036813B9BDE80840CCE7064B86
:10028000002BF9D09847F7E700000000FC010020A0
:100290009CC200082019002000000000154B002B14
:1002A00008BF134B9D46A3F5803A00218B460F46AD
:1002B0001348144A121A09F006FF0F4B002B00D006
:1002C00098470E4B002B00D09847002000210400D7
:1002D0000D000D48002802D00C48AFF3008009F053
:1002E00013FE2000290007F0E7F809F00DFB00BF1E
:1002F0000000080000000820000000006509000858
:10030000F80100203411002000000000000000006F
:1003100043692DE9F0410D46394CD90720602CD5B1
:100320008168DFF8E8E0826801EA0E01354F8368F2
:10033000354E714502EA070203EA060303D14FF086
:10034000010EC0F808E0BA4202D14FF4807787600E
:10035000B34202D14FF4803686602C48814205D0EA
:1003600028498A4202D0284A934206D1284B0121CB
:10037000284A1B6852F8250098472368DA685B69A9
:10038000920708D09F0706D5214B0021214A1B6800
:1003900052F825009847236899695A698E075B6966
:1003A0000AD5900508D5190406D5194B0521194A17
:1003B0001B6852F82500984722689769566917F01C
:1003C0000407526906F4806609D046B1120406D5C6
:1003D0000F4B07210F4A1B6852F8250098472368E6
:1003E0005B695FB156B11B0408D5094B0221094A6C
:1003F0001B6852F82500BDE8F0411847BDE8F081C0
:100400001402002000030008000003100300000491
:100410005C0200205402002000210148FFF778BF51
:1004200000640040FFF7F8BFFFF7F6BF0121014865
:10043000FFF76EBF00680040FFF7F8BFFFF7F6BF99
:1004400030B50C4CA268A4681346B4F1006F0CD10F
:10045000131F094C094A53F8045F42F8045FA24293
:10046000F9D14FF00053034A9360103043F8201045
:1004700030BD00BF00ED00E0C4010020FCFFFF1F05
:1004800000B58DB00A2800F28E80DFE800F0061477
:10049000202C3844505C68748000454B45481A6BEA
:1004A00042F001021A631B6B03F001030193019BED
:1004B0000DB05DF804FB3E4B3F481A6B42F0020260
:1004C0001A631B6B03F002030293029BF0E7384BA5
:1004D0003A481A6B42F004021A631B6B03F00403E0
:1004E0000393039BE4E7324B35481A6B42F0080252
:1004F0001A631B6B03F008030493049BD8E72C4B8F
:1005000030481A6B42F010021A631B6B03F01003A1
:100510000593059BCCE7264B2B481A6B42F0200233
:100520001A631B6B03F020030693069BC0E7204B66
:1005300026481A6B42F040021A631B6B03F040031B
:100540000793079BB4E71A4B21481A6B42F08002CD
:100550001A631B6B03F080030893089BA8E7144BF6
:100560001C481A6B42F480721A631B6B03F480738D
:100570000993099B9CE70E4B17481A6B42F40072D3
:100580001A631B6B03F400730A930A9B90E7084BF2
:1005900012481A6B42F480621A631B6B03F4806387
:1005A0000B930B9B84E70E4807F036FB00207FE798
:1005B00000380240000002400004024000080240EF
:1005C000000C0240001002400014024000180240DB
:1005D000001C02400020024000240240002802408B
:1005E0000CB8000870B5134C23681A69950707D535
:1005F000DA68900704D56FF002021A6107F084FAF6
:1006000023681A69510713D5DA68520710D56FF0BD
:100610000402094E1A615D6A3368EB1AB3F57A7FFA
:1006200006D300F055FE236805F57A729A633560AB
:1006300070BD00BF1C0A00206002002030B589B0E8
:10064000274C01A903A801F069F901F037F9254BFE
:1006500001901A6C42F008021A641A6C02F0080247
:100660000292029A1A6A42F008021A621A6A22F088
:1006700008021A62A3F50B33069A23604FF0FF338A
:10068000E360194B52BB0025B0FBF3F00138256144
:10069000A560606012486561A56101F08FFD134996
:1006A0003220FFF7CDFE4FF48022114B29460C4833
:1006B0005A6001F0C3FD0421094801F0BFFD236821
:1006C0000C4A2846596A1160126802F57A729A63D8
:1006D000DA6842F00402DA6009B030BD4000D2E7C7
:1006E0001C0A00200038024040420F00E5050008C7
:1006F00000E100E06002002008B507F09FFA9620B4
:1007000007F0F1FA962007F0EEFAF8E770B50D461B
:10071000A0B0044607F092FA2B4680212246684694
:100720000AF0B8FB051E03DC07F0B4FA20B070BD78
:10073000094B1B6823B90A220921084800F0A6FBCF
:100740000024064E1DF804100134304600F080FDF0
:10075000A542F7D1E8E700BF98030020D4090020A4
:100760000FB407B504A951F8040B0191FFF7CEFFB0
:1007700003B05DF804EB04B0704708B501F0D2FF98
:10078000BDE8084000F092BD08B5084B1B685BB996
:10079000092107480A2200F079FB4FF4165104485A
:1007A000BDE8084000F094BC08BD00BF98030020DD
:1007B000D4090020022810B5044601DC002010BD39
:1007C00009F09CF80923033C00220360084B53F80E
:1007D000240043F8242040B103681B699847041E95
:1007E000ECDA644209F08AF804604FF0FF3010BD83
:1007F00064020020F8B505460E46144609F07EF85E
:100800000923022D03600FDC124B1B680BB9FFF7A5
:10081000BBFF35463719104EBD4215D015F8011BE8
:10082000304600F015FDF7E7033D0C4B53F825006B
:1008300060B1036822463146DB689847041E03DA3C
:1008400009F05CF8634203602046F8BD4FF0FF34C6
:10085000FAE700BF98030020D409002064020020BA
:1008600070B504460D46164609F048F80923022CD7
:1008700003600BDC0F4B1B680BB9FFF785FF0124EE
:100880000D4800F0C7FC2870204670BD033C0B4BA0
:1008900053F8240058B10368324629469B689847AC
:1008A000041EF1DA09F02AF863420360ECE74FF026
:1008B000FF34E9E798030020D409002064020020F7
:1008C00010B5044609F01AF80923022C036010DD64
:1008D000033C0A4B53F8240040B103689B699847D6
:1008E000041E08DA644209F009F804604FF0FF3092
:1008F00010BD012010BD002010BD00BF640200200B
:1009000070B504460D46164608F0F8FF0923022C80
:1009100003600BDD033C084B53F8240040B103682F
:1009200032462946DB69BDE870401847002070BD9B
:100930004FF0FF3070BD00BF64020020022808B5F0
:1009400004DC4FF4005300204B6008BD08F0D6FFD4
:10095000092303604FF0FF3008BD08B5012008F0FF
:10096000D3FF704708B5FFF708FFFFF7FAFF08BD90
:100970000C4A136810B51844EFF30881884205D378
:100980000C22094B4FF0FF301A6010BD07490C686C
:1009900024B10749096821448842F1D21060184601
:1009A00010BD00BF3C110020301100206C0300205E
:1009B00070030020074C054608B52368986809F0C5
:1009C000C3F82368D86809F0BFF80DB1FFF794FEAB
:1009D000FEE700BF0C19002001207047002109F03C
:1009E000A4BF000010B509F003FB044610B902488B
:1009F00007F012F9204610BD88B8000808B109F0C8
:100A0000FFBA7047FFF7FABF034653F8042B10B53F
:100A1000044602B9036022689A4204D0592203496D
:100A2000034807F0E7F8206810BD00BF2DB80008A4
:100A300074B8000810B504460948FFF7E5FF002325
:100A4000084A194652F82300A04208BF42F8231072
:100A50000133402BF6D10248FFF7D6FF10BD00BF8F
:100A600064030020640200202DE9F743344907465F
:100A70000AF07FF8044628B9FFF786FE204603B047
:100A8000BDE8F0832F4938460AF073F818B9FFF72C
:100A90007BFE0124F2E72C4938460AF06AF818B9BF
:100AA000FFF772FE0224E9E7DFF8A88008F026FFCE
:100AB00009230025C14603602448FFF7A5FF58F825
:100AC000256036B30135402DF9D108F017FF182302
:100AD00003601E48FFF798FF2FE03946684606F08E
:100AE0007BFD684606F0A6FD30B948F8250008F001
:100AF00005FF02230360C1E7684606F08BFDD0B115
:100B0000684606F090FD064613E049F82560EC1CA7
:100B1000B4E74FF0FF340D4848F82540FFF774FF65
:100B20003B783A2BD9D16A460949384609F0B2FFD9
:100B3000009E002EE9D149F825604FF0FF349DE773
:100B4000AFB80008B6B80008A7B8000864030020D2
:100B5000BEB800086402002030B5C36891FAA1F461
:100B6000B4FA84F491FAA1F10325B1FA81F1640099
:100B7000490005FA04F402FA01F123EA04031943D7
:100B8000C16030BD012A02D0022A18BF0022FFF73F
:100B9000E3BF00002DE9F0410E46411C044604D19C
:100BA0003E224549454807F025F804F00F08444B1C
:100BB000C4F3031006F0070753F82850FFF760FC52
:100BC0000446836895FAA5F1B1FA81F195FAA5F288
:100BD00003204900B2FA82F200FA01F1520023EA3E
:100BE0000103022101FA02F21343A36087425CD899
:100BF000DFE807F0601D021DB8F1070FC6F3032000
:100C00003DD9626A2B0A93FAA3F1B1FA81F193FA02
:100C1000A3F34FF00F0EB3FA83F389009B000EFA93
:100C200001F100FA03F322EA0102134363623B4637
:100C3000226895FAA5F0B0FA80F095FAA5F14FF088
:100C4000030EB1FA81F14000013F49000EFA00F0B5
:100C5000012F03FA01F322EA000243EA02032360B0
:100C600005D8636832074CBF2B43AB436360C6F3C0
:100C7000011229462046BDE8F041FFF783BF226AF2
:100C800095FAA5F3B3FA83F395FAA5F14FF00F0E99
:100C9000B1FA81F19B0089000EFA03F322EA030204
:100CA00000FA01F313432362C1E7642202490548B5
:100CB00006F0A0FF0023BBE7B8B90008F8B90008A8
:100CC00078B9000882C10008431C70B506460D467D
:100CD00004D185221B491C4806F08CFF06F00F0248
:100CE0001A4BC6F3031053F82240FFF7C9FB016803
:100CF00004FB04F202EB42030B40B3FBF2F3013BB3
:100D0000012B05D8EB1E022B436809D8234343600F
:100D1000032D08D101222146BDE87040FFF732BF04
:100D200023EA04034360012DF4D0052D01D0022DE8
:100D300001D10222EFE721460022BDE87040FFF713
:100D40000BBF00BFB8B90008F8B9000878B90008AF
:100D50004309012200F01F00203302FA00F0044A88
:100D600042F82300BFF34F8FBFF36F8F704700BF70
:100D700000E100E04368702217495A4310B5046847
:100D80008B188C5082685A60C2689A600269DA6077
:100D900042691A610022A3F852209A61DA61A3F82D
:100DA0005020A3F85A20A3F85820B0F91A20013295
:100DB0000AD108225A61184601F033FC58B107489D
:100DC000BDE8104006F028BFB0F9182001320CBF72
:100DD00004220C22EEE710BD9C0300200BBA000891
:100DE000F7B51B4F064657F8200000282DD0702578
:100DF000184C75436359DA69520609D51B685906C0
:100E000006D5154B01211B689847635940221A6289
:100E1000702575436359DA6992060BD51B689806ED
:100E200008D50D4B002157F826001B6898476359D9
:100E30005B6A0193702070432358DA69110704D567
:100E40009A68D20701D508221A6203B0F0BD00BF2C
:100E5000780300209C030020740300200020FFF78B
:100E6000BFBF0120FFF7BCBF0220FFF7B9BF0320BF
:100E7000FFF7B6BF0420FFF7B3BF0520FFF7B0BFF1
:100E80000620FFF7ADBF0720FFF7AABFF0B50E465B
:100E9000154689B004468349304606F09BFE074656
:100EA0008149284606F096FE0146384606F074FE53
:100EB0002060013004D165227C497D4806F09AFE0D
:100EC00023687C4A7C4F934200F0B08021D8A2F581
:100ED0000062934200F0828002F58062934200F04B
:100EE0009180A2F5006293421DD1744B1A6A42F4BC
:100EF00000321A621A6A22F400321A621A6C42F440
:100F000000321A641B6C03F400330193019B01232C
:100F100062E06B4A934200F0B18031D8A2F5806262
:100F2000934200F097805F49304606F017FE5E4915
:100F3000284606F013FE721C03D001213046FFF74D
:100F4000C3FE6B1C03D001212846FFF7BDFE4FF402
:100F50001653268365832046A3600023E360236144
:100F60006361FFF707FF2368BB4207D10122554B9E
:100F7000214655481A60442209F09AF809B0F0BD9C
:100F8000BB4216D0514A9342CDD14C4B5A6A42F0E3
:100F900020025A625A6A22F020025A625A6C42F0C7
:100FA00020025A645B6C03F020030593059B052324
:100FB00012E0424B5A6A42F010025A625A6A22F018
:100FC00010025A625A6C42F010025A645B6C03F0D1
:100FD00010030093009B00236360A4E7374B1A6A59
:100FE00042F480221A621A6A22F480221A621A6C6F
:100FF00042F480221A641B6C03F480230293029B48
:101000000223E9E72D4B1A6A42F400221A621A6A97
:1010100022F400221A621A6C42F400221A641B6C39
:1010200003F400230393039B0323D5E7234B1A6A9E
:1010300042F480121A621A6A22F480121A621A6C3E
:1010400042F480121A641B6C03F480130493049B13
:101050000423C1E7194B1A6A42F080421A621A6AE5
:1010600022F080421A621A6C42F080421A641B6CB1
:1010700003F080430693069B0623ADE70F4B1A6AE5
:1010800042F000421A621A6A22F000421A621A6C96
:1010900042F000421A641B6C03F000430793079B65
:1010A000072399E724B90008C4B8000823BA000848
:1010B00076BA00080050004000100140003802409D
:1010C000007C004098030020D40900200014014057
:1010D0008160FFF74FBE0000034B19604168034B6E
:1010E00043F82120704700BF7403002078030020DC
:1010F00070B5354B0E4621C8984243D00ED8A3F5A3
:101100000063984238D003F58063984237D0A3F546
:10111000006398420AD12D49262416E02C4B9842B0
:1011200036D006D8A3F5806398422ED000210C4615
:101130000BE0284B984206D003F580639842F5D126
:101140002549472401E025492524702324486B4381
:1011500022B3C2581368F6B943F020031360204647
:10116000FFF76EF90123620904F0170403FA04F48F
:101170001C4B43F8224070BD1B492724E5E71B495F
:101180003424E2E71A493524DFE71A495224DCE720
:1011900019495324D9E743F04003DFE7C3581A68DD
:1011A00036B922F020021A601B681A0606D570BDF7
:1011B00022F040021A601B689B0604D42046BDE85A
:1011C0007040FFF7C5BD70BD00500040630E0008C1
:1011D000007C0040001001407B0E00085D0E0008FE
:1011E0009C03002000E100E0690E00086F0E00087B
:1011F000750E0008810E0008870E000842687023F3
:101200005343034AD358D869C0F34010704700BF16
:101210009C03002010B5014644680846FFF7EEFF26
:101220000028FAD07023034A6343D358586AC0F3A6
:10123000080010BD9C030020426870235343034AFA
:10124000D358D869C0F3C010704700BF9C0300207A
:1012500038B5044645682046FFF7EEFF0028FAD06F
:101260007023034AC1F308016B43D358996238BD18
:101270009C030020DFF820D0002103E0074B5B58DF
:10128000435004310648074B42189A42F6D301F006
:1012900025FBFFF703F8704700000820A8C20008EC
:1012A0003811002024190020FEE77047074A032068
:1012B00008B5136843F40073136000F017F80F20AB
:1012C000FFF7BCF9FFF7F1FF002008BD003C02402A
:1012D000024A136801331360704700BF180A0020E8
:1012E000014B1868704700BF180A0020074A000227
:1012F000D36800F4E06023F4E0631B041B0C43F0AC
:10130000BF6343F400330343D360704700ED00E054
:10131000194B37B51A6C194C42F080521A641B6C89
:1013200003F080530193019B236843F480332360CF
:10133000FFF7D6FF05466368DA030CD5236843F44C
:1013400000332360FFF7CCFF0C4C054663689B031A
:101350000AD5002006E0FFF7C3FF401BB0F57A7FF7
:10136000E9D9032003B030BDFFF7BAFF401BB0F549
:101370007A7FEBD9F5E700BF0038024000700040EB
:1013800003682DE9F3410446D80710D42368990770
:1013900061D42368190700F1B08023685A0700F16F
:1013A000D180A269002A40F03B81002015E09A4BD1
:1013B0009A6802F00C02042A07D09A6802F00C0224
:1013C000082A0DD15B685A020AD5934B1B689B0310
:1013D000DCD56368002BD9D1012002B0BDE8F081D3
:1013E00063688D4DB3F5803F11D12B6843F4803392
:1013F0002B60FFF775FF884D06462B689F03C5D409
:10140000FFF76EFF801BC828F7D90320E5E79BB9DB
:101410002B6823F480332B602B6823F480232B600C
:10142000FFF75EFF06462B689803AFD5FFF758FF1E
:10143000801BC828F7D9E8E7B3F5A02F2B6803D1A4
:1014400043F480232B60D0E723F480332B602B6898
:1014500023F48023CCE7704B9A6812F00C0F07D06E
:101460009A6802F00C02082A16D15B68590213D45C
:10147000694B1A68920702D5E268012AACD1186854
:10148000F82292FAA2F2B2FA82F122698A4020F09E
:10149000F8010A431A607CE7E3685F4DE3B12B680B
:1014A00043F001032B60FFF71BFF06462B689F07E5
:1014B0000CD52968F82393FAA3F3B3FA83F22369CE
:1014C000934021F0F80213432B6062E7FFF708FF17
:1014D000801B0228EAD998E72B6823F001032B60D0
:1014E000FFF7FEFE06462B6898077FF552AFFFF721
:1014F000F7FE801B0228F6D987E76369464D83B162
:101500006B6F43F001036B67FFF7EAFE06466B6FF4
:101510009B073FF542AFFFF7E3FE801B0228F6D999
:1015200073E76B6F23F001036B67FFF7D9FE064685
:101530006B6F9F077FF531AFFFF7D2FE801B02284C
:10154000F6D962E7344B1A6CD00027D41A6C012606
:1015500042F080521A641B6C03F080530193019B8C
:101560002E4D2B68D9051BD5A3682B4D012B27D1F8
:101570002B6F43F001032B6741F28835FFF7B0FE74
:10158000254F80463B6F9B073FD5002E3FF409AFA8
:10159000214A136C23F08053136402E70026DFE72F
:1015A0002B6843F480732B60FFF79AFE07462B6885
:1015B000DA05D9D4FFF794FEC01B6428F7D924E7D5
:1015C000ABB92B6F41F2883823F001032B672B6FE7
:1015D00023F004032B67FFF783FE07462B6F980762
:1015E000D3D5FFF77DFEC01B4045F7D90DE7052B8E
:1015F0002B6F03D143F004032B67B9E723F00103FA
:101600002B672B6F23F00403B5E7FFF769FEA0EB10
:101610000800A842B6D9F8E6003802400070004041
:10162000324DAB6803F00C03082B3FF4D5AE2B68AA
:10163000022A23F080732B604AD1FFF751FE064641
:101640002B6899013ED447F6C07797FAA7F74FF475
:101650004032B7FA87F792FAA2F24FF07060B2FA0E
:1016600082F690FAA0F04FF0E041B0FA80F091FAE3
:10167000A1F1226AB1FA81F1E3691343626A02FAC5
:1016800007F7A26A52083B43013AB2401343E26AA9
:1016900002FA00F0226B154C034302FA01F10B43EE
:1016A0006B602B6843F080732B60FFF719FE0546D3
:1016B00023689A013FF579AEFFF712FE401B02281E
:1016C000F6D9A2E6FFF70CFE801B0228B8D99CE6EB
:1016D000FFF706FE04462B689B017FF566AEFFF719
:1016E000FFFD001B0228F6D98FE600BF003802403C
:1016F000194A936803F00C03042B10B503D0082B90
:1017000003D0164810BD164810BD516847F6C07486
:10171000536801F03F0113F4800F536894FAA4F06A
:10172000B0FA80F003EA04034FF4403223FA00F3E6
:1017300014BF0B480948B0FBF1F05843064B5B68F7
:1017400092FAA2F2B2FA82F203F44033D3400133A8
:101750005B00B0FBF3F010BD003802400024F40041
:1017600040787D01514A136803F00F038B422DE945
:10177000F04104460D462FD32268960739D4D0078E
:101780003FD44A4A136803F00F039D427BD322687B
:10179000510700F18380130707D5454A21699368F3
:1017A00023F4604343EAC1039360FFF7A1FF404B7A
:1017B000F0229B6892FAA2F2B2FA82F203F0F003EE
:1017C000D3403C4AD35CD8403B4B18600F20FEF717
:1017D00035FF0020BDE8F081136823F00F030B43B1
:1017E0001360136803F00F039942C5D00120BDE8D0
:1017F000F0812F49A0688B6823F0F00303438B60CE
:10180000BDE761682A4B01291A681DD112F4003F17
:10181000ECD09A6841F28838254F22F003020A433F
:101820009A60FFF75DFD63680646012B14D1BB6823
:1018300003F00C03042BA4D0FFF752FD801B40459E
:10184000F5D90320BDE8F081022902D112F0007F12
:10185000DEE712F0020FDBE7022B0FD1BB6803F0CB
:101860000C03082B8DD0FFF73BFD801B4045F5D9BD
:10187000E7E7FFF735FD801B4045E2D8BB6813F072
:101880000C0FF6D17DE7136823F00F032B43136091
:10189000136803F00F039D42A8D178E70449E0687C
:1018A0008B6823F4E05303438B6074E7003C0240F1
:1018B00000380240A3BA000840110020084B4FF442
:1018C000E0529B6892FAA2F2B2FA82F203F4E05379
:1018D000D340044AD35C044A1068D840704700BF24
:1018E00000380240B3BA000840110020084B4FF402
:1018F00060429B6892FAA2F2B2FA82F203F4604369
:10190000D340044AD35C044A1068D840704700BFF3
:1019100000380240B3BA0008401100200F230360D2
:101920000B4B9A6802F0030242609A6802F0F002E0
:1019300082609A6802F4E052C2609B68DB0803F49C
:10194000E0530361034B1B6803F00F030B60704708
:1019500000380240003C024003682DE9F34713F0D1
:10196000010604460BD0BB4A916821F40001916046
:10197000466B91683143B6FA86F67609916013F4A6
:10198000002512D0B349E56BD1F88C20B5F5801F46
:1019900022F4401208BF012642EA050216BFB5FA3A
:1019A00085F500256D09C1F88C20DF0210D5A94806
:1019B000216CD0F88C20B1F5800F22F4400242EA6D
:1019C0000102C0F88C2000F02582002908BF012503
:1019D00013F0807F18BF0126980631D59D4B9E4F8E
:1019E0001A6C42F080521A641B6C03F0805301930E
:1019F000019B3B6843F480733B60FFF771FC8046BA
:101A00003B68D90540F10882924F3B6F13F4407355
:101A100040F00D82236B03F44072B2F5407F8D4A93
:101A200040F02B82916823F0704021F4F81120F4EB
:101A3000407001439160C3F30B03116F0B431367B5
:101A40002368DF060CD5834AD2F88C1021F0807110
:101A5000C2F88C10D2F88C10A06B0143C2F88C1025
:101A6000580408D57B49606ED1F8902022F44032AA
:101A70000243C1F89020190408D57649A06ED1F828
:101A8000902022F440220243C1F89020DA0308D5C6
:101A90007049E06ED1F8902022F440120243C1F860
:101AA00090209F0308D56B49206FD1F8902022F435
:101AB00040020243C1F89020580608D56549606C81
:101AC000D1F8902022F003020243C1F890201906B9
:101AD00008D56049A06CD1F8902022F00C02024396
:101AE000C1F89020DA0508D55A49E06CD1F8902069
:101AF00022F030020243C1F890209F0508D55549D5
:101B0000206DD1F8902022F0C0020243C1F890204D
:101B1000580508D54F49606DD1F8902022F44072E5
:101B20000243C1F89020190508D54A49A06DD1F8A3
:101B3000902022F440620243C1F89020DA0408D5D4
:101B40004449E06DD1F8902022F440520243C1F89C
:101B500090209F0408D53F49206ED1F8902022F4B0
:101B600040420243C1F89020580208D53949A06F7D
:101B7000D1F8902022F080620243C1F890209902AF
:101B80000CD53448E16FD0F89020B1F1006F22F00D
:101B9000006208BF01250A43C0F8902013F0080F27
:101BA00018BF01255A0308D52A49606FD1F8902043
:101BB00022F040720243C1F890201F0209D5254946
:101BC000D4F88000D1F8902022F080520243C1F86E
:101BD0009020580109D51F49D4F88400D1F89020ED
:101BE00022F000520243C1F89020190109D5194989
:101BF000D4F88800D1F88C2022F000720243C1F89A
:101C00008C20DA0009D51349D4F88C00D1F88C2047
:101C100022F080620243C1F88C20012E00F0348152
:101C2000B3F1007F00F03081012D40F0F180094DCB
:101C30002B6823F080532B60FFF752FB06462B687E
:101C40009F0000F1408221680E0307D5E36B53B17A
:101C500004E000BF0038024000700040CD0247D5CC
:101C6000236C002B44D1874D4FF4403ED5F88800BB
:101C70009EFAAEFC4FF0E046BCFA8CFCD5F888200A
:101C800096FAA6F747F6C073B7FA87F793FAA3F365
:101C9000B3FA83F99EFAAEFE4FF07068BEFA8EFE7C
:101CA00098FAA8F8B8FA88F896FAA6F6636900F4E4
:101CB000403002F0E042B6FA86F603FA09F9A36969
:101CC00020FA0CF0FA4003FA08F800FA0EF0B240DD
:101CD00049EA080303431343C5F88830D5F88C302C
:101CE000A26A23F4F853013A43EA0223C5F88C3080
:101CF00088023ED5E36FB3F1006F3AD1614D4FF0EA
:101D0000706ED5F888009EFAAEFC4FF0E046BCFA43
:101D10008CFCD5F8882096FAA6F747F6C073B7FA78
:101D200087F793FAA3F34FF44038B3FA83F998FA9C
:101D3000A8F8B8FA88F89EFAAEFEBEFA8EFE96FAB9
:101D4000A6F6636900F0706002F0E042B6FA86F62B
:101D500003FA09F9236A20FA0CF0FA4003FA08F8AA
:101D600000FA0EF0B24049EA080303431343C5F8F2
:101D700088300A0740D543484FF07065D0F8882076
:101D800095FAA5F64FF4403EB6FA86F6D0F88810DC
:101D90009EFAAEF847F6C073B8FA88F893FAA3F340
:101DA000B3FA83F79EFAAEFEBEFA8EFE95FAA5F55B
:101DB0004FF0E04CB5FA85F59CFAACFC6369BCFACF
:101DC0008CFC01F4403102F07062BB40E76921FAFB
:101DD00008F1F24007FA0CF701FA0EF1AA403B4372
:101DE0000B431343C0F88830D0F88C30E26A23F4F8
:101DF00040331343C0F88C30224C236843F08053A7
:101E00002360FFF76DFA054623689B0040F162816D
:101E1000002009E00126DBE5FFF762FAA0EB0800ED
:101E200064287FF6EDAD032002B0BDE8F087226B99
:101E300002F4407293423FF4EDAD3B6F3A6F23F4EE
:101E4000407342F480323A673A6F22F480323A6744
:101E50003B673B6FDA077FF5DDADFFF741FA41F2F3
:101E6000883980463B6F9B073FF5D4ADFFF738FAC2
:101E7000A0EB08004845F5D9D5E7916821F4F811A1
:101E8000D8E500BF00380240964E336823F08063E7
:101E90003360FFF725FA074633681B0100F10C8118
:101EA0002268D7073CD5636BD3BBD6F884004FF4C8
:101EB000403C9CFAACF84FF07067B8FA88F8D6F856
:101EC000841097FAA7FE47F6C073BEFA8EFE93FA07
:101ED000A3F3B3FA83FA9CFAACFCBCFA8CFC97FA35
:101EE000A7F74FF0E049B7FA87F799FAA9F96368BD
:101EF000B9FA89F900F4403001F0706103FA0AFA86
:101F0000A36820FA08F021FA0EF103FA09F900FAA1
:101F10000CF0B9404AEA090303430B43C6F8843086
:101F2000160303D5E36BB3F5801F05D0D00248D567
:101F3000236CB3F5800F44D16A4E4FF4403CD6F881
:101F400084009CFAACF84FF0E047B8FA88F8D6F86D
:101F5000841097FAA7FE47F6C073BEFA8EFE93FA76
:101F6000A3F3B3FA83FA9CFAACFC4FF07069BCFAA5
:101F70008CFC99FAA9F9B9FA89F997FAA7F7636875
:101F800000F4403001F0E041B7FA87F703FA0AFAAB
:101F9000E36820FA08F021FA0EF103FA09F900FAD1
:101FA0000CF0B9404AEA090303430B43C6F88430F6
:101FB000D6F88C10636A21F01F01013B0B43C6F871
:101FC0008C30D1013BD5474E4FF0706CD6F8840071
:101FD0009CFAACF84FF0E047B8FA88F8D6F88410CD
:101FE00097FAA7FE47F6C073BEFA8EFE93FAA3F3E4
:101FF0004FF44039B3FA83FA99FAA9F9B9FA89F991
:102000009CFAACFCBCFA8CFC97FAA7F7636800F06A
:10201000706001F0E041B7FA87F703FA0AFA236922
:1020200020FA08F021FA0EF103FA09F900FA0CF08F
:10203000B9404AEA090303430B43C6F884309201CE
:1020400028D547F6C07393FAA3F34FF44030B3FAA0
:1020500083F690FAA0F04FF07061B0FA80F091FA38
:10206000A1F14FF0E042B1FA81F192FAA2F2636875
:10207000B2FA82F2B340266906FA00F00343E06840
:1020800000FA01F10B43A16801FA02F21343154A69
:10209000C2F88430134E336843F080633360FFF737
:1020A0001FF9074633681B013FF5BEADFFF718F96E
:1020B000C01B6428F6D9B6E6FFF712F9C01B6428E6
:1020C0007FF6EAAEAFE6FFF70BF9801B64287FF6D8
:1020D000B6ADA8E6FFF704F9401B64287FF694AE7E
:1020E000A1E600BF0038024070470000304A036894
:1020F000904212D0B0F1804F0FD0A2F57C429042B6
:102100000BD002F58062904207D002F580629042C7
:1021100003D002F5784290421DD14A6823F0700343
:102120001343234A904204D123F44073CA681343F3
:1021300028E0B0F1804FF7D01E4A9042F4D002F56B
:1021400080629042F0D002F580629042ECD002F5BD
:1021500078429042E8D0184A9042E5D002F5806279
:102160009042E1D002F580629042DDD0A2F5983233
:102170009042D9D002F580629042D5D002F58062BB
:102180009042D1D04A6923F08003134303608B68E7
:10219000C3620B688362064B984206D003F58063E6
:1021A000984202D00123436170470B690363F9E74A
:1021B00000000140000400400040014010B504460A
:1021C000A0B190F83D3003F0FF021BB980F83C202D
:1021D000FFF78AFF02232068211D84F83D30FFF7B6
:1021E00085FF0123002084F83D3010BD012010BD83
:1021F00010B50124036A8A408C4023EA0403036279
:10220000036A1A43026210BD10B504460122006839
:10221000FFF7EEFF2368084A934203D002F580627D
:10222000934203D15A6C42F400425A641A68002067
:1022300042F001021A6010BD00000140FFF7E4BF48
:1022400070472DE9F041069D04460F461646984614
:102250002168CA6937EA02030CBF01220022B24298
:1022600002D00020BDE8F0816B1CF2D09DB923683C
:1022700003201A6822F4D0721A609A6822F00102D0
:102280009A60202384F8693084F86A30002384F847
:102290006830BDE8F081FFF723F8A0EB0800854225
:1022A000D6D8E4E738B504460568C3692169A26851
:1022B00028680A4361690A4393491A430140206A26
:1022C0000A43E1682A606A6822F440520A436A605D
:1022D000A269A968024321F430610A43AA608B4ACB
:1022E000954219D102F594328949D2F8902002F032
:1022F0000302B3F5004F8A5C40F0B380082A00F275
:10230000AD80DFE812F026007B00E900AB00F500AD
:10231000AB00AB00AB00FB007E4A954207D102F553
:10232000FA327D49D2F8902002F00C02E1E77B4AB4
:1023300095422BD102F5F832D2F8902002F030020B
:10234000102A00F0D28016D8DAB9B3F5004F40F069
:102350009F80FFF7B3FA61684A0802EB4003B3FBC2
:10236000F1F39BB2002023F00F02C3F34203216874
:102370001343CB6038BD202A00F0AB80302A00F038
:10238000BA80B3F5004F69D0012038BD644A954248
:102390000ED102F5F632D2F8902002F0C002402AA7
:1023A00000F0A380D0D9802A00F09380C02AE6E70D
:1023B0005C4A954210D102F5F432D2F8902002F432
:1023C0004072B2F5807F00F09080BDD9B2F5007FF9
:1023D0007FD0B2F5407FD2E7534A954217D102F53C
:1023E0009232D2F8902002F44062B2F5806F7CD035
:1023F00007D8002AC5D1B3F5004F54D1FFF776FABC
:10240000A9E7B2F5006F64D0B2F5406FB7E7474A6D
:1024100095420FD102F5E032D2F8902002F44052FA
:10242000B2F5805F61D08FD9B2F5005F51D0B2F5BF
:10243000405FA4E73E4A9542A3D102F5DE32D2F8CE
:10244000902002F44042B2F5804F4ED07FF67CAF30
:10245000B2F5004F3DD0B2F5404F90E70120002388
:1024600081E7082A90D801A353F822F091240008AC
:10247000A7240008AD24000889230008C32400080D
:10248000892300088923000889230008C92400083B
:10249000FFF714FA636800EB5300B0FBF3F080B26F
:1024A000E860002038BDFFF721FAF3E762685308BF
:1024B00003F5740303F51053B3FBF2F39BB2EB6027
:1024C000EFE7FFF715F9E5E76268530803F5004306
:1024D000F2E7B3F5004FE9D16068430803F1F47304
:1024E00003F59043B3FBF0F33BE7B3F5004FE8D1BE
:1024F000FFF7FEF82FE7B3F5004FE5D1606843081A
:1025000003F58033EEE700BFF369FFEF00100140F1
:1025100092BA00080044004096BA00080048004003
:10252000004C004000500040001401400078004082
:10253000007C0040436ADA0710B506D50168846A5A
:102540004A6822F4003222434A609C0706D501689B
:10255000C46A4A6822F4803222434A60590706D589
:102560000168046B4A6822F4802222434A601A07F9
:1025700006D50168446B4A6822F4004222434A604F
:10258000DC0606D50168846B8A6822F480522243F7
:102590008A60990606D50168C46B8A6822F40052E5
:1025A00022438A605A0610D50168046C4A68B4F563
:1025B000801F22F4801242EA04024A6005D14A6870
:1025C000446C22F4C00222434A601B0606D502680E
:1025D000816C536823F400230B43536010BD37B55F
:1025E00000250446C566FEF77BFE22680346126896
:1025F000120709D42023002084F8693084F8680089
:1026000084F86A3003B030BD6FF07E424FF40011A1
:10261000204600922A46FFF714FE0028EAD0032045
:10262000F0E710B5044660B390F8693003F0FF029C
:102630001BB980F86820FFF703FE22682423204698
:1026400084F86930136823F001031360FFF72AFE52
:10265000012816D0636A13B12046FFF76BFF236889
:1026600020465A6822F490425A609A6822F02A0260
:102670009A601A6842F00102BDE810401A60FFF744
:10268000AEBF012010BD0000BFF34F8FBFF36F8FAF
:10269000064B0022C3F850225A6942F400325A61B4
:1026A000BFF34F8FBFF36F8F704700BF00ED00E0A7
:1026B0001B4A0023F0B5C2F88430D2F88010C1F371
:1026C0004E3401F00703C1F3C9010433B1FA81F0BC
:1026D00000F01F00BFF34F8F4FF0FF3505FA03FEE8
:1026E000854004FA03F301FA00F007460E46013E66
:1026F00047EA030C2F44B6F1FF3FC2F860C2F6D19F
:10270000013C7344661CF0D1BFF34F8F536943F40F
:1027100080335361BFF34F8FBFF36F8FF0BD00BFA6
:1027200000ED00E0174A1849936803F00C03042BEE
:1027300010B50DD0082B0DD0144B0B60114B144A63
:102740009B68C3F30313D25C0B68D3400B6010BDCE
:10275000104BF2E7546850686302526800F03F0083
:1027600048BF0C4BC2F3881258BF084BB3FBF0F3C1
:102770005343044A5268C2F3014201325200B3FB90
:10278000F2F3DAE700380240401100200024F400A0
:10279000A3BA000840787D01294B1A6C42F08052A0
:1027A00070B51A64B8B01B6C03F080530193019BA1
:1027B00001230793B8B94FF4803308934FF4800393
:1027C000022507A80E9319230D950F934FF4D87384
:1027D00011951093092313951293FEF7D1FD28B19B
:1027E000002038B070BD4FF4A023E6E7FEF790FD5F
:1027F00004460028F4D14FF40013072614A81493BC
:102800004FF000631A9633934FF4C0731993032368
:102810001C93FFF7A1F888B90F230490314602A852
:1028200002934FF4A053039505934FF480530693FE
:10283000FEF798FFB0FA80F04009D2E72046D0E7D3
:102840000038024010B594B00224FFF71DFFFFF7D7
:102850002FFF1C4B07A81A6C42F080521A6400220A
:102860001B6C079403F0805308920D940193019B15
:1028700001230E920A93102311940B930F934FF49C
:10288000D8731394109309231293FEF779FD10B1B6
:10289000002014B010BDFEF73BFD0028F8D10F2337
:1028A0000490072102A802934FF4A05303940593C8
:1028B0004FF480530693FEF755FFB0FA80F04009BD
:1028C000E7E700BF0038024008B50020FFF764FFCB
:1028D00018B9FFF7B7FF00B9FEE708BD194A002194
:1028E000D2F8883010B543F47003174CC2F8883022
:1028F000236843F001032360A160236823F08473FD
:1029000023F480332360114B6360236823F4802316
:1029100023604FF00063E16093600D4B0D4A1A6035
:10292000FEF7C4FCFFF7B0FEFFF7C2FEFFF7CCFFD7
:10293000236A43F008032362236A23F00803236217
:1029400010BD00BF00ED00E0003802401030002450
:10295000401100200024F400054B186830B9012212
:102960001A60044A044B1A60FDF768BE704700BF46
:102970001C070020000C00401C0A002008B5044B76
:102980001B680BB9FFF7E8FF024B586A08BD00BF90
:102990001C070020000C0040044B054A13605863DC
:1029A000DA6842F00202DA60704700BF000C0040B3
:1029B0001C0A0020034B044A1360DA6822F002026A
:1029C000DA607047000C00401C0A0020034B044AE8
:1029D00013606FF002021A61704700BF000C0040E4
:1029E0001C0A00200000000090B52DED048B8BB078
:1029F00000AF954B3B614FF000034FF00004C7E977
:102A00000234924B93F86C36002B26D18F4B03F592
:102A1000CB6393ED006B8D4B03F5C86393ED007BA7
:102A200026EE078B894B03F5CA6393ED009B874B1A
:102A300003F5C863D3E900014FF000024FF0804373
:102A400005F036FA41EC170B29EE076BB0EE005B90
:102A500086EE057B38EE077B38E07C4B03F5CC63D4
:102A600093ED006B794B03F5CB6393ED005B784BF3
:102A700093ED004B754B03F5C86393ED007B34EE8B
:102A8000477B25EE077B36EE478B704B03F5CA6319
:102A900093ED009B6E4B93ED006B6C4B03F5C8639D
:102AA00093ED007B36EE477B4FF000024FF0804302
:102AB00051EC170B05F0FCF941EC170B29EE076BF5
:102AC000B0EE005B86EE057B38EE477B87ED027B40
:102AD00097ED027BFDEEC77BB8EEE77B97ED026BCF
:102AE00036EE477B87ED027B584B03F5C96393EDC8
:102AF000006B97ED027B36EE077B9FED4D6B27EE6B
:102B0000066B534B93ED067B36EE077B51EC170BB0
:102B100005F0EEF803460C463A69C2E900344B4B27
:102B200003F5C86393ED007B9FED436B37EE067BA7
:102B3000464B03F5C86383ED007B444B03F5C86344
:102B400093ED006B424B93ED007B9FED3D5B37EEC9
:102B5000057BB4EEC76BF1EE10FA3FDD3B4B03F59E
:102B6000C86393ED006B3A4B93ED007B36EE477BE9
:102B7000364B03F5C86383ED007B344B03F5C96323
:102B800093ED006B97ED027B36EE077B2F4B03F541
:102B9000C96383ED007B2D4B03F5C96393ED007B87
:102BA000B7EE006BB4EEC67BF1EE10FA16DD274BE4
:102BB00003F5C96393ED008B244B03F5C963D3E997
:102BC00000341846214605F0EFF841EC170B38EEBB
:102BD000477B1E4B03F5C96383ED007B1B4BD3F88A
:102BE00068367B62194BD3F86836C733C72B04DDD0
:102BF000164BD3F86836C83B7B627B6AC733134AEF
:102C0000DB00134493ED006B124B93ED027B36EE29
:102C1000076B0F4B93ED0C7B26EE077B87ED067B56
:102C200001233B6200237B615AE000BFAFF30080C9
:102C3000182D4454FB211940A5E2ECC367D8F53E9A
:102C4000000000000000B03CD8100020600A002006
:102C500018120020D01000206D4BD3F868267B6935
:102C600013447B627B6AC72B02DD7B6AC83B7B62B5
:102C7000674A7B6ADB001344D3E90034C7E90034B8
:102C80007B6901335B007A6AD31AC8337B627B6A43
:102C9000C72B02DD7B6AC83B7B625D4A7B6ADB0037
:102CA000134493ED007B97ED006B36EE077B87EDC9
:102CB000007B584A3B6A0633DB00134493ED006BFC
:102CC00097ED007B26EE077B97ED066B36EE077BD4
:102CD00087ED067B3B6A01333B627B6901337B6195
:102CE0007B69622BB8DD4A4BD3F868267B691344B5
:102CF0007B627B6AC72B02DD7B6AC83B7B62444AEE
:102D00007B6ADB00134493ED006B424A3B6A063357
:102D1000DB00134493ED007B26EE076B97ED067BFB
:102D200036EE077B3C4B83ED007B394BD3F868369E
:102D3000013B374AC2F86836354BD3F86836002B6A
:102D400003DA334BC722C3F86826314BD3F8682621
:102D5000314BD3E902342E49D2000A44C2E900348F
:102D6000012002F087FB2D4BD3E908341A46234695
:102D7000002002F069FB294B93ED0E7BBFEE006B48
:102D8000B4EE467BF1EE10FA1ED0244B93ED0E6BA1
:102D9000224B93ED087B36EE476B204B93ED087B7F
:102DA0009FED195B27EE057BB4EEC76BF1EE10FAD1
:102DB000CCBF01230023DBB283F00103DBB2002B85
:102DC00002D0164B164A1A60144B93F84030002B71
:102DD00002D0124B124A1A601049104B9A6A013203
:102DE0009A629B6A07EE903AB8EE676B0B4B93EDD5
:102DF0000C7B26EE077B81ED087B00BF2C37BD46A0
:102E0000BDEC048B90BD00BF000000000000B03C92
:102E1000600A002018120020D0100020E0100020CE
:102E200054BB00080000000090B583B000AF7E4B9B
:102E300048220021184607F046F97B4A4FF000036C
:102E40007A4CC2E90E34784A75A4D4E90034C2E958
:102E50000C34754B764A9A60734B764ADA60724B43
:102E6000754A1A61704B754A5A616F4B744A5A60C1
:102E7000734B744A1A60734B734A1A606A4B5B68EF
:102E8000694A18329A60684B5B68674A08325A6030
:102E9000654B5B68644A2032DA60102200216B487F
:102EA00007F011F94FF4CE620021694807F00BF9E1
:102EB00024220021674807F006F95B4B654A9A61B6
:102EC000644B0E221A60634B634A5A60614B634A3B
:102ED0009A60604B624ADA605E4B624A1A61624BEA
:102EE00093ED046B604B93ED027B36EE477BB0EEC7
:102EF000C75B5D4B93ED086B85EE067B544B03F58A
:102F0000CA6383ED007B584B93ED046B564B93EDF6
:102F1000027BB4EEC76BF1EE10FA08DD524BD3E939
:102F200002344B4A02F5CB62C2E9003413E04E4B47
:102F300093ED026B464B03F5CA6393ED005B4A4B7E
:102F400093ED007B25EE077B36EE477B404B03F588
:102F5000CB6383ED007B3E4B03F5CB6393ED006BBE
:102F6000414B93ED007B26EE076B394B03F5CA63AB
:102F700093ED005B3C4B93ED007B25EE075B3A4BFA
:102F800093ED007B25EE075BB0EE004B85EE047BF6
:102F900036EE077B2E4B03F5CC6383ED007B324B83
:102FA00093ED046B304B93ED027BB4EEC76BF1EE07
:102FB00010FACCBF01230023DBB283F00103DBB2A4
:102FC000DAB2234B83F86C26214B03F5C9624FF02C
:102FD00000034FF00004C2E900341D4B03F5C86242
:102FE0004FF000034FF00004C2E90034184B0022F8
:102FF000C3F8682600237B600BE01B4BD3E90A343F
:1030000013497A68D2000A44C2E900347B6801336C
:103010007B607B68C72BF0DD00BF0C37BD4690BDE1
:10302000A5E2ECC367D8F53EE0100020000059404F
:1030300005B034D7FE3F01A31706FB1ED0732DE762
:1030400020070020340700206CBB0008D0100020AF
:10305000600A002038070020441100207C11002065
:10306000F41100200C1200201812002080B400AFD0
:1030700000BFBD465DF8047B704700BF80B582B0DD
:1030800000AF7860134B1B687A689A421CDD124BC4
:103090001B68002B07D0104B1B68184606F0B0FFCA
:1030A0000C4B00221A607B68184606F0A1FF03460D
:1030B0001A46094B1A60084B1B68002B01D10123EB
:1030C00003E0044A7B681360002318460837BD46B6
:1030D00080BD00BF640700206807002080B586B06F
:1030E00000AF786039600023BB6000237B61082358
:1030F000FB600023FB7417E0164B1868FA687B69C5
:10310000D11A7B697A68134407F1080204F07EF84B
:103110000346FB74FB7C002B0BD1BB687A6913441C
:103120007B617B69002B06D07A69FB689A42E3DBFE
:1031300002E000BF00E000BFBB68002BCCBF012352
:103140000023DBB21A463B681A70FB7C184618371E
:10315000BD4680BD6007002080B586B000AF7860B6
:103160000023FB7400237B6111E00E4B186807F10C
:103170000B0307F10C02012104F048F80346FB742D
:10318000FB7C002B08D1FB687A6913447B617A6968
:103190007B689A42E9DB00E000BF00BF1837BD46FC
:1031A00080BD00BF6007002080B586B000AF7860AA
:1031B0000023FB7500233B617868FFF75FFF034640
:1031C000FB75FB7D002B19D07868FFF7C5FF1BE06E
:1031D000134B18687A683B69D11A124B1A683B691D
:1031E000134407F10C0204F011F80346FB75FB7D54
:1031F000002B08D1FB683A6913443B613A697B684C
:103200009A42E5DB00E000BFFB7D002B02D1054BBD
:103210001B6800E0002318461837BD4680BD00BF7C
:10322000600700206807002080B584B000AF786098
:10323000144B1B78FB720023FB6010E0F86801F070
:10324000C1F8FB7A002B03D07968F86800F024FB02
:103250007968F86801F032F8FB680133FB60FB68BD
:10326000012BEBDD084B00221A70084B00221A706C
:10327000074B1B68184603F043FF00BF1037BD46DD
:1032800080BD00BF710700205C0700205D070020A3
:103290006007002080B584B000AF78600D4B00223D
:1032A0001A700D4B00221A700023FB6006E079684B
:1032B000F86801F0AFFAFB680133FB60FB68012B93
:1032C000F5DD064B1B68184603F0FCFF00BF103706
:1032D000BD4680BD5C0700205D0700206007002020
:1032E00080B58EB000AF786000237B63002387F841
:1032F00033307B689B681B68BB62BB6A5B687B6220
:10330000BB6A1B683B621023FB6008233B614E4B8A
:10331000186807F1140307F10C02082103F0A6FF57
:10332000034687F8333097F83330002B40F0828023
:103330007B69082B7ED1BB6A1B680833FB61FB6984
:103340009B00BB61BB69184606F052FE03467B63D7
:103350007B6B002B03D1012387F833306AE0102305
:10336000FB60BB693B61384B186807F1140307F138
:103370000C02082103F07AFF034687F8333097F8F0
:103380003330002B56D17B69082B53D17B685B68A7
:103390001A687B6B1A607B6B04337A6852685268D8
:1033A0001A607B6B08337A68526892681A607B6B8C
:1033B0000C337A685268D2681A607B6B1033002233
:1033C0001A607B6B143304221A607B6B18331F4A1C
:1033D0001278D2B21A607B6B1C333A6A1A600023EF
:1033E000FB620DE0FB6A08339B007A6B1344FA6AB8
:1033F0009200796A0A4412681A60FB6A0133FB6220
:10340000FA6A3B6A9A42EDDB0F4B186807F1140326
:103410007A6BB96903F02AFF034687F8333097F8CF
:103420003330002B06D17A69BB699A4202D1084B2E
:1034300001221A70786B06F0E3FD97F833301846D6
:103440003837BD4680BD00BF6007002092180020BD
:103450005D07002080B586B000AF03463960FB7180
:103460000023FB75FB79BB603B68FB600C4B186865
:1034700007F1100307F10802082103F0F7FE0346E5
:10348000FB75FB7D002B02D13B69082B02D0012389
:10349000FB7500BFFB7D18461837BD4680BD00BFD9
:1034A0006007002080B584B000AF786039600023E9
:1034B000FB730C4B186807F108037A68396803F04E
:1034C000D5FE0346FB73FB7B002B03D1BA683B6838
:1034D0009A4202D00123FB7300BFFB7B18461037D2
:1034E000BD4680BD6007002080B586B000AF0346B2
:1034F000B9607A60FB730023FB75FB7BB9681846E3
:10350000FFF7A8FF0346FB75FB7D002B0BD17B6803
:10351000002B09D0B9687868FFF7C4FF0346FB7534
:10352000FB7D002B00E000BFFB7D18461837BD4631
:1035300080BD00BF80B586B000AF03463A60FB7126
:103540000B46BB710023FB75BB79FB603B683B619D
:1035500007F10C02FB7908211846FFF7C5FF034667
:10356000FB75FB7D18461837BD4680BD80B586B01B
:1035700000AF786039600023FB753868FFF714FEF0
:1035800038613B69002B0BD10123FB6007F10C0371
:103590001A4604211220FFF7A7FF0123FB7510E054
:1035A0003969786800F00AFC0023FB6007F10C031E
:1035B0001A4604211220FFF797FF0346FB75FB7D97
:1035C000002BFB7D18461837BD4680BD80B592B0F4
:1035D00000AF7860002387F83F307B689B681B68EA
:1035E000BB63BB6B1B697B637B6B002B6FD07B6BFF
:1035F0001B683B63BB6B5B68FB6200233B6400237F
:103600007B641FE07B6B5A687B6C1B0113445B6817
:10361000BB62BB6A9B00FA6A13441B687B627B6BCC
:103620005A687B6C1B011344DB683B627B6A3A6A15
:1036300002FB03F3FB613A6CFB6913443B647B6C54
:1036400001337B647A6C3B6B9A42DBDB396C132071
:10365000FFF700FF034687F83F3097F83F30002B15
:1036600040D100237B642DE07B6B5A687B6C1B018F
:1036700013441B68BB617B6B5A687B6C1B01134452
:103680005B687B617B699B00FA6A13441B683B6142
:103690007B6B5A687B6C1B011344DB68FB603B69E6
:1036A000FA6802FB03F3BB60B968B869FFF7FAFE7A
:1036B000034687F83F3097F83F30002B14D17B6CDE
:1036C00001337B647A6C3B6B9A42CDDB0DE00021C9
:1036D0001320FFF7BFFE034687F83F3097F83F30CF
:1036E000002B02E000BF00E000BF97F83F30184613
:1036F0004837BD4680BD00BF80B588B000AFB96017
:103700007A603B600346FB730023FB777868FFF722
:103710004BFDB861BB69002B08D1FB7B4FF0FF323A
:1037200001211846FFF706FF012334E007F11403D7
:103730000422B969184606F0BBFCFB7B1B2B0CD09E
:103740001C2B00D013E0BB6904337A691946B868B2
:1037500000F02AFF0346FB7709E0BB691A1D7B696D
:103760003968B86800F060FE0346FB7700BFFB7F56
:10377000002B07D07A69FB7B01211846FFF7DAFEA0
:10378000FB7F08E07A69FB7B00211846FFF7D2FE39
:103790000346FB77FB7F18462037BD4680BD00BF40
:1037A00080B588B000AF0346B9607A60FB73002330
:1037B000FB77B868FFF7F8FCB861BB69002B08D14C
:1037C000FB7B4FF0FF3201211846FFF7B3FE0123C8
:1037D00020E007F114030422B969184606F068FCDA
:1037E000FB7B1D2B07D01E2B00D00AE07B691846FF
:1037F00001F02CF805E07B697968184600F0BAFF03
:1038000000BF7A69FB7B00211846FFF793FE034651
:10381000FB77FB7F18462037BD4680BD80B584B05E
:1038200000AF786039600023FB6003F0DBFC0246E8
:10383000114B1A60104B1B68002B02D10F4BFB6021
:1038400009E00D4B1B683A687968184603F076FC6E
:10385000F860FB68002BFB68002B07D0064B1B6849
:10386000184603F0C9FC044B00221A60FB68184696
:103870001037BD4680BD00BF6007002070BB000848
:1038800080B500AF034B1B68184603F09FFC03464E
:10389000184680BD6007002080B588B000AF786012
:1038A00039600023FB762E4B1B78002B48D007F1A4
:1038B00008033A687968184601F01CFD3CE00023D3
:1038C000FB612EE0FA68FB691B0113447B617B6995
:1038D0005A687B691B6819461046FFF7E3FD0346EB
:1038E000FB76FB7E002B2DD17B699B68002B0CDDCA
:1038F0007B69DA687B699B6819461046FFF7D2FD41
:103900000346FB76FB7E002B1ED13A69FB699B00C8
:1039100013441B687968184600F0D0FFFB69013337
:10392000FB61BA68FB699A42CCDC07F108033A688C
:103930007968184601F0DEFCBB68002BBFDC04E0B0
:1039400000BF02E000BF00E000BFFB7E002B02D002
:103950003868FFF79FFC00BF2037BD4680BD00BF21
:103960005C07002080B584B000AF78600023FB6066
:1039700006E07968F868FFF78FFFFB680133FB60AA
:10398000FB68012BF5DD00BF1037BD4680BD00BFD1
:1039900080B582B000AF0023FB70FB78002B16D1FE
:1039A0000F4B1B68184603F087FB0346FB70FB7840
:1039B000002B0ED100237B6005E0786800F048FC06
:1039C0007B6801337B607B68012BF6DD02E000BF82
:1039D00000E000BFFB7818460837BD4680BD00BF39
:1039E0006007002080B582B000AF78603960054B79
:1039F0001B683A687968184603F058FC00BF08371E
:103A0000BD4680BD6007002090B58DB002AFF86064
:103A1000B9607A60002387F82730002387F82630C2
:103A20008B4B1B78002B0DD18A4B1B68884918469D
:103A300003F050FB034687F8273097F82730002B18
:103A400040F0EB80824B1B78002B00F0E88007F100
:103A50001B0207F11C0311461846FFF73FFB034604
:103A600087F8273097F82730002B03D0012387F8F9
:103A70002630DDE0FB7E002B00F0D380764B1B78F8
:103A8000002B01D10023FB61FB690F2B00F2CB80DF
:103A900001A252F823F000BF5D3B0008B33B0008D1
:103AA000D33B0008273C0008713B00089F3B0008FF
:103AB0001B3B00083B3B0008013B0008013C0008A1
:103AC000DB3B0008F93B0008273C0008273C0008C6
:103AD000273C0008D93A0008FB68DB68D3E90034CA
:103AE000C7E9043407F110031A4608211520FFF72F
:103AF000FBFC034687F8273097F82730002B97E028
:103B00003B6ABA6819461D20FFF74AFE034687F84C
:103B1000273097F82730002B8AE03B6A1A464F4B34
:103B20000093BB68F9681B20FFF7E6FD034687F8A2
:103B3000273097F82730002B7AE03B6A1A46484B2B
:103B400000934FF0FF33F9681C20FFF7D5FD0346C3
:103B500087F8273097F82730002B69E0F868FFF7DF
:103B6000BFFB034687F8273097F82730002B5FE02C
:103B70003B6A002B03D13B4B01221A7058E03B6A91
:103B80001946F868FFF7F2FC034687F8273097F8E4
:103B90002730002B49D1334B01221A7048E0F868D6
:103BA000FFF714FD034687F8273097F82730002BDE
:103BB0003EE0002200211120FFF796FC034687F823
:103BC000273097F82730002B31D1B868FFF72CFB4E
:103BD0002EE0B868FFF75EFB2AE0234B01221A6053
:103BE000002200211620FFF77FFC034687F82730CC
:103BF00097F82730002B1BE07B6801221A7017E032
:103C00003B6ABA6819461E20FFF7CAFD034687F8CB
:103C1000273097F82730002B0AE000BF08E000BFEC
:103C200006E000BF04E000BF02E000BF00E000BF0C
:103C300097F82730002B06D097F82630002B02D0BB
:103C4000B868FFF727FB00BF2C37BD4690BD00BF0B
:103C50005C070020600700205D0700206C07002043
:103C6000700700205E0700205808002080B582B051
:103C700000AF78603960786800F0A4FB3968786834
:103C8000FFF70AFE3968786800F018FB074B1B68DD
:103C9000002B07D0054B1B68184606F0B1F9034B03
:103CA00000221A6000BF0837BD4680BD68070020AB
:103CB00080B584B000AF78600023FB720023FB6006
:103CC00006E07968F868FFF7D1FFFB680133FB6015
:103CD000FB68012BF5DD134B1B78002B09D000226C
:103CE00000211420FFF700FC0346FB720D4B00225D
:103CF0001A700D4B1B78002B05D00B4B00221A704D
:103D00000A4B01221A700A4B1B68184603F002FA8C
:103D1000074B1B68184603F06FFAFB7A18461037FA
:103D2000BD4680BD5D0700205C0700209218002082
:103D30006007002080B584B000AF78600023FB608E
:103D400006E07968F86801F0B5F9FB680133FB60BB
:103D5000FB68012BF5DD00BF1037BD4680BD00BFFD
:103D600080B582B000AF00237B6005E0786801F089
:103D7000EBF97B6801337B607B68012BF6DD00BFCC
:103D80000837BD4680BD00BF80B588B002AFF8607F
:103D9000C7E9002300237B6109E07B690093D7E931
:103DA0000023F86800F01CFF7B6901337B617B69AD
:103DB000012BF2DD00BF1837BD4680BD80B596B03F
:103DC00000AF786039603B683B650023FB640123EA
:103DD000BB6402237B6403233B641023FB637B6887
:103DE0009B681B68BB63BB6B1B697B63BB6B5B68BE
:103DF0003B6307F118030422396D184606F058F9A1
:103E00003B6D04333B6500237B655EE0FA6B07F195
:103E10000803396D184606F04BF9FB6B3A6D1344F5
:103E20003B657B6B5A68FB6C9B0007F158010B44A8
:103E300053F8503C1B0113441B68FB627B6B5A68B0
:103E4000FB6C9B0007F158010B4453F8503C1B01DD
:103E500013449B68BB623B6C9B0007F15802134400
:103E600053F8503C9B003A6B13441B68BA6A002A13
:103E700001D0022200E0012202FB03F37B627B6C93
:103E80009B0007F15802134453F8503C7A6A02FB36
:103E900003F33B62BB6C9B0007F15802134453F8D9
:103EA000503C7A6A02FB03F31A46FB6A1344FB6137
:103EB0003B6A1A46396DF86906F0FAF83B6A3A6DC2
:103EC00013443B657B6D01337B65BB697A6D9A4218
:103ED0009CDB00BF5837BD4680BD00BF80B491B0A9
:103EE00000AFF860B9607A60FB689B681B68FB6391
:103EF000FB6BDB68BB63FB6B5B687B6300233B6333
:103F00000123FB620223BB6203237B62BB6B5A6803
:103F10003B6B9B00B9680B441B681B0113441B6877
:103F20003B62BB6B5A683B6B9B00B9680B441B68D8
:103F30001B0113449B68FB617B6A9B00BA681344B6
:103F40001B689B007A6B13441B68FA69002A01D036
:103F5000022200E0012202FB03F3BB61BB6A9B006B
:103F6000BA6813441B68BA6902FB03F37B61FB6AFE
:103F70009B00BA6813441B68BA6902FB03F33B61F8
:103F80003B693A6A1A447B681A607B687A695A60AE
:103F900000BF4437BD465DF8047B704790B593B0D1
:103FA00000AFF860B9607A603B603B681B683B64B7
:103FB000002387F83F3007F128030422396C1846A4
:103FC00006F076F83B6C04333B64FB681A68BB6A06
:103FD0009B0013441A687B681A6007F12C030422C3
:103FE000396C184606F064F83B6C04333B64BB68DC
:103FF0000421184605F07AFC03461A467B685A608D
:104000007B685B68002B03D1012387F83F3076E0A3
:1040100000237B646FE007F124030422396C184607
:1040200006F046F83B6C04333B647B685A687B6A55
:104030009B00D4180C21012005F058FC0346236096
:104040007B685A687B6A9B0013441B68002B03D172
:10405000012387F83F3052E07B685A687B6A9B00F7
:1040600013441B687B637B6B0422396C184606F093
:104070001FF83B6C04333B647B6B1B6808211846BC
:1040800005F034FC03461A467B6B5A607B6B5B6819
:10409000002B04D1012387F83F3000BF2FE000231D
:1040A000BB6320E07B6B5A68BB6BDB0013443B6354
:1040B00007F114031022396C184605F0F9FF3B6C28
:1040C00010333B6407F114033A6B1946F868FFF7A5
:1040D00005FF7B6B9A683B6B5B681A447B6B9A604D
:1040E000BB6B0133BB637B6B1A68BB6B9A42D9DC39
:1040F0007B6C01337B64FB6A7A6C9A428BDB3B6896
:104100003A6C1A6097F83F3018464C37BD4690BD60
:1041100080B584B000AF786039600023FB733B68E2
:10412000002B02DA0123FB7325E07B6801221A6071
:104130003B68002B0EDD3B68184605F059FF03462F
:104140001A467B689A607B689B68002B05D1012327
:10415000FB7310E07B6800229A607B683A685A60C3
:104160007B689A687B68DA607B689A687B681A610A
:104170007B6800225A61FB7B18461037BD4680BD24
:1041800090B587B000AF78607A681346DB009B1A61
:104190001B012E4A13447B617B6920333B613B69E1
:1041A0003033FB60FB685B68002B07D0FB685B6803
:1041B000184605F025FFFB6800225A603B69DB6B5F
:1041C000002B07D03B69DB6B184605F019FF3B69F4
:1041D0000022DA633B6900221A703B6900229A6070
:1041E0003B690022DA603B6900221A613B690122C7
:1041F0005A613B6900229A613A694FF000034FF01F
:104200000004C2E908343B6900229A623B6900223B
:10421000DA623B6900221A633B6900225A633B69F8
:1042200000229A633B690022DA633B6900221A6428
:104230003B6900225A643B6900229A643B69002270
:10424000DA6400BF1C37BD4690BD00BF7807002070
:1042500080B584B000AF78607A681346DB009B1AA3
:104260001B01144A1344FB60134A7B6813441B78F8
:10427000002B09D070220021F86805F024FF0E4AB7
:104280007B68134400221A70FB6800225A60FB68A6
:1042900000229A60FB680022DA60FB6800229A61C3
:1042A000FB6800225A617868FFF76AFF00BF103789
:1042B000BD4680BD780700209018002080B586B0EC
:1042C00000AF786039607A681346DB009B1A1B01E7
:1042D0003B4A1344FB60FB685B68002B6BD00023F8
:1042E0007B612EE0FB689A687B69DB0013445B68A6
:1042F000BB6000233B611AE03B699B00BA68134432
:104300001B68002B10D03B699B00BA6813441B68E4
:104310005B68184605F074FE3B699B00BA6813445D
:104320001B68184605F06CFE3B6901333B613A6936
:104330003B689A42E0DBB86805F062FE7B690133B6
:104340007B61FB685A687B699A42CBDCFB689B689F
:10435000184605F055FEFB68DB68002B1AD00023D9
:104360007B610EE0FB68D9687A691346DB009B1A13
:104370009B000B449B68184605F042FE7B690133A5
:104380007B617A693B689A42ECDBFB68DB68184624
:1043900005F036FEFB689B69184605F031FEFB68A8
:1043A0005B69184605F02CFE7868FFF7E9FE78682F
:1043B000FFF74EFF00E000BF1837BD4680BD00BFCD
:1043C0007807002080B485B000AF78607A68134623
:1043D000DB009B1A1B01134A1344FB60FB6893F834
:1043E0002030052B18D801A252F823F017440008FA
:1043F0001744000817440008174400080544000843
:1044000005440008FB68052283F82020FB684FF074
:10441000FF32DA6200E000BF00BF1437BD465DF82E
:10442000047B70477807002080B58AB000AFF86041
:10443000B9607A603B600023FB777B687B613A68F8
:104440001346DB009B1A1B01564A1344BB61BB6930
:104450003A681A60B9683868FFF730FFBB690433FF
:1044600079690422184605F023FE7B6904337B61D9
:10447000BB695B680821184605F038FA03461A46FE
:10448000BB699A60BB699B68002B02D10123FB7753
:104490007BE000233B6212E0BB699A683B6ADB0069
:1044A0001A4407F11403B968F868FFF777FD03466B
:1044B000FB77FB7F002B65D13B6A01333B62BB6915
:1044C0005A683B6A9A42E7DCBB681C21184605F033
:1044D0000DFA03461A46BB69DA6000237B620023AB
:1044E0003B6228E0796907F110030422184605F0C1
:1044F000DFFD7B6904337B61BB69D9683A6A134687
:10450000DB009B1A9B000B443A6911461846FFF7E3
:10451000FFFD0346FB77FB7F002B35D13B69002B6A
:1045200014BF01230023DBB21A467B6A13447B626B
:104530003B6A01333B623A6ABB689A42D2DBBB6991
:1045400000221A617B6A1B01184605F051FD0346E3
:104550001A46BB699A61BB699B69002B02D1012392
:10456000FB7712E07B6A9B00184605F041FD03468D
:104570001A46BB695A61BB695B69002B05D10123EF
:10458000FB7702E000BF00E000BFFB7F002B03D001
:10459000B9683868FFF792FEFB7F18462837BD469A
:1045A00080BD00BF7807002080B592B000AFF860F2
:1045B000B9607A60002387F84730BB683B647A684B
:1045C0001346DB009B1A1B012033694A1344BB636B
:1045D00007F128030422396C184605F069FD3B6C8D
:1045E00004333B64BA6ABB6B5A60BB6B083304226A
:1045F000396C184605F05CFD3B6C04333B64BB6BC7
:104600000C330422396C184605F052FD3B6C043320
:104610003B64BB6B10330422396C184605F048FD2F
:104620003B6C04333B64BB6B30330422396C18465B
:1046300005F03EFD3B6C04333B64BB6B1B6B7B6343
:104640007B6B002B4DDDBB6B30333B637B6BDB0047
:10465000184605F0CDFC03461A463B6B5A603B6B8F
:104660005B68002B03D1012387F8473073E00023F8
:10467000FB6320E03B6B5A68FB6BDB001344FB627F
:1046800007F114031022396C184605F011FD3B6C3C
:1046900010333B6407F11403FA6A1946F868FFF710
:1046A0001DFC3B6B9A68FB6A5B681A443B6B9A6023
:1046B000FB6B0133FB633B6B1A68FB6B9A42D9DCE3
:1046C0003B6B9B68184605F093FC03461A46BB6B90
:1046D000DA63BB6BDB6B002B03D1012387F8473018
:1046E00039E007F124030422396C184605F0E0FC98
:1046F0003B6C04333B647B6A002B02D07B6A022B49
:1047000001D1012200E00022BB6B5A617B6A012BC0
:1047100002D07B6A022B01D1012200E00022BB6B98
:104720009A61BB6B20330822396C184605F0C0FC37
:104730003B6C08333B64BB6B1B69002B08DABB6B1B
:104740001B695A42BB6B5A64BB6B00221A6102E0C0
:10475000BB6B00225A6497F84730002B02D0786870
:10476000FFF70EFD97F8473018464837BD4680BD25
:104770007807002080B487B000AF786039607A682D
:104780001346DB009B1A1B01204A13443B61204B5C
:1047900000221A703B690022DA6400237B611DE06D
:1047A0003B69D9687A691346DB009B1A9B000B446E
:1047B000FB60FB685B68002B0DDDFB689A68FB689B
:1047C000DA60FB689A68FB681A61FB6800225A612C
:1047D000FB6801221A607B6901337B617A693B685F
:1047E0009A42DDDB3B6900229A643B6900221A662B
:1047F0003B6900229A663B69022283F8202000BFB1
:104800001C37BD465DF8047B704700BF7807002069
:104810007107002080B584B000AF786039607A6895
:104820001346DB009B1A1B01074A1344FB60FB681D
:10483000002283F8202039687868FFF73FFD00BF29
:104840001037BD4680BD00BF7807002080B485B01A
:1048500000AF78607A681346DB009B1A1B01164A8A
:104860001344FB60FB6893F82030052B1DD801A290
:1048700052F823F0A94800088D4800088D48000828
:104880008D4800088D4800089F480008FB684FF0DD
:10489000FF32DA62FB68052283F8202005E0FB681E
:1048A0004FF0FF32DA6200E000BF00BF1437BD46B0
:1048B0005DF8047B704700BF7807002080B485B0A6
:1048C00000AF786039603A681346DB009B1A1B0121
:1048D000124A1344FB60FB68D9687A681346DB0010
:1048E0009B1A9B000B44BB600D4B01221A70BB68E6
:1048F0005A69BB681A61BB681A69BB68DB689A426F
:104900000CBF01230023DBB21A46BB681A6000BF4C
:104910001437BD465DF8047B704700BF7807002060
:104920007107002080B489B000AFF860B9607A6088
:104930003B600023FB77FB689B68FA68526813446E
:10494000BB617B681A68FB681B699A4203D8FB68E5
:104950001B68002B4FD0BB697A6812689A1AFB68F3
:104960001B691946FB689B68CB1A13447B617A6903
:10497000BB689A4202DA0123FB775DE07B681A6824
:10498000BB681A44BB699A4213D23B68BA681A6082
:104990007B681A683B685A603B6800229A603B68F3
:1049A0000022DA607B681A68BB681A447B681A6068
:1049B00042E0BB697A6812689A1A3B681A607B68A1
:1049C0001A683B685A603B681B68BA68D21A3B6831
:1049D0009A603B689B68002B02DDFB689B6800E0E7
:1049E00000233A68D360FB689B683A6892681A446F
:1049F0007B681A6020E0FB681B691A467B681B68AD
:104A0000D31A7B617A69BB689A4202DA0123FB7789
:104A100012E03B68BA681A607B681A683B685A60A3
:104A20003B6800229A603B680022DA607B681A6863
:104A3000BB681A447B681A60FB7F18462437BD4662
:104A40005DF8047B704700BF90B58FB000AF786011
:104A50007A681346DB009B1A1B01604A1344BB6251
:104A6000BB6A20337B627B6ADB6B3B623B6A3B63E6
:104A700000237B63A4E07B6A5A6B7B6BDB001344EF
:104A8000FB61FB695B68DB08BB617B6A1B6C002B0D
:104A900000F086807B6AD3E90834C7E90434FB69F7
:104AA0001B68FB600023FB6276E07B6A5B69002B7E
:104AB00035D0FB6ADB00FA68134493ED006B97ED89
:104AC000047BB4EEC76BF1EE10FA0CDBFB6ADB0083
:104AD0003A6B134493ED006B97ED047BB4EEC76B18
:104AE000F1EE10FA19D4FB6ADB00FA68134493ED77
:104AF000006B97ED047BB4EEC76BF1EE10FA0EDDA0
:104B0000FB6ADB003A6B134493ED006B97ED047B7B
:104B1000B4EE476BF1EE10FA01D101235AE07B6A43
:104B20009B69002B35D0FB6ADB00FA68134493EDD8
:104B3000006B97ED047BB4EEC76BF1EE10FA0CD569
:104B4000FB6ADB003A6B134493ED006B97ED047B3B
:104B5000B4EEC76BF1EE10FA19DAFB6ADB00FA6803
:104B6000134493ED006B97ED047BB4EE476BF1EECD
:104B700010FA0ED1FB6ADB003A6B134493ED006B25
:104B800097ED047BB4EEC76BF1EE10FA01DD012363
:104B900020E0FB6A0133FB62FA6ABB699A4284DB5C
:104BA000FB691968FB695B681A46386B05F080FA87
:104BB000BB69DB003A6B13443B637B6B01337B6364
:104BC0007B6A1A6B7B6B9A423FF755AF7B6A012277
:104BD0001A64002318463C37BD4690BD7807002074
:104BE00080B5AAB000AFF860C7E90023D7F8B020BD
:104BF0001346DB009B1A1B01994A1344C7F89C30EB
:104C00000023C7F8A430D7F89C302033C7F8983079
:104C1000D7F89C30D968FA681346DB009B1A9B00D2
:104C20000B44C7F89430D7F898301B78022B2ED15C
:104C3000D7F898301B6B002B04D1D7F8983004229A
:104C40001A7024E0D7F898305A68FB689A421ED14F
:104C5000D7F8B000FFF7F8FE0346002B17D0D7F8BF
:104C600098301B69002B0AD1D7F8983004221A70AB
:104C7000D7F898309A6CD7F898309A6207E0D7F84E
:104C8000983003221A70D7F8983001229A62D7F828
:104C900098301B78022B06D1D7F898305B6C002B2C
:104CA00001DD012300E00023C7F89030D7F89830E9
:104CB0001B78042B04D0D7F89030002B00F0E6814D
:104CC000D7F894305B68002B00F0E081D7F894307F
:104CD000DB68BB620023C7F88C300123C7F888303B
:104CE0000223C7F884300323C7F880300423FB670E
:104CF00007F1140300221A605A609A60DA601A61A0
:104D0000FB6F9B0007F1A8021344D7F8B02043F8CB
:104D1000942CD7F89030002B3FD0D7F898309A6C6D
:104D2000D7F898305B6C9A4237D1D7F894309B68AB
:104D3000D7F8942052681344BB67D7F894301B69A6
:104D400004337B6707F110030422796F184605F0DE
:104D5000AFF93B6908333B61D7F894301B693A6976
:104D60001A44D7F894301A61D7F894301B691A4660
:104D7000BB6FD31A3B673B6F002B07DBD7F8943030
:104D80009A683B6F1A44D7F894301A61D7F8983074
:104D90009B6C5A1ED7F898309A641423FB6607F16F
:104DA0002C0307F12802F96ED7F89400FFF7BAFD3B
:104DB0000346C7F8A430D7F8A430002B40F05D813B
:104DC000FB6E083BFB66D7F888309B0007F1A80212
:104DD000134453F8942CFB6E1A44D7F888309B0088
:104DE00007F1A8010B4443F8942C07F13C0307F1A9
:104DF00028020821D7F89400FFF794FD0346C7F86E
:104E0000A430D7F8A430002B40F03981D7F888308F
:104E10009B0007F1A802134453F8943C08331A4648
:104E2000D7F888309B0007F1A8010B4443F8942C75
:104E30003B6CFA6B3946184605F03AF9BB6C002B0F
:104E40000AD0FB6B1A463B461344BB66BB6C7A6CBC
:104E5000B96E184605F02CF90023FB64C0E000BFD2
:104E600078070020D7F89C309A68FB6CDB0013446D
:104E70007B667B6E1B681B78002B00F0AE807B6E20
:104E80001B681B785BB2032B00F0A7807B6E5A680F
:104E9000FB689B0013441B683B663B6E002B00F0D5
:104EA0009C80D7F884309B0007F1A802134453F884
:104EB000943C5A1CD7F884309B0007F1A8010B449E
:104EC00043F8942C0423FB6607F13C0307F1280206
:104ED000F96ED7F89400FFF725FD0346C7F8A43014
:104EE000D7F8A430002B40F0CC80D7F888309B0056
:104EF00007F1A802134453F8942CFB6E1A44D7F818
:104F000088309B0007F1A8010B4443F8942C3B6CBC
:104F1000FA6B07F14C01184605F0CAF8BB6C002B80
:104F20000BD0FB6B1A4607F14C031344FB65BB6CBB
:104F30007A6CF96D184605F0BBF80023C7F8A0306D
:104F400045E03B6E5A68D7F8A030DB001344BB65E0
:104F5000BB6D596807F13C0307F12802D7F89400AC
:104F6000FFF7E0FC0346C7F8A430D7F8A430002BC5
:104F700040F08980D7F888309B0007F1A8021344DD
:104F800053F8942CBB6D5B681A44D7F888309B00AB
:104F900007F1A8010B4443F8942C386CBB6D1B68D7
:104FA000FA6B194605F084F8BB6C002B0AD0BB6D78
:104FB0001B68FA6B13447B65BB6C7A6C796D184681
:104FC00005F076F8D7F8A0300133C7F8A0303B6E73
:104FD0001A68D7F8A0309A42B3DCFB6C0133FB644B
:104FE000D7F89C305A68FB6C9A423FF73BAFD7F832
:104FF00084309B0007F1A802134453F8943C002B23
:1050000043D0D7F88C309B0007F1A80213441A2232
:1050100043F8942CD7F880309B0007F1A802134482
:10502000FA6843F8942C3B6BFA6A07F114011846AE
:1050300005F03EF8BB6B002B0BD0FB6A1A4607F15C
:10504000140313443B65BB6B7A6B396D184605F04E
:105050002FF8BA6AD7F89430DA60D7F89430002283
:105060001A60D7F89030002B10D0D7F898309B6C8E
:105070005A1CD7F898309A6408E000BF06E000BFD9
:1050800004E000BF02E000BF00E000BFD7F89030AE
:10509000002B0BD1D7F8A430002B07D0D7F89830CD
:1050A0000122DA62D7F8983005221A7000BFA837BB
:1050B000BD4680BD80B584B000AF786039607A6845
:1050C0001346DB009B1A1B011E4A1344FB60FB685E
:1050D0002033BB60BB681B78002B2CD0BB681B78CF
:1050E000012B0CD1BB689B6A591CBA689162BA68E3
:1050F000D268934221D139687868FFF73BFBBB68DF
:105100001B78032B1AD1BB689B6A591CBA68916241
:10511000BA681269934211DBBB689A6CBB689A62E9
:10512000BB6804221A70BB685B6C002B06DDBB6891
:105130000122DA6402E000BF00E000BF1037BD4684
:1051400080BD00BF7807002080B485B000AF7860D4
:105150007A681346DB009B1A1B01114A1344FB605B
:10516000FB682033BB60BB681B78002B12D0BB6888
:105170001B78042B0FD1BB689B6A5A1CBB689A62D0
:10518000BB689A6ABB689B689A4204D1BB680522D7
:105190001A7000E000BF1437BD465DF8047B70470D
:1051A0007807002080B48DB000AFF860B9607A60F5
:1051B000BA681346DB009B1A1B013C4A1344BB62CE
:1051C000BB6A10337B627B6A00221A600023FB6299
:1051D00055E0BB6AD968FA6A1346DB009B1A9B004C
:1051E0000B443B623B6A1B68002B45D13B6A1B6941
:1051F000FB613B6A5B68BB613B6ADB687B617B6A26
:105200009A687B6A1B681B0113443B617B6A5A687E
:105210007B6A1B689B001344FA6A1A607B6A1B68EE
:105220005A1C7B6A1A603B69FA695A603B6A7A6960
:105230005A617A69FB699A420BD97A69FB69D21A79
:105240003B691A603B6900229A603B690022DA6080
:1052500012E03B6A9A68BB6913441A46FB69D21A8A
:105260003B691A607B693A6A92689A1A3B699A604C
:105270003B6A9A683B69DA60FB6A0133FB62FA6A4F
:105280007B689A42A5DB7B6A1A68FB681A607B6AB6
:105290009A68FB685A607B6A5A68FB689A6000BF2C
:1052A0003437BD465DF8047B704700BF78070020A7
:1052B00080B485B000AF786039603A681346DB008F
:1052C0009B1A1B010A4A1344FB60FB681033BB6046
:1052D000BB6800221A60BB681A687B681A607B682A
:1052E00000225A6000BF1437BD465DF8047B70474A
:1052F0007807002080B588B000AFF860B9607A60A8
:10530000BA681346DB009B1A1B01274A1344FB6152
:10531000FB692033BB61BB691B78FB75FB7D042BEC
:1053200002D0FB7D052B34D1BB681946F868FFF726
:10533000BFFFBB687A681946F868FFF733FFFB6860
:105340001B68002B2BD1FB7D052B28D1174B00228E
:105350001A70BB69DB68B3F1FF3F0CD107F108039A
:105360001A4604212020FEF7BFF8BB68796818466A
:10537000FFF750FA13E007F108031A4604211F2033
:10538000FEF7B2F8BB6900229A62BB6901221A706B
:1053900005E0BB681946F868FFF78AFF00E000BF28
:1053A00000BF2037BD4680BD780700207107002070
:1053B00080B584B000AFF860B9607A60FEF760FA3B
:1053C0000346002B14D00BE00F490020FEF70AFB28
:1053D0007A68B968F868FEF717FBB868FEF7C2FA92
:1053E0000A4B1B68002B03D17B681B78002BEBD08A
:1053F000074B1B78DBB2042B02D0054B03221A703B
:1054000000BF1037BD4680BDD8B805005808002041
:105410009218002080B584B000AFF860B9607A605F
:10542000084B1B78DBB2042B07D07A68B968F868A0
:10543000FEF7EAFAB868FEF795FA00BF1037BD46E6
:1054400080BD00BF9218002080B584B000AFF86026
:10545000C7E90023D7E90023F868FEF795FC00BFF1
:105460001037BD4680BD00BF80B500AFFEF778FCA9
:1054700000BF80BD80B582B000AF78607868FEF76D
:1054800059FC00BF0837BD4680BD00BF80B582B063
:1054900000AF7860FEF77CFA00BF0837BD4680BDDC
:1054A00080B582B000AF78607868FEF701FC00BF7D
:1054B0000837BD4680BD00BF90B482B000AF7860B1
:1054C0000E4B93ED007BB5EEC07BF1EE10FA09DADE
:1054D0000A4B93ED007BBFEE006BB4EE467BF1EE22
:1054E00010FA05D1054BD3E900347A68C2E90034DB
:1054F00000BF0837BD4690BC704700BF9818002019
:1055000080B582B000AF78607868FFF7D5FF00BF44
:105510000837BD4680BD00BF80B582B000AF78605F
:10552000396000210020FEF779F900BF0837BD4639
:1055300080BD00BF80B400AF00BFBD465DF8047BF6
:10554000704700BF80B58AB000AFF860B9607A607C
:1055500000237B62BB683B624FF0FF33FB611BE0C3
:105560007A68FB69934228BF1346BB6107F11403B5
:10557000BA69396AF86801F0D9FE78627B6AB3F1DA
:10558000FF3F01D17B6A0BE07B697A68D31A7B60AD
:105590007B693A6A13443B627B68002BE0D17B6AEB
:1055A00018462837BD4680BD80B58AB000AFF86088
:1055B000B9607A6000237B62BB683B624FF0FF33C7
:1055C000FB611BE07A68FB69934228BF1346BB610D
:1055D00007F11403BA69396AF86801F0CDFE786200
:1055E0007B6AB3F1FF3F01D17B6A0BE07B697A688C
:1055F000D31A7B607B693A6A13443B627B68002B59
:10560000E0D17B6A18462837BD4680BD80B483B0A0
:1056100000AF03463960FB7197F90730002B0BDAB6
:105620000D49FB7903F00F03043B3A68D2B2120133
:10563000D2B20B441A7609E0084997F907303A6864
:10564000D2B21201D2B20B4483F8002300BF0C3750
:10565000BD465DF8047B704700ED00E000E100E02E
:1056600080B500AFFBF722FE00F008F800216FF0D4
:105670000400FFF7CBFF00BF80BD00BF80B596B030
:1056800000AF002387F85730294A294B1B6C43F0A1
:1056900080531364264B1B6C03F08053BB60BB68C4
:1056A000244A244B1B6843F440431360214B1B687E
:1056B00003F440437B607B680123FB604FF480333D
:1056C0003B6102237B624FF48003BB621923FB62C0
:1056D0004FF4C8733B6302237B630823BB6307F16A
:1056E0000C031846FBF74CFE034687F85730FBF7D0
:1056F0000FFE034687F857300F233B6402237B6479
:105700000023BB644FF4A053FB644FF480533B650C
:1057100007F1400305211846FCF724F8034687F8F3
:10572000573097F8573018465837BD4680BD00BFF0
:10573000003802400070004080B483B000AF786051
:105740007B6818460C37BD465DF8047B704700BF88
:1057500080B483B000AF786039603B6818460C377E
:10576000BD465DF8047B704780B584B000AFF8603B
:10577000B9607A60FB681B681C331B687A68B9687B
:10578000F8689847034618461037BD4680BD00BFED
:1057900080B582B000AF78607B681B6814331B68EB
:1057A00078689847034618460837BD4680BD00BF55
:1057B00080B582B000AF78607B681B6828331B68B7
:1057C00078689847034618460837BD4680BD00BF35
:1057D00090B583B000AF7860164A7B681A607B682A
:1057E0009033002B0CD07B68903303F120047B684E
:1057F00090339C4204D0103C204600F0F9F9F6E7C3
:105800007B683833184600F0E1F97B682833184686
:1058100000F0DCF97B680433184600F0CBF9002374
:10582000002B02D07868FBF7EDF87B6818460C3740
:10583000BD4690BDCCBD000880B582B000AF786099
:105840007868FFF7C5FF7868FBF7DCF87B681846D7
:105850000837BD4680BD00BF80B582B000AF78601C
:105860000F4A7B681A600F4A7B68C3F8B4207B68D4
:10587000C8331846FFF760FF7B68B433184601F061
:10588000D5FF7B681846FFF7A3FF0023002B02D04B
:105890007868FBF7B7F87B6818460837BD4680BDC7
:1058A00078BC000898BC0008A0F1B400D4E700BFA1
:1058B00080B582B000AF78607868FFF7CDFF786878
:1058C000FBF7A0F87B6818460837BD4680BD00BFCF
:1058D000A0F1B400ECE700BF90B58DB002AFF86066
:1058E0007B600B467B8113463B81F868B7F9082043
:1058F000B7F90A104FF416530093002301F026FF66
:10590000214AFB681A60214AFB68C3F8B420B7F942
:105910000830B3F1FF3F29D0FC681D4B3B620023E8
:105920007B6207F1100007F120030CCBF96800F04F
:1059300087F907F1100300221946204602F0AEF85D
:1059400007F11003184600F053F97A68FB68C3F8B2
:10595000D8207B681846FBF745F803461A46FB68D3
:10596000C3F8CC20F86800F083F807E0FB68002259
:10597000C3F8D820FB680022C3F8CC2000BFFB6826
:1059800018462C37BD4690BDCCBB0008ECBB0008C8
:105990008D5B000890B58BB000AF7860264A7B68BD
:1059A0001A60264A7B68C3F8B4207C6807F10803B4
:1059B0000021184600F02EF907F1080300221946CD
:1059C000204602F06BF807F10803184600F010F9C2
:1059D0007C6807F118030021184600F01BF907F155
:1059E000180301221946204602F058F807F118035F
:1059F000184600F0FDF87B68D3F8CC30002B0AD0B5
:105A00007B68D3F8CC30002B05D07B68D3F8CC3042
:105A10001846FAF7F3FF00BF7B681846FFF71CFF34
:105A20000023002B02D07868FAF7ECFF7B68184659
:105A30002C37BD4690BD00BFCCBB0008ECBB0008B6
:105A4000A0F1B400FFF7A6BF80B582B000AF7860C8
:105A50007868FFF79FFF7868FAF7D4FF7B681846ED
:105A60000837BD4680BD00BFA0F1B400FFF7ECBF12
:105A700080B483B000AF78607B680022C3F8D02088
:105A80007B680022C3F8D4207B680022C3F8DC20A6
:105A900000BF0C37BD465DF8047B704780B483B00F
:105AA00000AF78600B46FB707B68D3F8CC30002BDE
:105AB0001FD07B68D3F8D4207B68D3F8D8309A42C3
:105AC00003D37B680022C3F8D4207B68D3F8CC20B2
:105AD0007B68D3F8D430581C7968C1F8D4001344DB
